{
  "_format": "hh-sol-artifact-1",
  "contractName": "Authorizer",
  "sourceName": "contracts/Authorizer.sol",
  "abi": [
    {
      "inputs": [
        {
          "internalType": "address",
          "name": "admin",
          "type": "address"
        }
      ],
      "stateMutability": "nonpayable",
      "type": "constructor"
    },
    {
      "anonymous": false,
      "inputs": [
        {
          "indexed": true,
          "internalType": "bytes32",
          "name": "role",
          "type": "bytes32"
        },
        {
          "indexed": true,
          "internalType": "bytes32",
          "name": "previousAdminRole",
          "type": "bytes32"
        },
        {
          "indexed": true,
          "internalType": "bytes32",
          "name": "newAdminRole",
          "type": "bytes32"
        }
      ],
      "name": "RoleAdminChanged",
      "type": "event"
    },
    {
      "anonymous": false,
      "inputs": [
        {
          "indexed": true,
          "internalType": "bytes32",
          "name": "role",
          "type": "bytes32"
        },
        {
          "indexed": true,
          "internalType": "address",
          "name": "account",
          "type": "address"
        },
        {
          "indexed": true,
          "internalType": "address",
          "name": "sender",
          "type": "address"
        },
        {
          "indexed": false,
          "internalType": "address",
          "name": "where",
          "type": "address"
        }
      ],
      "name": "RoleGranted",
      "type": "event"
    },
    {
      "anonymous": false,
      "inputs": [
        {
          "indexed": true,
          "internalType": "bytes32",
          "name": "role",
          "type": "bytes32"
        },
        {
          "indexed": true,
          "internalType": "address",
          "name": "account",
          "type": "address"
        },
        {
          "indexed": true,
          "internalType": "address",
          "name": "sender",
          "type": "address"
        }
      ],
      "name": "RoleGrantedGlobally",
      "type": "event"
    },
    {
      "anonymous": false,
      "inputs": [
        {
          "indexed": true,
          "internalType": "bytes32",
          "name": "role",
          "type": "bytes32"
        },
        {
          "indexed": true,
          "internalType": "address",
          "name": "account",
          "type": "address"
        },
        {
          "indexed": true,
          "internalType": "address",
          "name": "sender",
          "type": "address"
        },
        {
          "indexed": false,
          "internalType": "address",
          "name": "where",
          "type": "address"
        }
      ],
      "name": "RoleRevoked",
      "type": "event"
    },
    {
      "anonymous": false,
      "inputs": [
        {
          "indexed": true,
          "internalType": "bytes32",
          "name": "role",
          "type": "bytes32"
        },
        {
          "indexed": true,
          "internalType": "address",
          "name": "account",
          "type": "address"
        },
        {
          "indexed": true,
          "internalType": "address",
          "name": "sender",
          "type": "address"
        }
      ],
      "name": "RoleRevokedGlobally",
      "type": "event"
    },
    {
      "inputs": [],
      "name": "DEFAULT_ADMIN_ROLE",
      "outputs": [
        {
          "internalType": "bytes32",
          "name": "",
          "type": "bytes32"
        }
      ],
      "stateMutability": "view",
      "type": "function"
    },
    {
      "inputs": [],
      "name": "GLOBAL_ROLE_ADMIN",
      "outputs": [
        {
          "internalType": "address",
          "name": "",
          "type": "address"
        }
      ],
      "stateMutability": "view",
      "type": "function"
    },
    {
      "inputs": [
        {
          "internalType": "bytes32",
          "name": "actionId",
          "type": "bytes32"
        },
        {
          "internalType": "address",
          "name": "account",
          "type": "address"
        },
        {
          "internalType": "address",
          "name": "where",
          "type": "address"
        }
      ],
      "name": "canPerform",
      "outputs": [
        {
          "internalType": "bool",
          "name": "",
          "type": "bool"
        }
      ],
      "stateMutability": "view",
      "type": "function"
    },
    {
      "inputs": [
        {
          "internalType": "bytes32",
          "name": "role",
          "type": "bytes32"
        }
      ],
      "name": "getRoleAdmin",
      "outputs": [
        {
          "internalType": "bytes32",
          "name": "",
          "type": "bytes32"
        }
      ],
      "stateMutability": "view",
      "type": "function"
    },
    {
      "inputs": [
        {
          "internalType": "bytes32",
          "name": "role",
          "type": "bytes32"
        },
        {
          "internalType": "uint256",
          "name": "index",
          "type": "uint256"
        }
      ],
      "name": "getRoleGlobalMember",
      "outputs": [
        {
          "internalType": "address",
          "name": "",
          "type": "address"
        }
      ],
      "stateMutability": "view",
      "type": "function"
    },
    {
      "inputs": [
        {
          "internalType": "bytes32",
          "name": "role",
          "type": "bytes32"
        }
      ],
      "name": "getRoleGlobalMemberCount",
      "outputs": [
        {
          "internalType": "uint256",
          "name": "",
          "type": "uint256"
        }
      ],
      "stateMutability": "view",
      "type": "function"
    },
    {
      "inputs": [
        {
          "internalType": "bytes32",
          "name": "role",
          "type": "bytes32"
        },
        {
          "internalType": "uint256",
          "name": "index",
          "type": "uint256"
        },
        {
          "internalType": "address",
          "name": "where",
          "type": "address"
        }
      ],
      "name": "getRoleMemberByContract",
      "outputs": [
        {
          "internalType": "address",
          "name": "",
          "type": "address"
        }
      ],
      "stateMutability": "view",
      "type": "function"
    },
    {
      "inputs": [
        {
          "internalType": "bytes32",
          "name": "role",
          "type": "bytes32"
        },
        {
          "internalType": "address",
          "name": "where",
          "type": "address"
        }
      ],
      "name": "getRoleMemberCountByContract",
      "outputs": [
        {
          "internalType": "uint256",
          "name": "",
          "type": "uint256"
        }
      ],
      "stateMutability": "view",
      "type": "function"
    },
    {
      "inputs": [
        {
          "internalType": "bytes32",
          "name": "role",
          "type": "bytes32"
        },
        {
          "internalType": "address",
          "name": "account",
          "type": "address"
        },
        {
          "internalType": "address[]",
          "name": "where",
          "type": "address[]"
        }
      ],
      "name": "grantRole",
      "outputs": [],
      "stateMutability": "nonpayable",
      "type": "function"
    },
    {
      "inputs": [
        {
          "internalType": "bytes32",
          "name": "role",
          "type": "bytes32"
        },
        {
          "internalType": "address",
          "name": "account",
          "type": "address"
        }
      ],
      "name": "grantRoleGlobally",
      "outputs": [],
      "stateMutability": "nonpayable",
      "type": "function"
    },
    {
      "inputs": [
        {
          "internalType": "bytes32[]",
          "name": "roles",
          "type": "bytes32[]"
        },
        {
          "internalType": "address",
          "name": "account",
          "type": "address"
        },
        {
          "internalType": "address[]",
          "name": "where",
          "type": "address[]"
        }
      ],
      "name": "grantRoles",
      "outputs": [],
      "stateMutability": "nonpayable",
      "type": "function"
    },
    {
      "inputs": [
        {
          "internalType": "bytes32[]",
          "name": "roles",
          "type": "bytes32[]"
        },
        {
          "internalType": "address",
          "name": "account",
          "type": "address"
        }
      ],
      "name": "grantRolesGlobally",
      "outputs": [],
      "stateMutability": "nonpayable",
      "type": "function"
    },
    {
      "inputs": [
        {
          "internalType": "bytes32[]",
          "name": "roles",
          "type": "bytes32[]"
        },
        {
          "internalType": "address[]",
          "name": "accounts",
          "type": "address[]"
        }
      ],
      "name": "grantRolesGloballyToMany",
      "outputs": [],
      "stateMutability": "nonpayable",
      "type": "function"
    },
    {
      "inputs": [
        {
          "internalType": "bytes32[]",
          "name": "roles",
          "type": "bytes32[]"
        },
        {
          "internalType": "address[]",
          "name": "accounts",
          "type": "address[]"
        },
        {
          "internalType": "address[]",
          "name": "where",
          "type": "address[]"
        }
      ],
      "name": "grantRolesToMany",
      "outputs": [],
      "stateMutability": "nonpayable",
      "type": "function"
    },
    {
      "inputs": [
        {
          "internalType": "bytes32",
          "name": "role",
          "type": "bytes32"
        },
        {
          "internalType": "address",
          "name": "account",
          "type": "address"
        },
        {
          "internalType": "address",
          "name": "where",
          "type": "address"
        }
      ],
      "name": "hasRole",
      "outputs": [
        {
          "internalType": "bool",
          "name": "",
          "type": "bool"
        }
      ],
      "stateMutability": "view",
      "type": "function"
    },
    {
      "inputs": [
        {
          "internalType": "bytes32",
          "name": "role",
          "type": "bytes32"
        },
        {
          "internalType": "address",
          "name": "account",
          "type": "address"
        },
        {
          "internalType": "address[]",
          "name": "where",
          "type": "address[]"
        }
      ],
      "name": "renounceRole",
      "outputs": [],
      "stateMutability": "nonpayable",
      "type": "function"
    },
    {
      "inputs": [
        {
          "internalType": "bytes32",
          "name": "role",
          "type": "bytes32"
        },
        {
          "internalType": "address",
          "name": "account",
          "type": "address"
        }
      ],
      "name": "renounceRoleGlobally",
      "outputs": [],
      "stateMutability": "nonpayable",
      "type": "function"
    },
    {
      "inputs": [
        {
          "internalType": "bytes32",
          "name": "role",
          "type": "bytes32"
        },
        {
          "internalType": "address",
          "name": "account",
          "type": "address"
        },
        {
          "internalType": "address[]",
          "name": "where",
          "type": "address[]"
        }
      ],
      "name": "revokeRole",
      "outputs": [],
      "stateMutability": "nonpayable",
      "type": "function"
    },
    {
      "inputs": [
        {
          "internalType": "bytes32",
          "name": "role",
          "type": "bytes32"
        },
        {
          "internalType": "address",
          "name": "account",
          "type": "address"
        }
      ],
      "name": "revokeRoleGlobally",
      "outputs": [],
      "stateMutability": "nonpayable",
      "type": "function"
    },
    {
      "inputs": [
        {
          "internalType": "bytes32[]",
          "name": "roles",
          "type": "bytes32[]"
        },
        {
          "internalType": "address",
          "name": "account",
          "type": "address"
        },
        {
          "internalType": "address[]",
          "name": "where",
          "type": "address[]"
        }
      ],
      "name": "revokeRoles",
      "outputs": [],
      "stateMutability": "nonpayable",
      "type": "function"
    },
    {
      "inputs": [
        {
          "internalType": "bytes32[]",
          "name": "roles",
          "type": "bytes32[]"
        },
        {
          "internalType": "address[]",
          "name": "accounts",
          "type": "address[]"
        },
        {
          "internalType": "address[]",
          "name": "where",
          "type": "address[]"
        }
      ],
      "name": "revokeRolesFromMany",
      "outputs": [],
      "stateMutability": "nonpayable",
      "type": "function"
    },
    {
      "inputs": [
        {
          "internalType": "bytes32[]",
          "name": "roles",
          "type": "bytes32[]"
        },
        {
          "internalType": "address",
          "name": "account",
          "type": "address"
        }
      ],
      "name": "revokeRolesGlobally",
      "outputs": [],
      "stateMutability": "nonpayable",
      "type": "function"
    },
    {
      "inputs": [
        {
          "internalType": "bytes32[]",
          "name": "roles",
          "type": "bytes32[]"
        },
        {
          "internalType": "address[]",
          "name": "accounts",
          "type": "address[]"
        }
      ],
      "name": "revokeRolesGloballyFromMany",
      "outputs": [],
      "stateMutability": "nonpayable",
      "type": "function"
    }
  ],
  "bytecode": "0x60806040523480156200001157600080fd5b5060405162001b2c38038062001b2c833981810160405260208110156200003757600080fd5b5051620000466000826200004d565b506200014e565b6200005982826200005d565b5050565b6000828152602081815260409091206200008291839062001343620000c4821b17901c565b15620000595760405133906001600160a01b0383169084907f287e752593aea8255aeaa7ea93d3e06807273ef2426cde02d5572ee69f16e96990600090a45050565b6000620000d283836200012d565b6200012357508154600180820184556000848152602080822090930180546001600160a01b0319166001600160a01b0386169081179091558554908252828601909352604090209190915562000127565b5060005b92915050565b6001600160a01b031660009081526001919091016020526040902054151590565b6119ce806200015e6000396000f3fe608060405234801561001057600080fd5b506004361061018d5760003560e01c80639aa167a2116100e3578063b5061e7a1161008c578063c7f0420311610066578063c7f0420314610c7d578063cc4f673514610cb6578063cdb7e18714610dc85761018d565b8063b5061e7a14610b79578063b52b585d14610bb2578063b559c89d14610c445761018d565b8063a217fddf116100bd578063a217fddf146109b8578063a38ca394146109c0578063abbb959214610ae75761018d565b80639aa167a21461094c5780639be2a884146109545780639dfea6a0146109955761018d565b8063583b7497116101455780637bb6d8ac1161011f5780637bb6d8ac1461066d5780638f109636146107e557806393a4bfc41461083a5761018d565b8063583b74971461047b5780635b852f821461050d5780636d5848a3146105465761018d565b8063434a46c511610176578063434a46c51461022957806343744f95146102e657806350acdbd1146103035761018d565b806314f82b0d14610192578063248a9ca3146101fa575b600080fd5b6101d1600480360360608110156101a857600080fd5b508035906020810135906040013573ffffffffffffffffffffffffffffffffffffffff16610e83565b6040805173ffffffffffffffffffffffffffffffffffffffff9092168252519081900360200190f35b6102176004803603602081101561021057600080fd5b5035610ec5565b60408051918252519081900360200190f35b6102e46004803603604081101561023f57600080fd5b81019060208101813564010000000081111561025a57600080fd5b82018360208201111561026c57600080fd5b8035906020019184602083028401116401000000008311171561028e57600080fd5b9190808060200260200160405190810160405280939291908181526020018383602002808284376000920191909152509295505050903573ffffffffffffffffffffffffffffffffffffffff169150610eda9050565b005b610217600480360360208110156102fc57600080fd5b5035610f10565b6102e46004803603606081101561031957600080fd5b81019060208101813564010000000081111561033457600080fd5b82018360208201111561034657600080fd5b8035906020019184602083028401116401000000008311171561036857600080fd5b91908080602002602001604051908101604052809392919081815260200183836020028082843760009201919091525092959493602081019350359150506401000000008111156103b857600080fd5b8201836020820111156103ca57600080fd5b803590602001918460208302840111640100000000831117156103ec57600080fd5b919080806020026020016040519081016040528093929190818152602001838360200280828437600092019190915250929594936020810193503591505064010000000081111561043c57600080fd5b82018360208201111561044e57600080fd5b8035906020019184602083028401116401000000008311171561047057600080fd5b509092509050610f2d565b6102e46004803603606081101561049157600080fd5b81359173ffffffffffffffffffffffffffffffffffffffff602082013516918101906060810160408201356401000000008111156104ce57600080fd5b8201836020820111156104e057600080fd5b8035906020019184602083028401116401000000008311171561050257600080fd5b509092509050610f86565b6102e46004803603604081101561052357600080fd5b508035906020013573ffffffffffffffffffffffffffffffffffffffff16611005565b6102e46004803603604081101561055c57600080fd5b81019060208101813564010000000081111561057757600080fd5b82018360208201111561058957600080fd5b803590602001918460208302840111640100000000831117156105ab57600080fd5b91908080602002602001604051908101604052809392919081815260200183836020028082843760009201919091525092959493602081019350359150506401000000008111156105fb57600080fd5b82018360208201111561060d57600080fd5b8035906020019184602083028401116401000000008311171561062f57600080fd5b91908080602002602001604051908101604052809392919081815260200183836020028082843760009201919091525092955061103f945050505050565b6102e46004803603606081101561068357600080fd5b81019060208101813564010000000081111561069e57600080fd5b8201836020820111156106b057600080fd5b803590602001918460208302840111640100000000831117156106d257600080fd5b919080806020026020016040519081016040528093929190818152602001838360200280828437600092019190915250929594936020810193503591505064010000000081111561072257600080fd5b82018360208201111561073457600080fd5b8035906020019184602083028401116401000000008311171561075657600080fd5b91908080602002602001604051908101604052809392919081815260200183836020028082843760009201919091525092959493602081019350359150506401000000008111156107a657600080fd5b8201836020820111156107b857600080fd5b803590602001918460208302840111640100000000831117156107da57600080fd5b50909250905061108f565b610826600480360360608110156107fb57600080fd5b5080359073ffffffffffffffffffffffffffffffffffffffff602082013581169160400135166110e1565b604080519115158252519081900360200190f35b6102e46004803603606081101561085057600080fd5b81019060208101813564010000000081111561086b57600080fd5b82018360208201111561087d57600080fd5b8035906020019184602083028401116401000000008311171561089f57600080fd5b919080806020026020016040519081016040528093929190818152602001838360200280828437600092019190915250929573ffffffffffffffffffffffffffffffffffffffff85351695909490935060408101925060200135905064010000000081111561090d57600080fd5b82018360208201111561091f57600080fd5b8035906020019184602083028401116401000000008311171561094157600080fd5b509092509050611139565b6101d161116c565b6108266004803603606081101561096a57600080fd5b5080359073ffffffffffffffffffffffffffffffffffffffff60208201358116916040013516611171565b6101d1600480360360408110156109ab57600080fd5b508035906020013561117e565b61021761116c565b6102e4600480360360408110156109d657600080fd5b8101906020810181356401000000008111156109f157600080fd5b820183602082011115610a0357600080fd5b80359060200191846020830284011164010000000083111715610a2557600080fd5b9190808060200260200160405190810160405280939291908181526020018383602002808284376000920191909152509295949360208101935035915050640100000000811115610a7557600080fd5b820183602082011115610a8757600080fd5b80359060200191846020830284011164010000000083111715610aa957600080fd5b91908080602002602001604051908101604052809392919081815260200183836020028082843760009201919091525092955061119d945050505050565b6102e460048036036060811015610afd57600080fd5b81359173ffffffffffffffffffffffffffffffffffffffff60208201351691810190606081016040820135640100000000811115610b3a57600080fd5b820183602082011115610b4c57600080fd5b80359060200191846020830284011164010000000083111715610b6e57600080fd5b5090925090506111ed565b6102e460048036036040811015610b8f57600080fd5b508035906020013573ffffffffffffffffffffffffffffffffffffffff16611223565b6102e460048036036060811015610bc857600080fd5b81359173ffffffffffffffffffffffffffffffffffffffff60208201351691810190606081016040820135640100000000811115610c0557600080fd5b820183602082011115610c1757600080fd5b80359060200191846020830284011164010000000083111715610c3957600080fd5b509092509050611251565b61021760048036036040811015610c5a57600080fd5b508035906020013573ffffffffffffffffffffffffffffffffffffffff16611282565b6102e460048036036040811015610c9357600080fd5b508035906020013573ffffffffffffffffffffffffffffffffffffffff166112bb565b6102e460048036036060811015610ccc57600080fd5b810190602081018135640100000000811115610ce757600080fd5b820183602082011115610cf957600080fd5b80359060200191846020830284011164010000000083111715610d1b57600080fd5b919080806020026020016040519081016040528093929190818152602001838360200280828437600092019190915250929573ffffffffffffffffffffffffffffffffffffffff853516959094909350604081019250602001359050640100000000811115610d8957600080fd5b820183602082011115610d9b57600080fd5b80359060200191846020830284011164010000000083111715610dbd57600080fd5b5090925090506112df565b6102e460048036036040811015610dde57600080fd5b810190602081018135640100000000811115610df957600080fd5b820183602082011115610e0b57600080fd5b80359060200191846020830284011164010000000083111715610e2d57600080fd5b9190808060200260200160405190810160405280939291908181526020018383602002808284376000920191909152509295505050903573ffffffffffffffffffffffffffffffffffffffff1691506113129050565b60008381526020818152604080832073ffffffffffffffffffffffffffffffffffffffff851684526002019091528120610ebd90846113cb565b949350505050565b60009081526020819052604090206003015490565b60005b8251811015610f0b57610f03838281518110610ef557fe5b602002602001015183611005565b600101610edd565b505050565b6000818152602081905260408120610f27906113e7565b92915050565b610f39845184516113eb565b60005b8451811015610f7f57610f77858281518110610f5457fe5b6020026020010151858381518110610f6857fe5b60200260200101518585611251565b600101610f3c565b5050505050565b610f9381151560676113f4565b610fbf610fb7600080878152602001908152602001600020600301543360006110e1565b6101a66113f4565b60005b81811015610f7f57610ffd8585858585818110610fdb57fe5b9050602002013573ffffffffffffffffffffffffffffffffffffffff16611402565b600101610fc2565b611031611029600080858152602001908152602001600020600301543360006110e1565b6101a76113f4565b61103b8282611519565b5050565b61104b825182516113eb565b60005b8251811015610f0b5761108783828151811061106657fe5b602002602001015183838151811061107a57fe5b6020026020010151611223565b60010161104e565b61109b845184516113eb565b60005b8451811015610f7f576110d98582815181106110b657fe5b60200260200101518583815181106110ca57fe5b60200260200101518585610f86565b60010161109e565b60008381526020819052604081206110f9908461157f565b80610ebd575060008481526020818152604080832073ffffffffffffffffffffffffffffffffffffffff861684526002019091529020610ebd908461157f565b60005b8451811015610f7f5761116485828151811061115457fe5b6020026020010151858585610f86565b60010161113c565b600081565b6000610ebd8484846110e1565b600082815260208190526040812061119690836113cb565b9392505050565b6111a9825182516113eb565b60005b8251811015610f0b576111e58382815181106111c457fe5b60200260200101518383815181106111d857fe5b6020026020010151611005565b6001016111ac565b61121173ffffffffffffffffffffffffffffffffffffffff841633146101a86113f4565b61121d848484846115ad565b50505050565b611247610fb7600080858152602001908152602001600020600301543360006110e1565b61103b82826116dd565b611275611029600080878152602001908152602001600020600301543360006110e1565b61121181151560676113f4565b60008281526020818152604080832073ffffffffffffffffffffffffffffffffffffffff851684526002019091528120611196906113e7565b61103173ffffffffffffffffffffffffffffffffffffffff821633146101a86113f4565b60005b8451811015610f7f5761130a8582815181106112fa57fe5b6020026020010151858585611251565b6001016112e2565b60005b8251811015610f0b5761133b83828151811061132d57fe5b602002602001015183611223565b600101611315565b600061134f838361157f565b6113c357508154600180820184556000848152602080822090930180547fffffffffffffffffffffffff00000000000000000000000000000000000000001673ffffffffffffffffffffffffffffffffffffffff861690811790915585549082528286019093526040902091909155610f27565b506000610f27565b81546000906113dd90831060646113f4565b6111968383611743565b5490565b61103b81831460675b8161103b5761103b8161177d565b73ffffffffffffffffffffffffffffffffffffffff811661148457604080517f08c379a000000000000000000000000000000000000000000000000000000000815260206004820181905260248201527f57686572652063616e277420626520474c4f42414c5f524f4c455f41444d494e604482015290519081900360640190fd5b60008381526020818152604080832073ffffffffffffffffffffffffffffffffffffffff8516845260020190915290206114be9083611343565b15610f0b576040805173ffffffffffffffffffffffffffffffffffffffff83811682529151339285169186917fcaba87d53b293d545d69ab305284377793434c6fb5428e6244bfadcd434223709181900360200190a4505050565b600082815260208190526040902061153190826117ea565b1561103b57604051339073ffffffffffffffffffffffffffffffffffffffff83169084907fd8476cf9ac7354675e06297f0a3b1f57e056db7e4cefe100071b4ade0983641590600090a45050565b73ffffffffffffffffffffffffffffffffffffffff1660009081526001919091016020526040902054151590565b60005b81811015610f7f576000858152602081905260408120611641918691600201908686868181106115dc57fe5b9050602002013573ffffffffffffffffffffffffffffffffffffffff1673ffffffffffffffffffffffffffffffffffffffff1673ffffffffffffffffffffffffffffffffffffffff1681526020019081526020016000206117ea90919063ffffffff16565b156116d5573373ffffffffffffffffffffffffffffffffffffffff8516867f473272920ac74dc08931f0d6687401dcb6dd700032e3935fc34aa5ab7245952786868681811061168c57fe5b9050602002013573ffffffffffffffffffffffffffffffffffffffff16604051808273ffffffffffffffffffffffffffffffffffffffff16815260200191505060405180910390a45b6001016115b0565b60008281526020819052604090206116f59082611343565b1561103b57604051339073ffffffffffffffffffffffffffffffffffffffff83169084907f287e752593aea8255aeaa7ea93d3e06807273ef2426cde02d5572ee69f16e96990600090a45050565b600082600001828154811061175457fe5b60009182526020909120015473ffffffffffffffffffffffffffffffffffffffff169392505050565b7f08c379a0000000000000000000000000000000000000000000000000000000006000908152602060045260076024526642414c23000030600a808404818106603090810160081b95839006959095019082900491820690940160101b939093010160c81b604452606490fd5b73ffffffffffffffffffffffffffffffffffffffff81166000908152600183016020526040812054801561198e5783547fffffffffffffffffffffffffffffffffffffffffffffffffffffffffffffffff80830191018082146118f357600086600001828154811061185857fe5b600091825260209091200154875473ffffffffffffffffffffffffffffffffffffffff9091169150819088908590811061188e57fe5b600091825260208083209190910180547fffffffffffffffffffffffff00000000000000000000000000000000000000001673ffffffffffffffffffffffffffffffffffffffff94851617905592909116815260018881019092526040902090830190555b85548690806118fe57fe5b6000828152602080822083017fffffffffffffffffffffffffffffffffffffffffffffffffffffffffffffffff90810180547fffffffffffffffffffffffff000000000000000000000000000000000000000016905590920190925573ffffffffffffffffffffffffffffffffffffffff87168252600188810190915260408220919091559350610f2792505050565b6000915050610f2756fea2646970667358221220a6d5b730478e9f0957ade9d902ea94cf9d2f20c722dc459ae03820e764af065b64736f6c63430007010033",
  "linkReferences": {},
  "deployedLinkReferences": {}
}