{
  "_format": "hh-sol-artifact-1",
  "contractName": "LiquidityBootstrappingPool",
  "sourceName": "contracts/smart/LiquidityBootstrappingPool.sol",
  "abi": [
    {
      "inputs": [
        {
          "internalType": "contract IVault",
          "name": "vault",
          "type": "address"
        },
        {
          "internalType": "string",
          "name": "name",
          "type": "string"
        },
        {
          "internalType": "string",
          "name": "symbol",
          "type": "string"
        },
        {
          "internalType": "contract IERC20[]",
          "name": "tokens",
          "type": "address[]"
        },
        {
          "internalType": "uint256[]",
          "name": "normalizedWeights",
          "type": "uint256[]"
        },
        {
          "internalType": "uint256",
          "name": "swapFeePercentage",
          "type": "uint256"
        },
        {
          "internalType": "uint256",
          "name": "pauseWindowDuration",
          "type": "uint256"
        },
        {
          "internalType": "uint256",
          "name": "bufferPeriodDuration",
          "type": "uint256"
        },
        {
          "internalType": "address",
          "name": "owner",
          "type": "address"
        },
        {
          "internalType": "bool",
          "name": "swapEnabledOnStart",
          "type": "bool"
        }
      ],
      "stateMutability": "nonpayable",
      "type": "constructor"
    },
    {
      "anonymous": false,
      "inputs": [
        {
          "indexed": true,
          "internalType": "address",
          "name": "owner",
          "type": "address"
        },
        {
          "indexed": true,
          "internalType": "address",
          "name": "spender",
          "type": "address"
        },
        {
          "indexed": false,
          "internalType": "uint256",
          "name": "value",
          "type": "uint256"
        }
      ],
      "name": "Approval",
      "type": "event"
    },
    {
      "anonymous": false,
      "inputs": [
        {
          "indexed": false,
          "internalType": "uint256",
          "name": "startTime",
          "type": "uint256"
        },
        {
          "indexed": false,
          "internalType": "uint256",
          "name": "endTime",
          "type": "uint256"
        },
        {
          "indexed": false,
          "internalType": "uint256[]",
          "name": "startWeights",
          "type": "uint256[]"
        },
        {
          "indexed": false,
          "internalType": "uint256[]",
          "name": "endWeights",
          "type": "uint256[]"
        }
      ],
      "name": "GradualWeightUpdateScheduled",
      "type": "event"
    },
    {
      "anonymous": false,
      "inputs": [
        {
          "indexed": false,
          "internalType": "bool",
          "name": "paused",
          "type": "bool"
        }
      ],
      "name": "PausedStateChanged",
      "type": "event"
    },
    {
      "anonymous": false,
      "inputs": [
        {
          "indexed": false,
          "internalType": "bool",
          "name": "swapEnabled",
          "type": "bool"
        }
      ],
      "name": "SwapEnabledSet",
      "type": "event"
    },
    {
      "anonymous": false,
      "inputs": [
        {
          "indexed": false,
          "internalType": "uint256",
          "name": "swapFeePercentage",
          "type": "uint256"
        }
      ],
      "name": "SwapFeePercentageChanged",
      "type": "event"
    },
    {
      "anonymous": false,
      "inputs": [
        {
          "indexed": true,
          "internalType": "address",
          "name": "from",
          "type": "address"
        },
        {
          "indexed": true,
          "internalType": "address",
          "name": "to",
          "type": "address"
        },
        {
          "indexed": false,
          "internalType": "uint256",
          "name": "value",
          "type": "uint256"
        }
      ],
      "name": "Transfer",
      "type": "event"
    },
    {
      "inputs": [],
      "name": "DOMAIN_SEPARATOR",
      "outputs": [
        {
          "internalType": "bytes32",
          "name": "",
          "type": "bytes32"
        }
      ],
      "stateMutability": "view",
      "type": "function"
    },
    {
      "inputs": [
        {
          "internalType": "address",
          "name": "owner",
          "type": "address"
        },
        {
          "internalType": "address",
          "name": "spender",
          "type": "address"
        }
      ],
      "name": "allowance",
      "outputs": [
        {
          "internalType": "uint256",
          "name": "",
          "type": "uint256"
        }
      ],
      "stateMutability": "view",
      "type": "function"
    },
    {
      "inputs": [
        {
          "internalType": "address",
          "name": "spender",
          "type": "address"
        },
        {
          "internalType": "uint256",
          "name": "amount",
          "type": "uint256"
        }
      ],
      "name": "approve",
      "outputs": [
        {
          "internalType": "bool",
          "name": "",
          "type": "bool"
        }
      ],
      "stateMutability": "nonpayable",
      "type": "function"
    },
    {
      "inputs": [
        {
          "internalType": "address",
          "name": "account",
          "type": "address"
        }
      ],
      "name": "balanceOf",
      "outputs": [
        {
          "internalType": "uint256",
          "name": "",
          "type": "uint256"
        }
      ],
      "stateMutability": "view",
      "type": "function"
    },
    {
      "inputs": [],
      "name": "decimals",
      "outputs": [
        {
          "internalType": "uint8",
          "name": "",
          "type": "uint8"
        }
      ],
      "stateMutability": "view",
      "type": "function"
    },
    {
      "inputs": [
        {
          "internalType": "address",
          "name": "spender",
          "type": "address"
        },
        {
          "internalType": "uint256",
          "name": "amount",
          "type": "uint256"
        }
      ],
      "name": "decreaseAllowance",
      "outputs": [
        {
          "internalType": "bool",
          "name": "",
          "type": "bool"
        }
      ],
      "stateMutability": "nonpayable",
      "type": "function"
    },
    {
      "inputs": [
        {
          "internalType": "bytes4",
          "name": "selector",
          "type": "bytes4"
        }
      ],
      "name": "getActionId",
      "outputs": [
        {
          "internalType": "bytes32",
          "name": "",
          "type": "bytes32"
        }
      ],
      "stateMutability": "view",
      "type": "function"
    },
    {
      "inputs": [],
      "name": "getAuthorizer",
      "outputs": [
        {
          "internalType": "contract IAuthorizer",
          "name": "",
          "type": "address"
        }
      ],
      "stateMutability": "view",
      "type": "function"
    },
    {
      "inputs": [],
      "name": "getGradualWeightUpdateParams",
      "outputs": [
        {
          "internalType": "uint256",
          "name": "startTime",
          "type": "uint256"
        },
        {
          "internalType": "uint256",
          "name": "endTime",
          "type": "uint256"
        },
        {
          "internalType": "uint256[]",
          "name": "endWeights",
          "type": "uint256[]"
        }
      ],
      "stateMutability": "view",
      "type": "function"
    },
    {
      "inputs": [],
      "name": "getInvariant",
      "outputs": [
        {
          "internalType": "uint256",
          "name": "",
          "type": "uint256"
        }
      ],
      "stateMutability": "view",
      "type": "function"
    },
    {
      "inputs": [],
      "name": "getLastInvariant",
      "outputs": [
        {
          "internalType": "uint256",
          "name": "",
          "type": "uint256"
        }
      ],
      "stateMutability": "view",
      "type": "function"
    },
    {
      "inputs": [],
      "name": "getNormalizedWeights",
      "outputs": [
        {
          "internalType": "uint256[]",
          "name": "",
          "type": "uint256[]"
        }
      ],
      "stateMutability": "view",
      "type": "function"
    },
    {
      "inputs": [],
      "name": "getOwner",
      "outputs": [
        {
          "internalType": "address",
          "name": "",
          "type": "address"
        }
      ],
      "stateMutability": "view",
      "type": "function"
    },
    {
      "inputs": [],
      "name": "getPausedState",
      "outputs": [
        {
          "internalType": "bool",
          "name": "paused",
          "type": "bool"
        },
        {
          "internalType": "uint256",
          "name": "pauseWindowEndTime",
          "type": "uint256"
        },
        {
          "internalType": "uint256",
          "name": "bufferPeriodEndTime",
          "type": "uint256"
        }
      ],
      "stateMutability": "view",
      "type": "function"
    },
    {
      "inputs": [],
      "name": "getPoolId",
      "outputs": [
        {
          "internalType": "bytes32",
          "name": "",
          "type": "bytes32"
        }
      ],
      "stateMutability": "view",
      "type": "function"
    },
    {
      "inputs": [],
      "name": "getRate",
      "outputs": [
        {
          "internalType": "uint256",
          "name": "",
          "type": "uint256"
        }
      ],
      "stateMutability": "view",
      "type": "function"
    },
    {
      "inputs": [],
      "name": "getScalingFactors",
      "outputs": [
        {
          "internalType": "uint256[]",
          "name": "",
          "type": "uint256[]"
        }
      ],
      "stateMutability": "view",
      "type": "function"
    },
    {
      "inputs": [],
      "name": "getSwapEnabled",
      "outputs": [
        {
          "internalType": "bool",
          "name": "",
          "type": "bool"
        }
      ],
      "stateMutability": "view",
      "type": "function"
    },
    {
      "inputs": [],
      "name": "getSwapFeePercentage",
      "outputs": [
        {
          "internalType": "uint256",
          "name": "",
          "type": "uint256"
        }
      ],
      "stateMutability": "view",
      "type": "function"
    },
    {
      "inputs": [],
      "name": "getVault",
      "outputs": [
        {
          "internalType": "contract IVault",
          "name": "",
          "type": "address"
        }
      ],
      "stateMutability": "view",
      "type": "function"
    },
    {
      "inputs": [
        {
          "internalType": "address",
          "name": "spender",
          "type": "address"
        },
        {
          "internalType": "uint256",
          "name": "addedValue",
          "type": "uint256"
        }
      ],
      "name": "increaseAllowance",
      "outputs": [
        {
          "internalType": "bool",
          "name": "",
          "type": "bool"
        }
      ],
      "stateMutability": "nonpayable",
      "type": "function"
    },
    {
      "inputs": [],
      "name": "name",
      "outputs": [
        {
          "internalType": "string",
          "name": "",
          "type": "string"
        }
      ],
      "stateMutability": "view",
      "type": "function"
    },
    {
      "inputs": [
        {
          "internalType": "address",
          "name": "owner",
          "type": "address"
        }
      ],
      "name": "nonces",
      "outputs": [
        {
          "internalType": "uint256",
          "name": "",
          "type": "uint256"
        }
      ],
      "stateMutability": "view",
      "type": "function"
    },
    {
      "inputs": [
        {
          "internalType": "bytes32",
          "name": "poolId",
          "type": "bytes32"
        },
        {
          "internalType": "address",
          "name": "sender",
          "type": "address"
        },
        {
          "internalType": "address",
          "name": "recipient",
          "type": "address"
        },
        {
          "internalType": "uint256[]",
          "name": "balances",
          "type": "uint256[]"
        },
        {
          "internalType": "uint256",
          "name": "lastChangeBlock",
          "type": "uint256"
        },
        {
          "internalType": "uint256",
          "name": "protocolSwapFeePercentage",
          "type": "uint256"
        },
        {
          "internalType": "bytes",
          "name": "userData",
          "type": "bytes"
        }
      ],
      "name": "onExitPool",
      "outputs": [
        {
          "internalType": "uint256[]",
          "name": "",
          "type": "uint256[]"
        },
        {
          "internalType": "uint256[]",
          "name": "",
          "type": "uint256[]"
        }
      ],
      "stateMutability": "nonpayable",
      "type": "function"
    },
    {
      "inputs": [
        {
          "internalType": "bytes32",
          "name": "poolId",
          "type": "bytes32"
        },
        {
          "internalType": "address",
          "name": "sender",
          "type": "address"
        },
        {
          "internalType": "address",
          "name": "recipient",
          "type": "address"
        },
        {
          "internalType": "uint256[]",
          "name": "balances",
          "type": "uint256[]"
        },
        {
          "internalType": "uint256",
          "name": "lastChangeBlock",
          "type": "uint256"
        },
        {
          "internalType": "uint256",
          "name": "protocolSwapFeePercentage",
          "type": "uint256"
        },
        {
          "internalType": "bytes",
          "name": "userData",
          "type": "bytes"
        }
      ],
      "name": "onJoinPool",
      "outputs": [
        {
          "internalType": "uint256[]",
          "name": "",
          "type": "uint256[]"
        },
        {
          "internalType": "uint256[]",
          "name": "",
          "type": "uint256[]"
        }
      ],
      "stateMutability": "nonpayable",
      "type": "function"
    },
    {
      "inputs": [
        {
          "components": [
            {
              "internalType": "enum IVault.SwapKind",
              "name": "kind",
              "type": "uint8"
            },
            {
              "internalType": "contract IERC20",
              "name": "tokenIn",
              "type": "address"
            },
            {
              "internalType": "contract IERC20",
              "name": "tokenOut",
              "type": "address"
            },
            {
              "internalType": "uint256",
              "name": "amount",
              "type": "uint256"
            },
            {
              "internalType": "bytes32",
              "name": "poolId",
              "type": "bytes32"
            },
            {
              "internalType": "uint256",
              "name": "lastChangeBlock",
              "type": "uint256"
            },
            {
              "internalType": "address",
              "name": "from",
              "type": "address"
            },
            {
              "internalType": "address",
              "name": "to",
              "type": "address"
            },
            {
              "internalType": "bytes",
              "name": "userData",
              "type": "bytes"
            }
          ],
          "internalType": "struct IPoolSwapStructs.SwapRequest",
          "name": "request",
          "type": "tuple"
        },
        {
          "internalType": "uint256",
          "name": "balanceTokenIn",
          "type": "uint256"
        },
        {
          "internalType": "uint256",
          "name": "balanceTokenOut",
          "type": "uint256"
        }
      ],
      "name": "onSwap",
      "outputs": [
        {
          "internalType": "uint256",
          "name": "",
          "type": "uint256"
        }
      ],
      "stateMutability": "nonpayable",
      "type": "function"
    },
    {
      "inputs": [
        {
          "internalType": "address",
          "name": "owner",
          "type": "address"
        },
        {
          "internalType": "address",
          "name": "spender",
          "type": "address"
        },
        {
          "internalType": "uint256",
          "name": "value",
          "type": "uint256"
        },
        {
          "internalType": "uint256",
          "name": "deadline",
          "type": "uint256"
        },
        {
          "internalType": "uint8",
          "name": "v",
          "type": "uint8"
        },
        {
          "internalType": "bytes32",
          "name": "r",
          "type": "bytes32"
        },
        {
          "internalType": "bytes32",
          "name": "s",
          "type": "bytes32"
        }
      ],
      "name": "permit",
      "outputs": [],
      "stateMutability": "nonpayable",
      "type": "function"
    },
    {
      "inputs": [
        {
          "internalType": "bytes32",
          "name": "poolId",
          "type": "bytes32"
        },
        {
          "internalType": "address",
          "name": "sender",
          "type": "address"
        },
        {
          "internalType": "address",
          "name": "recipient",
          "type": "address"
        },
        {
          "internalType": "uint256[]",
          "name": "balances",
          "type": "uint256[]"
        },
        {
          "internalType": "uint256",
          "name": "lastChangeBlock",
          "type": "uint256"
        },
        {
          "internalType": "uint256",
          "name": "protocolSwapFeePercentage",
          "type": "uint256"
        },
        {
          "internalType": "bytes",
          "name": "userData",
          "type": "bytes"
        }
      ],
      "name": "queryExit",
      "outputs": [
        {
          "internalType": "uint256",
          "name": "bptIn",
          "type": "uint256"
        },
        {
          "internalType": "uint256[]",
          "name": "amountsOut",
          "type": "uint256[]"
        }
      ],
      "stateMutability": "view",
      "type": "function"
    },
    {
      "inputs": [
        {
          "internalType": "bytes32",
          "name": "poolId",
          "type": "bytes32"
        },
        {
          "internalType": "address",
          "name": "sender",
          "type": "address"
        },
        {
          "internalType": "address",
          "name": "recipient",
          "type": "address"
        },
        {
          "internalType": "uint256[]",
          "name": "balances",
          "type": "uint256[]"
        },
        {
          "internalType": "uint256",
          "name": "lastChangeBlock",
          "type": "uint256"
        },
        {
          "internalType": "uint256",
          "name": "protocolSwapFeePercentage",
          "type": "uint256"
        },
        {
          "internalType": "bytes",
          "name": "userData",
          "type": "bytes"
        }
      ],
      "name": "queryJoin",
      "outputs": [
        {
          "internalType": "uint256",
          "name": "bptOut",
          "type": "uint256"
        },
        {
          "internalType": "uint256[]",
          "name": "amountsIn",
          "type": "uint256[]"
        }
      ],
      "stateMutability": "view",
      "type": "function"
    },
    {
      "inputs": [
        {
          "internalType": "contract IERC20",
          "name": "token",
          "type": "address"
        },
        {
          "internalType": "bytes",
          "name": "poolConfig",
          "type": "bytes"
        }
      ],
      "name": "setAssetManagerPoolConfig",
      "outputs": [],
      "stateMutability": "nonpayable",
      "type": "function"
    },
    {
      "inputs": [
        {
          "internalType": "bool",
          "name": "paused",
          "type": "bool"
        }
      ],
      "name": "setPaused",
      "outputs": [],
      "stateMutability": "nonpayable",
      "type": "function"
    },
    {
      "inputs": [
        {
          "internalType": "bool",
          "name": "swapEnabled",
          "type": "bool"
        }
      ],
      "name": "setSwapEnabled",
      "outputs": [],
      "stateMutability": "nonpayable",
      "type": "function"
    },
    {
      "inputs": [
        {
          "internalType": "uint256",
          "name": "swapFeePercentage",
          "type": "uint256"
        }
      ],
      "name": "setSwapFeePercentage",
      "outputs": [],
      "stateMutability": "nonpayable",
      "type": "function"
    },
    {
      "inputs": [],
      "name": "symbol",
      "outputs": [
        {
          "internalType": "string",
          "name": "",
          "type": "string"
        }
      ],
      "stateMutability": "view",
      "type": "function"
    },
    {
      "inputs": [],
      "name": "totalSupply",
      "outputs": [
        {
          "internalType": "uint256",
          "name": "",
          "type": "uint256"
        }
      ],
      "stateMutability": "view",
      "type": "function"
    },
    {
      "inputs": [
        {
          "internalType": "address",
          "name": "recipient",
          "type": "address"
        },
        {
          "internalType": "uint256",
          "name": "amount",
          "type": "uint256"
        }
      ],
      "name": "transfer",
      "outputs": [
        {
          "internalType": "bool",
          "name": "",
          "type": "bool"
        }
      ],
      "stateMutability": "nonpayable",
      "type": "function"
    },
    {
      "inputs": [
        {
          "internalType": "address",
          "name": "sender",
          "type": "address"
        },
        {
          "internalType": "address",
          "name": "recipient",
          "type": "address"
        },
        {
          "internalType": "uint256",
          "name": "amount",
          "type": "uint256"
        }
      ],
      "name": "transferFrom",
      "outputs": [
        {
          "internalType": "bool",
          "name": "",
          "type": "bool"
        }
      ],
      "stateMutability": "nonpayable",
      "type": "function"
    },
    {
      "inputs": [
        {
          "internalType": "uint256",
          "name": "startTime",
          "type": "uint256"
        },
        {
          "internalType": "uint256",
          "name": "endTime",
          "type": "uint256"
        },
        {
          "internalType": "uint256[]",
          "name": "endWeights",
          "type": "uint256[]"
        }
      ],
      "name": "updateWeightsGradually",
      "outputs": [],
      "stateMutability": "nonpayable",
      "type": "function"
    }
  ],
  "bytecode": "0x6102e06040527f6e71edae12b1b97f4d1f60370fef10105fa2faae0126114a169c64845d6126c9610120523480156200003757600080fd5b50604051620063b0380380620063b08339810160408190526200005a9162000d67565b898989898a516001600160401b03811180156200007657600080fd5b50604051908082528060200260200182016040528015620000a1578160200160208202803683370190505b5089898989888651600214620000b9576001620000bc565b60025b8989898989898989828289898d8280604051806040016040528060018152602001603160f81b81525085858a336001600160a01b031660001b806080818152505050806001600160a01b031660a0816001600160a01b031660601b815250505081600390805190602001906200013492919062000b1f565b5080516200014a90600490602084019062000b1f565b505060058054601260ff1990911617905550815160209283012060c052805191012060e052507f8b73c3c69bb8fe3d512ecc4cf759cc79239f7b179b0ffacaa9a75d522b39400f6101005260601b6001600160601b0319166101405250620001bd90506276a70083111561019462000508565b620001d162278d0082111561019562000508565b4290910161016081905201610180528551620001f3906002111560c862000508565b6200020d620002016200051d565b8751111560c962000508565b62000223866200052260201b620010641760201c565b6200022e846200052e565b6040516309b2760f60e01b81526000906001600160a01b038c16906309b2760f906200025f908d9060040162000f7c565b602060405180830381600087803b1580156200027a57600080fd5b505af11580156200028f573d6000803e3d6000fd5b505050506040513d601f19601f82011682018060405250810190620002b5919062000d4e565b604051633354e3e960e11b81529091506001600160a01b038c16906366a9c7d290620002ea9084908b908b9060040162000ee0565b600060405180830381600087803b1580156200030557600080fd5b505af11580156200031a573d6000803e3d6000fd5b50505050806101a0818152505050505050505050505050505050505050505050506001600a8190555060008751905062000361818851620005ba60201b6200106e1760201c565b6101c0819052875188906000906200037557fe5b60200260200101516001600160a01b03166101e0816001600160a01b031660601b8152505087600181518110620003a857fe5b60200260200101516001600160a01b0316610200816001600160a01b031660601b8152505060028111620003de576000620003f5565b87600281518110620003ec57fe5b60200260200101515b60601b6001600160601b0319166102205260038111620004175760006200042e565b876003815181106200042557fe5b60200260200101515b6001600160a01b0316610240816001600160a01b031660601b8152505062000471886000815181106200045d57fe5b6020026020010151620005c960201b60201c565b6102605287516200048a90899060019081106200045d57fe5b61028052600281116200049f576000620004b1565b620004b1886002815181106200045d57fe5b6102a05260038111620004c6576000620004d8565b620004d8886003815181106200045d57fe5b6102c05242620004eb81808a806200069d565b620004f6836200082b565b50505050505050505050505062001043565b81620005195762000519816200087f565b5050565b600490565b806200051981620008d2565b6200054364e8d4a5100082101560cb62000508565b6200055b67016345785d8a000082111560ca62000508565b6200057a8160c06008546200095f60201b6200107b179092919060201c565b6008556040517fa9ba3ffe0b6c366b81232caab38605a0699ad5398d6cce76f91ee809e322dafc90620005af90839062000f91565b60405180910390a150565b62000519828214606762000508565b60006001600160a01b038216301415620005ed5750670de0b6b3a764000062000698565b6000826001600160a01b031663313ce5676040518163ffffffff1660e01b815260040160206040518083038186803b1580156200062957600080fd5b505afa1580156200063e573d6000803e3d6000fd5b505050506040513d601f19601f8201168201806040525081019062000664919062000e76565b60ff1690506000620006836012836200097460201b620010911760201c565b905080600a0a670de0b6b3a764000002925050505b919050565b600b546000805b83518110156200078e576000848281518110620006bd57fe5b60200260200101519050620006e5662386f26fc1000082101561012e6200050860201b60201c565b62000766620006ff826200099160201b620010a71760201c565b8360100260800162000751620007348a87815181106200071b57fe5b6020026020010151620009d260201b620010c71760201c565b86601f0260040189620009ff60201b620010e3179092919060201c565b62000a1160201b620010f5179092919060201c565b935062000782818462000a2160201b620011051790919060201c565b925050600101620006a4565b50620007a7670de0b6b3a7640000821461013462000508565b620007e08560e0620007cb8960c08762000a3c60201b62001117179092919060201c565b62000a3c60201b62001117179092919060201c565b600b556040517f0f3631f9dab08169d1db21c6dc5f32536fb2b0a6b9bb5330d71c52132f968be0906200081b90889088908890889062000f9a565b60405180910390a1505050505050565b6200084a816000600b5462000a4e60201b62001129179092919060201c565b600b556040517f5a9e84f78f7957cb4ed7478eb0fcad35ee4ecbe2e0f298420b28a3955392573f90620005af90839062000ed5565b62461bcd60e51b6000908152602060045260076024526642414c23000030600a808404818106603090810160081b95839006959095019082900491820690940160101b939093010160c81b604452606490fd5b600281511015620008e3576200095c565b600081600081518110620008f357fe5b602002602001015190506000600190505b8251811015620009595760008382815181106200091d57fe5b602002602001015190506200094e816001600160a01b0316846001600160a01b03161060656200050860201b60201c565b915060010162000904565b50505b50565b6001600160401b03811b1992909216911b1790565b60006200098683831115600162000508565b508082035b92915050565b60006200098b670de0b6b3a7640000620009be61ffff80168562000a7760201b620011501790919060201c565b62000acc60201b6200119e1790919060201c565b60006200098b670de0b6b3a7640000620009be637fffffff8562000a7760201b620011501790919060201c565b637fffffff811b1992909216911b1790565b61ffff811b1992909216911b1790565b600082820162000a35848210158362000508565b9392505050565b63ffffffff811b1992909216911b1790565b60006001821b198416828462000a6657600062000a69565b60015b60ff16901b17949350505050565b600082820262000a9f84158062000a9757508385838162000a9457fe5b04145b600362000508565b8062000ab05760009150506200098b565b670de0b6b3a764000060001982015b046001019150506200098b565b600062000add821515600462000508565b8262000aec575060006200098b565b670de0b6b3a76400008381029062000b129085838162000b0857fe5b0414600562000508565b82600182038162000abf57fe5b828054600181600116156101000203166002900490600052602060002090601f016020900481019282601f1062000b6257805160ff191683800117855562000b92565b8280016001018555821562000b92579182015b8281111562000b9257825182559160200191906001019062000b75565b5062000ba092915062000ba4565b5090565b5b8082111562000ba0576000815560010162000ba5565b80516200098b816200102d565b600082601f83011262000bd9578081fd5b815162000bf062000bea8262001001565b62000fda565b81815291506020808301908481018184028601820187101562000c1257600080fd5b60005b8481101562000c3e57815162000c2b816200102d565b8452928201929082019060010162000c15565b505050505092915050565b600082601f83011262000c5a578081fd5b815162000c6b62000bea8262001001565b81815291506020808301908481018184028601820187101562000c8d57600080fd5b60005b8481101562000c3e5781518452928201929082019060010162000c90565b805180151581146200098b57600080fd5b600082601f83011262000cd0578081fd5b81516001600160401b0381111562000ce6578182fd5b602062000cfc601f8301601f1916820162000fda565b9250818352848183860101111562000d1357600080fd5b60005b8281101562000d3357848101820151848201830152810162000d16565b8281111562000d455760008284860101525b50505092915050565b60006020828403121562000d60578081fd5b5051919050565b6000806000806000806000806000806101408b8d03121562000d87578586fd5b62000d938c8c62000bbb565b60208c0151909a506001600160401b038082111562000db0578788fd5b62000dbe8e838f0162000cbf565b9a5060408d015191508082111562000dd4578788fd5b62000de28e838f0162000cbf565b995060608d015191508082111562000df8578788fd5b62000e068e838f0162000bc8565b985060808d015191508082111562000e1c578788fd5b5062000e2b8d828e0162000c49565b96505060a08b0151945060c08b0151935060e08b0151925062000e538c6101008d0162000bbb565b915062000e658c6101208d0162000cae565b90509295989b9194979a5092959850565b60006020828403121562000e88578081fd5b815160ff8116811462000a35578182fd5b6000815180845260208085019450808401835b8381101562000eca5781518752958201959082019060010162000eac565b509495945050505050565b901515815260200190565b60006060820185835260206060818501528186518084526080860191508288019350845b8181101562000f2c5762000f19855162001021565b8352938301939183019160010162000f04565b505084810360408601528551808252908201925081860190845b8181101562000f6e5762000f5b835162001021565b8552938301939183019160010162000f46565b509298975050505050505050565b602081016003831062000f8b57fe5b91905290565b90815260200190565b60008582528460208301526080604083015262000fbb608083018562000e99565b828103606084015262000fcf818562000e99565b979650505050505050565b6040518181016001600160401b038111828210171562000ff957600080fd5b604052919050565b60006001600160401b0382111562001017578081fd5b5060209081020190565b6001600160a01b031690565b6001600160a01b03811681146200095c57600080fd5b60805160a05160601c60c05160e05161010051610120516101405160601c61016051610180516101a0516101c0516101e05160601c6102005160601c6102205160601c6102405160601c61026051610280516102a0516102c05161526762001149600039806114bc528061208652508061146b52806120255250806114285280611fc45250806113ee5280611f6352508061204b5280613095525080611fea5280613053525080611f895280613011525080611f285280612fcf5250806117205250806106da525080611376525080611352525080610a79525080610daf5250806115ec52508061162e52508061160d525080610a555250806109df52506152676000f3fe608060405234801561001057600080fd5b50600436106102925760003560e01c806374f3b009116101605780639d2c110c116100d8578063d505accf1161008c578063dd62ed3e11610071578063dd62ed3e14610508578063e01af92c1461051b578063f89f27ed1461052e57610292565b8063d505accf146104e2578063d5c096c4146104f557610292565b8063a9059cbb116100bd578063a9059cbb146104bf578063aaabadc5146104d2578063c0ff1a15146104da57610292565b80639d2c110c14610499578063a457c2d7146104ac57610292565b806387ec68171161012f5780638d928af8116101145780638d928af81461048157806395d89b41146104895780639b02cdde1461049157610292565b806387ec681714610459578063893d20e81461046c57610292565b806374f3b009146103fb5780637beed2201461041c5780637ecebe0014610433578063851c1bb31461044657610292565b806338e9922e1161020e57806350dd6ed9116101c25780636028bfd4116101a75780636028bfd4146103bf578063679aefce146103e057806370a08231146103e857610292565b806350dd6ed9146103a457806355c67628146103b757610292565b806339509351116101f357806339509351146103765780633e5692051461038957806347bc4d921461039c57610292565b806338e9922e1461035b57806338fff2d01461036e57610292565b80631c0de0511161026557806323b872dd1161024a57806323b872dd1461032b578063313ce5671461033e5780633644e5151461035357610292565b80631c0de051146102ff5780631dd746ea1461031657610292565b806306fdde0314610297578063095ea7b3146102b557806316c38b3c146102d557806318160ddd146102ea575b600080fd5b61029f610536565b6040516102ac9190615130565b60405180910390f35b6102c86102c33660046149c7565b6105cd565b6040516102ac9190615037565b6102e86102e3366004614abe565b6105e4565b005b6102f26105f8565b6040516102ac919061505a565b6103076105fe565b6040516102ac93929190615042565b61031e610627565b6040516102ac9190614fff565b6102c8610339366004614912565b610636565b6103466106ac565b6040516102ac91906151ac565b6102f26106b5565b6102e8610369366004614e4a565b6106bf565b6102f26106d8565b6102c86103843660046149c7565b6106fc565b6102e8610397366004614e62565b610737565b6102c861079e565b6102e86103b2366004614bf5565b6107ae565b6102f26107cc565b6103d26103cd366004614af6565b6107dd565b6040516102ac929190615143565b6102f2610814565b6102f26103f63660046148be565b61083f565b61040e610409366004614af6565b61085e565b6040516102ac929190615012565b610424610901565b6040516102ac9392919061515c565b6102f26104413660046148be565b6109c0565b6102f2610454366004614b99565b6109db565b6103d2610467366004614af6565b610a2d565b610474610a53565b6040516102ac9190614feb565b610474610a77565b61029f610a9b565b6102f2610afc565b6102f26104a7366004614d4e565b610b02565b6102c86104ba3660046149c7565b610c60565b6102c86104cd3660046149c7565b610c9e565b610474610cab565b6102f2610cb5565b6102e86104f0366004614952565b610d7a565b61040e610503366004614af6565b610ec3565b6102f26105163660046148da565b610ff4565b6102e8610529366004614abe565b611031565b61031e61105a565b60038054604080516020601f60026000196101006001881615020190951694909404938401819004810282018101909252828152606093909290918301828280156105c25780601f10610597576101008083540402835291602001916105c2565b820191906000526020600020905b8154815290600101906020018083116105a557829003601f168201915b505050505090505b90565b60006105da3384846111e9565b5060015b92915050565b6105ec611251565b6105f581611297565b50565b60025490565b600080600061060b611333565b159250610616611350565b9150610620611374565b9050909192565b6060610631611398565b905090565b6000806106438533610ff4565b9050610667336001600160a01b038716148061065f5750838210155b61019e6114fa565b610672858585611508565b336001600160a01b0386161480159061068d57506000198114155b1561069f5761069f85338584036111e9565b60019150505b9392505050565b60055460ff1690565b60006106316115e8565b6106c7611251565b6106cf611685565b6105f58161169a565b7f000000000000000000000000000000000000000000000000000000000000000090565b3360008181526001602090815260408083206001600160a01b038716845290915281205490916105da9185906107329086611105565b6111e9565b61073f611251565b610747611685565b61074f611705565b61076161075a61171e565b825161106e565b4261076c8185611742565b935061077d838511156101466114fa565b610790848461078a611759565b8561186d565b50610799611982565b505050565b600b546000906106319082611989565b6107b6611251565b6107be611685565b6107c88282611993565b5050565b6008546000906106319060c0611aab565b600060606107f386516107ee61171e565b61106e565b61080889898989898989611ab9611b89611bea565b97509795505050505050565b60006106316108216105f8565b61083961082c610cb5565b61083461171e565b611d7a565b90611d94565b6001600160a01b0381166000908152602081905260409020545b919050565b6060808861088861086d610a77565b6001600160a01b0316336001600160a01b03161460cd6114fa565b61089d6108936106d8565b82146101f46114fa565b60606108a7611398565b90506108b38882611ddc565b60006060806108c88e8e8e8e8e8e8a8f611ab9565b9250925092506108d88d84611e3d565b6108e28285611b89565b6108ec8185611b89565b909550935050505b5097509795505050505050565b600b5460009081906060906109178160c0611e47565b93506109248160e0611e47565b9250600061093061171e565b90508067ffffffffffffffff8111801561094957600080fd5b50604051908082528060200260200182016040528015610973578160200160208202803683370190505b50925060005b818110156109b8576109996109948460806010850201611e51565b611e59565b8482815181106109a557fe5b6020908102919091010152600101610979565b505050909192565b6001600160a01b031660009081526006602052604090205490565b60007f000000000000000000000000000000000000000000000000000000000000000082604051602001610a10929190614f75565b604051602081830303815290604052805190602001209050919050565b60006060610a3e86516107ee61171e565b61080889898989898989611e73611ec3611bea565b7f000000000000000000000000000000000000000000000000000000000000000090565b7f000000000000000000000000000000000000000000000000000000000000000090565b60048054604080516020601f60026000196101006001881615020190951694909404938401819004810282018101909252828152606093909290918301828280156105c25780601f10610597576101008083540402835291602001916105c2565b60095490565b60008360800151610b1461086d610a77565b610b1f6108936106d8565b6000610b2e8660200151611f24565b90506000610b3f8760400151611f24565b9050600087516001811115610b5057fe5b1415610be0576000610b6588606001516120b5565b90506000818960600151039050610b898960200151610b8483876120d6565b6120e2565b60608901829052610b9a88856120d6565b9750610ba687846120d6565b9650610bb68960600151856120d6565b60608a01526000610bc88a8a8a6120f4565b9050610bd4818561211c565b96505050505050610c58565b610bea86836120d6565b9550610bf685826120d6565b9450610c068760600151826120d6565b60608801526000610c18888888612128565b9050610c248184612140565b90506000610c318261214c565b905060008282039050610c4c8a60200151610b8483886120d6565b509450610c5892505050565b509392505050565b600080610c6d3385610ff4565b9050808310610c8757610c82338560006111e9565b610c94565b610c9433858584036111e9565b5060019392505050565b60006105da338484611508565b6000610631612172565b60006060610cc1610a77565b6001600160a01b031663f94d4668610cd76106d8565b6040518263ffffffff1660e01b8152600401610cf3919061505a565b60006040518083038186803b158015610d0b57600080fd5b505afa158015610d1f573d6000803e3d6000fd5b505050506040513d6000823e601f3d908101601f19168201604052610d4791908101906149f2565b50915050610d5c81610d57611398565b611ddc565b6060610d666121ec565b509050610d73818361226a565b9250505090565b610d888442111560d16114fa565b6001600160a01b0387166000908152600660209081526040808320549051909291610ddf917f0000000000000000000000000000000000000000000000000000000000000000918c918c918c9188918d9101615082565b6040516020818303038152906040528051906020012090506000610e02826122dc565b9050600060018288888860405160008152602001604052604051610e299493929190615112565b6020604051602081039080840390855afa158015610e4b573d6000803e3d6000fd5b5050604051601f1901519150610e8d90506001600160a01b03821615801590610e8557508b6001600160a01b0316826001600160a01b0316145b6101f86114fa565b6001600160a01b038b166000908152600660205260409020600185019055610eb68b8b8b6111e9565b5050505050505050505050565b60608088610ed261086d610a77565b610edd6108936106d8565b6060610ee7611398565b9050610ef16105f8565b610fa45760006060610f068d8d8d868b6122f8565b91509150610f1f610f1561233e565b83101560cc6114fa565b610f316000610f2c61233e565b612345565b610f448b610f3d61233e565b8403612345565b610f4e8184611ec3565b80610f5761171e565b67ffffffffffffffff81118015610f6d57600080fd5b50604051908082528060200260200182016040528015610f97578160200160208202803683370190505b50955095505050506108f4565b610fae8882611ddc565b6000606080610fc38e8e8e8e8e8e8a8f611e73565b925092509250610fd38c84612345565b610fdd8285611ec3565b610fe78185611b89565b90955093506108f4915050565b6000610ffe610a77565b6001600160a01b0316826001600160a01b0316141561102057506000196105de565b61102a838361234f565b90506105de565b611039611251565b611041611685565b611049611705565b6110528161237a565b6105f5611982565b6060610631611759565b806107c8816123bc565b6107c881831460676114fa565b67ffffffffffffffff811b1992909216911b1790565b60006110a18383111560016114fa565b50900390565b60006105de670de0b6b3a76400006110c18461ffff611150565b9061119e565b60006105de670de0b6b3a76400006110c184637fffffff611150565b637fffffff811b1992909216911b1790565b61ffff811b1992909216911b1790565b60008282016106a584821015836114fa565b63ffffffff811b1992909216911b1790565b60006001821b198416828461113f576000611142565b60015b60ff16901b17949350505050565b600082820261117484158061116d57508385838161116a57fe5b04145b60036114fa565b806111835760009150506105de565b670de0b6b3a764000060001982015b046001019150506105de565b60006111ad82151560046114fa565b826111ba575060006105de565b670de0b6b3a7640000838102906111dd908583816111d457fe5b041460056114fa565b82600182038161119257fe5b6001600160a01b0380841660008181526001602090815260408083209487168084529490915290819020849055517f8c5be1e5ebec7d5bd14f71427d1e84f3dd0314c0f7b2291e5b200ac8c7c3b9259061124490859061505a565b60405180910390a3505050565b60006112806000357fffffffff00000000000000000000000000000000000000000000000000000000166109db565b90506105f561128f8233612435565b6101916114fa565b80156112b7576112b26112a8611350565b42106101936114fa565b6112cc565b6112cc6112c2611374565b42106101a96114fa565b600780547fffffffffffffffffffffffffffffffffffffffffffffffffffffffffffffff00168215151790556040517f9e3a5e37224532dea67b89face185703738a228a6e8a23dee546960180d3be6490611328908390615037565b60405180910390a150565b600061133d611374565b42118061063157505060075460ff161590565b7f000000000000000000000000000000000000000000000000000000000000000090565b7f000000000000000000000000000000000000000000000000000000000000000090565b606060006113a461171e565b905060608167ffffffffffffffff811180156113bf57600080fd5b506040519080825280602002602001820160405280156113e9578160200160208202803683370190505b5090507f00000000000000000000000000000000000000000000000000000000000000008160008151811061141a57fe5b6020026020010181815250507f00000000000000000000000000000000000000000000000000000000000000008160018151811061145457fe5b60200260200101818152505060028211156114a8577f00000000000000000000000000000000000000000000000000000000000000008160028151811061149757fe5b6020026020010181815250506114b1565b91506105ca9050565b60038211156114a8577f0000000000000000000000000000000000000000000000000000000000000000816003815181106114e857fe5b60200260200101818152505091505090565b816107c8576107c88161251e565b61151f6001600160a01b03841615156101986114fa565b6115366001600160a01b03831615156101996114fa565b611541838383610799565b6001600160a01b03831660009081526020819052604090205461156790826101a061258b565b6001600160a01b0380851660009081526020819052604080822093909355908416815220546115969082611105565b6001600160a01b0380841660008181526020819052604090819020939093559151908516907fddf252ad1be2c89b69c2b068fc378daa952ba7f163c4a11628f55a4df523b3ef9061124490859061505a565b60007f00000000000000000000000000000000000000000000000000000000000000007f00000000000000000000000000000000000000000000000000000000000000007f00000000000000000000000000000000000000000000000000000000000000006116556125a1565b3060405160200161166a9594939291906150b6565b60405160208183030381529060405280519060200120905090565b611698611690611333565b6101926114fa565b565b6116ad64e8d4a5100082101560cb6114fa565b6116c367016345785d8a000082111560ca6114fa565b6008546116d2908260c061107b565b6008556040517fa9ba3ffe0b6c366b81232caab38605a0699ad5398d6cce76f91ee809e322dafc9061132890839061505a565b6117176002600a5414156101906114fa565b6002600a55565b7f000000000000000000000000000000000000000000000000000000000000000090565b60008183101561175257816106a5565b5090919050565b6060600061176561171e565b905060608167ffffffffffffffff8111801561178057600080fd5b506040519080825280602002602001820160405280156117aa578160200160208202803683370190505b50600b549091506117bc6000826125a5565b826000815181106117c957fe5b6020026020010181815250506117e06001826125a5565b826001815181106117ed57fe5b602002602001018181525050826002141561180c575091506105ca9050565b6118176002826125a5565b8260028151811061182457fe5b6020026020010181815250508260031415611843575091506105ca9050565b61184e6003826125a5565b8260038151811061185b57fe5b60209081029190910101525091505090565b600b546000805b835181101561190957600084828151811061188b57fe5b602002602001015190506118ab662386f26fc1000082101561012e6114fa565b6118f26118b7826110a7565b836010026080016118eb6118dd8a87815181106118d057fe5b60200260200101516110c7565b88906004601f8902016110e3565b91906110f5565b93506118fe8382611105565b925050600101611874565b50611920670de0b6b3a764000082146101346114fa565b6119398560e0611932858a60c0611117565b9190611117565b600b556040517f0f3631f9dab08169d1db21c6dc5f32536fb2b0a6b9bb5330d71c52132f968be09061197290889088908890889061517b565b60405180910390a1505050505050565b6001600a55565b1c60019081161490565b600061199d6106d8565b905060006119a9610a77565b6001600160a01b031663b05f8e4883866040518363ffffffff1660e01b81526004016119d69291906150fb565b60806040518083038186803b1580156119ee57600080fd5b505afa158015611a02573d6000803e3d6000fd5b505050506040513d601f19601f82011682018060405250810190611a269190614eb0565b6040517f18e736d40000000000000000000000000000000000000000000000000000000081529094506001600160a01b03851693506318e736d49250611a739150859087906004016150e2565b600060405180830381600087803b158015611a8d57600080fd5b505af1158015611aa1573d6000803e3d6000fd5b5050505050505050565b1c67ffffffffffffffff1690565b600060608060606000611aca6121ec565b91509150611ad6611333565b15611b0e576000611ae7838c61226a565b9050611af98b8484600954858e6125fb565b9350611b088b856110916126aa565b50611b5a565b611b1661171e565b67ffffffffffffffff81118015611b2c57600080fd5b50604051908082528060200260200182016040528015611b56578160200160208202803683370190505b5092505b611b668a838989612715565b9095509350611b768a85846127a3565b6009555050985098509895505050505050565b60005b611b9461171e565b81101561079957611bcb838281518110611baa57fe5b6020026020010151838381518110611bbe57fe5b6020026020010151611d94565b838281518110611bd757fe5b6020908102919091010152600101611b8c565b333014611cd9576000306001600160a01b0316600036604051611c0e929190614fa5565b6000604051808303816000865af19150503d8060008114611c4b576040519150601f19603f3d011682016040523d82523d6000602084013e611c50565b606091505b505090508060008114611c5f57fe5b60046000803e6000517fffffffff00000000000000000000000000000000000000000000000000000000167f43adbafb000000000000000000000000000000000000000000000000000000008114611cbb573d6000803e3d6000fd5b506020600460003e604060205260243d03602460403e601c3d016000f35b6060611ce3611398565b9050611cef8782611ddc565b60006060611d078c8c8c8c8c8c898d8d63ffffffff16565b5091509150611d1a81848663ffffffff16565b8051601f1982018390526343adbafb7fffffffffffffffffffffffffffffffffffffffffffffffffffffffffffffffc08301526020027fffffffffffffffffffffffffffffffffffffffffffffffffffffffffffffffdc82016044820181fd5b60008282026106a584158061116d57508385838161116a57fe5b6000611da382151560046114fa565b82611db0575060006105de565b670de0b6b3a764000083810290611dca908583816111d457fe5b828181611dd357fe5b049150506105de565b60005b611de761171e565b81101561079957611e1e838281518110611dfd57fe5b6020026020010151838381518110611e1157fe5b60200260200101516127bc565b838281518110611e2a57fe5b6020908102919091010152600101611ddf565b6107c882826127e8565b1c63ffffffff1690565b1c61ffff1690565b60006105de61ffff6110c184670de0b6b3a7640000611150565b6000606080611e9f611e83610a53565b6001600160a01b03168b6001600160a01b0316146101486114fa565b611eaf8b8b8b8b8b8b8b8b6128a4565b925092509250985098509895505050505050565b60005b611ece61171e565b81101561079957611f05838281518110611ee457fe5b6020026020010151838381518110611ef857fe5b602002602001015161119e565b838281518110611f1157fe5b6020908102919091010152600101611ec6565b60007f00000000000000000000000000000000000000000000000000000000000000006001600160a01b0316826001600160a01b03161415611f8757507f0000000000000000000000000000000000000000000000000000000000000000610859565b7f00000000000000000000000000000000000000000000000000000000000000006001600160a01b0316826001600160a01b03161415611fe857507f0000000000000000000000000000000000000000000000000000000000000000610859565b7f00000000000000000000000000000000000000000000000000000000000000006001600160a01b0316826001600160a01b0316141561204957507f0000000000000000000000000000000000000000000000000000000000000000610859565b7f00000000000000000000000000000000000000000000000000000000000000006001600160a01b0316826001600160a01b031614156120aa57507f0000000000000000000000000000000000000000000000000000000000000000610859565b61085961013561251e565b6000806120ca6120c36107cc565b8490611150565b90506106a58382611091565b60006106a583836127bc565b6107c86120ee8361292a565b826107c8565b600061210961210161079e565b6101476114fa565b612114848484612930565b949350505050565b60006106a58383611d94565b600061213561210161079e565b612114848484612963565b60006106a5838361119e565b60006105de61216b61215c6107cc565b670de0b6b3a764000090611091565b839061119e565b600061217c610a77565b6001600160a01b031663aaabadc56040518163ffffffff1660e01b815260040160206040518083038186803b1580156121b457600080fd5b505afa1580156121c8573d6000803e3d6000fd5b505050506040513d601f19601f820116820180604052508101906106319190614bd9565b606060006121f8611759565b91506000905060008260008151811061220d57fe5b602002602001015190506000600190505b8351811015612264578184828151811061223457fe5b6020026020010151111561225c5780925083818151811061225157fe5b602002602001015191505b60010161221e565b50509091565b670de0b6b3a764000060005b83518110156122cc576122c26122bb85838151811061229157fe5b60200260200101518584815181106122a557fe5b602002602001015161299690919063ffffffff16565b83906127bc565b9150600101612276565b506105de600082116101376114fa565b60006122e66115e8565b82604051602001610a10929190614fb5565b60006060612323612307610a53565b6001600160a01b0316876001600160a01b0316146101486114fa565b6123308787878787612a47565b915091509550959350505050565b620f424090565b6107c88282612adb565b6001600160a01b03918216600090815260016020908152604080832093909416825291909152205490565b600b5461238990826000611129565b600b556040517f5a9e84f78f7957cb4ed7478eb0fcad35ee4ecbe2e0f298420b28a3955392573f90611328908390615037565b6002815110156123cb576105f5565b6000816000815181106123da57fe5b602002602001015190506000600190505b825181101561079957600083828151811061240257fe5b6020026020010151905061242b816001600160a01b0316846001600160a01b03161060656114fa565b91506001016123eb565b600073ba1ba1ba1ba1ba1ba1ba1ba1ba1ba1ba1ba1ba1b612454610a53565b6001600160a01b03161415801561246f575061246f83612b69565b156124975761247c610a53565b6001600160a01b0316336001600160a01b03161490506105de565b61249f612172565b6001600160a01b0316639be2a8848484306040518463ffffffff1660e01b81526004016124ce93929190615063565b60206040518083038186803b1580156124e657600080fd5b505afa1580156124fa573d6000803e3d6000fd5b505050506040513d601f19601f8201168201806040525081019061102a9190614ada565b7f08c379a0000000000000000000000000000000000000000000000000000000006000908152602060045260076024526642414c23000030600a808404818106603090810160081b95839006959095019082900491820690940160101b939093010160c81b604452606490fd5b600061259a84841115836114fa565b5050900390565b4690565b6000806125c06125bb846004601f880201612bd7565b612be1565b905060006125d76109948560806010890201611e51565b905060006125e485612bfd565b90506125f1838383612c7c565b9695505050505050565b60608061260661171e565b67ffffffffffffffff8111801561261c57600080fd5b50604051908082528060200260200182016040528015612646578160200160208202803683370190505b509050826126555790506125f1565b61268888878151811061266457fe5b602002602001015188888151811061267857fe5b6020026020010151878787612cf0565b81878151811061269457fe5b6020908102919091010152979650505050505050565b60005b6126b561171e565b81101561270f576126f08482815181106126cb57fe5b60200260200101518483815181106126df57fe5b60200260200101518463ffffffff16565b8482815181106126fc57fe5b60209081029190910101526001016126ad565b50505050565b60006060600061272484612d78565b9050600081600381111561273457fe5b141561274f57612745878786612d8e565b925092505061279a565b600181600381111561275d57fe5b141561276d576127458785612e85565b600281600381111561277b57fe5b141561278d5761274587878787612eb7565b61279861015061251e565b505b94509492505050565b60006127b284846110916126aa565b612114828561226a565b60008282026127d684158061116d57508385838161116a57fe5b670de0b6b3a764000090049392505050565b6127ff6001600160a01b038316151561019b6114fa565b61280b82600083610799565b6001600160a01b03821660009081526020819052604090205461283190826101a161258b565b6001600160a01b0383166000908152602081905260409020556002546128579082612f34565b6002556040516000906001600160a01b038416907fddf252ad1be2c89b69c2b068fc378daa952ba7f163c4a11628f55a4df523b3ef9061289890859061505a565b60405180910390a35050565b60006060806128b1611685565b606060006128bd6121ec565b9150915060006128cd838c61226a565b905060606128e18c8585600954868f6125fb565b90506128f08c826110916126aa565b600060606129008e878d8d612f42565b9150915061290f8e8288612fbb565b60095590975095509350505050985098509895505050505050565b50600090565b600061293a611685565b6121148361294b8660200151612fca565b846129598860400151612fca565b88606001516130ec565b600061296d611685565b6121148361297e8660200151612fca565b8461298c8860400151612fca565b8860600151613159565b6000670de0b6b3a76400008214156129af5750816105de565b671bc16d674ec800008214156129c95761102a83846127bc565b673782dace9d9000008214156129f95760006129e584856127bc565b90506129f181826127bc565b9150506105de565b6000612a0584846131cf565b90506000612a1f612a1883612710611150565b6001611105565b905080821015612a34576000925050506105de565b612a3e8282611091565b925050506105de565b60006060612a53611685565b6000612a5e84612d78565b9050612a796000826003811115612a7157fe5b1460ce6114fa565b6060612a8485613302565b9050612a9161075a61171e565b612a9b8187611ddc565b6060612aa56121ec565b5090506000612ab4828461226a565b90506000612ac48261083461171e565b600992909255509a91995090975050505050505050565b612ae760008383610799565b600254612af49082611105565b6002556001600160a01b038216600090815260208190526040902054612b1a9082611105565b6001600160a01b0383166000818152602081905260408082209390935591519091907fddf252ad1be2c89b69c2b068fc378daa952ba7f163c4a11628f55a4df523b3ef9061289890859061505a565b6000612b947fe01af92c000000000000000000000000000000000000000000000000000000006109db565b821480612bc85750612bc57f3e569205000000000000000000000000000000000000000000000000000000006109db565b82145b806105de57506105de82613318565b1c637fffffff1690565b60006105de637fffffff6110c184670de0b6b3a7640000611150565b60004281612c0c8460c0611e47565b90506000612c1b8560e0611e47565b905080831115612c3857670de0b6b3a76400009350505050610859565b81831015612c4c5760009350505050610859565b8181038284038115612c6757612c628183611d94565b612c71565b670de0b6b3a76400005b979650505050505050565b6000811580612c8a57508284145b15612c965750826106a5565b670de0b6b3a76400008210612cac5750816106a5565b82841115612cd6576000612cc2838587036127bc565b9050612cce8582611091565b9150506106a5565b6000612ce4838686036127bc565b9050612cce8582611105565b6000838311612d0157506000612d6f565b6000612d0d858561119e565b90506000612d23670de0b6b3a764000088611d94565b9050612d37826709b6e64a8ec60000611742565b91506000612d45838361337c565b90506000612d5c612d5583613402565b8b906127bc565b9050612d6881876127bc565b9450505050505b95945050505050565b6000818060200190518101906105de9190614c43565b60006060612d9a611685565b600080612da685613428565b91509150612dbe612db561171e565b821060646114fa565b600080612e02898481518110612dd057fe5b6020026020010151898581518110612de457fe5b602002602001015186612df56105f8565b612dfd6107cc565b61344a565b91509150612e1083826107c8565b6060612e1a61171e565b67ffffffffffffffff81118015612e3057600080fd5b50604051908082528060200260200182016040528015612e5a578160200160208202803683370190505b50905082818581518110612e6a57fe5b60209081029190910101529399939850929650505050505050565b600060606000612e9484613500565b90506060612eaa8683612ea56105f8565b613516565b9196919550909350505050565b60006060612ec3611685565b60606000612ed0856135c8565b91509150612ee182516107ee61171e565b612eeb8287611ddc565b60006060612f0a8a8a86612efd6105f8565b612f056107cc565b6135e0565b91509150612f1c8383111560cf6114fa565b612f258161372a565b50989197509095505050505050565b60006106a58383600161258b565b600060606000612f5184612d78565b90506001816003811115612f6157fe5b1415612f73576127458787878761376e565b6002816003811115612f8157fe5b1415612f92576127458787866137d8565b6003816003811115612fa057fe5b1415612fb057612745878561383b565b61279861013661251e565b60006127b284846111056126aa565b6000807f00000000000000000000000000000000000000000000000000000000000000006001600160a01b0316836001600160a01b0316141561300f575060006130e0565b7f00000000000000000000000000000000000000000000000000000000000000006001600160a01b0316836001600160a01b03161415613051575060016130e0565b7f00000000000000000000000000000000000000000000000000000000000000006001600160a01b0316836001600160a01b03161415613093575060026130e0565b7f00000000000000000000000000000000000000000000000000000000000000006001600160a01b0316836001600160a01b031614156130d5575060036130e0565b6130e061013561251e565b6106a581600b546125a5565b600061310e61310387670429d069189e00006127bc565b8311156101306114fa565b600061311a8784611105565b90506000613128888361119e565b905060006131368887611d94565b90506000613144838361337c565b9050612d6861315282613402565b89906127bc565b600061317b61317085670429d069189e00006127bc565b8311156101316114fa565b600061319161318a8685611091565b869061119e565b9050600061319f858861119e565b905060006131ad838361337c565b905060006131c382670de0b6b3a7640000611091565b9050612d688a82611150565b6000816131e55750670de0b6b3a76400006105de565b826131f2575060006105de565b61321f7f8000000000000000000000000000000000000000000000000000000000000000841060066114fa565b82613245770bce5086492111aea88f4bb1ca6bcf584181ea8059f76532841060076114fa565b826000670c7d713b49da0000831380156132665750670f43fc2c04ee000083125b1561329d57600061327684613860565b9050670de0b6b3a764000080820784020583670de0b6b3a7640000830502019150506132ab565b816132a784613997565b0290505b670de0b6b3a764000090056132f97ffffffffffffffffffffffffffffffffffffffffffffffffdc702bd3a30fc000082128015906132f2575068070c1cc73b00c800008213155b60086114fa565b6125f181613d37565b6060818060200190518101906106a59190614d09565b60006133437f38e9922e000000000000000000000000000000000000000000000000000000006109db565b8214806105de57506133747f50dd6ed9000000000000000000000000000000000000000000000000000000006109db565b909114919050565b6000670de0b6b3a76400008214156133955750816105de565b671bc16d674ec800008214156133af5761102a8384611150565b673782dace9d9000008214156133d75760006133cb8485611150565b90506129f18182611150565b60006133e384846131cf565b905060006133f6612a1883612710611150565b9050612a3e8282611105565b6000670de0b6b3a7640000821061341a5760006105de565b50670de0b6b3a76400000390565b6000808280602001905181019061343f9190614cd3565b909590945092505050565b6000808061345c856110c18189611091565b90506134756709b6e64a8ec600008210156101326114fa565b600061349361348c670de0b6b3a76400008a611d94565b839061337c565b905060006134a3612d5583613402565b905060006134b08a613402565b905060006134be8383611150565b905060006134cc8483611091565b90506134d8828a611150565b96506134ee6134e78389611091565b8290611105565b97505050505050509550959350505050565b6000818060200190518101906106a59190614ca6565b606060006135248484611d94565b90506060855167ffffffffffffffff8111801561354057600080fd5b5060405190808252806020026020018201604052801561356a578160200160208202803683370190505b50905060005b86518110156135be5761359f8388838151811061358957fe5b60200260200101516127bc90919063ffffffff16565b8282815181106135ab57fe5b6020908102919091010152600101613570565b5095945050505050565b606060008280602001905181019061343f9190614c5f565b6000606080855167ffffffffffffffff811180156135fd57600080fd5b50604051908082528060200260200182016040528015613627578160200160208202803683370190505b5090506000805b89518110156136ec576136878a828151811061364657fe5b60200260200101516110c18a848151811061365d57fe5b60200260200101518d858151811061367157fe5b602002602001015161109190919063ffffffff16565b83828151811061369357fe5b6020026020010181815250506136e26136db8a83815181106136b157fe5b60200260200101518584815181106136c557fe5b602002602001015161115090919063ffffffff16565b8390611105565b915060010161362e565b50600060606136ff8b8b8b87878c614207565b91509150600061371861371184613402565b8a90611150565b9c919b50909950505050505050505050565b61373781516107ee61171e565b60005b61374261171e565b8110156107c8576137668183838151811061375957fe5b60200260200101516107c8565b60010161373a565b6000606080600061377e856135c8565b9150915061379461378d61171e565b835161106e565b61379e8287611ddc565b600060606137bd8a8a866137b06105f8565b6137b86107cc565b614385565b915091506137ca8161372a565b612f258383101560d06114fa565b600060606000806137e885613428565b915091506137f7612db561171e565b600080612e0289848151811061380957fe5b602002602001015189858151811061381d57fe5b60200260200101518661382e6105f8565b6138366107cc565b6144bf565b60006060600061384a84613500565b90506060612eaa868361385b6105f8565b61458e565b670de0b6b3a7640000026000806ec097ce7bc90715b34b9f1000000000808401907fffffffffffffffffffffffffffffffffff3f68318436f8ea4cb460f000000000850102816138ac57fe5b05905060006ec097ce7bc90715b34b9f100000000082800205905081806ec097ce7bc90715b34b9f100000000081840205915060038205016ec097ce7bc90715b34b9f100000000082840205915060058205016ec097ce7bc90715b34b9f100000000082840205915060078205016ec097ce7bc90715b34b9f100000000082840205915060098205016ec097ce7bc90715b34b9f1000000000828402059150600b8205016ec097ce7bc90715b34b9f1000000000828402059150600d8205016ec097ce7bc90715b34b9f1000000000828402059150600f826002919005919091010295945050505050565b6000670de0b6b3a76400008212156139d4576139ca826ec097ce7bc90715b34b9f1000000000816139c457fe5b05613997565b6000039050610859565b60007e1600ef3172e58d2e933ec884fde10064c63b5372d805e203c00000000000008312613a2557770195e54c5dd42177f53a27172fa9ec630262827000000000830592506806f05b59d3b2000000015b73011798004d755d3c8bc8e03204cf44619e0000008312613a5d576b1425982cf597cd205cef7380830592506803782dace9d9000000015b606492830292026e01855144814a7ff805980ff00840008312613aa5576e01855144814a7ff805980ff008400068056bc75e2d63100000840205925068ad78ebc5ac62000000015b6b02df0ab5a80a22c61ab5a7008312613ae0576b02df0ab5a80a22c61ab5a70068056bc75e2d6310000084020592506856bc75e2d631000000015b693f1fce3da636ea5cf8508312613b1757693f1fce3da636ea5cf85068056bc75e2d631000008402059250682b5e3af16b18800000015b690127fa27722cc06cc5e28312613b4e57690127fa27722cc06cc5e268056bc75e2d6310000084020592506815af1d78b58c400000015b68280e60114edb805d038312613b835768280e60114edb805d0368056bc75e2d631000008402059250680ad78ebc5ac6200000015b680ebc5fb417461211108312613bae57680ebc5fb4174612111068056bc75e2d631000009384020592015b6808f00f760a4b2db55d8312613be3576808f00f760a4b2db55d68056bc75e2d6310000084020592506802b5e3af16b1880000015b6806f5f17757889379378312613c18576806f5f177578893793768056bc75e2d63100000840205925068015af1d78b58c40000015b6806248f33704b2866038312613c4c576806248f33704b28660368056bc75e2d63100000840205925067ad78ebc5ac620000015b6805c548670b9510e7ac8312613c80576805c548670b9510e7ac68056bc75e2d6310000084020592506756bc75e2d6310000015b600068056bc75e2d63100000840168056bc75e2d631000008086030281613ca357fe5b059050600068056bc75e2d63100000828002059050818068056bc75e2d63100000818402059150600382050168056bc75e2d63100000828402059150600582050168056bc75e2d63100000828402059150600782050168056bc75e2d63100000828402059150600982050168056bc75e2d63100000828402059150600b820501600202606485820105979650505050505050565b6000613d7c7ffffffffffffffffffffffffffffffffffffffffffffffffdc702bd3a30fc00008312158015613d75575068070c1cc73b00c800008313155b60096114fa565b6000821215613db057613d9182600003613d37565b6ec097ce7bc90715b34b9f100000000081613da857fe5b059050610859565b60006806f05b59d3b20000008312613e0657507ffffffffffffffffffffffffffffffffffffffffffffffff90fa4a62c4e00000090910190770195e54c5dd42177f53a27172fa9ec630262827000000000613e52565b6803782dace9d90000008312613e4e57507ffffffffffffffffffffffffffffffffffffffffffffffffc87d2531627000000909101906b1425982cf597cd205cef7380613e52565b5060015b6064929092029168056bc75e2d6310000068ad78ebc5ac620000008412613eb8577fffffffffffffffffffffffffffffffffffffffffffffff5287143a539e0000009093019268056bc75e2d631000006e01855144814a7ff805980ff008400082020590505b6856bc75e2d6310000008412613f0a577fffffffffffffffffffffffffffffffffffffffffffffffa9438a1d29cf0000009093019268056bc75e2d631000006b02df0ab5a80a22c61ab5a70082020590505b682b5e3af16b188000008412613f5a577fffffffffffffffffffffffffffffffffffffffffffffffd4a1c50e94e78000009093019268056bc75e2d63100000693f1fce3da636ea5cf85082020590505b6815af1d78b58c4000008412613faa577fffffffffffffffffffffffffffffffffffffffffffffffea50e2874a73c000009093019268056bc75e2d63100000690127fa27722cc06cc5e282020590505b680ad78ebc5ac62000008412613ff9577ffffffffffffffffffffffffffffffffffffffffffffffff5287143a539e000009093019268056bc75e2d6310000068280e60114edb805d0382020590505b68056bc75e2d631000008412614048577ffffffffffffffffffffffffffffffffffffffffffffffffa9438a1d29cf000009093019268056bc75e2d63100000680ebc5fb4174612111082020590505b6802b5e3af16b18800008412614097577ffffffffffffffffffffffffffffffffffffffffffffffffd4a1c50e94e7800009093019268056bc75e2d631000006808f00f760a4b2db55d82020590505b68015af1d78b58c4000084126140e6577ffffffffffffffffffffffffffffffffffffffffffffffffea50e2874a73c00009093019268056bc75e2d631000006806f5f177578893793782020590505b68056bc75e2d631000008481019085906002908280020505918201919050600368056bc75e2d631000008783020505918201919050600468056bc75e2d631000008783020505918201919050600568056bc75e2d631000008783020505918201919050600668056bc75e2d631000008783020505918201919050600768056bc75e2d631000008783020505918201919050600868056bc75e2d631000008783020505918201919050600968056bc75e2d631000008783020505918201919050600a68056bc75e2d631000008783020505918201919050600b68056bc75e2d631000008783020505918201919050600c68056bc75e2d631000008783020505918201919050606468056bc75e2d63100000848402058502059695505050505050565b60006060855167ffffffffffffffff8111801561422357600080fd5b5060405190808252806020026020018201604052801561424d578160200160208202803683370190505b509050670de0b6b3a7640000915060005b885181101561437957600086828151811061427557fe5b60200260200101518611156142fb57600061429e61429288613402565b8c858151811061358957fe5b905060006142b2828b868151811061367157fe5b905060006142cb61216b670de0b6b3a76400008a611091565b90508181038686815181106142dc57fe5b60209081029190910101526142f18382611105565b9350505050614312565b87828151811061430757fe5b602002602001015190505b600061433b8b848151811061432357fe5b6020026020010151610839848e878151811061367157fe5b905061436d6143668b858151811061434f57fe5b60200260200101518361299690919063ffffffff16565b86906127bc565b9450505060010161425e565b50965096945050505050565b6000606080855167ffffffffffffffff811180156143a257600080fd5b506040519080825280602002602001820160405280156143cc578160200160208202803683370190505b5090506000805b89518110156144745761442c8a82815181106143eb57fe5b60200260200101516108398a848151811061440257fe5b60200260200101518d858151811061441657fe5b602002602001015161110590919063ffffffff16565b83828151811061443857fe5b60200260200101818152505061446a6136db8a838151811061445657fe5b602002602001015185848151811061358957fe5b91506001016143d3565b50600060606144878b8b8b87878c614620565b915091506000670de0b6b3a764000083116144a3576000613718565b6137186144b884670de0b6b3a7640000611091565b8a906127bc565b600080806144d1856110c18189611105565b90506144ea6729a2241af62c00008211156101336114fa565b600061450161348c670de0b6b3a76400008a61119e565b9050600061452161451a83670de0b6b3a7640000611091565b8b90611150565b9050600061452e8a613402565b9050600061453c8383611150565b9050600061454a8483611091565b9050600061456a614563670de0b6b3a76400008c611091565b849061119e565b8381039850905061457b8282611105565b9850505050505050509550959350505050565b6060600061459c848461119e565b90506060855167ffffffffffffffff811180156145b857600080fd5b506040519080825280602002602001820160405280156145e2578160200160208202803683370190505b50905060005b86518110156135be57614601838883815181106136c557fe5b82828151811061460d57fe5b60209081029190910101526001016145e8565b60006060855167ffffffffffffffff8111801561463c57600080fd5b50604051908082528060200260200182016040528015614666578160200160208202803683370190505b509050670de0b6b3a7640000915060005b88518110156143795760008587838151811061468f57fe5b6020026020010151111561470f5760006146b461429288670de0b6b3a7640000611091565b905060006146c8828b868151811061367157fe5b905060006146d68289611150565b90506146ec6146e58383611091565b8490611105565b9350808686815181106146fb57fe5b602002602001018181525050505050614726565b87828151811061471b57fe5b602002602001015190505b600061474f8b848151811061473757fe5b6020026020010151610839848e878151811061441657fe5b90506147636143668b858151811061434f57fe5b94505050600101614677565b80356105de81615201565b600082601f83011261478a578081fd5b813561479d614798826151e1565b6151ba565b8181529150602080830190848101818402860182018710156147be57600080fd5b60005b848110156147dd578135845292820192908201906001016147c1565b505050505092915050565b600082601f8301126147f8578081fd5b8151614806614798826151e1565b81815291506020808301908481018184028601820187101561482757600080fd5b60005b848110156147dd5781518452928201929082019060010161482a565b600082601f830112614856578081fd5b813567ffffffffffffffff81111561486c578182fd5b61487f6020601f19601f840116016151ba565b915080825283602082850101111561489657600080fd5b8060208401602084013760009082016020015292915050565b8035600281106105de57600080fd5b6000602082840312156148cf578081fd5b81356106a581615201565b600080604083850312156148ec578081fd5b82356148f781615201565b9150602083013561490781615201565b809150509250929050565b600080600060608486031215614926578081fd5b833561493181615201565b9250602084013561494181615201565b929592945050506040919091013590565b600080600080600080600060e0888a03121561496c578283fd5b873561497781615201565b9650602088013561498781615201565b95506040880135945060608801359350608088013560ff811681146149aa578384fd5b9699959850939692959460a0840135945060c09093013592915050565b600080604083850312156149d9578182fd5b82356149e481615201565b946020939093013593505050565b600080600060608486031215614a06578081fd5b835167ffffffffffffffff80821115614a1d578283fd5b818601915086601f830112614a30578283fd5b8151614a3e614798826151e1565b80828252602080830192508086018b828387028901011115614a5e578788fd5b8796505b84871015614a89578051614a7581615201565b845260019690960195928101928101614a62565b508901519097509350505080821115614aa0578283fd5b50614aad868287016147e8565b925050604084015190509250925092565b600060208284031215614acf578081fd5b81356106a581615216565b600060208284031215614aeb578081fd5b81516106a581615216565b600080600080600080600060e0888a031215614b10578081fd5b873596506020880135614b2281615201565b95506040880135614b3281615201565b9450606088013567ffffffffffffffff80821115614b4e578283fd5b614b5a8b838c0161477a565b955060808a0135945060a08a0135935060c08a0135915080821115614b7d578283fd5b50614b8a8a828b01614846565b91505092959891949750929550565b600060208284031215614baa578081fd5b81357fffffffff00000000000000000000000000000000000000000000000000000000811681146106a5578182fd5b600060208284031215614bea578081fd5b81516106a581615201565b60008060408385031215614c07578182fd5b8235614c1281615201565b9150602083013567ffffffffffffffff811115614c2d578182fd5b614c3985828601614846565b9150509250929050565b600060208284031215614c54578081fd5b81516106a581615224565b600080600060608486031215614c73578081fd5b8351614c7e81615224565b602085015190935067ffffffffffffffff811115614c9a578182fd5b614aad868287016147e8565b60008060408385031215614cb8578182fd5b8251614cc381615224565b6020939093015192949293505050565b600080600060608486031215614ce7578081fd5b8351614cf281615224565b602085015160409095015190969495509392505050565b60008060408385031215614d1b578182fd5b8251614d2681615224565b602084015190925067ffffffffffffffff811115614d42578182fd5b614c39858286016147e8565b600080600060608486031215614d62578081fd5b833567ffffffffffffffff80821115614d79578283fd5b8186019150610120808389031215614d8f578384fd5b614d98816151ba565b9050614da488846148af565b8152614db3886020850161476f565b6020820152614dc5886040850161476f565b6040820152606083013560608201526080830135608082015260a083013560a0820152614df58860c0850161476f565b60c0820152614e078860e0850161476f565b60e08201526101008084013583811115614e1f578586fd5b614e2b8a828701614846565b9183019190915250976020870135975060409096013595945050505050565b600060208284031215614e5b578081fd5b5035919050565b600080600060608486031215614e76578081fd5b8335925060208401359150604084013567ffffffffffffffff811115614e9a578182fd5b614ea68682870161477a565b9150509250925092565b60008060008060808587031215614ec5578182fd5b8451935060208501519250604085015191506060850151614ee581615201565b939692955090935050565b6000815180845260208085019450808401835b83811015614f1f57815187529582019590820190600101614f03565b509495945050505050565b60008151808452815b81811015614f4f57602081850181015186830182015201614f33565b81811115614f605782602083870101525b50601f01601f19169290920160200192915050565b9182527fffffffff0000000000000000000000000000000000000000000000000000000016602082015260240190565b6000828483379101908152919050565b7f190100000000000000000000000000000000000000000000000000000000000081526002810192909252602282015260420190565b6001600160a01b0391909116815260200190565b6000602082526106a56020830184614ef0565b6000604082526150256040830185614ef0565b8281036020840152612d6f8185614ef0565b901515815260200190565b92151583526020830191909152604082015260600190565b90815260200190565b9283526001600160a01b03918216602084015216604082015260600190565b9586526001600160a01b0394851660208701529290931660408501526060840152608083019190915260a082015260c00190565b9485526020850193909352604084019190915260608301526001600160a01b0316608082015260a00190565b6000838252604060208301526121146040830184614f2a565b9182526001600160a01b0316602082015260400190565b93845260ff9290921660208401526040830152606082015260800190565b6000602082526106a56020830184614f2a565b6000838252604060208301526121146040830184614ef0565b600084825283602083015260606040830152612d6f6060830184614ef0565b60008582528460208301526080604083015261519a6080830185614ef0565b8281036060840152612c718185614ef0565b60ff91909116815260200190565b60405181810167ffffffffffffffff811182821017156151d957600080fd5b604052919050565b600067ffffffffffffffff8211156151f7578081fd5b5060209081020190565b6001600160a01b03811681146105f557600080fd5b80151581146105f557600080fd5b600481106105f557600080fdfea2646970667358221220cdb53f98fd345dbebb4982814124282f4fe495f5cafeb6f77ac30aa5dd1e505164736f6c63430007010033",
  "linkReferences": {},
  "deployedLinkReferences": {}
}