{
  "_format": "hh-sol-artifact-1",
  "contractName": "ManagedPool",
  "sourceName": "contracts/smart/ManagedPool.sol",
  "abi": [
    {
      "inputs": [
        {
          "components": [
            {
              "internalType": "contract IVault",
              "name": "vault",
              "type": "address"
            },
            {
              "internalType": "string",
              "name": "name",
              "type": "string"
            },
            {
              "internalType": "string",
              "name": "symbol",
              "type": "string"
            },
            {
              "internalType": "contract IERC20[]",
              "name": "tokens",
              "type": "address[]"
            },
            {
              "internalType": "uint256[]",
              "name": "normalizedWeights",
              "type": "uint256[]"
            },
            {
              "internalType": "address[]",
              "name": "assetManagers",
              "type": "address[]"
            },
            {
              "internalType": "uint256",
              "name": "swapFeePercentage",
              "type": "uint256"
            },
            {
              "internalType": "uint256",
              "name": "pauseWindowDuration",
              "type": "uint256"
            },
            {
              "internalType": "uint256",
              "name": "bufferPeriodDuration",
              "type": "uint256"
            },
            {
              "internalType": "address",
              "name": "owner",
              "type": "address"
            },
            {
              "internalType": "bool",
              "name": "swapEnabledOnStart",
              "type": "bool"
            },
            {
              "internalType": "bool",
              "name": "mustAllowlistLPs",
              "type": "bool"
            },
            {
              "internalType": "uint256",
              "name": "managementSwapFeePercentage",
              "type": "uint256"
            }
          ],
          "internalType": "struct ManagedPool.NewPoolParams",
          "name": "params",
          "type": "tuple"
        }
      ],
      "stateMutability": "nonpayable",
      "type": "constructor"
    },
    {
      "anonymous": false,
      "inputs": [
        {
          "indexed": true,
          "internalType": "address",
          "name": "member",
          "type": "address"
        }
      ],
      "name": "AllowlistAddressAdded",
      "type": "event"
    },
    {
      "anonymous": false,
      "inputs": [
        {
          "indexed": true,
          "internalType": "address",
          "name": "member",
          "type": "address"
        }
      ],
      "name": "AllowlistAddressRemoved",
      "type": "event"
    },
    {
      "anonymous": false,
      "inputs": [
        {
          "indexed": true,
          "internalType": "address",
          "name": "owner",
          "type": "address"
        },
        {
          "indexed": true,
          "internalType": "address",
          "name": "spender",
          "type": "address"
        },
        {
          "indexed": false,
          "internalType": "uint256",
          "name": "value",
          "type": "uint256"
        }
      ],
      "name": "Approval",
      "type": "event"
    },
    {
      "anonymous": false,
      "inputs": [
        {
          "indexed": false,
          "internalType": "uint256",
          "name": "startTime",
          "type": "uint256"
        },
        {
          "indexed": false,
          "internalType": "uint256",
          "name": "endTime",
          "type": "uint256"
        },
        {
          "indexed": false,
          "internalType": "uint256[]",
          "name": "startWeights",
          "type": "uint256[]"
        },
        {
          "indexed": false,
          "internalType": "uint256[]",
          "name": "endWeights",
          "type": "uint256[]"
        }
      ],
      "name": "GradualWeightUpdateScheduled",
      "type": "event"
    },
    {
      "anonymous": false,
      "inputs": [
        {
          "indexed": false,
          "internalType": "uint256",
          "name": "managementFeePercentage",
          "type": "uint256"
        }
      ],
      "name": "ManagementFeePercentageChanged",
      "type": "event"
    },
    {
      "anonymous": false,
      "inputs": [
        {
          "indexed": false,
          "internalType": "contract IERC20[]",
          "name": "tokens",
          "type": "address[]"
        },
        {
          "indexed": false,
          "internalType": "uint256[]",
          "name": "amounts",
          "type": "uint256[]"
        }
      ],
      "name": "ManagementFeesCollected",
      "type": "event"
    },
    {
      "anonymous": false,
      "inputs": [
        {
          "indexed": false,
          "internalType": "bool",
          "name": "mustAllowlistLPs",
          "type": "bool"
        }
      ],
      "name": "MustAllowlistLPsSet",
      "type": "event"
    },
    {
      "anonymous": false,
      "inputs": [
        {
          "indexed": false,
          "internalType": "bool",
          "name": "paused",
          "type": "bool"
        }
      ],
      "name": "PausedStateChanged",
      "type": "event"
    },
    {
      "anonymous": false,
      "inputs": [
        {
          "indexed": false,
          "internalType": "bool",
          "name": "swapEnabled",
          "type": "bool"
        }
      ],
      "name": "SwapEnabledSet",
      "type": "event"
    },
    {
      "anonymous": false,
      "inputs": [
        {
          "indexed": false,
          "internalType": "uint256",
          "name": "swapFeePercentage",
          "type": "uint256"
        }
      ],
      "name": "SwapFeePercentageChanged",
      "type": "event"
    },
    {
      "anonymous": false,
      "inputs": [
        {
          "indexed": true,
          "internalType": "address",
          "name": "from",
          "type": "address"
        },
        {
          "indexed": true,
          "internalType": "address",
          "name": "to",
          "type": "address"
        },
        {
          "indexed": false,
          "internalType": "uint256",
          "name": "value",
          "type": "uint256"
        }
      ],
      "name": "Transfer",
      "type": "event"
    },
    {
      "inputs": [],
      "name": "DOMAIN_SEPARATOR",
      "outputs": [
        {
          "internalType": "bytes32",
          "name": "",
          "type": "bytes32"
        }
      ],
      "stateMutability": "view",
      "type": "function"
    },
    {
      "inputs": [
        {
          "internalType": "address",
          "name": "member",
          "type": "address"
        }
      ],
      "name": "addAllowedAddress",
      "outputs": [],
      "stateMutability": "nonpayable",
      "type": "function"
    },
    {
      "inputs": [
        {
          "internalType": "address",
          "name": "owner",
          "type": "address"
        },
        {
          "internalType": "address",
          "name": "spender",
          "type": "address"
        }
      ],
      "name": "allowance",
      "outputs": [
        {
          "internalType": "uint256",
          "name": "",
          "type": "uint256"
        }
      ],
      "stateMutability": "view",
      "type": "function"
    },
    {
      "inputs": [
        {
          "internalType": "address",
          "name": "spender",
          "type": "address"
        },
        {
          "internalType": "uint256",
          "name": "amount",
          "type": "uint256"
        }
      ],
      "name": "approve",
      "outputs": [
        {
          "internalType": "bool",
          "name": "",
          "type": "bool"
        }
      ],
      "stateMutability": "nonpayable",
      "type": "function"
    },
    {
      "inputs": [
        {
          "internalType": "address",
          "name": "account",
          "type": "address"
        }
      ],
      "name": "balanceOf",
      "outputs": [
        {
          "internalType": "uint256",
          "name": "",
          "type": "uint256"
        }
      ],
      "stateMutability": "view",
      "type": "function"
    },
    {
      "inputs": [],
      "name": "decimals",
      "outputs": [
        {
          "internalType": "uint8",
          "name": "",
          "type": "uint8"
        }
      ],
      "stateMutability": "view",
      "type": "function"
    },
    {
      "inputs": [
        {
          "internalType": "address",
          "name": "spender",
          "type": "address"
        },
        {
          "internalType": "uint256",
          "name": "amount",
          "type": "uint256"
        }
      ],
      "name": "decreaseAllowance",
      "outputs": [
        {
          "internalType": "bool",
          "name": "",
          "type": "bool"
        }
      ],
      "stateMutability": "nonpayable",
      "type": "function"
    },
    {
      "inputs": [
        {
          "internalType": "bytes4",
          "name": "selector",
          "type": "bytes4"
        }
      ],
      "name": "getActionId",
      "outputs": [
        {
          "internalType": "bytes32",
          "name": "",
          "type": "bytes32"
        }
      ],
      "stateMutability": "view",
      "type": "function"
    },
    {
      "inputs": [],
      "name": "getAuthorizer",
      "outputs": [
        {
          "internalType": "contract IAuthorizer",
          "name": "",
          "type": "address"
        }
      ],
      "stateMutability": "view",
      "type": "function"
    },
    {
      "inputs": [],
      "name": "getCollectedManagementFees",
      "outputs": [
        {
          "internalType": "contract IERC20[]",
          "name": "tokens",
          "type": "address[]"
        },
        {
          "internalType": "uint256[]",
          "name": "collectedFees",
          "type": "uint256[]"
        }
      ],
      "stateMutability": "view",
      "type": "function"
    },
    {
      "inputs": [],
      "name": "getGradualWeightUpdateParams",
      "outputs": [
        {
          "internalType": "uint256",
          "name": "startTime",
          "type": "uint256"
        },
        {
          "internalType": "uint256",
          "name": "endTime",
          "type": "uint256"
        },
        {
          "internalType": "uint256[]",
          "name": "endWeights",
          "type": "uint256[]"
        }
      ],
      "stateMutability": "view",
      "type": "function"
    },
    {
      "inputs": [],
      "name": "getInvariant",
      "outputs": [
        {
          "internalType": "uint256",
          "name": "",
          "type": "uint256"
        }
      ],
      "stateMutability": "view",
      "type": "function"
    },
    {
      "inputs": [],
      "name": "getLastInvariant",
      "outputs": [
        {
          "internalType": "uint256",
          "name": "",
          "type": "uint256"
        }
      ],
      "stateMutability": "pure",
      "type": "function"
    },
    {
      "inputs": [],
      "name": "getManagementSwapFeePercentage",
      "outputs": [
        {
          "internalType": "uint256",
          "name": "",
          "type": "uint256"
        }
      ],
      "stateMutability": "view",
      "type": "function"
    },
    {
      "inputs": [],
      "name": "getMustAllowlistLPs",
      "outputs": [
        {
          "internalType": "bool",
          "name": "",
          "type": "bool"
        }
      ],
      "stateMutability": "view",
      "type": "function"
    },
    {
      "inputs": [],
      "name": "getNormalizedWeights",
      "outputs": [
        {
          "internalType": "uint256[]",
          "name": "",
          "type": "uint256[]"
        }
      ],
      "stateMutability": "view",
      "type": "function"
    },
    {
      "inputs": [],
      "name": "getOwner",
      "outputs": [
        {
          "internalType": "address",
          "name": "",
          "type": "address"
        }
      ],
      "stateMutability": "view",
      "type": "function"
    },
    {
      "inputs": [],
      "name": "getPausedState",
      "outputs": [
        {
          "internalType": "bool",
          "name": "paused",
          "type": "bool"
        },
        {
          "internalType": "uint256",
          "name": "pauseWindowEndTime",
          "type": "uint256"
        },
        {
          "internalType": "uint256",
          "name": "bufferPeriodEndTime",
          "type": "uint256"
        }
      ],
      "stateMutability": "view",
      "type": "function"
    },
    {
      "inputs": [],
      "name": "getPoolId",
      "outputs": [
        {
          "internalType": "bytes32",
          "name": "",
          "type": "bytes32"
        }
      ],
      "stateMutability": "view",
      "type": "function"
    },
    {
      "inputs": [],
      "name": "getRate",
      "outputs": [
        {
          "internalType": "uint256",
          "name": "",
          "type": "uint256"
        }
      ],
      "stateMutability": "view",
      "type": "function"
    },
    {
      "inputs": [],
      "name": "getScalingFactors",
      "outputs": [
        {
          "internalType": "uint256[]",
          "name": "",
          "type": "uint256[]"
        }
      ],
      "stateMutability": "view",
      "type": "function"
    },
    {
      "inputs": [],
      "name": "getSwapEnabled",
      "outputs": [
        {
          "internalType": "bool",
          "name": "",
          "type": "bool"
        }
      ],
      "stateMutability": "view",
      "type": "function"
    },
    {
      "inputs": [],
      "name": "getSwapFeePercentage",
      "outputs": [
        {
          "internalType": "uint256",
          "name": "",
          "type": "uint256"
        }
      ],
      "stateMutability": "view",
      "type": "function"
    },
    {
      "inputs": [],
      "name": "getVault",
      "outputs": [
        {
          "internalType": "contract IVault",
          "name": "",
          "type": "address"
        }
      ],
      "stateMutability": "view",
      "type": "function"
    },
    {
      "inputs": [
        {
          "internalType": "address",
          "name": "spender",
          "type": "address"
        },
        {
          "internalType": "uint256",
          "name": "addedValue",
          "type": "uint256"
        }
      ],
      "name": "increaseAllowance",
      "outputs": [
        {
          "internalType": "bool",
          "name": "",
          "type": "bool"
        }
      ],
      "stateMutability": "nonpayable",
      "type": "function"
    },
    {
      "inputs": [
        {
          "internalType": "address",
          "name": "member",
          "type": "address"
        }
      ],
      "name": "isAllowedAddress",
      "outputs": [
        {
          "internalType": "bool",
          "name": "",
          "type": "bool"
        }
      ],
      "stateMutability": "view",
      "type": "function"
    },
    {
      "inputs": [],
      "name": "name",
      "outputs": [
        {
          "internalType": "string",
          "name": "",
          "type": "string"
        }
      ],
      "stateMutability": "view",
      "type": "function"
    },
    {
      "inputs": [
        {
          "internalType": "address",
          "name": "owner",
          "type": "address"
        }
      ],
      "name": "nonces",
      "outputs": [
        {
          "internalType": "uint256",
          "name": "",
          "type": "uint256"
        }
      ],
      "stateMutability": "view",
      "type": "function"
    },
    {
      "inputs": [
        {
          "internalType": "bytes32",
          "name": "poolId",
          "type": "bytes32"
        },
        {
          "internalType": "address",
          "name": "sender",
          "type": "address"
        },
        {
          "internalType": "address",
          "name": "recipient",
          "type": "address"
        },
        {
          "internalType": "uint256[]",
          "name": "balances",
          "type": "uint256[]"
        },
        {
          "internalType": "uint256",
          "name": "lastChangeBlock",
          "type": "uint256"
        },
        {
          "internalType": "uint256",
          "name": "protocolSwapFeePercentage",
          "type": "uint256"
        },
        {
          "internalType": "bytes",
          "name": "userData",
          "type": "bytes"
        }
      ],
      "name": "onExitPool",
      "outputs": [
        {
          "internalType": "uint256[]",
          "name": "",
          "type": "uint256[]"
        },
        {
          "internalType": "uint256[]",
          "name": "",
          "type": "uint256[]"
        }
      ],
      "stateMutability": "nonpayable",
      "type": "function"
    },
    {
      "inputs": [
        {
          "internalType": "bytes32",
          "name": "poolId",
          "type": "bytes32"
        },
        {
          "internalType": "address",
          "name": "sender",
          "type": "address"
        },
        {
          "internalType": "address",
          "name": "recipient",
          "type": "address"
        },
        {
          "internalType": "uint256[]",
          "name": "balances",
          "type": "uint256[]"
        },
        {
          "internalType": "uint256",
          "name": "lastChangeBlock",
          "type": "uint256"
        },
        {
          "internalType": "uint256",
          "name": "protocolSwapFeePercentage",
          "type": "uint256"
        },
        {
          "internalType": "bytes",
          "name": "userData",
          "type": "bytes"
        }
      ],
      "name": "onJoinPool",
      "outputs": [
        {
          "internalType": "uint256[]",
          "name": "",
          "type": "uint256[]"
        },
        {
          "internalType": "uint256[]",
          "name": "",
          "type": "uint256[]"
        }
      ],
      "stateMutability": "nonpayable",
      "type": "function"
    },
    {
      "inputs": [
        {
          "components": [
            {
              "internalType": "enum IVault.SwapKind",
              "name": "kind",
              "type": "uint8"
            },
            {
              "internalType": "contract IERC20",
              "name": "tokenIn",
              "type": "address"
            },
            {
              "internalType": "contract IERC20",
              "name": "tokenOut",
              "type": "address"
            },
            {
              "internalType": "uint256",
              "name": "amount",
              "type": "uint256"
            },
            {
              "internalType": "bytes32",
              "name": "poolId",
              "type": "bytes32"
            },
            {
              "internalType": "uint256",
              "name": "lastChangeBlock",
              "type": "uint256"
            },
            {
              "internalType": "address",
              "name": "from",
              "type": "address"
            },
            {
              "internalType": "address",
              "name": "to",
              "type": "address"
            },
            {
              "internalType": "bytes",
              "name": "userData",
              "type": "bytes"
            }
          ],
          "internalType": "struct IPoolSwapStructs.SwapRequest",
          "name": "swapRequest",
          "type": "tuple"
        },
        {
          "internalType": "uint256",
          "name": "currentBalanceTokenIn",
          "type": "uint256"
        },
        {
          "internalType": "uint256",
          "name": "currentBalanceTokenOut",
          "type": "uint256"
        }
      ],
      "name": "onSwap",
      "outputs": [
        {
          "internalType": "uint256",
          "name": "",
          "type": "uint256"
        }
      ],
      "stateMutability": "nonpayable",
      "type": "function"
    },
    {
      "inputs": [
        {
          "internalType": "address",
          "name": "owner",
          "type": "address"
        },
        {
          "internalType": "address",
          "name": "spender",
          "type": "address"
        },
        {
          "internalType": "uint256",
          "name": "value",
          "type": "uint256"
        },
        {
          "internalType": "uint256",
          "name": "deadline",
          "type": "uint256"
        },
        {
          "internalType": "uint8",
          "name": "v",
          "type": "uint8"
        },
        {
          "internalType": "bytes32",
          "name": "r",
          "type": "bytes32"
        },
        {
          "internalType": "bytes32",
          "name": "s",
          "type": "bytes32"
        }
      ],
      "name": "permit",
      "outputs": [],
      "stateMutability": "nonpayable",
      "type": "function"
    },
    {
      "inputs": [
        {
          "internalType": "bytes32",
          "name": "poolId",
          "type": "bytes32"
        },
        {
          "internalType": "address",
          "name": "sender",
          "type": "address"
        },
        {
          "internalType": "address",
          "name": "recipient",
          "type": "address"
        },
        {
          "internalType": "uint256[]",
          "name": "balances",
          "type": "uint256[]"
        },
        {
          "internalType": "uint256",
          "name": "lastChangeBlock",
          "type": "uint256"
        },
        {
          "internalType": "uint256",
          "name": "protocolSwapFeePercentage",
          "type": "uint256"
        },
        {
          "internalType": "bytes",
          "name": "userData",
          "type": "bytes"
        }
      ],
      "name": "queryExit",
      "outputs": [
        {
          "internalType": "uint256",
          "name": "bptIn",
          "type": "uint256"
        },
        {
          "internalType": "uint256[]",
          "name": "amountsOut",
          "type": "uint256[]"
        }
      ],
      "stateMutability": "view",
      "type": "function"
    },
    {
      "inputs": [
        {
          "internalType": "bytes32",
          "name": "poolId",
          "type": "bytes32"
        },
        {
          "internalType": "address",
          "name": "sender",
          "type": "address"
        },
        {
          "internalType": "address",
          "name": "recipient",
          "type": "address"
        },
        {
          "internalType": "uint256[]",
          "name": "balances",
          "type": "uint256[]"
        },
        {
          "internalType": "uint256",
          "name": "lastChangeBlock",
          "type": "uint256"
        },
        {
          "internalType": "uint256",
          "name": "protocolSwapFeePercentage",
          "type": "uint256"
        },
        {
          "internalType": "bytes",
          "name": "userData",
          "type": "bytes"
        }
      ],
      "name": "queryJoin",
      "outputs": [
        {
          "internalType": "uint256",
          "name": "bptOut",
          "type": "uint256"
        },
        {
          "internalType": "uint256[]",
          "name": "amountsIn",
          "type": "uint256[]"
        }
      ],
      "stateMutability": "view",
      "type": "function"
    },
    {
      "inputs": [
        {
          "internalType": "address",
          "name": "member",
          "type": "address"
        }
      ],
      "name": "removeAllowedAddress",
      "outputs": [],
      "stateMutability": "nonpayable",
      "type": "function"
    },
    {
      "inputs": [
        {
          "internalType": "contract IERC20",
          "name": "token",
          "type": "address"
        },
        {
          "internalType": "bytes",
          "name": "poolConfig",
          "type": "bytes"
        }
      ],
      "name": "setAssetManagerPoolConfig",
      "outputs": [],
      "stateMutability": "nonpayable",
      "type": "function"
    },
    {
      "inputs": [
        {
          "internalType": "bool",
          "name": "mustAllowlistLPs",
          "type": "bool"
        }
      ],
      "name": "setMustAllowlistLPs",
      "outputs": [],
      "stateMutability": "nonpayable",
      "type": "function"
    },
    {
      "inputs": [
        {
          "internalType": "bool",
          "name": "paused",
          "type": "bool"
        }
      ],
      "name": "setPaused",
      "outputs": [],
      "stateMutability": "nonpayable",
      "type": "function"
    },
    {
      "inputs": [
        {
          "internalType": "bool",
          "name": "swapEnabled",
          "type": "bool"
        }
      ],
      "name": "setSwapEnabled",
      "outputs": [],
      "stateMutability": "nonpayable",
      "type": "function"
    },
    {
      "inputs": [
        {
          "internalType": "uint256",
          "name": "swapFeePercentage",
          "type": "uint256"
        }
      ],
      "name": "setSwapFeePercentage",
      "outputs": [],
      "stateMutability": "nonpayable",
      "type": "function"
    },
    {
      "inputs": [],
      "name": "symbol",
      "outputs": [
        {
          "internalType": "string",
          "name": "",
          "type": "string"
        }
      ],
      "stateMutability": "view",
      "type": "function"
    },
    {
      "inputs": [],
      "name": "totalSupply",
      "outputs": [
        {
          "internalType": "uint256",
          "name": "",
          "type": "uint256"
        }
      ],
      "stateMutability": "view",
      "type": "function"
    },
    {
      "inputs": [
        {
          "internalType": "address",
          "name": "recipient",
          "type": "address"
        },
        {
          "internalType": "uint256",
          "name": "amount",
          "type": "uint256"
        }
      ],
      "name": "transfer",
      "outputs": [
        {
          "internalType": "bool",
          "name": "",
          "type": "bool"
        }
      ],
      "stateMutability": "nonpayable",
      "type": "function"
    },
    {
      "inputs": [
        {
          "internalType": "address",
          "name": "sender",
          "type": "address"
        },
        {
          "internalType": "address",
          "name": "recipient",
          "type": "address"
        },
        {
          "internalType": "uint256",
          "name": "amount",
          "type": "uint256"
        }
      ],
      "name": "transferFrom",
      "outputs": [
        {
          "internalType": "bool",
          "name": "",
          "type": "bool"
        }
      ],
      "stateMutability": "nonpayable",
      "type": "function"
    },
    {
      "inputs": [
        {
          "internalType": "uint256",
          "name": "startTime",
          "type": "uint256"
        },
        {
          "internalType": "uint256",
          "name": "endTime",
          "type": "uint256"
        },
        {
          "internalType": "uint256[]",
          "name": "endWeights",
          "type": "uint256[]"
        }
      ],
      "name": "updateWeightsGradually",
      "outputs": [],
      "stateMutability": "nonpayable",
      "type": "function"
    },
    {
      "inputs": [
        {
          "internalType": "address",
          "name": "recipient",
          "type": "address"
        }
      ],
      "name": "withdrawCollectedManagementFees",
      "outputs": [],
      "stateMutability": "nonpayable",
      "type": "function"
    }
  ],
  "bytecode": "0x6101e06040527f6e71edae12b1b97f4d1f60370fef10105fa2faae0126114a169c64845d6126c9610120523480156200003757600080fd5b5060405162006ef938038062006ef98339810160408190526200005a9162000ec7565b805160208201516040830151606084015160a085015160c086015160e0870151610100880151610120890151855189906002146200009a5760016200009d565b60025b8989898989898989828289898d8280604051806040016040528060018152602001603160f81b81525085858a336001600160a01b031660001b806080818152505050806001600160a01b031660a0816001600160a01b031660601b815250505081600390805190602001906200011592919062000c0f565b5080516200012b90600490602084019062000c0f565b505060058054601260ff1990911617905550815160209283012060c052805191012060e052507f8b73c3c69bb8fe3d512ecc4cf759cc79239f7b179b0ffacaa9a75d522b39400f6101005260601b6001600160601b03191661014052506200019e90506276a70083111561019462000495565b620001b262278d0082111561019562000495565b4290910161016081905201610180528551620001d4906002111560c862000495565b620001ee620001e2620004aa565b8751111560c962000495565b6200020486620004af60201b620016181760201c565b6200020f84620004bb565b6040516309b2760f60e01b81526000906001600160a01b038c16906309b2760f9062000240908d9060040162001164565b602060405180830381600087803b1580156200025b57600080fd5b505af115801562000270573d6000803e3d6000fd5b505050506040513d601f19601f8201168201806040525081019062000296919062000eae565b604051633354e3e960e11b81529091506001600160a01b038c16906366a9c7d290620002cb9084908b908b90600401620010c8565b600060405180830381600087803b158015620002e657600080fd5b505af1158015620002fb573d6000803e3d6000fd5b50505050806101a0818152505050505050505050505050505050505050505050506001600a819055506000816060015151905062000350818360800151518460a00151516200054760201b620016221760201c565b620003806200037a8260016200036562000567565b6200056d60201b6200163a179092919060201c565b62000580565b62000398816200038f620005a5565b1460c962000495565b620003bc670de0b6b3a764000083610180015111156101526200049560201b60201c565b608082015160608301514291620003d991839182918190620005d0565b60005b8281101562000425576200041b84606001518281518110620003fa57fe5b60200260200101516000600c6200081160201b62001649179092919060201c565b50600101620003dc565b506101408301516200043790620008c1565b61016083015162000448906200091c565b610180830180516101c052516040517feba99e9e36df79031493efd8473cfce5475d3a135878665490df8b014069321091620004849162001179565b60405180910390a15050506200122b565b81620004a657620004a68162000962565b5050565b603290565b80620004a681620009b5565b620004d064e8d4a5100082101560cb62000495565b620004e867016345785d8a000082111560ca62000495565b620005078160c060085462000a3f60201b62001716179092919060201c565b6008556040517fa9ba3ffe0b6c366b81232caab38605a0699ad5398d6cce76f91ee809e322dafc906200053c90839062001179565b60405180910390a150565b6200056282841480156200055a57508183145b606762000495565b505050565b60085490565b81811b607f821b198416175b9392505050565b6200059f81600060085462000a5460201b6200172c179092919060201c565b60085550565b6000620005cb6001620005b762000567565b62000a6f60201b620017581790919060201c565b905090565b600080805b845181101562000797576000858281518110620005ee57fe5b6020026020010151905062000616662386f26fc1000082101561012e6200049560201b60201c565b60008583815181106200062557fe5b6020026020010151905062000753620006c5826001600160a01b031663313ce5676040518163ffffffff1660e01b815260040160206040518083038186803b1580156200067157600080fd5b505afa15801562000686573d6000803e3d6000fd5b505050506040513d601f19601f82011682018060405250810190620006ac91906200105e565b60ff16601262000a7c60201b6200175f1790919060201c565b60606200073e620006e18662000a9460201b620017751760201c565b604062000729620007118f8b81518110620006f857fe5b602002602001015162000ad760201b620017991760201c565b60008c62000a3f60201b62001716179092919060201c565b62000b0960201b620017b9179092919060201c565b62000b1b60201b620017cb179092919060201c565b6001600160a01b0382166000908152600b60209081526040909120919091556200078a9086908490620017da62000b2a821b17901c565b94505050600101620005d5565b50620007b0670de0b6b3a7640000831461013462000495565b620007c96200037a876028620007298b60088262000567565b7f0f3631f9dab08169d1db21c6dc5f32536fb2b0a6b9bb5330d71c52132f968be08787878760405162000800949392919062001182565b60405180910390a150505050505050565b6001600160a01b038216600090815260028401602052604081205480620008a057505082546040805180820182526001600160a01b03858116808352602080840187815260008781526001808c018452878220965187546001600160a01b0319169616959095178655905194840194909455948201808955908352600288019094529190209190915562000579565b60001901600090815260018086016020526040822001839055905062000579565b620008eb6200037a826000620008d662000567565b62000b3e60201b620017ec179092919060201c565b7f5a9e84f78f7957cb4ed7478eb0fcad35ee4ecbe2e0f298420b28a3955392573f816040516200053c9190620010bd565b620009316200037a826048620008d662000567565b7f5353e2cb47d505ba9b628610daec53fc41f3a4259dab35a757b0f1d5a58bc1c3816040516200053c9190620010bd565b62461bcd60e51b6000908152602060045260076024526642414c23000030600a808404818106603090810160081b95839006959095019082900491820690940160101b939093010160c81b604452606490fd5b600281511015620009c65762000a3c565b600081600081518110620009d657fe5b602002602001015190506000600190505b82518110156200056257600083828151811062000a0057fe5b6020026020010151905062000a31816001600160a01b0316846001600160a01b03161060656200049560201b60201c565b9150600101620009e7565b50565b6001600160401b03811b1992909216911b1790565b6001600160c01b03828116821b90821b198416179392505050565b81811c607f165b92915050565b600062000a8e83831115600162000495565b50900390565b600062000a76670de0b6b3a764000062000ac363ffffffff80168562000b6760201b620018131790919060201c565b62000bbc60201b620018611790919060201c565b600062000a76670de0b6b3a764000062000ac36001600160401b0380168562000b6760201b620018131790919060201c565b63ffffffff811b1992909216911b1790565b601f811b1992909216911b1790565b600082820162000579848210158362000495565b60006001821b198416828462000b5657600062000b59565b60015b60ff16901b17949350505050565b600082820262000b8f84158062000b8757508385838162000b8457fe5b04145b600362000495565b8062000ba057600091505062000a76565b670de0b6b3a764000060001982015b0460010191505062000a76565b600062000bcd821515600462000495565b8262000bdc5750600062000a76565b670de0b6b3a76400008381029062000c029085838162000bf857fe5b0414600562000495565b82600182038162000baf57fe5b828054600181600116156101000203166002900490600052602060002090601f016020900481019282601f1062000c5257805160ff191683800117855562000c82565b8280016001018555821562000c82579182015b8281111562000c8257825182559160200191906001019062000c65565b5062000c9092915062000c94565b5090565b5b8082111562000c90576000815560010162000c95565b805162000a768162001215565b600082601f83011262000cc9578081fd5b815162000ce062000cda82620011e9565b620011c2565b81815291506020808301908481018184028601820187101562000d0257600080fd5b60005b8481101562000d2e57815162000d1b8162001215565b8452928201929082019060010162000d05565b505050505092915050565b600082601f83011262000d4a578081fd5b815162000d5b62000cda82620011e9565b81815291506020808301908481018184028601820187101562000d7d57600080fd5b60005b8481101562000d2e57815162000d968162001215565b8452928201929082019060010162000d80565b600082601f83011262000dba578081fd5b815162000dcb62000cda82620011e9565b81815291506020808301908481018184028601820187101562000ded57600080fd5b60005b8481101562000d2e5781518452928201929082019060010162000df0565b8051801515811462000a7657600080fd5b600082601f83011262000e30578081fd5b81516001600160401b0381111562000e46578182fd5b602062000e5c601f8301601f19168201620011c2565b9250818352848183860101111562000e7357600080fd5b60005b8281101562000e9357848101820151848201830152810162000e76565b8281111562000ea55760008284860101525b50505092915050565b60006020828403121562000ec0578081fd5b5051919050565b60006020828403121562000ed9578081fd5b81516001600160401b038082111562000ef0578283fd5b81840191506101a080838703121562000f07578384fd5b62000f1281620011c2565b905062000f20868462000cab565b815260208301518281111562000f34578485fd5b62000f428782860162000e1f565b60208301525060408301518281111562000f5a578485fd5b62000f688782860162000e1f565b60408301525060608301518281111562000f80578485fd5b62000f8e8782860162000d39565b60608301525060808301518281111562000fa6578485fd5b62000fb48782860162000da9565b60808301525060a08301518281111562000fcc578485fd5b62000fda8782860162000cb8565b60a08301525060c083015160c082015260e083015160e0820152610100915081830151828201526101209150620010148683850162000cab565b8282015261014091506200102b8683850162000e0e565b828201526101609150620010428683850162000e0e565b9181019190915261018091820151918101919091529392505050565b60006020828403121562001070578081fd5b815160ff8116811462000579578182fd5b6000815180845260208085019450808401835b83811015620010b25781518752958201959082019060010162001094565b509495945050505050565b901515815260200190565b60006060820185835260206060818501528186518084526080860191508288019350845b81811015620011145762001101855162001209565b83529383019391830191600101620010ec565b505084810360408601528551808252908201925081860190845b81811015620011565762001143835162001209565b855293830193918301916001016200112e565b509298975050505050505050565b60208101600383106200117357fe5b91905290565b90815260200190565b600085825284602083015260806040830152620011a3608083018562001081565b8281036060840152620011b7818562001081565b979650505050505050565b6040518181016001600160401b0381118282101715620011e157600080fd5b604052919050565b60006001600160401b03821115620011ff578081fd5b5060209081020190565b6001600160a01b031690565b6001600160a01b038116811462000a3c57600080fd5b60805160a05160601c60c05160e05161010051610120516101405160601c61016051610180516101a0516101c051615c47620012b2600039806110f952806137f25250806108f9525080611a39525080611a155250806110d5525080611373525080611d34525080611d76525080611d555250806110a252508061102c5250615c476000f3fe608060405234801561001057600080fd5b506004361061030a5760003560e01c80637b749c451161019c57806395d89b41116100ee578063c0ff1a1511610097578063dd62ed3e11610071578063dd62ed3e14610605578063e01af92c14610618578063f89f27ed1461062b5761030a565b8063c0ff1a15146105d7578063d505accf146105df578063d5c096c4146105f25761030a565b8063a457c2d7116100c8578063a457c2d7146105a9578063a9059cbb146105bc578063aaabadc5146105cf5761030a565b806395d89b41146105865780639b02cdde1461058e5780639d2c110c146105965761030a565b8063851c1bb3116101505780638d0274661161012a5780638d0274661461056e5780638d928af81461057657806390605f3a1461057e5761030a565b8063851c1bb31461053357806387ec681714610546578063893d20e8146105595761030a565b80637ecebe00116101815780637ecebe00146104fa57806381788e2b1461050d5780638345245e146105205761030a565b80637b749c45146104d05780637beed220146104e35761030a565b806338fff2d01161026057806355c6762811610209578063679aefce116101e3578063679aefce1461049457806370a082311461049c57806374f3b009146104af5761030a565b806355c67628146104585780635b77155e146104605780636028bfd4146104735761030a565b80633e5692051161023a5780633e5692051461042a57806347bc4d921461043d57806350dd6ed9146104455761030a565b806338fff2d0146103fc57806339509351146104045780633c9d93b8146104175761030a565b80631dd746ea116102c257806332f144f51161029c57806332f144f5146103cb5780633644e515146103e157806338e9922e146103e95761030a565b80631dd746ea1461038e57806323b872dd146103a3578063313ce567146103b65761030a565b806316c38b3c116102f357806316c38b3c1461034d57806318160ddd146103625780631c0de051146103775761030a565b806306fdde031461030f578063095ea7b31461032d575b600080fd5b610317610633565b6040516103249190615aea565b60405180910390f35b61034061033b366004615208565b6106ca565b60405161032491906158f0565b61036061035b3660046152ff565b6106e1565b005b61036a6106f5565b6040516103249190615913565b61037f6106fb565b604051610324939291906158fb565b610396610724565b60405161032491906158b8565b6103406103b1366004615158565b610733565b6103be6107a9565b6040516103249190615b71565b6103d36107b2565b604051610324929190615862565b61036a6108d4565b6103606103f736600461568b565b6108de565b61036a6108f7565b610340610412366004615208565b61091b565b610360610425366004615104565b610956565b6103606104383660046156a3565b6109f5565b610340610af2565b610360610453366004615436565b610b07565b61036a610b25565b61036061046e366004615104565b610b36565b610486610481366004615337565b610c5d565b604051610324929190615afd565b61036a610c94565b61036a6104aa366004615104565b610cbf565b6104c26104bd366004615337565b610cde565b6040516103249291906158cb565b6103606104de3660046152ff565b610d81565b6104eb610d9a565b60405161032493929190615b16565b61036a610508366004615104565b610f27565b61036061051b366004615104565b610f42565b61034061052e366004615104565b610ff8565b61036a6105413660046153da565b611028565b610486610554366004615337565b61107a565b6105616110a0565b604051610324919061584e565b6103406110c4565b6105616110d3565b61036a6110f7565b61031761111b565b61036a61117c565b61036a6105a436600461558f565b611189565b6103406105b7366004615208565b611224565b6103406105ca366004615208565b611262565b61056161126f565b61036a611279565b6103606105ed366004615198565b61133e565b6104c2610600366004615337565b611487565b61036a610613366004615120565b6115b8565b6103606106263660046152ff565b6115f5565b61039661160e565b60038054604080516020601f60026000196101006001881615020190951694909404938401819004810282018101909252828152606093909290918301828280156106bf5780601f10610694576101008083540402835291602001916106bf565b820191906000526020600020905b8154815290600101906020018083116106a257829003601f168201915b505050505090505b90565b60006106d73384846118ac565b5060015b92915050565b6106e9611914565b6106f28161195a565b50565b60025490565b60008060006107086119f6565b159250610713611a13565b915061071d611a37565b9050909192565b606061072e611a5b565b905090565b60008061074085336115b8565b9050610764336001600160a01b038716148061075c5750838210155b61019e611ba8565b61076f858585611bb6565b336001600160a01b0386161480159061078a57506000198114155b1561079c5761079c85338584036118ac565b60019150505b9392505050565b60055460ff1690565b6060806107bd611c96565b67ffffffffffffffff811180156107d357600080fd5b506040519080825280602002602001820160405280156107fd578160200160208202803683370190505b509150610808611c96565b67ffffffffffffffff8111801561081e57600080fd5b50604051908082528060200260200182016040528015610848578160200160208202803683370190505b50905060005b610856611c96565b8110156108be5760008061086b600c84611cab565b915091508185848151811061087c57fe5b60200260200101906001600160a01b031690816001600160a01b031681525050808484815181106108a957fe5b6020908102919091010152505060010161084e565b506108d0816108cb611a5b565b611ccf565b9091565b600061072e611d30565b6108e6611914565b6108ee611dcd565b6106f281611de2565b7f000000000000000000000000000000000000000000000000000000000000000090565b3360008181526001602090815260408083206001600160a01b038716845290915281205490916106d791859061095190866117da565b6118ac565b61095e611914565b610966611dcd565b6001600160a01b0381166000908152600f602052604090205461098e9060ff166101b1611ba8565b6001600160a01b0381166000818152600f602052604080822080547fffffffffffffffffffffffffffffffffffffffffffffffffffffffffffffff00169055517f89aa0423af0b4cf311bfb79f61549f2b82b335f041e4f7ae674618059b51a4cb9190a250565b6109fd611914565b610a05611dcd565b610a0d611e4d565b610a1f610a18611c96565b8251611e66565b42610a2a8185611e73565b9350610a3b83851115610146611ba8565b6060610a456110d3565b6001600160a01b031663f94d4668610a5b6108f7565b6040518263ffffffff1660e01b8152600401610a779190615913565b60006040518083038186803b158015610a8f57600080fd5b505afa158015610aa3573d6000803e3d6000fd5b505050506040513d6000823e601f3d908101601f19168201604052610acb9190810190615233565b50509050610ae38585610adc611e8a565b8685611feb565b5050610aed6121af565b505050565b600061072e6000610b016121b6565b906121bc565b610b0f611914565b610b17611dcd565b610b2182826121c6565b5050565b60085460009061072e9060c06122de565b610b3e611914565b610b46611dcd565b610b4e611e4d565b606080610b596107b2565b91509150610b656110d3565b6001600160a01b0316638bdb3913610b7b6108f7565b30866040518060800160405280610b91896106c7565b81526020018781526020016003604051602001610bae9190615ad6565b6040516020818303038152906040528152602001600015158152506040518563ffffffff1660e01b8152600401610be8949392919061593b565b600060405180830381600087803b158015610c0257600080fd5b505af1158015610c16573d6000803e3d6000fd5b505050507f5cf8dd4ddeaded21c5e3dc4043073fa7659089e0d11d8480344663008dff060f8282604051610c4b929190615862565b60405180910390a150506106f26121af565b60006060610c738651610c6e611c96565b611e66565b610c88898989898989896122ec611ccf6123b9565b97509795505050505050565b600061072e610ca16106f5565b610cb9610cac611279565b610cb4611c96565b612549565b90612563565b6001600160a01b0381166000908152602081905260409020545b919050565b60608088610d08610ced6110d3565b6001600160a01b0316336001600160a01b03161460cd611ba8565b610d1d610d136108f7565b82146101f4611ba8565b6060610d27611a5b565b9050610d3388826125ab565b6000606080610d488e8e8e8e8e8e8a8f6122ec565b925092509250610d588d8461260c565b610d628285611ccf565b610d6c8185611ccf565b909550935050505b5097509795505050505050565b610d89611914565b610d91611dcd565b6106f281612616565b60008060606000610da96121b6565b9050610db681600861265d565b9350610dc381602861265d565b92506060610dcf6110d3565b6001600160a01b031663f94d4668610de56108f7565b6040518263ffffffff1660e01b8152600401610e019190615913565b60006040518083038186803b158015610e1957600080fd5b505afa158015610e2d573d6000803e3d6000fd5b505050506040513d6000823e601f3d908101601f19168201604052610e559190810190615233565b505080519091508067ffffffffffffffff81118015610e7357600080fd5b50604051908082528060200260200182016040528015610e9d578160200160208202803683370190505b50935060005b81811015610f1e57610eff610efa6040600b6000878681518110610ec357fe5b60200260200101516001600160a01b03166001600160a01b031681526020019081526020016000205461265d90919063ffffffff16565b612667565b858281518110610f0b57fe5b6020908102919091010152600101610ea3565b50505050909192565b6001600160a01b031660009081526006602052604090205490565b610f4a611914565b610f52611dcd565b610f65610f5d6110c4565b610158611ba8565b6001600160a01b0381166000908152600f6020526040902054610f8e9060ff16156101b0611ba8565b6001600160a01b0381166000818152600f602052604080822080547fffffffffffffffffffffffffffffffffffffffffffffffffffffffffffffff00166001179055517fbf5840c727acdcaceea5154edc82998fa82a490aa3dc7aeb66849c8bbea1f5799190a250565b60006110026110c4565b15806106db5750506001600160a01b03166000908152600f602052604090205460ff1690565b60007f00000000000000000000000000000000000000000000000000000000000000008260405160200161105d9291906157d8565b604051602081830303815290604052805190602001209050919050565b6000606061108b8651610c6e611c96565b610c88898989898989896126856127476123b9565b7f000000000000000000000000000000000000000000000000000000000000000090565b600061072e6048610b016121b6565b7f000000000000000000000000000000000000000000000000000000000000000090565b7f000000000000000000000000000000000000000000000000000000000000000090565b60048054604080516020601f60026000196101006001881615020190951694909404938401819004810282018101909252828152606093909290918301828280156106bf5780601f10610694576101008083540402835291602001916106bf565b60006106c76101536127a8565b6000806111a88560200151610135600c6128159092919063ffffffff16565b905060006111cc6111c5836111c08960200151612852565b612865565b869061175f565b905060006111ec8760400151610135600c6128159092919063ffffffff16565b9050600061120b611204836111c08b60400151612852565b879061175f565b9050611218888483612871565b98975050505050505050565b60008061123133856115b8565b905080831061124b57611246338560006118ac565b611258565b61125833858584036118ac565b5060019392505050565b60006106d7338484611bb6565b600061072e6129c7565b600060606112856110d3565b6001600160a01b031663f94d466861129b6108f7565b6040518263ffffffff1660e01b81526004016112b79190615913565b60006040518083038186803b1580156112cf57600080fd5b505afa1580156112e3573d6000803e3d6000fd5b505050506040513d6000823e601f3d908101601f1916820160405261130b9190810190615233565b509150506113208161131b611a5b565b6125ab565b606061132a612a41565b5090506113378183612abf565b9250505090565b61134c8442111560d1611ba8565b6001600160a01b03871660009081526006602090815260408083205490519092916113a3917f0000000000000000000000000000000000000000000000000000000000000000918c918c918c9188918d9101615a28565b60405160208183030381529060405280519060200120905060006113c682612b31565b90506000600182888888604051600081526020016040526040516113ed9493929190615ab8565b6020604051602081039080840390855afa15801561140f573d6000803e3d6000fd5b5050604051601f190151915061145190506001600160a01b0382161580159061144957508b6001600160a01b0316826001600160a01b0316145b6101f8611ba8565b6001600160a01b038b16600090815260066020526040902060018501905561147a8b8b8b6118ac565b5050505050505050505050565b60608088611496610ced6110d3565b6114a1610d136108f7565b60606114ab611a5b565b90506114b56106f5565b61156857600060606114ca8d8d8d868b612b4d565b915091506114e36114d9612be3565b83101560cc611ba8565b6114f560006114f0612be3565b612bea565b6115088b611501612be3565b8403612bea565b6115128184612747565b8061151b611c96565b67ffffffffffffffff8111801561153157600080fd5b5060405190808252806020026020018201604052801561155b578160200160208202803683370190505b5095509550505050610d74565b61157288826125ab565b60006060806115878e8e8e8e8e8e8a8f612685565b9250925092506115978c84612bea565b6115a18285612747565b6115ab8185611ccf565b9095509350610d74915050565b60006115c26110d3565b6001600160a01b0316826001600160a01b031614156115e457506000196106db565b6115ee8383612bf4565b90506106db565b6115fd611914565b611605611dcd565b6106f281612c1f565b606061072e611e8a565b80610b2181612c5f565b610aed828414801561163357508183145b6067611ba8565b607f811b1992909216911b1790565b6001600160a01b0382166000908152600284016020526040812054806116ee57505082546040805180820182526001600160a01b03858116808352602080840187815260008781526001808c018452878220965187547fffffffffffffffffffffffff000000000000000000000000000000000000000016961695909517865590519484019490945594820180895590835260028801909452919020919091556107a2565b6000190160009081526001808601602052604082200183905590506107a2565b509392505050565b67ffffffffffffffff811b1992909216911b1790565b77ffffffffffffffffffffffffffffffffffffffffffffffff828116821b90821b198416179392505050565b1c607f1690565b600061176f838311156001611ba8565b50900390565b60006106db670de0b6b3a76400006117938463ffffffff6118138116565b90611861565b60006106db670de0b6b3a76400006117938467ffffffffffffffff611813565b63ffffffff811b1992909216911b1790565b601f811b1992909216911b1790565b60008282016107a28482101583611ba8565b60006001821b1984168284611802576000611805565b60015b60ff16901b17949350505050565b600082820261183784158061183057508385838161182d57fe5b04145b6003611ba8565b806118465760009150506106db565b670de0b6b3a764000060001982015b046001019150506106db565b60006118708215156004611ba8565b8261187d575060006106db565b670de0b6b3a7640000838102906118a09085838161189757fe5b04146005611ba8565b82600182038161185557fe5b6001600160a01b0380841660008181526001602090815260408083209487168084529490915290819020849055517f8c5be1e5ebec7d5bd14f71427d1e84f3dd0314c0f7b2291e5b200ac8c7c3b92590611907908590615913565b60405180910390a3505050565b60006119436000357fffffffff0000000000000000000000000000000000000000000000000000000016611028565b90506106f26119528233612cd8565b610191611ba8565b801561197a5761197561196b611a13565b4210610193611ba8565b61198f565b61198f611985611a37565b42106101a9611ba8565b600780547fffffffffffffffffffffffffffffffffffffffffffffffffffffffffffffff00168215151790556040517f9e3a5e37224532dea67b89face185703738a228a6e8a23dee546960180d3be64906119eb9083906158f0565b60405180910390a150565b6000611a00611a37565b42118061072e57505060075460ff161590565b7f000000000000000000000000000000000000000000000000000000000000000090565b7f000000000000000000000000000000000000000000000000000000000000000090565b606080611a666110d3565b6001600160a01b031663f94d4668611a7c6108f7565b6040518263ffffffff1660e01b8152600401611a989190615913565b60006040518083038186803b158015611ab057600080fd5b505afa158015611ac4573d6000803e3d6000fd5b505050506040513d6000823e601f3d908101601f19168201604052611aec9190810190615233565b505080519091508067ffffffffffffffff81118015611b0a57600080fd5b50604051908082528060200260200182016040528015611b34578160200160208202803683370190505b50925060005b81811015611ba257611b83600b6000858481518110611b5557fe5b60200260200101516001600160a01b03166001600160a01b0316815260200190815260200160002054612dc1565b848281518110611b8f57fe5b6020908102919091010152600101611b3a565b50505090565b81610b2157610b21816127a8565b611bcd6001600160a01b0384161515610198611ba8565b611be46001600160a01b0383161515610199611ba8565b611bef838383610aed565b6001600160a01b038316600090815260208190526040902054611c1590826101a0612de3565b6001600160a01b038085166000908152602081905260408082209390935590841681522054611c4490826117da565b6001600160a01b0380841660008181526020819052604090819020939093559151908516907fddf252ad1be2c89b69c2b068fc378daa952ba7f163c4a11628f55a4df523b3ef90611907908590615913565b600061072e6001611ca56121b6565b90611758565b600090815260019182016020526040902080549101546001600160a01b0390911691565b60005b611cda611c96565b811015610aed57611d11838281518110611cf057fe5b6020026020010151838381518110611d0457fe5b6020026020010151612563565b838281518110611d1d57fe5b6020908102919091010152600101611cd2565b60007f00000000000000000000000000000000000000000000000000000000000000007f00000000000000000000000000000000000000000000000000000000000000007f0000000000000000000000000000000000000000000000000000000000000000611d9d612df9565b30604051602001611db2959493929190615a5c565b60405160208183030381529060405280519060200120905090565b611de0611dd86119f6565b610192611ba8565b565b611df564e8d4a5100082101560cb611ba8565b611e0b67016345785d8a000082111560ca611ba8565b600854611e1a908260c0611716565b6008556040517fa9ba3ffe0b6c366b81232caab38605a0699ad5398d6cce76f91ee809e322dafc906119eb908390615913565b611e5f6002600a541415610190611ba8565b6002600a55565b610b218183146067611ba8565b600081831015611e8357816107a2565b5090919050565b606080611e956110d3565b6001600160a01b031663f94d4668611eab6108f7565b6040518263ffffffff1660e01b8152600401611ec79190615913565b60006040518083038186803b158015611edf57600080fd5b505afa158015611ef3573d6000803e3d6000fd5b505050506040513d6000823e601f3d908101601f19168201604052611f1b9190810190615233565b505080519091508067ffffffffffffffff81118015611f3957600080fd5b50604051908082528060200260200182016040528015611f63578160200160208202803683370190505b5092506000611f70612dfd565b905060005b82811015611fe4576000600b6000868481518110611f8f57fe5b60200260200101516001600160a01b03166001600160a01b03168152602001908152602001600020549050611fc48184612e73565b868381518110611fd057fe5b602090810291909101015250600101611f75565b5050505090565b600080805b845181101561213657600085828151811061200757fe5b60200260200101519050612027662386f26fc1000082101561012e611ba8565b600085838151811061203557fe5b602002602001015190506121076120c1826001600160a01b031663313ce5676040518163ffffffff1660e01b815260040160206040518083038186803b15801561207e57600080fd5b505afa158015612092573d6000803e3d6000fd5b505050506040513d601f19601f820116820180604052508101906120b69190615731565b60129060ff1661175f565b60606121006120cf86611775565b60406120f96120f08f8b815181106120e357fe5b6020026020010151611799565b8b906000611716565b91906117b9565b91906117cb565b6001600160a01b0382166000908152600b602052604090205561212a85836117da565b94505050600101611ff0565b5061214d670de0b6b3a76400008314610134611ba8565b6121696121648760286120f98b60086120f96121b6565b612f0c565b7f0f3631f9dab08169d1db21c6dc5f32536fb2b0a6b9bb5330d71c52132f968be08787878760405161219e9493929190615b35565b60405180910390a150505050505050565b6001600a55565b60085490565b1c60019081161490565b60006121d06108f7565b905060006121dc6110d3565b6001600160a01b031663b05f8e4883866040518363ffffffff1660e01b8152600401612209929190615aa1565b60806040518083038186803b15801561222157600080fd5b505afa158015612235573d6000803e3d6000fd5b505050506040513d601f19601f8201168201806040525081019061225991906156f1565b6040517f18e736d40000000000000000000000000000000000000000000000000000000081529094506001600160a01b03851693506318e736d492506122a6915085908790600401615a88565b600060405180830381600087803b1580156122c057600080fd5b505af11580156122d4573d6000803e3d6000fd5b5050505050505050565b1c67ffffffffffffffff1690565b600060608060006122fc85612f21565b905061233d612309610af2565b8061231f5750600182600381111561231d57fe5b145b806123355750600382600381111561233357fe5b145b61014a611ba8565b61234689612f37565b61235a8b8a612353611e8a565b8989612f98565b9094509250612367611c96565b67ffffffffffffffff8111801561237d57600080fd5b506040519080825280602002602001820160405280156123a7578160200160208202803683370190505b50915050985098509895505050505050565b3330146124a8576000306001600160a01b03166000366040516123dd929190615808565b6000604051808303816000865af19150503d806000811461241a576040519150601f19603f3d011682016040523d82523d6000602084013e61241f565b606091505b50509050806000811461242e57fe5b60046000803e6000517fffffffff00000000000000000000000000000000000000000000000000000000167f43adbafb00000000000000000000000000000000000000000000000000000000811461248a573d6000803e3d6000fd5b506020600460003e604060205260243d03602460403e601c3d016000f35b60606124b2611a5b565b90506124be87826125ab565b600060606124d68c8c8c8c8c8c898d8d63ffffffff16565b50915091506124e981848663ffffffff16565b8051601f1982018390526343adbafb7fffffffffffffffffffffffffffffffffffffffffffffffffffffffffffffffc08301526020027fffffffffffffffffffffffffffffffffffffffffffffffffffffffffffffffdc82016044820181fd5b60008282026107a284158061183057508385838161182d57fe5b60006125728215156004611ba8565b8261257f575060006106db565b670de0b6b3a7640000838102906125999085838161189757fe5b8281816125a257fe5b049150506106db565b60005b6125b6611c96565b811015610aed576125ed8382815181106125cc57fe5b60200260200101518383815181106125e057fe5b6020026020010151612fdc565b8382815181106125f957fe5b60209081029190910101526001016125ae565b610b218282613008565b61262e6121648260486126276121b6565b91906117ec565b7f5353e2cb47d505ba9b628610daec53fc41f3a4259dab35a757b0f1d5a58bc1c3816040516119eb91906158f0565b1c63ffffffff1690565b60006106db63ffffffff61179384670de0b6b3a76400006118138416565b6000606080612692611dcd565b6126b961269d610af2565b80612335575060036126ae86612f21565b600381111561233357fe5b6126cd6126c58b610ff8565b6101b1611ba8565b6126d688612f37565b6126e9886126e2611e8a565b87876130c4565b90935091506126f6611c96565b67ffffffffffffffff8111801561270c57600080fd5b50604051908082528060200260200182016040528015612736578160200160208202803683370190505b509050985098509895505050505050565b60005b612752611c96565b811015610aed5761278983828151811061276857fe5b602002602001015183838151811061277c57fe5b6020026020010151611861565b83828151811061279557fe5b602090810291909101015260010161274a565b7f08c379a0000000000000000000000000000000000000000000000000000000006000908152602060045260076024526642414c23000030600a808404818106603090810160081b95839006959095019082900491820690940160101b939093010160c81b604452606490fd5b6001600160a01b038216600090815260028401602052604081205461283c81151584611ba8565b6128498560018303613152565b95945050505050565b60006106db61286083613168565b612dc1565b60006107a28383612563565b60008360800151612883610ced6110d3565b61288e610d136108f7565b600061289d8660200151612852565b905060006128ae8760400151612852565b90506000875160018111156128bf57fe5b141561294f5760006128d4886060015161318f565b905060008189606001510390506128f889602001516128f383876131b0565b6131bc565b6060890182905261290988856131b0565b975061291587846131b0565b96506129258960600151856131b0565b60608a015260006129378a8a8a6131ce565b90506129438185612865565b9650505050505061170e565b61295986836131b0565b955061296585826131b0565b94506129758760600151826131b0565b606088015260006129878888886131f6565b9050612993818461320e565b905060006129a08261321a565b9050600082820390506129bb8a602001516128f383886131b0565b50945061170e92505050565b60006129d16110d3565b6001600160a01b031663aaabadc56040518163ffffffff1660e01b815260040160206040518083038186803b158015612a0957600080fd5b505afa158015612a1d573d6000803e3d6000fd5b505050506040513d601f19601f8201168201806040525081019061072e919061541a565b60606000612a4d611e8a565b915060009050600082600081518110612a6257fe5b602002602001015190506000600190505b8351811015612ab95781848281518110612a8957fe5b60200260200101511115612ab157809250838181518110612aa657fe5b602002602001015191505b600101612a73565b50509091565b670de0b6b3a764000060005b8351811015612b2157612b17612b10858381518110612ae657fe5b6020026020010151858481518110612afa57fe5b602002602001015161324090919063ffffffff16565b8390612fdc565b9150600101612acb565b506106db60008211610137611ba8565b6000612b3b611d30565b8260405160200161105d929190615818565b60006060612b59611dcd565b6000612b6484612f21565b9050612b7f6000826003811115612b7757fe5b1460ce611ba8565b6060612b8a856132f1565b9050612b97610a18611c96565b612ba181876125ab565b6060612bab612a41565b5090506000612bba8284612abf565b90506000612bca82610cb4611c96565b60099290925550945090925050505b9550959350505050565b620f424090565b610b218282613307565b6001600160a01b03918216600090815260016020908152604080832093909416825291909152205490565b612c306121648260006126276121b6565b7f5a9e84f78f7957cb4ed7478eb0fcad35ee4ecbe2e0f298420b28a3955392573f816040516119eb91906158f0565b600281511015612c6e576106f2565b600081600081518110612c7d57fe5b602002602001015190506000600190505b8251811015610aed576000838281518110612ca557fe5b60200260200101519050612cce816001600160a01b0316846001600160a01b0316106065611ba8565b9150600101612c8e565b600073ba1ba1ba1ba1ba1ba1ba1ba1ba1ba1ba1ba1ba1b612cf76110a0565b6001600160a01b031614158015612d125750612d1283613395565b15612d3a57612d1f6110a0565b6001600160a01b0316336001600160a01b03161490506106db565b612d426129c7565b6001600160a01b0316639be2a8848484306040518463ffffffff1660e01b8152600401612d719392919061591c565b60206040518083038186803b158015612d8957600080fd5b505afa158015612d9d573d6000803e3d6000fd5b505050506040513d601f19601f820116820180604052508101906115ee919061531b565b600080612dcf8360606134cb565b600a0a670de0b6b3a7640000029392505050565b6000612df28484111583611ba8565b5050900390565b4690565b60004281612e096121b6565b90506000612e1882600861265d565b90506000612e2783602861265d565b9050808410612e4457670de0b6b3a76400009450505050506106c7565b818411612e585760009450505050506106c7565b818103828503612e688183612563565b965050505050505090565b600080612e88612e8385836122de565b6134d2565b90506000612e9a610efa86604061265d565b9050831580612ea857508082145b15612eb5575090506106db565b670de0b6b3a76400008410612ecd5791506106db9050565b80821115612ef0576000612ee385838503612fdc565b90920392506106db915050565b6000612efe85848403612fdc565b9290920192506106db915050565b600854612f1b9082600061172c565b60085550565b6000818060200190518101906106db9190615484565b60005b612f42611c96565b811015610b2157612f79612f57600c83613152565b838381518110612f6357fe5b602002602001015161175f90919063ffffffff16565b828281518110612f8557fe5b6020908102919091010152600101612f3a565b600060606000612fa784612f21565b90506003816003811115612fb757fe5b1415612fd057612fc6886134f2565b9250925050612bd9565b612fc6878787876135b3565b6000828202612ff684158061183057508385838161182d57fe5b670de0b6b3a764000090049392505050565b61301f6001600160a01b038316151561019b611ba8565b61302b82600083610aed565b6001600160a01b03821660009081526020819052604090205461305190826101a1612de3565b6001600160a01b038316600090815260208190526040902055600254613077908261362c565b6002556040516000906001600160a01b038416907fddf252ad1be2c89b69c2b068fc378daa952ba7f163c4a11628f55a4df523b3ef906130b8908590615913565b60405180910390a35050565b6000606060006130d384612f21565b905060018160038111156130e357fe5b14156130ff576130f58787878761363a565b9250925050613149565b600281600381111561310d57fe5b141561311e576130f58787866136b3565b600381600381111561312c57fe5b141561313c576130f587856137a2565b6131476101366127a8565b505b94509492505050565b6000908152600191820160205260409020015490565b6001600160a01b0381166000908152600b6020526040902054610cd9811515610135611ba8565b6000806131a461319d610b25565b8490611813565b90506107a2838261175f565b60006107a28383612fdc565b610b216131c8836137d4565b826137e4565b60006131e36131db610af2565b610147611ba8565b6131ee84848461384b565b949350505050565b60006132036131db610af2565b6131ee84848461387e565b60006107a28383611861565b60006106db61323961322a610b25565b670de0b6b3a76400009061175f565b8390611861565b6000670de0b6b3a76400008214156132595750816106db565b671bc16d674ec80000821415613273576115ee8384612fdc565b673782dace9d9000008214156132a357600061328f8485612fdc565b905061329b8182612fdc565b9150506106db565b60006132af84846138b1565b905060006132c96132c283612710611813565b60016117da565b9050808210156132de576000925050506106db565b6132e8828261175f565b925050506106db565b6060818060200190518101906107a2919061554a565b61331360008383610aed565b60025461332090826117da565b6002556001600160a01b03821660009081526020819052604090205461334690826117da565b6001600160a01b0383166000818152602081905260408082209390935591519091907fddf252ad1be2c89b69c2b068fc378daa952ba7f163c4a11628f55a4df523b3ef906130b8908590615913565b60006133c07f3e56920500000000000000000000000000000000000000000000000000000000611028565b8214806133f457506133f17fe01af92c00000000000000000000000000000000000000000000000000000000611028565b82145b8061342657506134237f5b77155e00000000000000000000000000000000000000000000000000000000611028565b82145b8061345857506134557f81788e2b00000000000000000000000000000000000000000000000000000000611028565b82145b8061348a57506134877f3c9d93b800000000000000000000000000000000000000000000000000000000611028565b82145b806134bc57506134b97f7b749c4500000000000000000000000000000000000000000000000000000000611028565b82145b806106db57506106db826139ee565b1c601f1690565b60006106db67ffffffffffffffff61179384670de0b6b3a7640000611813565b600060606134fe611dcd565b6135156001600160a01b0384163014610151611ba8565b60009150613521611c96565b67ffffffffffffffff8111801561353757600080fd5b50604051908082528060200260200182016040528015613561578160200160208202803683370190505b50905060005b61356f611c96565b8110156135ad57613581600c82613152565b82828151811061358d57fe5b60209081029190910101526135a5600c826000613a52565b600101613567565b50915091565b6000606060006135c284612f21565b905060008160038111156135d257fe5b14156135e3576130f5878786613a6a565b60018160038111156135f157fe5b1415613601576130f58785613ad5565b600281600381111561360f57fe5b1415613621576130f587878787613afa565b6131476101506127a8565b60006107a283836001612de3565b6000606080600061364a85613b68565b91509150613660613659611c96565b8351611e66565b61366a82876125ab565b600060606136898a8a8661367c6106f5565b613684610b25565b613b8b565b9150915061369681613cf4565b6136a48383101560d0611ba8565b50989197509095505050505050565b600060606000806136c385613d38565b915091506136db6136d2611c96565b82106064611ba8565b60008061371f8984815181106136ed57fe5b602002602001015189858151811061370157fe5b6020026020010151866137126106f5565b61371a610b25565b613d4f565b9150915061372d83826137e4565b6060613737611c96565b67ffffffffffffffff8111801561374d57600080fd5b50604051908082528060200260200182016040528015613777578160200160208202803683370190505b5090508281858151811061378757fe5b60209081029190910101529399939850929650505050505050565b6000606060006137b184613e25565b905060606137c786836137c26106f5565b613e3b565b9196919550909350505050565b60006106db600c83610135613eed565b8015613841576000613816827f0000000000000000000000000000000000000000000000000000000000000000612fdc565b90506000613825600c85613152565b905061383e8461383583856117da565b600c9190613a52565b50505b610b218282610b21565b6000613855611dcd565b6131ee836138668660200151613f14565b846138748860400151613f14565b8860600151613f38565b6000613888611dcd565b6131ee836138998660200151613f14565b846138a78860400151613f14565b8860600151613fb3565b6000816138c75750670de0b6b3a76400006106db565b826138d4575060006106db565b6139017f800000000000000000000000000000000000000000000000000000000000000084106006611ba8565b82613927770bce5086492111aea88f4bb1ca6bcf584181ea8059f7653284106007611ba8565b826000670c7d713b49da0000831380156139485750670f43fc2c04ee000083125b1561397f57600061395884614029565b9050670de0b6b3a764000080820784020583670de0b6b3a76400008305020191505061398d565b8161398984614160565b0290505b670de0b6b3a764000090056139db7ffffffffffffffffffffffffffffffffffffffffffffffffdc702bd3a30fc000082128015906139d4575068070c1cc73b00c800008213155b6008611ba8565b6139e481614500565b9695505050505050565b6000613a197f38e9922e00000000000000000000000000000000000000000000000000000000611028565b8214806106db5750613a4a7f50dd6ed900000000000000000000000000000000000000000000000000000000611028565b909114919050565b60009182526001928301602052604090912090910155565b60006060613a76611dcd565b600080613a8285613d38565b91509150613a916136d2611c96565b60008061371f898481518110613aa357fe5b6020026020010151898581518110613ab757fe5b602002602001015186613ac86106f5565b613ad0610b25565b6149d0565b600060606000613ae484613e25565b905060606137c78683613af56106f5565b614a86565b60006060613b06611dcd565b60606000613b1385613b68565b91509150613b248251610c6e611c96565b613b2e82876125ab565b60006060613b4d8a8a86613b406106f5565b613b48610b25565b614b18565b91509150613b5f8383111560cf611ba8565b6136a481613cf4565b6060600082806020019051810190613b8091906154a0565b909590945092505050565b6000606080855167ffffffffffffffff81118015613ba857600080fd5b50604051908082528060200260200182016040528015613bd2578160200160208202803683370190505b5090506000805b8951811015613c9757613c328a8281518110613bf157fe5b6020026020010151610cb98a8481518110613c0857fe5b60200260200101518d8581518110613c1c57fe5b60200260200101516117da90919063ffffffff16565b838281518110613c3e57fe5b602002602001018181525050613c8d613c868a8381518110613c5c57fe5b6020026020010151858481518110613c7057fe5b6020026020010151612fdc90919063ffffffff16565b83906117da565b9150600101613bd9565b5060006060613caa8b8b8b87878c614c1d565b915091506000670de0b6b3a76400008311613cc6576000613ce2565b613ce2613cdb84670de0b6b3a764000061175f565b8a90612fdc565b9c919b50909950505050505050505050565b613d018151610c6e611c96565b60005b613d0c611c96565b811015610b2157613d3081838381518110613d2357fe5b60200260200101516137e4565b600101613d04565b60008082806020019051810190613b809190615514565b60008080613d618561179381896117da565b9050613d7a6729a2241af62c0000821115610133611ba8565b6000613d98613d91670de0b6b3a76400008a611861565b8390614da2565b90506000613db8613db183670de0b6b3a764000061175f565b8b90611813565b90506000613dc58a614e28565b90506000613dd38383611813565b90506000613de1848361175f565b90506000613e01613dfa670de0b6b3a76400008c61175f565b8490611861565b83810398509050613e1282826117da565b9850505050505050509550959350505050565b6000818060200190518101906107a291906154e7565b60606000613e498484611861565b90506060855167ffffffffffffffff81118015613e6557600080fd5b50604051908082528060200260200182016040528015613e8f578160200160208202803683370190505b50905060005b8651811015613ee357613ec483888381518110613eae57fe5b602002602001015161181390919063ffffffff16565b828281518110613ed057fe5b6020908102919091010152600101613e95565b5095945050505050565b600080613efa8585614e4e565b9050613f0881151584611ba8565b60001901949350505050565b600080613f1f612dfd565b90506000613f2c84613168565b90506131ee8183612e73565b6000613f5a613f4f87670429d069189e0000612fdc565b831115610130611ba8565b6000613f6687846117da565b90506000613f748883611861565b90506000613f828887612563565b90506000613f908383614da2565b9050613fa5613f9e82614e28565b8990612fdc565b9a9950505050505050505050565b6000613fd5613fca85670429d069189e0000612fdc565b831115610131611ba8565b6000613feb613fe4868561175f565b8690611861565b90506000613ff98588611861565b905060006140078383614da2565b9050600061401d82670de0b6b3a764000061175f565b9050613fa58a82611813565b670de0b6b3a7640000026000806ec097ce7bc90715b34b9f1000000000808401907fffffffffffffffffffffffffffffffffff3f68318436f8ea4cb460f0000000008501028161407557fe5b05905060006ec097ce7bc90715b34b9f100000000082800205905081806ec097ce7bc90715b34b9f100000000081840205915060038205016ec097ce7bc90715b34b9f100000000082840205915060058205016ec097ce7bc90715b34b9f100000000082840205915060078205016ec097ce7bc90715b34b9f100000000082840205915060098205016ec097ce7bc90715b34b9f1000000000828402059150600b8205016ec097ce7bc90715b34b9f1000000000828402059150600d8205016ec097ce7bc90715b34b9f1000000000828402059150600f826002919005919091010295945050505050565b6000670de0b6b3a764000082121561419d57614193826ec097ce7bc90715b34b9f10000000008161418d57fe5b05614160565b6000039050610cd9565b60007e1600ef3172e58d2e933ec884fde10064c63b5372d805e203c000000000000083126141ee57770195e54c5dd42177f53a27172fa9ec630262827000000000830592506806f05b59d3b2000000015b73011798004d755d3c8bc8e03204cf44619e0000008312614226576b1425982cf597cd205cef7380830592506803782dace9d9000000015b606492830292026e01855144814a7ff805980ff0084000831261426e576e01855144814a7ff805980ff008400068056bc75e2d63100000840205925068ad78ebc5ac62000000015b6b02df0ab5a80a22c61ab5a70083126142a9576b02df0ab5a80a22c61ab5a70068056bc75e2d6310000084020592506856bc75e2d631000000015b693f1fce3da636ea5cf85083126142e057693f1fce3da636ea5cf85068056bc75e2d631000008402059250682b5e3af16b18800000015b690127fa27722cc06cc5e2831261431757690127fa27722cc06cc5e268056bc75e2d6310000084020592506815af1d78b58c400000015b68280e60114edb805d03831261434c5768280e60114edb805d0368056bc75e2d631000008402059250680ad78ebc5ac6200000015b680ebc5fb41746121110831261437757680ebc5fb4174612111068056bc75e2d631000009384020592015b6808f00f760a4b2db55d83126143ac576808f00f760a4b2db55d68056bc75e2d6310000084020592506802b5e3af16b1880000015b6806f5f177578893793783126143e1576806f5f177578893793768056bc75e2d63100000840205925068015af1d78b58c40000015b6806248f33704b2866038312614415576806248f33704b28660368056bc75e2d63100000840205925067ad78ebc5ac620000015b6805c548670b9510e7ac8312614449576805c548670b9510e7ac68056bc75e2d6310000084020592506756bc75e2d6310000015b600068056bc75e2d63100000840168056bc75e2d63100000808603028161446c57fe5b059050600068056bc75e2d63100000828002059050818068056bc75e2d63100000818402059150600382050168056bc75e2d63100000828402059150600582050168056bc75e2d63100000828402059150600782050168056bc75e2d63100000828402059150600982050168056bc75e2d63100000828402059150600b820501600202606485820105979650505050505050565b60006145457ffffffffffffffffffffffffffffffffffffffffffffffffdc702bd3a30fc0000831215801561453e575068070c1cc73b00c800008313155b6009611ba8565b60008212156145795761455a82600003614500565b6ec097ce7bc90715b34b9f10000000008161457157fe5b059050610cd9565b60006806f05b59d3b200000083126145cf57507ffffffffffffffffffffffffffffffffffffffffffffffff90fa4a62c4e00000090910190770195e54c5dd42177f53a27172fa9ec63026282700000000061461b565b6803782dace9d9000000831261461757507ffffffffffffffffffffffffffffffffffffffffffffffffc87d2531627000000909101906b1425982cf597cd205cef738061461b565b5060015b6064929092029168056bc75e2d6310000068ad78ebc5ac620000008412614681577fffffffffffffffffffffffffffffffffffffffffffffff5287143a539e0000009093019268056bc75e2d631000006e01855144814a7ff805980ff008400082020590505b6856bc75e2d63100000084126146d3577fffffffffffffffffffffffffffffffffffffffffffffffa9438a1d29cf0000009093019268056bc75e2d631000006b02df0ab5a80a22c61ab5a70082020590505b682b5e3af16b188000008412614723577fffffffffffffffffffffffffffffffffffffffffffffffd4a1c50e94e78000009093019268056bc75e2d63100000693f1fce3da636ea5cf85082020590505b6815af1d78b58c4000008412614773577fffffffffffffffffffffffffffffffffffffffffffffffea50e2874a73c000009093019268056bc75e2d63100000690127fa27722cc06cc5e282020590505b680ad78ebc5ac620000084126147c2577ffffffffffffffffffffffffffffffffffffffffffffffff5287143a539e000009093019268056bc75e2d6310000068280e60114edb805d0382020590505b68056bc75e2d631000008412614811577ffffffffffffffffffffffffffffffffffffffffffffffffa9438a1d29cf000009093019268056bc75e2d63100000680ebc5fb4174612111082020590505b6802b5e3af16b18800008412614860577ffffffffffffffffffffffffffffffffffffffffffffffffd4a1c50e94e7800009093019268056bc75e2d631000006808f00f760a4b2db55d82020590505b68015af1d78b58c4000084126148af577ffffffffffffffffffffffffffffffffffffffffffffffffea50e2874a73c00009093019268056bc75e2d631000006806f5f177578893793782020590505b68056bc75e2d631000008481019085906002908280020505918201919050600368056bc75e2d631000008783020505918201919050600468056bc75e2d631000008783020505918201919050600568056bc75e2d631000008783020505918201919050600668056bc75e2d631000008783020505918201919050600768056bc75e2d631000008783020505918201919050600868056bc75e2d631000008783020505918201919050600968056bc75e2d631000008783020505918201919050600a68056bc75e2d631000008783020505918201919050600b68056bc75e2d631000008783020505918201919050600c68056bc75e2d631000008783020505918201919050606468056bc75e2d63100000848402058502059695505050505050565b600080806149e285611793818961175f565b90506149fb6709b6e64a8ec60000821015610132611ba8565b6000614a12613d91670de0b6b3a76400008a612563565b90506000614a29614a2283614e28565b8b90612fdc565b90506000614a368a614e28565b90506000614a448383611813565b90506000614a52848361175f565b9050614a5e828a611813565b9650614a74614a6d838961175f565b82906117da565b97505050505050509550959350505050565b60606000614a948484612563565b90506060855167ffffffffffffffff81118015614ab057600080fd5b50604051908082528060200260200182016040528015614ada578160200160208202803683370190505b50905060005b8651811015613ee357614af983888381518110613c7057fe5b828281518110614b0557fe5b6020908102919091010152600101614ae0565b6000606080855167ffffffffffffffff81118015614b3557600080fd5b50604051908082528060200260200182016040528015614b5f578160200160208202803683370190505b5090506000805b8951811015614bf157614ba98a8281518110614b7e57fe5b60200260200101516117938a8481518110614b9557fe5b60200260200101518d8581518110612f6357fe5b838281518110614bb557fe5b602002602001018181525050614be7613c868a8381518110614bd357fe5b6020026020010151858481518110613eae57fe5b9150600101614b66565b5060006060614c048b8b8b87878c614e6d565b915091506000613ce2614c1684614e28565b8a90611813565b60006060855167ffffffffffffffff81118015614c3957600080fd5b50604051908082528060200260200182016040528015614c63578160200160208202803683370190505b509050670de0b6b3a7640000915060005b8851811015614d9657600085878381518110614c8c57fe5b60200260200101511115614d18576000614cbd614cb188670de0b6b3a764000061175f565b8c8581518110613c7057fe5b90506000614cd1828b8681518110612f6357fe5b90506000614cdf8289611813565b9050614cf5614cee838361175f565b84906117da565b935080868681518110614d0457fe5b602002602001018181525050505050614d2f565b878281518110614d2457fe5b602002602001015190505b6000614d588b8481518110614d4057fe5b6020026020010151610cb9848e8781518110613c1c57fe5b9050614d8a614d838b8581518110614d6c57fe5b60200260200101518361324090919063ffffffff16565b8690612fdc565b94505050600101614c74565b50965096945050505050565b6000670de0b6b3a7640000821415614dbb5750816106db565b671bc16d674ec80000821415614dd5576115ee8384611813565b673782dace9d900000821415614dfd576000614df18485611813565b905061329b8182611813565b6000614e0984846138b1565b90506000614e1c6132c283612710611813565b90506132e882826117da565b6000670de0b6b3a76400008210614e405760006106db565b50670de0b6b3a76400000390565b6001600160a01b03166000908152600291909101602052604090205490565b60006060855167ffffffffffffffff81118015614e8957600080fd5b50604051908082528060200260200182016040528015614eb3578160200160208202803683370190505b509050670de0b6b3a7640000915060005b8851811015614d96576000868281518110614edb57fe5b6020026020010151861115614f55576000614ef8614cb188614e28565b90506000614f0c828b8681518110612f6357fe5b90506000614f25613239670de0b6b3a76400008a61175f565b9050818103868681518110614f3657fe5b6020908102919091010152614f4b83826117da565b9350505050614f6c565b878281518110614f6157fe5b602002602001015190505b6000614f958b8481518110614f7d57fe5b6020026020010151610cb9848e8781518110612f6357fe5b9050614fa9614d838b8581518110614d6c57fe5b94505050600101614ec4565b80356106db81615bd2565b600082601f830112614fd0578081fd5b8135614fe3614fde82615ba6565b615b7f565b81815291506020808301908481018184028601820187101561500457600080fd5b60005b8481101561502357813584529282019290820190600101615007565b505050505092915050565b600082601f83011261503e578081fd5b815161504c614fde82615ba6565b81815291506020808301908481018184028601820187101561506d57600080fd5b60005b8481101561502357815184529282019290820190600101615070565b600082601f83011261509c578081fd5b813567ffffffffffffffff8111156150b2578182fd5b6150c56020601f19601f84011601615b7f565b91508082528360208285010111156150dc57600080fd5b8060208401602084013760009082016020015292915050565b8035600281106106db57600080fd5b600060208284031215615115578081fd5b81356107a281615bd2565b60008060408385031215615132578081fd5b823561513d81615bd2565b9150602083013561514d81615bd2565b809150509250929050565b60008060006060848603121561516c578081fd5b833561517781615bd2565b9250602084013561518781615bd2565b929592945050506040919091013590565b600080600080600080600060e0888a0312156151b2578283fd5b87356151bd81615bd2565b965060208801356151cd81615bd2565b9550604088013594506060880135935060808801356151eb81615c02565b9699959850939692959460a0840135945060c09093013592915050565b6000806040838503121561521a578182fd5b823561522581615bd2565b946020939093013593505050565b600080600060608486031215615247578081fd5b835167ffffffffffffffff8082111561525e578283fd5b818601915086601f830112615271578283fd5b815161527f614fde82615ba6565b80828252602080830192508086018b82838702890101111561529f578788fd5b8796505b848710156152ca5780516152b681615bd2565b8452600196909601959281019281016152a3565b5089015190975093505050808211156152e1578283fd5b506152ee8682870161502e565b925050604084015190509250925092565b600060208284031215615310578081fd5b81356107a281615be7565b60006020828403121561532c578081fd5b81516107a281615be7565b600080600080600080600060e0888a031215615351578081fd5b87359650602088013561536381615bd2565b9550604088013561537381615bd2565b9450606088013567ffffffffffffffff8082111561538f578283fd5b61539b8b838c01614fc0565b955060808a0135945060a08a0135935060c08a01359150808211156153be578283fd5b506153cb8a828b0161508c565b91505092959891949750929550565b6000602082840312156153eb578081fd5b81357fffffffff00000000000000000000000000000000000000000000000000000000811681146107a2578182fd5b60006020828403121561542b578081fd5b81516107a281615bd2565b60008060408385031215615448578182fd5b823561545381615bd2565b9150602083013567ffffffffffffffff81111561546e578182fd5b61547a8582860161508c565b9150509250929050565b600060208284031215615495578081fd5b81516107a281615bf5565b6000806000606084860312156154b4578081fd5b83516154bf81615bf5565b602085015190935067ffffffffffffffff8111156154db578182fd5b6152ee8682870161502e565b600080604083850312156154f9578182fd5b825161550481615bf5565b6020939093015192949293505050565b600080600060608486031215615528578081fd5b835161553381615bf5565b602085015160409095015190969495509392505050565b6000806040838503121561555c578182fd5b825161556781615bf5565b602084015190925067ffffffffffffffff811115615583578182fd5b61547a8582860161502e565b6000806000606084860312156155a3578081fd5b833567ffffffffffffffff808211156155ba578283fd5b81860191506101208083890312156155d0578384fd5b6155d981615b7f565b90506155e588846150f5565b81526155f48860208501614fb5565b60208201526156068860408501614fb5565b6040820152606083013560608201526080830135608082015260a083013560a08201526156368860c08501614fb5565b60c08201526156488860e08501614fb5565b60e08201526101008084013583811115615660578586fd5b61566c8a82870161508c565b9183019190915250976020870135975060409096013595945050505050565b60006020828403121561569c578081fd5b5035919050565b6000806000606084860312156156b7578081fd5b8335925060208401359150604084013567ffffffffffffffff8111156156db578182fd5b6156e786828701614fc0565b9150509250925092565b60008060008060808587031215615706578182fd5b845193506020850151925060408501519150606085015161572681615bd2565b939692955090935050565b600060208284031215615742578081fd5b81516107a281615c02565b6000815180845260208085019450808401835b8381101561577c57815187529582019590820190600101615760565b509495945050505050565b15159052565b60008151808452815b818110156157b257602081850181015186830182015201615796565b818111156157c35782602083870101525b50601f01601f19169290920160200192915050565b9182527fffffffff0000000000000000000000000000000000000000000000000000000016602082015260240190565b6000828483379101908152919050565b7f190100000000000000000000000000000000000000000000000000000000000081526002810192909252602282015260420190565b6001600160a01b0391909116815260200190565b604080825283519082018190526000906020906060840190828701845b828110156158a45781516001600160a01b03168452928401929084019060010161587f565b505050838103828501526139e4818661574d565b6000602082526107a2602083018461574d565b6000604082526158de604083018561574d565b8281036020840152612849818561574d565b901515815260200190565b92151583526020830191909152604082015260600190565b90815260200190565b9283526001600160a01b03918216602084015216604082015260600190565b600085825260206001600160a01b038087168285015280861660408501525060806060840152610100830184516080808601528181518084526101208701915084830193508592505b808310156159ac576159968451615bc6565b8252928401926001929092019190840190615984565b508387015193507fffffffffffffffffffffffffffffffffffffffffffffffffffffffffffffff809250828682030160a08701526159ea818561574d565b935050506040850151818584030160c0860152615a07838261578d565b925050506060840151615a1d60e0850182615787565b509695505050505050565b9586526001600160a01b0394851660208701529290931660408501526060840152608083019190915260a082015260c00190565b9485526020850193909352604084019190915260608301526001600160a01b0316608082015260a00190565b6000838252604060208301526131ee604083018461578d565b9182526001600160a01b0316602082015260400190565b93845260ff9290921660208401526040830152606082015260800190565b6020810160048310615ae457fe5b91905290565b6000602082526107a2602083018461578d565b6000838252604060208301526131ee604083018461574d565b600084825283602083015260606040830152612849606083018461574d565b600085825284602083015260806040830152615b54608083018561574d565b8281036060840152615b66818561574d565b979650505050505050565b60ff91909116815260200190565b60405181810167ffffffffffffffff81118282101715615b9e57600080fd5b604052919050565b600067ffffffffffffffff821115615bbc578081fd5b5060209081020190565b6001600160a01b031690565b6001600160a01b03811681146106f257600080fd5b80151581146106f257600080fd5b600481106106f257600080fd5b60ff811681146106f257600080fdfea26469706673582212205cd66e54992a74c5924cd24cad717eec4366e7ef9e9de2e93258ca98f1047d5d64736f6c63430007010033",
  "linkReferences": {},
  "deployedLinkReferences": {}
}