{
  "_format": "hh-sol-artifact-1",
  "contractName": "MetaStablePool",
  "sourceName": "contracts/meta/MetaStablePool.sol",
  "abi": [
    {
      "inputs": [
        {
          "components": [
            {
              "internalType": "contract IVault",
              "name": "vault",
              "type": "address"
            },
            {
              "internalType": "string",
              "name": "name",
              "type": "string"
            },
            {
              "internalType": "string",
              "name": "symbol",
              "type": "string"
            },
            {
              "internalType": "contract IERC20[]",
              "name": "tokens",
              "type": "address[]"
            },
            {
              "internalType": "contract IRateProvider[]",
              "name": "rateProviders",
              "type": "address[]"
            },
            {
              "internalType": "uint256[]",
              "name": "priceRateCacheDuration",
              "type": "uint256[]"
            },
            {
              "internalType": "uint256",
              "name": "amplificationParameter",
              "type": "uint256"
            },
            {
              "internalType": "uint256",
              "name": "swapFeePercentage",
              "type": "uint256"
            },
            {
              "internalType": "uint256",
              "name": "pauseWindowDuration",
              "type": "uint256"
            },
            {
              "internalType": "uint256",
              "name": "bufferPeriodDuration",
              "type": "uint256"
            },
            {
              "internalType": "bool",
              "name": "oracleEnabled",
              "type": "bool"
            },
            {
              "internalType": "address",
              "name": "owner",
              "type": "address"
            }
          ],
          "internalType": "struct MetaStablePool.NewPoolParams",
          "name": "params",
          "type": "tuple"
        }
      ],
      "stateMutability": "nonpayable",
      "type": "constructor"
    },
    {
      "anonymous": false,
      "inputs": [
        {
          "indexed": false,
          "internalType": "uint256",
          "name": "startValue",
          "type": "uint256"
        },
        {
          "indexed": false,
          "internalType": "uint256",
          "name": "endValue",
          "type": "uint256"
        },
        {
          "indexed": false,
          "internalType": "uint256",
          "name": "startTime",
          "type": "uint256"
        },
        {
          "indexed": false,
          "internalType": "uint256",
          "name": "endTime",
          "type": "uint256"
        }
      ],
      "name": "AmpUpdateStarted",
      "type": "event"
    },
    {
      "anonymous": false,
      "inputs": [
        {
          "indexed": false,
          "internalType": "uint256",
          "name": "currentValue",
          "type": "uint256"
        }
      ],
      "name": "AmpUpdateStopped",
      "type": "event"
    },
    {
      "anonymous": false,
      "inputs": [
        {
          "indexed": true,
          "internalType": "address",
          "name": "owner",
          "type": "address"
        },
        {
          "indexed": true,
          "internalType": "address",
          "name": "spender",
          "type": "address"
        },
        {
          "indexed": false,
          "internalType": "uint256",
          "name": "value",
          "type": "uint256"
        }
      ],
      "name": "Approval",
      "type": "event"
    },
    {
      "anonymous": false,
      "inputs": [
        {
          "indexed": false,
          "internalType": "bool",
          "name": "enabled",
          "type": "bool"
        }
      ],
      "name": "OracleEnabledChanged",
      "type": "event"
    },
    {
      "anonymous": false,
      "inputs": [
        {
          "indexed": false,
          "internalType": "bool",
          "name": "paused",
          "type": "bool"
        }
      ],
      "name": "PausedStateChanged",
      "type": "event"
    },
    {
      "anonymous": false,
      "inputs": [
        {
          "indexed": true,
          "internalType": "contract IERC20",
          "name": "token",
          "type": "address"
        },
        {
          "indexed": false,
          "internalType": "uint256",
          "name": "rate",
          "type": "uint256"
        }
      ],
      "name": "PriceRateCacheUpdated",
      "type": "event"
    },
    {
      "anonymous": false,
      "inputs": [
        {
          "indexed": true,
          "internalType": "contract IERC20",
          "name": "token",
          "type": "address"
        },
        {
          "indexed": true,
          "internalType": "contract IRateProvider",
          "name": "provider",
          "type": "address"
        },
        {
          "indexed": false,
          "internalType": "uint256",
          "name": "cacheDuration",
          "type": "uint256"
        }
      ],
      "name": "PriceRateProviderSet",
      "type": "event"
    },
    {
      "anonymous": false,
      "inputs": [
        {
          "indexed": false,
          "internalType": "uint256",
          "name": "swapFeePercentage",
          "type": "uint256"
        }
      ],
      "name": "SwapFeePercentageChanged",
      "type": "event"
    },
    {
      "anonymous": false,
      "inputs": [
        {
          "indexed": true,
          "internalType": "address",
          "name": "from",
          "type": "address"
        },
        {
          "indexed": true,
          "internalType": "address",
          "name": "to",
          "type": "address"
        },
        {
          "indexed": false,
          "internalType": "uint256",
          "name": "value",
          "type": "uint256"
        }
      ],
      "name": "Transfer",
      "type": "event"
    },
    {
      "inputs": [],
      "name": "DOMAIN_SEPARATOR",
      "outputs": [
        {
          "internalType": "bytes32",
          "name": "",
          "type": "bytes32"
        }
      ],
      "stateMutability": "view",
      "type": "function"
    },
    {
      "inputs": [
        {
          "internalType": "address",
          "name": "owner",
          "type": "address"
        },
        {
          "internalType": "address",
          "name": "spender",
          "type": "address"
        }
      ],
      "name": "allowance",
      "outputs": [
        {
          "internalType": "uint256",
          "name": "",
          "type": "uint256"
        }
      ],
      "stateMutability": "view",
      "type": "function"
    },
    {
      "inputs": [
        {
          "internalType": "address",
          "name": "spender",
          "type": "address"
        },
        {
          "internalType": "uint256",
          "name": "amount",
          "type": "uint256"
        }
      ],
      "name": "approve",
      "outputs": [
        {
          "internalType": "bool",
          "name": "",
          "type": "bool"
        }
      ],
      "stateMutability": "nonpayable",
      "type": "function"
    },
    {
      "inputs": [
        {
          "internalType": "address",
          "name": "account",
          "type": "address"
        }
      ],
      "name": "balanceOf",
      "outputs": [
        {
          "internalType": "uint256",
          "name": "",
          "type": "uint256"
        }
      ],
      "stateMutability": "view",
      "type": "function"
    },
    {
      "inputs": [],
      "name": "decimals",
      "outputs": [
        {
          "internalType": "uint8",
          "name": "",
          "type": "uint8"
        }
      ],
      "stateMutability": "view",
      "type": "function"
    },
    {
      "inputs": [
        {
          "internalType": "address",
          "name": "spender",
          "type": "address"
        },
        {
          "internalType": "uint256",
          "name": "amount",
          "type": "uint256"
        }
      ],
      "name": "decreaseAllowance",
      "outputs": [
        {
          "internalType": "bool",
          "name": "",
          "type": "bool"
        }
      ],
      "stateMutability": "nonpayable",
      "type": "function"
    },
    {
      "inputs": [
        {
          "internalType": "uint256",
          "name": "startIndex",
          "type": "uint256"
        },
        {
          "internalType": "uint256",
          "name": "endIndex",
          "type": "uint256"
        }
      ],
      "name": "dirtyUninitializedOracleSamples",
      "outputs": [],
      "stateMutability": "nonpayable",
      "type": "function"
    },
    {
      "inputs": [],
      "name": "enableOracle",
      "outputs": [],
      "stateMutability": "nonpayable",
      "type": "function"
    },
    {
      "inputs": [
        {
          "internalType": "bytes4",
          "name": "selector",
          "type": "bytes4"
        }
      ],
      "name": "getActionId",
      "outputs": [
        {
          "internalType": "bytes32",
          "name": "",
          "type": "bytes32"
        }
      ],
      "stateMutability": "view",
      "type": "function"
    },
    {
      "inputs": [],
      "name": "getAmplificationParameter",
      "outputs": [
        {
          "internalType": "uint256",
          "name": "value",
          "type": "uint256"
        },
        {
          "internalType": "bool",
          "name": "isUpdating",
          "type": "bool"
        },
        {
          "internalType": "uint256",
          "name": "precision",
          "type": "uint256"
        }
      ],
      "stateMutability": "view",
      "type": "function"
    },
    {
      "inputs": [],
      "name": "getAuthorizer",
      "outputs": [
        {
          "internalType": "contract IAuthorizer",
          "name": "",
          "type": "address"
        }
      ],
      "stateMutability": "view",
      "type": "function"
    },
    {
      "inputs": [],
      "name": "getLargestSafeQueryWindow",
      "outputs": [
        {
          "internalType": "uint256",
          "name": "",
          "type": "uint256"
        }
      ],
      "stateMutability": "pure",
      "type": "function"
    },
    {
      "inputs": [],
      "name": "getLastInvariant",
      "outputs": [
        {
          "internalType": "uint256",
          "name": "lastInvariant",
          "type": "uint256"
        },
        {
          "internalType": "uint256",
          "name": "lastInvariantAmp",
          "type": "uint256"
        }
      ],
      "stateMutability": "view",
      "type": "function"
    },
    {
      "inputs": [
        {
          "internalType": "enum IPriceOracle.Variable",
          "name": "variable",
          "type": "uint8"
        }
      ],
      "name": "getLatest",
      "outputs": [
        {
          "internalType": "uint256",
          "name": "",
          "type": "uint256"
        }
      ],
      "stateMutability": "view",
      "type": "function"
    },
    {
      "inputs": [],
      "name": "getOracleMiscData",
      "outputs": [
        {
          "internalType": "int256",
          "name": "logInvariant",
          "type": "int256"
        },
        {
          "internalType": "int256",
          "name": "logTotalSupply",
          "type": "int256"
        },
        {
          "internalType": "uint256",
          "name": "oracleSampleCreationTimestamp",
          "type": "uint256"
        },
        {
          "internalType": "uint256",
          "name": "oracleIndex",
          "type": "uint256"
        },
        {
          "internalType": "bool",
          "name": "oracleEnabled",
          "type": "bool"
        }
      ],
      "stateMutability": "view",
      "type": "function"
    },
    {
      "inputs": [],
      "name": "getOwner",
      "outputs": [
        {
          "internalType": "address",
          "name": "",
          "type": "address"
        }
      ],
      "stateMutability": "view",
      "type": "function"
    },
    {
      "inputs": [
        {
          "components": [
            {
              "internalType": "enum IPriceOracle.Variable",
              "name": "variable",
              "type": "uint8"
            },
            {
              "internalType": "uint256",
              "name": "ago",
              "type": "uint256"
            }
          ],
          "internalType": "struct IPriceOracle.OracleAccumulatorQuery[]",
          "name": "queries",
          "type": "tuple[]"
        }
      ],
      "name": "getPastAccumulators",
      "outputs": [
        {
          "internalType": "int256[]",
          "name": "results",
          "type": "int256[]"
        }
      ],
      "stateMutability": "view",
      "type": "function"
    },
    {
      "inputs": [],
      "name": "getPausedState",
      "outputs": [
        {
          "internalType": "bool",
          "name": "paused",
          "type": "bool"
        },
        {
          "internalType": "uint256",
          "name": "pauseWindowEndTime",
          "type": "uint256"
        },
        {
          "internalType": "uint256",
          "name": "bufferPeriodEndTime",
          "type": "uint256"
        }
      ],
      "stateMutability": "view",
      "type": "function"
    },
    {
      "inputs": [],
      "name": "getPoolId",
      "outputs": [
        {
          "internalType": "bytes32",
          "name": "",
          "type": "bytes32"
        }
      ],
      "stateMutability": "view",
      "type": "function"
    },
    {
      "inputs": [
        {
          "internalType": "contract IERC20",
          "name": "token",
          "type": "address"
        }
      ],
      "name": "getPriceRateCache",
      "outputs": [
        {
          "internalType": "uint256",
          "name": "rate",
          "type": "uint256"
        },
        {
          "internalType": "uint256",
          "name": "duration",
          "type": "uint256"
        },
        {
          "internalType": "uint256",
          "name": "expires",
          "type": "uint256"
        }
      ],
      "stateMutability": "view",
      "type": "function"
    },
    {
      "inputs": [],
      "name": "getRate",
      "outputs": [
        {
          "internalType": "uint256",
          "name": "",
          "type": "uint256"
        }
      ],
      "stateMutability": "view",
      "type": "function"
    },
    {
      "inputs": [],
      "name": "getRateProviders",
      "outputs": [
        {
          "internalType": "contract IRateProvider[]",
          "name": "providers",
          "type": "address[]"
        }
      ],
      "stateMutability": "view",
      "type": "function"
    },
    {
      "inputs": [
        {
          "internalType": "uint256",
          "name": "index",
          "type": "uint256"
        }
      ],
      "name": "getSample",
      "outputs": [
        {
          "internalType": "int256",
          "name": "logPairPrice",
          "type": "int256"
        },
        {
          "internalType": "int256",
          "name": "accLogPairPrice",
          "type": "int256"
        },
        {
          "internalType": "int256",
          "name": "logBptPrice",
          "type": "int256"
        },
        {
          "internalType": "int256",
          "name": "accLogBptPrice",
          "type": "int256"
        },
        {
          "internalType": "int256",
          "name": "logInvariant",
          "type": "int256"
        },
        {
          "internalType": "int256",
          "name": "accLogInvariant",
          "type": "int256"
        },
        {
          "internalType": "uint256",
          "name": "timestamp",
          "type": "uint256"
        }
      ],
      "stateMutability": "view",
      "type": "function"
    },
    {
      "inputs": [],
      "name": "getScalingFactors",
      "outputs": [
        {
          "internalType": "uint256[]",
          "name": "",
          "type": "uint256[]"
        }
      ],
      "stateMutability": "view",
      "type": "function"
    },
    {
      "inputs": [],
      "name": "getSwapFeePercentage",
      "outputs": [
        {
          "internalType": "uint256",
          "name": "",
          "type": "uint256"
        }
      ],
      "stateMutability": "view",
      "type": "function"
    },
    {
      "inputs": [
        {
          "components": [
            {
              "internalType": "enum IPriceOracle.Variable",
              "name": "variable",
              "type": "uint8"
            },
            {
              "internalType": "uint256",
              "name": "secs",
              "type": "uint256"
            },
            {
              "internalType": "uint256",
              "name": "ago",
              "type": "uint256"
            }
          ],
          "internalType": "struct IPriceOracle.OracleAverageQuery[]",
          "name": "queries",
          "type": "tuple[]"
        }
      ],
      "name": "getTimeWeightedAverage",
      "outputs": [
        {
          "internalType": "uint256[]",
          "name": "results",
          "type": "uint256[]"
        }
      ],
      "stateMutability": "view",
      "type": "function"
    },
    {
      "inputs": [],
      "name": "getTotalSamples",
      "outputs": [
        {
          "internalType": "uint256",
          "name": "",
          "type": "uint256"
        }
      ],
      "stateMutability": "pure",
      "type": "function"
    },
    {
      "inputs": [],
      "name": "getVault",
      "outputs": [
        {
          "internalType": "contract IVault",
          "name": "",
          "type": "address"
        }
      ],
      "stateMutability": "view",
      "type": "function"
    },
    {
      "inputs": [
        {
          "internalType": "address",
          "name": "spender",
          "type": "address"
        },
        {
          "internalType": "uint256",
          "name": "addedValue",
          "type": "uint256"
        }
      ],
      "name": "increaseAllowance",
      "outputs": [
        {
          "internalType": "bool",
          "name": "",
          "type": "bool"
        }
      ],
      "stateMutability": "nonpayable",
      "type": "function"
    },
    {
      "inputs": [],
      "name": "name",
      "outputs": [
        {
          "internalType": "string",
          "name": "",
          "type": "string"
        }
      ],
      "stateMutability": "view",
      "type": "function"
    },
    {
      "inputs": [
        {
          "internalType": "address",
          "name": "owner",
          "type": "address"
        }
      ],
      "name": "nonces",
      "outputs": [
        {
          "internalType": "uint256",
          "name": "",
          "type": "uint256"
        }
      ],
      "stateMutability": "view",
      "type": "function"
    },
    {
      "inputs": [
        {
          "internalType": "bytes32",
          "name": "poolId",
          "type": "bytes32"
        },
        {
          "internalType": "address",
          "name": "sender",
          "type": "address"
        },
        {
          "internalType": "address",
          "name": "recipient",
          "type": "address"
        },
        {
          "internalType": "uint256[]",
          "name": "balances",
          "type": "uint256[]"
        },
        {
          "internalType": "uint256",
          "name": "lastChangeBlock",
          "type": "uint256"
        },
        {
          "internalType": "uint256",
          "name": "protocolSwapFeePercentage",
          "type": "uint256"
        },
        {
          "internalType": "bytes",
          "name": "userData",
          "type": "bytes"
        }
      ],
      "name": "onExitPool",
      "outputs": [
        {
          "internalType": "uint256[]",
          "name": "amountsOut",
          "type": "uint256[]"
        },
        {
          "internalType": "uint256[]",
          "name": "dueProtocolFeeAmounts",
          "type": "uint256[]"
        }
      ],
      "stateMutability": "nonpayable",
      "type": "function"
    },
    {
      "inputs": [
        {
          "internalType": "bytes32",
          "name": "poolId",
          "type": "bytes32"
        },
        {
          "internalType": "address",
          "name": "sender",
          "type": "address"
        },
        {
          "internalType": "address",
          "name": "recipient",
          "type": "address"
        },
        {
          "internalType": "uint256[]",
          "name": "balances",
          "type": "uint256[]"
        },
        {
          "internalType": "uint256",
          "name": "lastChangeBlock",
          "type": "uint256"
        },
        {
          "internalType": "uint256",
          "name": "protocolSwapFeePercentage",
          "type": "uint256"
        },
        {
          "internalType": "bytes",
          "name": "userData",
          "type": "bytes"
        }
      ],
      "name": "onJoinPool",
      "outputs": [
        {
          "internalType": "uint256[]",
          "name": "amountsIn",
          "type": "uint256[]"
        },
        {
          "internalType": "uint256[]",
          "name": "dueProtocolFeeAmounts",
          "type": "uint256[]"
        }
      ],
      "stateMutability": "nonpayable",
      "type": "function"
    },
    {
      "inputs": [
        {
          "components": [
            {
              "internalType": "enum IVault.SwapKind",
              "name": "kind",
              "type": "uint8"
            },
            {
              "internalType": "contract IERC20",
              "name": "tokenIn",
              "type": "address"
            },
            {
              "internalType": "contract IERC20",
              "name": "tokenOut",
              "type": "address"
            },
            {
              "internalType": "uint256",
              "name": "amount",
              "type": "uint256"
            },
            {
              "internalType": "bytes32",
              "name": "poolId",
              "type": "bytes32"
            },
            {
              "internalType": "uint256",
              "name": "lastChangeBlock",
              "type": "uint256"
            },
            {
              "internalType": "address",
              "name": "from",
              "type": "address"
            },
            {
              "internalType": "address",
              "name": "to",
              "type": "address"
            },
            {
              "internalType": "bytes",
              "name": "userData",
              "type": "bytes"
            }
          ],
          "internalType": "struct IPoolSwapStructs.SwapRequest",
          "name": "request",
          "type": "tuple"
        },
        {
          "internalType": "uint256[]",
          "name": "balances",
          "type": "uint256[]"
        },
        {
          "internalType": "uint256",
          "name": "indexIn",
          "type": "uint256"
        },
        {
          "internalType": "uint256",
          "name": "indexOut",
          "type": "uint256"
        }
      ],
      "name": "onSwap",
      "outputs": [
        {
          "internalType": "uint256",
          "name": "",
          "type": "uint256"
        }
      ],
      "stateMutability": "nonpayable",
      "type": "function"
    },
    {
      "inputs": [
        {
          "components": [
            {
              "internalType": "enum IVault.SwapKind",
              "name": "kind",
              "type": "uint8"
            },
            {
              "internalType": "contract IERC20",
              "name": "tokenIn",
              "type": "address"
            },
            {
              "internalType": "contract IERC20",
              "name": "tokenOut",
              "type": "address"
            },
            {
              "internalType": "uint256",
              "name": "amount",
              "type": "uint256"
            },
            {
              "internalType": "bytes32",
              "name": "poolId",
              "type": "bytes32"
            },
            {
              "internalType": "uint256",
              "name": "lastChangeBlock",
              "type": "uint256"
            },
            {
              "internalType": "address",
              "name": "from",
              "type": "address"
            },
            {
              "internalType": "address",
              "name": "to",
              "type": "address"
            },
            {
              "internalType": "bytes",
              "name": "userData",
              "type": "bytes"
            }
          ],
          "internalType": "struct IPoolSwapStructs.SwapRequest",
          "name": "request",
          "type": "tuple"
        },
        {
          "internalType": "uint256",
          "name": "balanceTokenIn",
          "type": "uint256"
        },
        {
          "internalType": "uint256",
          "name": "balanceTokenOut",
          "type": "uint256"
        }
      ],
      "name": "onSwap",
      "outputs": [
        {
          "internalType": "uint256",
          "name": "",
          "type": "uint256"
        }
      ],
      "stateMutability": "nonpayable",
      "type": "function"
    },
    {
      "inputs": [
        {
          "internalType": "address",
          "name": "owner",
          "type": "address"
        },
        {
          "internalType": "address",
          "name": "spender",
          "type": "address"
        },
        {
          "internalType": "uint256",
          "name": "value",
          "type": "uint256"
        },
        {
          "internalType": "uint256",
          "name": "deadline",
          "type": "uint256"
        },
        {
          "internalType": "uint8",
          "name": "v",
          "type": "uint8"
        },
        {
          "internalType": "bytes32",
          "name": "r",
          "type": "bytes32"
        },
        {
          "internalType": "bytes32",
          "name": "s",
          "type": "bytes32"
        }
      ],
      "name": "permit",
      "outputs": [],
      "stateMutability": "nonpayable",
      "type": "function"
    },
    {
      "inputs": [
        {
          "internalType": "bytes32",
          "name": "poolId",
          "type": "bytes32"
        },
        {
          "internalType": "address",
          "name": "sender",
          "type": "address"
        },
        {
          "internalType": "address",
          "name": "recipient",
          "type": "address"
        },
        {
          "internalType": "uint256[]",
          "name": "balances",
          "type": "uint256[]"
        },
        {
          "internalType": "uint256",
          "name": "lastChangeBlock",
          "type": "uint256"
        },
        {
          "internalType": "uint256",
          "name": "protocolSwapFeePercentage",
          "type": "uint256"
        },
        {
          "internalType": "bytes",
          "name": "userData",
          "type": "bytes"
        }
      ],
      "name": "queryExit",
      "outputs": [
        {
          "internalType": "uint256",
          "name": "bptIn",
          "type": "uint256"
        },
        {
          "internalType": "uint256[]",
          "name": "amountsOut",
          "type": "uint256[]"
        }
      ],
      "stateMutability": "view",
      "type": "function"
    },
    {
      "inputs": [
        {
          "internalType": "bytes32",
          "name": "poolId",
          "type": "bytes32"
        },
        {
          "internalType": "address",
          "name": "sender",
          "type": "address"
        },
        {
          "internalType": "address",
          "name": "recipient",
          "type": "address"
        },
        {
          "internalType": "uint256[]",
          "name": "balances",
          "type": "uint256[]"
        },
        {
          "internalType": "uint256",
          "name": "lastChangeBlock",
          "type": "uint256"
        },
        {
          "internalType": "uint256",
          "name": "protocolSwapFeePercentage",
          "type": "uint256"
        },
        {
          "internalType": "bytes",
          "name": "userData",
          "type": "bytes"
        }
      ],
      "name": "queryJoin",
      "outputs": [
        {
          "internalType": "uint256",
          "name": "bptOut",
          "type": "uint256"
        },
        {
          "internalType": "uint256[]",
          "name": "amountsIn",
          "type": "uint256[]"
        }
      ],
      "stateMutability": "view",
      "type": "function"
    },
    {
      "inputs": [
        {
          "internalType": "contract IERC20",
          "name": "token",
          "type": "address"
        },
        {
          "internalType": "bytes",
          "name": "poolConfig",
          "type": "bytes"
        }
      ],
      "name": "setAssetManagerPoolConfig",
      "outputs": [],
      "stateMutability": "nonpayable",
      "type": "function"
    },
    {
      "inputs": [
        {
          "internalType": "bool",
          "name": "paused",
          "type": "bool"
        }
      ],
      "name": "setPaused",
      "outputs": [],
      "stateMutability": "nonpayable",
      "type": "function"
    },
    {
      "inputs": [
        {
          "internalType": "contract IERC20",
          "name": "token",
          "type": "address"
        },
        {
          "internalType": "uint256",
          "name": "duration",
          "type": "uint256"
        }
      ],
      "name": "setPriceRateCacheDuration",
      "outputs": [],
      "stateMutability": "nonpayable",
      "type": "function"
    },
    {
      "inputs": [
        {
          "internalType": "uint256",
          "name": "swapFeePercentage",
          "type": "uint256"
        }
      ],
      "name": "setSwapFeePercentage",
      "outputs": [],
      "stateMutability": "nonpayable",
      "type": "function"
    },
    {
      "inputs": [
        {
          "internalType": "uint256",
          "name": "rawEndValue",
          "type": "uint256"
        },
        {
          "internalType": "uint256",
          "name": "endTime",
          "type": "uint256"
        }
      ],
      "name": "startAmplificationParameterUpdate",
      "outputs": [],
      "stateMutability": "nonpayable",
      "type": "function"
    },
    {
      "inputs": [],
      "name": "stopAmplificationParameterUpdate",
      "outputs": [],
      "stateMutability": "nonpayable",
      "type": "function"
    },
    {
      "inputs": [],
      "name": "symbol",
      "outputs": [
        {
          "internalType": "string",
          "name": "",
          "type": "string"
        }
      ],
      "stateMutability": "view",
      "type": "function"
    },
    {
      "inputs": [],
      "name": "totalSupply",
      "outputs": [
        {
          "internalType": "uint256",
          "name": "",
          "type": "uint256"
        }
      ],
      "stateMutability": "view",
      "type": "function"
    },
    {
      "inputs": [
        {
          "internalType": "address",
          "name": "recipient",
          "type": "address"
        },
        {
          "internalType": "uint256",
          "name": "amount",
          "type": "uint256"
        }
      ],
      "name": "transfer",
      "outputs": [
        {
          "internalType": "bool",
          "name": "",
          "type": "bool"
        }
      ],
      "stateMutability": "nonpayable",
      "type": "function"
    },
    {
      "inputs": [
        {
          "internalType": "address",
          "name": "sender",
          "type": "address"
        },
        {
          "internalType": "address",
          "name": "recipient",
          "type": "address"
        },
        {
          "internalType": "uint256",
          "name": "amount",
          "type": "uint256"
        }
      ],
      "name": "transferFrom",
      "outputs": [
        {
          "internalType": "bool",
          "name": "",
          "type": "bool"
        }
      ],
      "stateMutability": "nonpayable",
      "type": "function"
    },
    {
      "inputs": [
        {
          "internalType": "contract IERC20",
          "name": "token",
          "type": "address"
        }
      ],
      "name": "updatePriceRateCache",
      "outputs": [],
      "stateMutability": "nonpayable",
      "type": "function"
    }
  ],
  "bytecode": "0x6103606040527f6e71edae12b1b97f4d1f60370fef10105fa2faae0126114a169c64845d6126c9610120523480156200003757600080fd5b506040516200762d3803806200762d8339810160408190526200005a91620010a1565b805160208201516040830151606084015160c085015160e0860151610100870151610120880151610160890151855189906002146200009b5760006200009e565b60025b8989898a516001600160401b0381118015620000b957600080fd5b50604051908082528060200260200182016040528015620000e4578160200160208202803683370190505b5089898989828289898d8280604051806040016040528060018152602001603160f81b81525085858a336001600160a01b031660001b806080818152505050806001600160a01b031660a0816001600160a01b031660601b815250505081600390805190602001906200015992919062000de9565b5080516200016f90600490602084019062000de9565b505060058054601260ff1990911617905550815160209283012060c052805191012060e052507f8b73c3c69bb8fe3d512ecc4cf759cc79239f7b179b0ffacaa9a75d522b39400f6101005260601b6001600160601b0319166101405250620001e290506276a7008311156101946200084b565b620001f662278d008211156101956200084b565b429091016101608190520161018052855162000218906002111560c86200084b565b620002326200022662000860565b8751111560c96200084b565b62000248866200086560201b6200141d1760201c565b620002538462000871565b6040516309b2760f60e01b81526000906001600160a01b038c16906309b2760f9062000284908d90600401620012e7565b602060405180830381600087803b1580156200029f57600080fd5b505af1158015620002b4573d6000803e3d6000fd5b505050506040513d601f19601f82011682018060405250810190620002da919062001088565b604051633354e3e960e11b81529091506001600160a01b038c16906366a9c7d2906200030f9084908b908b906004016200124b565b600060405180830381600087803b1580156200032a57600080fd5b505af11580156200033f573d6000803e3d6000fd5b5050506101a091909152506200036a9950505060018d1015965061012c9550506200084b9350505050565b6200037d61138886111561012d6200084b565b85516101c0819052865187906000906200039357fe5b60200260200101516001600160a01b03166101e0816001600160a01b031660601b8152505086600181518110620003c657fe5b60200260200101516001600160a01b0316610200816001600160a01b031660601b8152505060028111620003fc57600062000413565b866002815181106200040a57fe5b60200260200101515b60601b6001600160601b0319166102205260038111620004355760006200044c565b866003815181106200044357fe5b60200260200101515b60601b6001600160601b03191661024052600481116200046e57600062000485565b866004815181106200047c57fe5b60200260200101515b6001600160a01b0316610260816001600160a01b031660601b81525050620004c887600081518110620004b457fe5b6020026020010151620008fd60201b60201c565b610280528651620004e19088906001908110620004b457fe5b6102a05260028111620004f657600062000508565b6200050887600281518110620004b457fe5b6102c052600381116200051d5760006200052f565b6200052f87600381518110620004b457fe5b6102e052600481116200054457600062000556565b6200055687600481518110620004b457fe5b6103008181525050600062000579876103e8620009d160201b620014271760201c565b9050620005868162000a02565b5050505050505050505050620005ac81606001515160021460d26200084b60201b60201c565b620005d38160600151518260800151518360a001515162000a4160201b6200144b1760201c565b60008160800151600081518110620005e757fe5b60209081029190910101516001600160601b0319606082901b166103205290506001600160a01b038116156200069e5760008062000645838560a001516000815181106200063157fe5b602002602001015162000a6160201b60201c565b9150915081600d8190555083606001516000815181106200066257fe5b60200260200101516001600160a01b0316600080516020620075ed83398151915282604051620006939190620012fc565b60405180910390a250505b806001600160a01b03168260600151600081518110620006ba57fe5b60200260200101516001600160a01b03166000805160206200760d8339815191528460a00151600081518110620006ed57fe5b6020026020010151604051620007049190620012fc565b60405180910390a3600082608001516001815181106200072057fe5b60209081029190910101516001600160601b0319606082901b166103405290506001600160a01b03811615620007c3576000806200076a838660a001516001815181106200063157fe5b9150915081600e8190555084606001516001815181106200078757fe5b60200260200101516001600160a01b0316600080516020620075ed83398151915282604051620007b89190620012fc565b60405180910390a250505b806001600160a01b03168360600151600181518110620007df57fe5b60200260200101516001600160a01b03166000805160206200760d8339815191528560a001516001815181106200081257fe5b6020026020010151604051620008299190620012fc565b60405180910390a3610140830151620008429062000b5f565b5050506200136e565b816200085c576200085c8162000bbd565b5050565b600590565b806200085c8162000c10565b6200088664e8d4a5100082101560cb6200084b565b6200089e67016345785d8a000082111560ca6200084b565b620008bd8160c060085462000c9a60201b62001468179092919060201c565b6008556040517fa9ba3ffe0b6c366b81232caab38605a0699ad5398d6cce76f91ee809e322dafc90620008f2908390620012fc565b60405180910390a150565b60006001600160a01b038216301415620009215750670de0b6b3a7640000620009cc565b6000826001600160a01b031663313ce5676040518163ffffffff1660e01b815260040160206040518083038186803b1580156200095d57600080fd5b505afa15801562000972573d6000803e3d6000fd5b505050506040513d601f19601f820116820180604052508101906200099891906200121d565b60ff1690506000620009b760128362000caf60201b6200147d1760201c565b905080600a0a670de0b6b3a764000002925050505b919050565b6000828202620009f9841580620009f1575083858381620009ee57fe5b04145b60036200084b565b90505b92915050565b62000a108180428062000cc7565b7fa0d01593e47e69d07e0ccd87bece09411e07dd1ed40ca8f2e7af2976542a023381604051620008f29190620012fc565b62000a5c828414801562000a5457508183145b60676200084b565b505050565b600080836001600160a01b031663679aefce6040518163ffffffff1660e01b815260040160206040518083038186803b15801562000a9e57600080fd5b505afa15801562000ab3573d6000803e3d6000fd5b505050506040513d601f19601f8201168201806040525081019062000ad9919062001088565b905062000aef600160801b82106101496200084b565b62000b128342016001600160401b031660c062000d5760201b620014931760201c565b62000b33846001600160401b0316608062000d5760201b620014931760201c565b62000b54836001600160801b0316600062000d5760201b620014931760201c565b171791509250929050565b62000b8c62000b868262000b7262000d5b565b62000d6160201b620014971790919060201c565b62000d80565b7f3e350b41e86a8e10f804ade6d35340d620be35569cc75ac943e8bb14ab80ead181604051620008f2919062001240565b62461bcd60e51b6000908152602060045260076024526642414c23000030600a808404818106603090810160081b95839006959095019082900491820690940160101b939093010160c81b604452606490fd5b60028151101562000c215762000c97565b60008160008151811062000c3157fe5b602002602001015190506000600190505b825181101562000a5c57600083828151811062000c5b57fe5b6020026020010151905062000c8c816001600160a01b0316846001600160a01b03161060656200084b60201b60201c565b915060010162000c42565b50565b6001600160401b03811b1992909216911b1790565b600062000cc18383111560016200084b565b50900390565b62000ce8816001600160401b031660c062000d5760201b620014931760201c565b62000d09836001600160401b0316608062000d5760201b620014931760201c565b62000d2a856001600160401b0316604062000d5760201b620014931760201c565b62000d4b876001600160401b0316600062000d5760201b620014931760201c565b17171760095550505050565b1b90565b60085490565b6000620009f98260558562000da560201b620014a1179092919060201c565b62000d9f81600060085462000dce60201b620014c8179092919060201c565b60085550565b60006001821b198416828462000dbd57600062000dc0565b60015b60ff16901b17949350505050565b6001600160c01b03828116821b90821b198416179392505050565b828054600181600116156101000203166002900490600052602060002090601f016020900481019282601f1062000e2c57805160ff191683800117855562000e5c565b8280016001018555821562000e5c579182015b8281111562000e5c57825182559160200191906001019062000e3f565b5062000e6a92915062000e6e565b5090565b5b8082111562000e6a576000815560010162000e6f565b8051620009fc8162001358565b600082601f83011262000ea3578081fd5b815162000eba62000eb4826200132c565b62001305565b81815291506020808301908481018184028601820187101562000edc57600080fd5b60005b8481101562000f0857815162000ef58162001358565b8452928201929082019060010162000edf565b505050505092915050565b600082601f83011262000f24578081fd5b815162000f3562000eb4826200132c565b81815291506020808301908481018184028601820187101562000f5757600080fd5b60005b8481101562000f0857815162000f708162001358565b8452928201929082019060010162000f5a565b600082601f83011262000f94578081fd5b815162000fa562000eb4826200132c565b81815291506020808301908481018184028601820187101562000fc757600080fd5b60005b8481101562000f085781518452928201929082019060010162000fca565b80518015158114620009fc57600080fd5b600082601f8301126200100a578081fd5b81516001600160401b0381111562001020578182fd5b602062001036601f8301601f1916820162001305565b925081835284818386010111156200104d57600080fd5b60005b828110156200106d57848101820151848201830152810162001050565b828111156200107f5760008284860101525b50505092915050565b6000602082840312156200109a578081fd5b5051919050565b600060208284031215620010b3578081fd5b81516001600160401b0380821115620010ca578283fd5b8184019150610180808387031215620010e1578384fd5b620010ec8162001305565b9050620010fa868462000e85565b81526020830151828111156200110e578485fd5b6200111c8782860162000ff9565b60208301525060408301518281111562001134578485fd5b620011428782860162000ff9565b6040830152506060830151828111156200115a578485fd5b620011688782860162000e92565b60608301525060808301518281111562001180578485fd5b6200118e8782860162000f13565b60808301525060a083015182811115620011a6578485fd5b620011b48782860162000f83565b60a08301525060c0838101519082015260e08084015190820152610100808401519082015261012080840151908201526101409150620011f78683850162000fe8565b8282015261016091506200120e8683850162000e85565b91810191909152949350505050565b6000602082840312156200122f578081fd5b815160ff81168114620009f9578182fd5b901515815260200190565b60006060820185835260206060818501528186518084526080860191508288019350845b8181101562001297576200128485516200134c565b835293830193918301916001016200126f565b505084810360408601528551808252908201925081860190845b81811015620012d957620012c683516200134c565b85529383019391830191600101620012b1565b509298975050505050505050565b6020810160038310620012f657fe5b91905290565b90815260200190565b6040518181016001600160401b03811182821017156200132457600080fd5b604052919050565b60006001600160401b0382111562001342578081fd5b5060209081020190565b6001600160a01b031690565b6001600160a01b038116811462000c9757600080fd5b60805160a05160601c60c05160e05161010051610120516101405160601c61016051610180516101a0516101c0516101e05160601c6102005160601c6102205160601c6102405160601c6102605160601c610280516102a0516102c0516102e051610300516103205160601c6103405160601c61615c620014916000398061185152508061182d52508061364d5250806136295250806136055250806135e15250806135bd525080613bbf525080613b7d525080613b3b5250806117985280612584528061340152508061173052806125295280613395525080611d9d525080610bc05250806116e85250806116c4525080610f76525080611272525080611b79525080611bbb525080611b9a525080610f52525080610edc525061615c6000f3fe608060405234801561001057600080fd5b50600436106102bb5760003560e01c80636b84323911610182578063a0daaed0116100e9578063b7710251116100a2578063d5c096c41161007c578063d5c096c414610634578063dd62ed3e14610647578063eb0f24d61461065a578063ffd088eb14610662576102bb565b8063b7710251146105ec578063b867ee5a146105ff578063d505accf14610621576102bb565b8063a0daaed014610590578063a457c2d7146105a3578063a9059cbb146105b6578063aaabadc5146105c9578063b10be739146105d1578063b48b5b40146105e4576102bb565b806387ec68171161013b57806387ec68171461052f578063893d20e8146105425780638d928af81461055757806395d89b411461055f5780639b02cdde146105675780639d2c110c1461057d576102bb565b80636b8432391461049e5780636daccffa146104be57806370a08231146104d557806374f3b009146104e85780637ecebe0014610509578063851c1bb31461051c576102bb565b80632f1a0bc91161022657806339509351116101df578063395093511461042157806350dd6ed91461043457806355c67628146104475780636028bfd41461044f57806360d1507c14610470578063679aefce14610496576102bb565b80632f1a0bc9146103c3578063313ce567146103d65780633331bc36146103eb5780633644e515146103fe57806338e9922e1461040657806338fff2d014610419576102bb565b80631dccd830116102785780631dccd830146103525780631dd746ea146103725780631ed4eddc1461037a578063238a2d591461039357806323b872dd146103a8578063292c914a146103bb576102bb565b806301ec954a146102c057806306fdde03146102e9578063095ea7b3146102fe57806316c38b3c1461031e57806318160ddd146103335780631c0de0511461033b575b600080fd5b6102d36102ce366004615b75565b61066a565b6040516102e09190615e65565b60405180910390f35b6102f161068b565b6040516102e09190616018565b61031161030c36600461565f565b610722565b6040516102e09190615e42565b61033161032c3660046158cd565b610739565b005b6102d361074d565b610343610753565b6040516102e093929190615e4d565b610365610360366004615813565b61077c565b6040516102e09190615e0a565b61036561089f565b6103826108ae565b6040516102e0959493929190615f6b565b61039b610900565b6040516102e09190615d85565b6103116103b63660046155aa565b61098d565b610331610a03565b6103316103d1366004615c48565b610a37565b6103de610b1a565b6040516102e09190616099565b6103316103f9366004615c48565b610b23565b6102d3610b9b565b610331610414366004615c30565b610ba5565b6102d3610bbe565b61031161042f36600461565f565b610be2565b6103316104423660046159eb565b610c1d565b6102d3610c3b565b61046261045d366004615905565b610c4c565b6040516102e092919061602b565b61048361047e366004615c30565b610c83565b6040516102e09796959493929190615f3b565b6102d3610ccc565b6104b16104ac366004615755565b610d99565b6040516102e09190615dd2565b6104c6610e4f565b6040516102e093929190616044565b6102d36104e3366004615556565b610e6a565b6104fb6104f6366004615905565b610e89565b6040516102e0929190615e1d565b6102d3610517366004615556565b610ebd565b6102d361052a3660046159a7565b610ed8565b61046261053d366004615905565b610f2a565b61054a610f50565b6040516102e09190615d71565b61054a610f74565b6102f1610f98565b61056f610ff9565b6040516102e092919061605a565b6102d361058b366004615be5565b611003565b61033161059e366004615556565b611018565b6103116105b136600461565f565b611054565b6103116105c436600461565f565b611092565b61054a61109f565b6102d36105df366004615b41565b6110a9565b6102d361113e565b6103316105fa36600461565f565b611144565b61061261060d366004615556565b6111e4565b6040516102e093929190616068565b61033161062f3660046155ea565b61123d565b6104fb610642366004615905565b611386565b6102d3610655366004615572565b6113ad565b6103316113ea565b6102d3611416565b60006106746114e3565b610680858585856114f3565b90505b949350505050565b60038054604080516020601f60026000196101006001881615020190951694909404938401819004810282018101909252828152606093909290918301828280156107175780601f106106ec57610100808354040283529160200191610717565b820191906000526020600020905b8154815290600101906020018083116106fa57829003601f168201915b505050505090505b90565b600061072f338484611591565b5060015b92915050565b6107416115f9565b61074a81611627565b50565b60025490565b60008060006107606116a5565b15925061076b6116c2565b91506107756116e6565b9050909192565b606081516001600160401b038111801561079557600080fd5b506040519080825280602002602001820160405280156107bf578160200160208202803683370190505b50905060006107cc61170a565b905060005b83518110156108985773__$76628e43a2054b7121be201a66ed5cdbab$__6379eaef82600c86848151811061080257fe5b6020026020010151856040518463ffffffff1660e01b815260040161082993929190615fdc565b60206040518083038186803b15801561084157600080fd5b505af4158015610855573d6000803e3d6000fd5b505050506040513d601f19601f820116820180604052508101906108799190615b5d565b83828151811061088557fe5b60209081029190910101526001016107d1565b5050919050565b60606108a961171c565b905090565b6000806000806000806108bf6117e5565b90506108ca816117eb565b95506108d5816117f7565b94506108e081611804565b93506108eb81611811565b92506108f68161181e565b9150509091929394565b604080516002808252606080830184529260208301908036833701905050905061092861182b565b8160008151811061093557fe5b60200260200101906001600160a01b031690816001600160a01b03168152505061095d61184f565b8160018151811061096a57fe5b60200260200101906001600160a01b031690816001600160a01b03168152505090565b60008061099a85336113ad565b90506109be336001600160a01b03871614806109b65750838210155b61019e611873565b6109c9858585611881565b336001600160a01b038616148015906109e457506000198114155b156109f6576109f68533858403611591565b60019150505b9392505050565b610a0b611961565b610a136115f9565b610a1d6001611974565b6000610a2761074d565b1115610a3557610a356119bd565b565b610a3f6115f9565b610a4f600183101561012c611873565b610a6061138883111561012d611873565b6000610a6c824261147d565b9050610a806201518082101561013d611873565b600080610a8b611a13565b91509150610a9c811561013e611873565b6000610aaa866103e8611427565b90506000838211610ad957610ad4610ac56201518086611427565b610acf8488611427565b611a87565b610af3565b610af3610ae96201518084611427565b610acf8688611427565b9050610b05600282111561013f611873565b610b1184834289611aba565b50505050505050565b60055460ff1690565b610b3e8183108015610b3757506104008211155b6064611873565b6000610b536001600080600080600080611b09565b9050825b82811015610b95576000818152600c6020526040902054610b7790611b69565b610b8d576000818152600c602052604090208290555b600101610b57565b50505050565b60006108a9611b75565b610bad6115f9565b610bb5611961565b61074a81611c12565b7f000000000000000000000000000000000000000000000000000000000000000090565b3360008181526001602090815260408083206001600160a01b0387168452909152812054909161072f918590610c189086611c7d565b611591565b610c256115f9565b610c2d611961565b610c378282611c8f565b5050565b6008546000906108a99060c0611d8e565b60006060610c628651610c5d611d9b565b611dbf565b610c7789898989898989611dcc611e36611e97565b97509795505050505050565b6000806000806000806000610c9e610400891061013b611873565b6000610ca989611fba565b9050610cb481611fcc565b959f949e50929c50909a509850965090945092505050565b60006060610cd8610f74565b6001600160a01b031663f94d4668610cee610bbe565b6040518263ffffffff1660e01b8152600401610d0a9190615e65565b60006040518083038186803b158015610d2257600080fd5b505afa158015610d36573d6000803e3d6000fd5b505050506040513d6000823e601f3d908101601f19168201604052610d5e919081019061568a565b50915050610d7381610d6e61171c565b61202f565b6000610d7d611a13565b509050610d928282610d8d61074d565b612090565b9250505090565b606081516001600160401b0381118015610db257600080fd5b50604051908082528060200260200182016040528015610ddc578160200160208202803683370190505b5090506000610de961170a565b9050610df3615322565b60005b8451811015610e4757848181518110610e0b57fe5b60200260200101519150610e2882600001518484602001516120b4565b848281518110610e3457fe5b6020908102919091010152600101610df6565b505050919050565b6000806000610e5c611a13565b90949093506103e892509050565b6001600160a01b0381166000908152602081905260409020545b919050565b606080610e946114e3565b610ea389898989898989612145565b9092509050610eb06116a5565b15610c7757610c776119bd565b6001600160a01b031660009081526006602052604090205490565b60007f000000000000000000000000000000000000000000000000000000000000000082604051602001610f0d929190615d2e565b604051602081830303815290604052805190602001209050919050565b60006060610f3b8651610c5d611d9b565b610c77898989898989896121c36121e9611e97565b7f000000000000000000000000000000000000000000000000000000000000000090565b7f000000000000000000000000000000000000000000000000000000000000000090565b60048054604080516020601f60026000196101006001881615020190951694909404938401819004810282018101909252828152606093909290918301828280156107175780601f106106ec57610100808354040283529160200191610717565b600a54600b549091565b600061100d6114e3565b61068384848461224a565b611021816123a8565b156110335761102e6123d5565b61074a565b61103c816123ed565b156110495761102e612409565b61074a61013561241c565b60008061106133856113ad565b905080831061107b5761107633856000611591565b611088565b6110883385858403611591565b5060019392505050565b600061072f338484611881565b60006108a961246f565b600073__$76628e43a2054b7121be201a66ed5cdbab$__630397bee0600c846110d061170a565b6040518463ffffffff1660e01b81526004016110ee93929190615f90565b60206040518083038186803b15801561110657600080fd5b505af415801561111a573d6000803e3d6000fd5b505050506040513d601f19601f820116820180604052508101906107339190615b5d565b61040090565b61114c6115f9565b611155826123a8565b156111ba57611163816124e9565b61116b61182b565b6001600160a01b0316826001600160a01b03167fca6c2c5b6b44b5f3f0c08f0e28e5b6deda1cb38c3fe1113e8031d926c1e8c6d0836040516111ad9190615e65565b60405180910390a3610c37565b6111c3826123ed565b156111d9576111d18161250b565b61116b61184f565b610c3761013561241c565b60008060006111f284612527565b1561121257611207611202612559565b61255f565b925092509250611236565b61121b84612582565b1561122b576112076112026125b4565b61123661013561241c565b9193909250565b61124b8442111560d1611873565b6001600160a01b03871660009081526006602090815260408083205490519092916112a2917f0000000000000000000000000000000000000000000000000000000000000000918c918c918c9188918d9101615e8d565b60405160208183030381529060405280519060200120905060006112c5826125ba565b90506000600182888888604051600081526020016040526040516112ec9493929190615f1d565b6020604051602081039080840390855afa15801561130e573d6000803e3d6000fd5b5050604051601f190151915061135090506001600160a01b0382161580159061134857508b6001600160a01b0316826001600160a01b0316145b6101f8611873565b6001600160a01b038b1660009081526006602052604090206001850190556113798b8b8b611591565b5050505050505050505050565b6060806113916114e3565b6113a0898989898989896125d6565b9092509050610c776119bd565b60006113b7610f74565b6001600160a01b0316826001600160a01b031614156113d95750600019610733565b6113e38383612706565b9050610733565b6113f26115f9565b6000806113fd611a13565b9150915061140d81610140611873565b610c3782612731565b6201de2090565b80610c378161276c565b60008282026109fc84158061144457508385838161144157fe5b04145b6003611873565b611463828414801561145c57508183145b6067611873565b505050565b6001600160401b03811b1992909216911b1790565b600061148d838311156001611873565b50900390565b1b90565b60006109fc838360555b60006001821b19841682846114b75760006114ba565b60015b60ff16901b17949350505050565b6001600160c01b03828116821b90821b198416179392505050565b6114eb6127e5565b610a35612825565b60008460800151611520611505610f74565b6001600160a01b0316336001600160a01b03161460cd611873565b61153561152b610bbe565b82146101f4611873565b6115478484611542611d9b565b612860565b606061155161171c565b905060008751600181111561156257fe5b14611579576115748787878785612877565b611586565b61158687878787856128e1565b979650505050505050565b6001600160a01b0380841660008181526001602090815260408083209487168084529490915290819020849055517f8c5be1e5ebec7d5bd14f71427d1e84f3dd0314c0f7b2291e5b200ac8c7c3b925906115ec908590615e65565b60405180910390a3505050565b60006116106000356001600160e01b031916610ed8565b905061074a61161f8233612945565b610191611873565b8015611647576116426116386116c2565b4210610193611873565b61165c565b61165c6116526116e6565b42106101a9611873565b6007805460ff19168215151790556040517f9e3a5e37224532dea67b89face185703738a228a6e8a23dee546960180d3be649061169a908390615e42565b60405180910390a150565b60006116af6116e6565b4211806108a957505060075460ff161590565b7f000000000000000000000000000000000000000000000000000000000000000090565b7f000000000000000000000000000000000000000000000000000000000000000090565b60006108a96117176117e5565b611811565b6060611726612a2e565b90506117776117547f0000000000000000000000000000000000000000000000000000000000000000612b55565b8260008151811061176157fe5b6020026020010151612ba490919063ffffffff16565b8160008151811061178457fe5b6020026020010181815250506117c96117bc7f0000000000000000000000000000000000000000000000000000000000000000612b55565b8260018151811061176157fe5b816001815181106117d657fe5b60200260200101818152505090565b60085490565b60006107338282612bd0565b6000610733826016612bd0565b600061073382602c612bf7565b600061073382604b612c01565b6000610733826055612c09565b7f000000000000000000000000000000000000000000000000000000000000000090565b7f000000000000000000000000000000000000000000000000000000000000000090565b81610c3757610c378161241c565b6118986001600160a01b0384161515610198611873565b6118af6001600160a01b0383161515610199611873565b6118ba838383611463565b6001600160a01b0383166000908152602081905260409020546118e090826101a0612c13565b6001600160a01b03808516600090815260208190526040808220939093559084168152205461190f9082611c7d565b6001600160a01b0380841660008181526020819052604090819020939093559151908516907fddf252ad1be2c89b69c2b068fc378daa952ba7f163c4a11628f55a4df523b3ef906115ec908590615e65565b610a3561196c6116a5565b610192611873565b61198e611989826119836117e5565b90611497565b612c29565b7f3e350b41e86a8e10f804ade6d35340d620be35569cc75ac943e8bb14ab80ead18160405161169a9190615e42565b60006119c76117e5565b90506119d28161181e565b1561074a576119ec6119e5600a54612c3e565b8290612c7e565b9050611a08611a016119fc61074d565b612c3e565b8290612c8b565b905061074a81612c29565b600080600080600080611a24612c99565b935093509350935080421015611a77576001945083831115611a5b578181038242038585030281611a5157fe5b0484019550611a72565b8181038242038486030281611a6c57fe5b04840395505b611a7f565b600094508295505b505050509091565b6000611a968215156004611873565b82611aa357506000610733565b816001840381611aaf57fe5b046001019050610733565b611ac684848484612cf0565b7f1835882ee7a34ac194f717a35e09bb1d24c82a3b9d854ab6c9749525b714cdf284848484604051611afb949392919061607e565b60405180910390a150505050565b6000611b158282611493565b611b2084601f612d4c565b611b2b866054612d5d565b611b3688606a612d4c565b611b418a609f612d5d565b611b4c8c60b5612d4c565b611b578e60ea612d5d565b17171717171798975050505050505050565b60006107338282612bf7565b60007f00000000000000000000000000000000000000000000000000000000000000007f00000000000000000000000000000000000000000000000000000000000000007f0000000000000000000000000000000000000000000000000000000000000000611be2612d6a565b30604051602001611bf7959493929190615ec1565b60405160208183030381529060405280519060200120905090565b611c2564e8d4a5100082101560cb611873565b611c3b67016345785d8a000082111560ca611873565b600854611c4a908260c0611468565b6008556040517fa9ba3ffe0b6c366b81232caab38605a0699ad5398d6cce76f91ee809e322dafc9061169a908390615e65565b60008282016109fc8482101583611873565b6000611c99610bbe565b90506000611ca5610f74565b6001600160a01b031663b05f8e4883866040518363ffffffff1660e01b8152600401611cd2929190615f06565b60806040518083038186803b158015611cea57600080fd5b505afa158015611cfe573d6000803e3d6000fd5b505050506040513d601f19601f82011682018060405250810190611d229190615c69565b604051630639cdb560e21b81529094506001600160a01b03851693506318e736d49250611d56915085908790600401615eed565b600060405180830381600087803b158015611d7057600080fd5b505af1158015611d84573d6000803e3d6000fd5b5050505050505050565b1c6001600160401b031690565b7f000000000000000000000000000000000000000000000000000000000000000090565b610c378183146067611873565b6000606080611dd96116a5565b15611e1157611e118789600081518110611def57fe5b60200260200101518a600181518110611e0457fe5b6020026020010151612d6e565b611e218b8b8b8b8b8b8b8b612e23565b9250925092505b985098509895505050505050565b60005b611e41611d9b565b81101561146357611e78838281518110611e5757fe5b6020026020010151838381518110611e6b57fe5b6020026020010151612eb8565b838281518110611e8457fe5b6020908102919091010152600101611e39565b333014611f55576000306001600160a01b0316600036604051611ebb929190615d46565b6000604051808303816000865af19150503d8060008114611ef8576040519150601f19603f3d011682016040523d82523d6000602084013e611efd565b606091505b505090508060008114611f0c57fe5b60046000803e6000516001600160e01b0319166343adbafb60e01b8114611f37573d6000803e3d6000fd5b506020600460003e604060205260243d03602460403e601c3d016000f35b6060611f5f61171c565b9050611f6b878261202f565b60006060611f838c8c8c8c8c8c898d8d63ffffffff16565b5091509150611f9681848663ffffffff16565b8051601f1982018390526343adbafb603f1983015260200260231982016044820181fd5b6000908152600c602052604090205490565b6000806000806000806000611fe088612f09565b9650611feb88612f16565b9550611ff688612f23565b945061200188612f30565b935061200c88612f3d565b925061201788612f4a565b915061202288611b69565b9050919395979092949650565b60005b61203a611d9b565b8110156114635761207183828151811061205057fe5b602002602001015183838151811061206457fe5b6020026020010151612ba4565b83828151811061207d57fe5b6020908102919091010152600101612032565b60008061209f84866000612f57565b90506120ab8184612eb8565b95945050505050565b6040516334171a8560e01b815260009073__$76628e43a2054b7121be201a66ed5cdbab$__906334171a85906120f590600c90889088908890600401615fb1565b60206040518083038186803b15801561210d57600080fd5b505af4158015612121573d6000803e3d6000fd5b505050506040513d601f19601f820116820180604052508101906106839190615b5d565b60608088612154611505610f74565b61215f61152b610bbe565b606061216961171c565b9050612175888261202f565b600060608061218a8e8e8e8e8e8e8a8f611dcc565b92509250925061219a8d846130f3565b6121a48285611e36565b6121ae8185611e36565b909550935050505b5097509795505050505050565b60006060806121d98789600081518110611def57fe5b611e218b8b8b8b8b8b8b8b6130fd565b60005b6121f4611d9b565b8110156114635761222b83828151811061220a57fe5b602002602001015183838151811061221e57fe5b6020026020010151613156565b83828151811061223757fe5b60209081029190910101526001016121ec565b6000836080015161225c611505610f74565b61226761152b610bbe565b600061227686602001516131a4565b9050600061228787604001516131a4565b905060008751600181111561229857fe5b14156123285760006122ad88606001516131c9565b905060008189606001510390506122d189602001516122cc83876131ea565b6131f6565b606089018290526122e288856131ea565b97506122ee87846131ea565b96506122fe8960600151856131ea565b60608a015260006123108a8a8a613208565b905061231c8185613241565b965050505050506123a0565b61233286836131ea565b955061233e85826131ea565b945061234e8760600151826131ea565b6060880152600061236088888861324d565b905061236c818461327c565b9050600061237982613288565b9050600082820390506123948a602001516122cc83886131ea565b5094506123a092505050565b509392505050565b60006123b382612527565b8015610733575060006123c461182b565b6001600160a01b0316141592915050565b610a356123e86123e3612559565b6132ae565b6124e9565b60006123f882612582565b8015610733575060006123c461184f565b610a356124176123e36125b4565b61250b565b62461bcd60e51b6000908152602060045260076024526642414c23000030600a808404818106603090810160081b95839006959095019082900491820690940160101b939093010160c81b604452606490fd5b6000612479610f74565b6001600160a01b031663aaabadc56040518163ffffffff1660e01b815260040160206040518083038186803b1580156124b157600080fd5b505afa1580156124c5573d6000803e3d6000fd5b505050506040513d601f19601f820116820180604052508101906108a991906159cf565b6000806124fd6124f761182b565b846132bb565b91509150611463828261338c565b6000806125196124f761184f565b9150915061146382826133f8565b7f00000000000000000000000000000000000000000000000000000000000000006001600160a01b0390811691161490565b600d5490565b600080600061256d84613458565b925061257884613464565b9395909450915050565b7f00000000000000000000000000000000000000000000000000000000000000006001600160a01b0390811691161490565b600e5490565b60006125c4611b75565b82604051602001610f0d929190615d56565b606080886125e5611505610f74565b6125f061152b610bbe565b60606125fa61171c565b905061260461074d565b6126b657600060606126198d8d8d868b613484565b91509150612632612628613513565b83101560cc611873565b612644600061263f613513565b61351a565b6126578b612650613513565b840361351a565b61266181846121e9565b8061266a611d9b565b6001600160401b038111801561267f57600080fd5b506040519080825280602002602001820160405280156126a9578160200160208202803683370190505b50955095505050506121b6565b6126c0888261202f565b60006060806126d58e8e8e8e8e8e8a8f6121c3565b9250925092506126e58c8461351a565b6126ef82856121e9565b6126f98185611e36565b90955093506121b6915050565b6001600160a01b03918216600090815260016020908152604080832093909416825291909152205490565b61273d81824242612cf0565b7fa0d01593e47e69d07e0ccd87bece09411e07dd1ed40ca8f2e7af2976542a02338160405161169a9190615e65565b60028151101561277b5761074a565b60008160008151811061278a57fe5b602002602001015190506000600190505b82518110156114635760008382815181106127b257fe5b602002602001015190506127db816001600160a01b0316846001600160a01b0316106065611873565b915060010161279b565b60006127ef61182b565b6001600160a01b031614610a355760008061281061280b612559565b613464565b9150915080421115610c3757610c37826124e9565b600061282f61184f565b6001600160a01b031614610a355760008061284b61280b6125b4565b9150915080421115610c3757610c378261250b565b6114638184108015610b3757508183106064611873565b6000612883858361202f565b6128a4866060015183858151811061289757fe5b60200260200101516131ea565b606087015260006128b787878787613524565b90506128d6818487815181106128c957fe5b602002602001015161327c565b905061158681613288565b60006128f086606001516131c9565b60608701526128ff858361202f565b612913866060015183868151811061289757fe5b606087015260006129268787878761355c565b90506115868184868151811061293857fe5b6020026020010151613241565b600073ba1ba1ba1ba1ba1ba1ba1ba1ba1ba1ba1ba1ba1b612964610f50565b6001600160a01b03161415801561297f575061297f8361357f565b156129a75761298c610f50565b6001600160a01b0316336001600160a01b0316149050610733565b6129af61246f565b6001600160a01b0316639be2a8848484306040518463ffffffff1660e01b81526004016129de93929190615e6e565b60206040518083038186803b1580156129f657600080fd5b505afa158015612a0a573d6000803e3d6000fd5b505050506040513d601f19601f820116820180604052508101906113e391906158e9565b60606000612a3a611d9b565b90506060816001600160401b0381118015612a5457600080fd5b50604051908082528060200260200182016040528015612a7e578160200160208202803683370190505b509050612a896135bb565b81600081518110612a9657fe5b602002602001018181525050612aaa6135df565b81600181518110612ab757fe5b6020026020010181815250506002821115612af257612ad4613603565b81600281518110612ae157fe5b602002602001018181525050612afb565b915061071f9050565b6003821115612af257612b0c613627565b81600381518110612b1957fe5b6020026020010181815250506004821115612af257612b3661364b565b81600481518110612b4357fe5b60200260200101818152505091505090565b6000612b60826123a8565b15612b7c57612b75612b70612559565b613458565b9050610e84565b612b85826123ed565b15612b9557612b75612b706125b4565b50670de0b6b3a7640000610e84565b6000828202612bbe84158061144457508385838161144157fe5b670de0b6b3a764000090049392505050565b600082821c623fffff16621fffff8113612bea5780610683565b623fffff19179392505050565b1c637fffffff1690565b1c6103ff1690565b1c60019081161490565b6000612c228484111583611873565b5050900390565b600854612c38908260006114c8565b60085550565b600080612c4a8361366f565b90506000808213612c6357652d79883d20008203612c6d565b652d79883d200082015b655af3107a40009005949350505050565b60006109fc8383836136cc565b60006109fc838360166136cc565b600080600080612cb56000600954611d8e90919063ffffffff16565b600954909450612cc6906040611d8e565b600954909350612cd7906080611d8e565b600954909250612ce89060c0611d8e565b905090919293565b612d04816001600160401b031660c0611493565b612d18836001600160401b03166080611493565b612d2c856001600160401b03166040611493565b612d40876001600160401b03166000611493565b17171760095550505050565b661fffffffffffff91909116901b90565b623fffff91909116901b90565b4690565b6000612d786117e5565b90506000612d84611a13565b509050612d908261181e565b8015612d9b57508443115b15612e1c57600080612db7838787612db2886117f7565b6136e3565b915091506000612dc685611811565b90506000612dd386611804565b90506000612dec82848787612de78c6117eb565b613718565b9050808314612e1657612dff878261376f565b9650612e0b874261377d565b9650612e1687612c29565b50505050505b5050505050565b6000606080612e306116a5565b15612e5357612e3f888761378b565b9050612e4e888261147d613877565b612e9e565b612e5b611d9b565b6001600160401b0381118015612e7057600080fd5b50604051908082528060200260200182016040528015612e9a578160200160208202803683370190505b5090505b612ea98886866138dc565b9093509150611e288883613967565b6000612ec78215156004611873565b82612ed457506000610733565b670de0b6b3a764000083810290612ef790858381612eee57fe5b04146005611873565b828181612f0057fe5b04915050610733565b60006107338260ea612bd0565b60006107338260b5613996565b600061073382609f612bd0565b600061073382606a613996565b6000610733826054612bd0565b600061073382601f613996565b81516000908190815b81811015612f9857612f8e868281518110612f7757fe5b602002602001015184611c7d90919063ffffffff16565b9250600101612f60565b5081612fa9576000925050506109fc565b600082878302825b60ff8110156130db576000858a600081518110612fca57fe5b60200260200101510290506000600190505b8681101561301e5761301461300d613007848e8581518110612ffa57fe5b6020026020010151611427565b89611427565b868c6139c9565b9150600101612fdc565b5083945061309161306061304761303e613038878c611427565b85611427565b6103e88d6139c9565b61305a6130548a89611427565b88611427565b90611c7d565b61308b61307e6130746103e8880386611427565b6103e88e156139c9565b61305a8a60010189611427565b8b6139c9565b9350848411156130b9576001858503116130b457839750505050505050506109fc565b6130d2565b6001848603116130d257839750505050505050506109fc565b50600101612fb1565b506130e761014161241c565b50505050509392505050565b610c3782826139e9565b600060608061310a611961565b6060613116898861378b565b9050613125898261147d613877565b600060606131348b8989613aa5565b915091506131428b82613afe565b909d909c50909a5098505050505050505050565b60006131658215156004611873565b8261317257506000610733565b670de0b6b3a76400008381029061318c90858381612eee57fe5b82600182038161319857fe5b04600101915050610733565b6000806131b083613b0b565b905060006131bd84612b55565b90506106838282612ba4565b6000806131de6131d7610c3b565b8490613c0a565b90506109fc838261147d565b60006109fc8383612ba4565b610c3761320283613c46565b82610c37565b600061321f613215611d9b565b60021460d2611873565b606060008061322f878787613c4c565b9250925092506115868784848461355c565b60006109fc8383612eb8565b600061325a613215611d9b565b606060008061326a878787613c4c565b92509250925061158687848484613524565b60006109fc8383613156565b60006107336132a7613298610c3b565b670de0b6b3a76400009061147d565b8390613156565b6000610733826080611d8e565b600080836001600160a01b031663679aefce6040518163ffffffff1660e01b815260040160206040518083038186803b1580156132f757600080fd5b505afa15801561330b573d6000803e3d6000fd5b505050506040513d601f19601f8201168201806040525081019061332f9190615b5d565b9050613343600160801b8210610149611873565b6133598342016001600160401b031660c0611493565b61336d846001600160401b03166080611493565b613381836001600160801b03166000611493565b171791509250929050565b81600d819055507f00000000000000000000000000000000000000000000000000000000000000006001600160a01b03167fc1a224b14823b63c7711127f125fbf592434682f38881ebb61408747a303affc826040516133ec9190615e65565b60405180910390a25050565b81600e819055507f00000000000000000000000000000000000000000000000000000000000000006001600160a01b03167fc1a224b14823b63c7711127f125fbf592434682f38881ebb61408747a303affc826040516133ec9190615e65565b60006107338282613d0d565b600080613470836132ae565b915061347d8360c0611d8e565b9050915091565b60006060613490611961565b600061349b84613d1a565b90506134b660008260028111156134ae57fe5b1460ce611873565b60606134c185613d30565b90506134d08151610c5d611d9b565b6134da818761202f565b60006134e4611a13565b50905060006134f582846001612f57565b9050806135028184613d46565b9b929a509198505050505050505050565b620f424090565b610c378282613d51565b60006135508560a001518560008151811061353b57fe5b602002602001015186600181518110611e0457fe5b61068085858585613ddf565b60006135738560a001518560008151811061353b57fe5b61068085858585613e26565b6000613591632f1a0bc960e01b610ed8565b8214806135ac57506135a9637587926b60e11b610ed8565b82145b80610733575061073382613e61565b7f000000000000000000000000000000000000000000000000000000000000000090565b7f000000000000000000000000000000000000000000000000000000000000000090565b7f000000000000000000000000000000000000000000000000000000000000000090565b7f000000000000000000000000000000000000000000000000000000000000000090565b7f000000000000000000000000000000000000000000000000000000000000000090565b600061367f600083136064611873565b670c7d713b49da00008213801561369d5750670f43fc2c04ee000082125b156136c357670de0b6b3a76400006136b483613e93565b816136bb57fe5b059050610e84565b612b7582613fb1565b623fffff828116821b90821b198416179392505050565b60008060006136f3878787614350565b90506137018187878761440f565b915061370c81612c3e565b92505094509492505050565b6000806137348585854261372b8b611fba565b9392919061443a565b90506078428890031015806137495786613752565b6137528761448c565b6000818152600c6020526040902092909255509695505050505050565b60006109fc8383604b614499565b60006109fc8383602c6144a9565b606080613796611d9b565b6001600160401b03811180156137ab57600080fd5b506040519080825280602002602001820160405280156137d5578160200160208202803683370190505b509050826137e4579050610733565b600080856000815181106137f457fe5b602002602001015190506000600190505b61380d611d9b565b81101561384457600087828151811061382257fe5b602002602001015190508281111561383b578193508092505b50600101613805565b50613856600b5487600a5485896144bb565b83838151811061386257fe5b60209081029190910101525090949350505050565b60005b613882611d9b565b811015610b95576138bd84828151811061389857fe5b60200260200101518483815181106138ac57fe5b60200260200101518463ffffffff16565b8482815181106138c957fe5b602090810291909101015260010161387a565b6000606060006138eb84613d1a565b905060008160028111156138fb57fe5b14156139155761390b868561451d565b925092505061395f565b600181600281111561392357fe5b14156139335761390b86856145e7565b600281600281111561394157fe5b14156139525761390b868686614619565b61395d61015061241c565b505b935093915050565b613974828261147d613877565b600061397e611a13565b50905061146361399082856001612f57565b82613d46565b600082821c661fffffffffffff16660fffffffffffff81136139b85780610683565b661fffffffffffff19179392505050565b6000816139df576139da8484614695565b610683565b6106838484611a87565b613a006001600160a01b038316151561019b611873565b613a0c82600083611463565b6001600160a01b038216600090815260208190526040902054613a3290826101a1612c13565b6001600160a01b038316600090815260208190526040902055600254613a5890826146b5565b6002556040516000906001600160a01b038416907fddf252ad1be2c89b69c2b068fc378daa952ba7f163c4a11628f55a4df523b3ef90613a99908590615e65565b60405180910390a35050565b600060606000613ab484613d1a565b90506001816002811115613ac457fe5b1415613ad55761390b8686866146c3565b6002816002811115613ae357fe5b1415613af35761390b868561472d565b61395d61013661241c565b6139748282611c7d613877565b6000613b1682612527565b15613b2357612b756135bb565b613b2c82612582565b15613b3957612b756135df565b7f00000000000000000000000000000000000000000000000000000000000000006001600160a01b0316826001600160a01b03161415613b7b57612b75613603565b7f00000000000000000000000000000000000000000000000000000000000000006001600160a01b0316826001600160a01b03161415613bbd57612b75613627565b7f00000000000000000000000000000000000000000000000000000000000000006001600160a01b0316826001600160a01b03161415613bff57612b7561364b565b610e8461013561241c565b6000828202613c2484158061144457508385838161144157fe5b80613c33576000915050610733565b670de0b6b3a76400006000198201613198565b50600090565b60408051600280825260608281019093526000918291816020016020820280368337019050509250613c818660200151612527565b15613cc75760009150600190508483600081518110613c9c57fe5b6020026020010181815250508383600181518110613cb657fe5b602002602001018181525050613d04565b60009050600191508383600081518110613cdd57fe5b6020026020010181815250508483600181518110613cf757fe5b6020026020010181815250505b93509350939050565b1c6001600160801b031690565b6000818060200190518101906107339190615a38565b6060818060200190518101906109fc9190615afd565b600a91909155600b55565b613d5d60008383611463565b600254613d6a9082611c7d565b6002556001600160a01b038216600090815260208190526040902054613d909082611c7d565b6001600160a01b0383166000818152602081905260408082209390935591519091907fddf252ad1be2c89b69c2b068fc378daa952ba7f163c4a11628f55a4df523b3ef90613a99908590615e65565b6000613de9611961565b6000613df3611a13565b5090506000613e0482876001612f57565b90506000613e1a838888888c60600151876147c1565b98975050505050505050565b6000613e30611961565b6000613e3a611a13565b5090506000613e4b82876001612f57565b90506000613e1a838888888c606001518761486a565b6000613e73631c74c91760e11b610ed8565b8214806107335750613e8b6350dd6ed960e01b610ed8565b909114919050565b670de0b6b3a7640000026000806a0c097ce7bc90715b34b9f160241b808401906ec097ce7bc90715b34b9f0fffffffff1985010281613ece57fe5b05905060006a0c097ce7bc90715b34b9f160241b82800205905081806a0c097ce7bc90715b34b9f160241b81840205915060038205016a0c097ce7bc90715b34b9f160241b82840205915060058205016a0c097ce7bc90715b34b9f160241b82840205915060078205016a0c097ce7bc90715b34b9f160241b82840205915060098205016a0c097ce7bc90715b34b9f160241b828402059150600b8205016a0c097ce7bc90715b34b9f160241b828402059150600d8205016a0c097ce7bc90715b34b9f160241b828402059150600f826002919005919091010295945050505050565b6000670de0b6b3a7640000821215613fed57613fe3826a0c097ce7bc90715b34b9f160241b81613fdd57fe5b05613fb1565b6000039050610e84565b60007e1600ef3172e58d2e933ec884fde10064c63b5372d805e203c0000000000000831261403e57770195e54c5dd42177f53a27172fa9ec630262827000000000830592506806f05b59d3b2000000015b73011798004d755d3c8bc8e03204cf44619e0000008312614076576b1425982cf597cd205cef7380830592506803782dace9d9000000015b606492830292026e01855144814a7ff805980ff008400083126140be576e01855144814a7ff805980ff008400068056bc75e2d63100000840205925068ad78ebc5ac62000000015b6b02df0ab5a80a22c61ab5a70083126140f9576b02df0ab5a80a22c61ab5a70068056bc75e2d6310000084020592506856bc75e2d631000000015b693f1fce3da636ea5cf850831261413057693f1fce3da636ea5cf85068056bc75e2d631000008402059250682b5e3af16b18800000015b690127fa27722cc06cc5e2831261416757690127fa27722cc06cc5e268056bc75e2d6310000084020592506815af1d78b58c400000015b68280e60114edb805d03831261419c5768280e60114edb805d0368056bc75e2d631000008402059250680ad78ebc5ac6200000015b680ebc5fb4174612111083126141c757680ebc5fb4174612111068056bc75e2d631000009384020592015b6808f00f760a4b2db55d83126141fc576808f00f760a4b2db55d68056bc75e2d6310000084020592506802b5e3af16b1880000015b6806f5f17757889379378312614231576806f5f177578893793768056bc75e2d63100000840205925068015af1d78b58c40000015b6806248f33704b2866038312614265576806248f33704b28660368056bc75e2d63100000840205925067ad78ebc5ac620000015b6805c548670b9510e7ac8312614299576805c548670b9510e7ac68056bc75e2d6310000084020592506756bc75e2d6310000015b600068056bc75e2d63100000840168056bc75e2d6310000080860302816142bc57fe5b059050600068056bc75e2d63100000828002059050818068056bc75e2d63100000818402059150600382050168056bc75e2d63100000828402059150600582050168056bc75e2d63100000828402059150600782050168056bc75e2d63100000828402059150600982050168056bc75e2d63100000828402059150600b820501600202606485820105979650505050505050565b6000806143688561436186866148fd565b6001612f57565b90506103e860028602046000614388836143828185611427565b9061147d565b905060006143a38661439d856002028a611427565b90612ba4565b905060006143cc6143b48489612ba4565b6143826143c58a61439d898d611427565b8590611c7d565b905060006143f56143dd858b612ba4565b6143826143ee8c61439d8a8f611427565b8690611c7d565b90506144018282613156565b9a9950505050505050505050565b60008061441f6143ee8786613c0a565b9050600061442c82612c3e565b939093039695505050505050565b60008061444687611b69565b83039050600081870261445889612f16565b01905060008287026144698a612f30565b019050600083870261447a8b612f4a565b01905061440189848a858b868c611b09565b6000610733826001614957565b6103ff811b1992909216911b1790565b637fffffff811b1992909216911b1790565b6000806144ca8787878761495f565b9050808685815181106144d957fe5b6020026020010151116144f05760009150506120ab565b6000818786815181106144ff57fe5b6020026020010151039050613e1a8482612ba490919063ffffffff16565b60006060614529611961565b60008061453585614b08565b9150915061454d614544611d9b565b82106064611873565b6060614557611d9b565b6001600160401b038111801561456c57600080fd5b50604051908082528060200260200182016040528015614596578160200160208202803683370190505b50905060006145a3611a13565b5090506145c2818985876145b561074d565b6145bd610c3b565b614b2a565b8284815181106145ce57fe5b6020908102919091010152509196919550909350505050565b6000606060006145f684614c46565b9050606061460c868361460761074d565b614c5c565b9196919550909350505050565b60006060614625611961565b6060600061463285614cf7565b915091506146438251610c5d611d9b565b61464d828761202f565b6000614657611a13565b5090506000614677828a8661466a61074d565b614672610c3b565b614d0f565b90506146878382111560cf611873565b989297509195505050505050565b60006146a48215156004611873565b8183816146ad57fe5b049392505050565b60006109fc83836001612c13565b600060608060006146d385614cf7565b915091506146e96146e2611d9b565b8351611dbf565b6146f3828761202f565b60006146fd611a13565b509050600061471d828a8661471061074d565b614718610c3b565b614fa3565b90506146878382101560d0611873565b6000606060008061473d85614b08565b9150915061474c614544611d9b565b6060614756611d9b565b6001600160401b038111801561476b57600080fd5b50604051908082528060200260200182016040528015614795578160200160208202803683370190505b50905060006147a2611a13565b5090506145c2818985876147b461074d565b6147bc610c3b565b61521f565b60006147e9838786815181106147d357fe5b602002602001015161147d90919063ffffffff16565b8685815181106147f557fe5b602002602001018181525050600061480f8888858961495f565b90508387868151811061481e57fe5b60200260200101510187868151811061483357fe5b602002602001018181525050613e1a600161305a89898151811061485357fe5b60200260200101518461147d90919063ffffffff16565b60006148928387878151811061487c57fe5b6020026020010151611c7d90919063ffffffff16565b86868151811061489e57fe5b60200260200101818152505060006148b88888858861495f565b9050838787815181106148c757fe5b6020026020010151038787815181106148dc57fe5b602002602001018181525050613e1a6001614382838a89815181106147d357fe5b6040805160028082526060808301845292602083019080368337019050509050828160008151811061492b57fe5b602002602001018181525050818160018151811061494557fe5b60200260200101818152505092915050565b016103ff1690565b60008084518602905060008560008151811061497757fe5b60200260200101519050600086518760008151811061499257fe5b60200260200101510290506000600190505b87518110156149eb576149d06149ca6149c3848b8581518110612ffa57fe5b8a51611427565b88614695565b91506149e1888281518110612f7757fe5b92506001016149a4565b508685815181106149f857fe5b6020026020010151820391506000614a108788611427565b90506000614a3c614a30614a2884610acf8988611427565b6103e8611427565b8a8981518110612ffa57fe5b90506000614a506143ee614a288b89614695565b9050600080614a6c614a628686611c7d565b610acf8d86611c7d565b905060005b60ff811015614aec57819250614aa1614a8e8661305a8586611427565b610acf8e6143828861305a886002611427565b915082821115614aca57600183830311614ac5575097506106839650505050505050565b614ae4565b600182840311614ae4575097506106839650505050505050565b600101614a71565b50614af861014261241c565b5050505050505050949350505050565b60008082806020019051810190614b1f9190615ac7565b909590945092505050565b600080614b3988886001612f57565b90506000614b5b82614b5587614b4f818b61147d565b90613156565b90613c0a565b90506000614b6b8a8a848b61495f565b90506000614b7f828b8b815181106147d357fe5b90506000805b8b51811015614bbe57614bb48c8281518110614b9d57fe5b602002602001015183611c7d90919063ffffffff16565b9150600101614b85565b506000614be7828d8d81518110614bd157fe5b6020026020010151612eb890919063ffffffff16565b90506000614bf4826152fc565b90506000614c028583613c0a565b90506000614c10868361147d565b9050614c31614c2a83670de0b6b3a76400008e9003612ba4565b8290611c7d565b99505050505050505050509695505050505050565b6000818060200190518101906109fc9190615a9a565b60606000614c6a8484612eb8565b9050606085516001600160401b0381118015614c8557600080fd5b50604051908082528060200260200182016040528015614caf578160200160208202803683370190505b50905060005b8651811015614ced57614cce8388838151811061176157fe5b828281518110614cda57fe5b6020908102919091010152600101614cb5565b5095945050505050565b6060600082806020019051810190614b1f9190615a54565b600080805b8651811015614d3657614d2c878281518110614b9d57fe5b9150600101614d14565b50606085516001600160401b0381118015614d5057600080fd5b50604051908082528060200260200182016040528015614d7a578160200160208202803683370190505b5090506000805b8851811015614e41576000614db2858b8481518110614d9c57fe5b602002602001015161315690919063ffffffff16565b9050614dee8a8381518110614dc357fe5b6020026020010151614b4f8b8581518110614dda57fe5b60200260200101518d86815181106147d357fe5b848381518110614dfa57fe5b602002602001018181525050614e36614e2f82868581518110614e1957fe5b6020026020010151613c0a90919063ffffffff16565b8490611c7d565b925050600101614d81565b50606088516001600160401b0381118015614e5b57600080fd5b50604051908082528060200260200182016040528015614e85578160200160208202803683370190505b50905060005b8951811015614f50576000848281518110614ea257fe5b6020026020010151841115614f09576000614ecb614ebf866152fc565b8d858151811061176157fe5b90506000614edf828d86815181106147d357fe5b9050614f00614ef982670de0b6b3a76400008d9003613156565b8390611c7d565b92505050614f20565b898281518110614f1557fe5b602002602001015190505b614f30818c84815181106147d357fe5b838381518110614f3c57fe5b602090810291909101015250600101614e8b565b506000614f5f8b8b6001612f57565b90506000614f6f8c846000612f57565b90506000614f7d8284612eb8565b9050614f92614f8b826152fc565b8b90613c0a565b9d9c50505050505050505050505050565b600080805b8651811015614fca57614fc0878281518110614b9d57fe5b9150600101614fa8565b50606085516001600160401b0381118015614fe457600080fd5b5060405190808252806020026020018201604052801561500e578160200160208202803683370190505b5090506000805b88518110156150a8576000615030858b8481518110614bd157fe5b90506150728a838151811061504157fe5b602002602001015161506c8b858151811061505857fe5b60200260200101518d868151811061487c57fe5b90612eb8565b84838151811061507e57fe5b60200260200101818152505061509d614e2f8286858151811061176157fe5b925050600101615015565b50606088516001600160401b03811180156150c257600080fd5b506040519080825280602002602001820160405280156150ec578160200160208202803683370190505b50905060005b89518110156151ad5760008385838151811061510a57fe5b6020026020010151111561516657600061512f614ebf86670de0b6b3a764000061147d565b90506000615143828d86815181106147d357fe5b905061515d614ef982670de0b6b3a76400008d9003612ba4565b9250505061517d565b89828151811061517257fe5b602002602001015190505b61518d818c848151811061487c57fe5b83838151811061519957fe5b6020908102919091010152506001016150f2565b5060006151bc8b8b6001612f57565b905060006151cc8c846000612f57565b905060006151da8284612eb8565b9050670de0b6b3a764000081111561520f576152018a670de0b6b3a763ffff198301612ba4565b9750505050505050506120ab565b60009750505050505050506120ab565b60008061522e88886001612f57565b9050600061524482614b5587614b4f818b611c7d565b905060006152548a8a848b61495f565b9050600061527e8a8a8151811061526757fe5b60200260200101518361147d90919063ffffffff16565b90506000805b8b518110156152a65761529c8c8281518110614b9d57fe5b9150600101615284565b5060006152b9828d8d81518110614bd157fe5b905060006152c6826152fc565b905060006152d48583613c0a565b905060006152e2868361147d565b9050614c31614c2a83670de0b6b3a76400008e9003613156565b6000670de0b6b3a76400008210615314576000610733565b50670de0b6b3a76400000390565b604080518082019091526000808252602082015290565b8035610733816160f6565b600082601f830112615354578081fd5b8135615367615362826160cd565b6160a7565b81815291506020808301908481018184028601820187101561538857600080fd5b60005b848110156153a75781358452928201929082019060010161538b565b505050505092915050565b600082601f8301126153c2578081fd5b81516153d0615362826160cd565b8181529150602080830190848101818402860182018710156153f157600080fd5b60005b848110156153a7578151845292820192908201906001016153f4565b600082601f830112615420578081fd5b81356001600160401b03811115615435578182fd5b615448601f8201601f19166020016160a7565b915080825283602082850101111561545f57600080fd5b8060208401602084013760009082016020015292915050565b80356002811061073357600080fd5b803561073381616119565b60006101208083850312156154a5578182fd5b6154ae816160a7565b9150506154bb8383615478565b81526154ca8360208401615339565b60208201526154dc8360408401615339565b6040820152606082013560608201526080820135608082015260a082013560a082015261550c8360c08401615339565b60c082015261551e8360e08401615339565b60e0820152610100808301356001600160401b0381111561553e57600080fd5b61554a85828601615410565b82840152505092915050565b600060208284031215615567578081fd5b81356109fc816160f6565b60008060408385031215615584578081fd5b823561558f816160f6565b9150602083013561559f816160f6565b809150509250929050565b6000806000606084860312156155be578081fd5b83356155c9816160f6565b925060208401356155d9816160f6565b929592945050506040919091013590565b600080600080600080600060e0888a031215615604578485fd5b873561560f816160f6565b9650602088013561561f816160f6565b95506040880135945060608801359350608088013560ff81168114615642578384fd5b9699959850939692959460a0840135945060c09093013592915050565b60008060408385031215615671578182fd5b823561567c816160f6565b946020939093013593505050565b60008060006060848603121561569e578081fd5b83516001600160401b03808211156156b4578283fd5b818601915086601f8301126156c7578283fd5b81516156d5615362826160cd565b80828252602080830192508086018b8283870289010111156156f5578788fd5b8796505b8487101561572057805161570c816160f6565b8452600196909601959281019281016156f9565b508901519097509350505080821115615737578283fd5b50615744868287016153b2565b925050604084015190509250925092565b60006020808385031215615767578182fd5b82356001600160401b0381111561577c578283fd5b8301601f8101851361578c578283fd5b803561579a615362826160cd565b818152838101908385016040808502860187018a10156157b8578788fd5b8795505b848610156158055780828b0312156157d2578788fd5b6157db816160a7565b6157e58b84615487565b8152828801358882015284526001959095019492860192908101906157bc565b509098975050505050505050565b60006020808385031215615825578182fd5b82356001600160401b0381111561583a578283fd5b8301601f8101851361584a578283fd5b8035615858615362826160cd565b818152838101908385016060808502860187018a1015615876578788fd5b8795505b848610156158055780828b031215615890578788fd5b615899816160a7565b6158a38b84615487565b8152828801358882015260408084013590820152845260019590950194928601929081019061587a565b6000602082840312156158de578081fd5b81356109fc8161610b565b6000602082840312156158fa578081fd5b81516109fc8161610b565b600080600080600080600060e0888a03121561591f578081fd5b873596506020880135615931816160f6565b95506040880135615941816160f6565b945060608801356001600160401b038082111561595c578283fd5b6159688b838c01615344565b955060808a0135945060a08a0135935060c08a013591508082111561598b578283fd5b506159988a828b01615410565b91505092959891949750929550565b6000602082840312156159b8578081fd5b81356001600160e01b0319811681146109fc578182fd5b6000602082840312156159e0578081fd5b81516109fc816160f6565b600080604083850312156159fd578182fd5b8235615a08816160f6565b915060208301356001600160401b03811115615a22578182fd5b615a2e85828601615410565b9150509250929050565b600060208284031215615a49578081fd5b81516109fc81616119565b600080600060608486031215615a68578081fd5b8351615a7381616119565b60208501519093506001600160401b03811115615a8e578182fd5b615744868287016153b2565b60008060408385031215615aac578182fd5b8251615ab781616119565b6020939093015192949293505050565b600080600060608486031215615adb578081fd5b8351615ae681616119565b602085015160409095015190969495509392505050565b60008060408385031215615b0f578182fd5b8251615b1a81616119565b60208401519092506001600160401b03811115615b35578182fd5b615a2e858286016153b2565b600060208284031215615b52578081fd5b81356109fc81616119565b600060208284031215615b6e578081fd5b5051919050565b60008060008060808587031215615b8a578182fd5b84356001600160401b0380821115615ba0578384fd5b615bac88838901615492565b95506020870135915080821115615bc1578384fd5b50615bce87828801615344565b949794965050505060408301359260600135919050565b600080600060608486031215615bf9578081fd5b83356001600160401b03811115615c0e578182fd5b615c1a86828701615492565b9660208601359650604090950135949350505050565b600060208284031215615c41578081fd5b5035919050565b60008060408385031215615c5a578182fd5b50508035926020909101359150565b60008060008060808587031215615c7e578182fd5b8451935060208501519250604085015191506060850151615c9e816160f6565b939692955090935050565b6000815180845260208085019450808401835b83811015615cd857815187529582019590820190600101615cbc565b509495945050505050565b60008151808452815b81811015615d0857602081850181015186830182015201615cec565b81811115615d195782602083870101525b50601f01601f19169290920160200192915050565b9182526001600160e01b031916602082015260240190565b6000828483379101908152919050565b61190160f01b81526002810192909252602282015260420190565b6001600160a01b0391909116815260200190565b6020808252825182820181905260009190848201906040850190845b81811015615dc65783516001600160a01b031683529284019291840191600101615da1565b50909695505050505050565b6020808252825182820181905260009190848201906040850190845b81811015615dc657835183529284019291840191600101615dee565b6000602082526109fc6020830184615ca9565b600060408252615e306040830185615ca9565b82810360208401526120ab8185615ca9565b901515815260200190565b92151583526020830191909152604082015260600190565b90815260200190565b9283526001600160a01b03918216602084015216604082015260600190565b9586526001600160a01b0394851660208701529290931660408501526060840152608083019190915260a082015260c00190565b9485526020850193909352604084019190915260608301526001600160a01b0316608082015260a00190565b6000838252604060208301526106836040830184615ce3565b9182526001600160a01b0316602082015260400190565b93845260ff9290921660208401526040830152606082015260800190565b968752602087019590955260408601939093526060850191909152608084015260a083015260c082015260e00190565b9485526020850193909352604084019190915260608301521515608082015260a00190565b83815260608101615fa0846160ec565b602082019390935260400152919050565b84815260808101615fc1856160ec565b84602083015283604083015282606083015295945050505050565b838152825160a0820190615fef816160ec565b806020840152506020840151604083015260408401516060830152826080830152949350505050565b6000602082526109fc6020830184615ce3565b6000838252604060208301526106836040830184615ca9565b9283529015156020830152604082015260600190565b918252602082015260400190565b9283526020830191909152604082015260600190565b93845260208401929092526040830152606082015260800190565b60ff91909116815260200190565b6040518181016001600160401b03811182821017156160c557600080fd5b604052919050565b60006001600160401b038211156160e2578081fd5b5060209081020190565b6003811061074a57fe5b6001600160a01b038116811461074a57600080fd5b801515811461074a57600080fd5b6003811061074a57600080fdfea26469706673582212202f4f24b0823546cd6bd6314b4924c764e898c600cd1d74aa3eaf03509f9c73da64736f6c63430007010033c1a224b14823b63c7711127f125fbf592434682f38881ebb61408747a303affcca6c2c5b6b44b5f3f0c08f0e28e5b6deda1cb38c3fe1113e8031d926c1e8c6d0",
  "linkReferences": {
    "@koil-finance/pool-utils/contracts/oracle/QueryProcessor.sol": {
      "QueryProcessor": [
        {
          "length": 20,
          "start": 7277
        },
        {
          "length": 20,
          "start": 9534
        },
        {
          "length": 20,
          "start": 13655
        }
      ]
    }
  },
  "deployedLinkReferences": {
    "@koil-finance/pool-utils/contracts/oracle/QueryProcessor.sol": {
      "QueryProcessor": [
        {
          "length": 20,
          "start": 2012
        },
        {
          "length": 20,
          "start": 4269
        },
        {
          "length": 20,
          "start": 8390
        }
      ]
    }
  }
}