{
  "_format": "hh-sol-artifact-1",
  "contractName": "StablePool",
  "sourceName": "contracts/StablePool.sol",
  "abi": [
    {
      "inputs": [
        {
          "internalType": "contract IVault",
          "name": "vault",
          "type": "address"
        },
        {
          "internalType": "string",
          "name": "name",
          "type": "string"
        },
        {
          "internalType": "string",
          "name": "symbol",
          "type": "string"
        },
        {
          "internalType": "contract IERC20[]",
          "name": "tokens",
          "type": "address[]"
        },
        {
          "internalType": "uint256",
          "name": "amplificationParameter",
          "type": "uint256"
        },
        {
          "internalType": "uint256",
          "name": "swapFeePercentage",
          "type": "uint256"
        },
        {
          "internalType": "uint256",
          "name": "pauseWindowDuration",
          "type": "uint256"
        },
        {
          "internalType": "uint256",
          "name": "bufferPeriodDuration",
          "type": "uint256"
        },
        {
          "internalType": "address",
          "name": "owner",
          "type": "address"
        }
      ],
      "stateMutability": "nonpayable",
      "type": "constructor"
    },
    {
      "anonymous": false,
      "inputs": [
        {
          "indexed": false,
          "internalType": "uint256",
          "name": "startValue",
          "type": "uint256"
        },
        {
          "indexed": false,
          "internalType": "uint256",
          "name": "endValue",
          "type": "uint256"
        },
        {
          "indexed": false,
          "internalType": "uint256",
          "name": "startTime",
          "type": "uint256"
        },
        {
          "indexed": false,
          "internalType": "uint256",
          "name": "endTime",
          "type": "uint256"
        }
      ],
      "name": "AmpUpdateStarted",
      "type": "event"
    },
    {
      "anonymous": false,
      "inputs": [
        {
          "indexed": false,
          "internalType": "uint256",
          "name": "currentValue",
          "type": "uint256"
        }
      ],
      "name": "AmpUpdateStopped",
      "type": "event"
    },
    {
      "anonymous": false,
      "inputs": [
        {
          "indexed": true,
          "internalType": "address",
          "name": "owner",
          "type": "address"
        },
        {
          "indexed": true,
          "internalType": "address",
          "name": "spender",
          "type": "address"
        },
        {
          "indexed": false,
          "internalType": "uint256",
          "name": "value",
          "type": "uint256"
        }
      ],
      "name": "Approval",
      "type": "event"
    },
    {
      "anonymous": false,
      "inputs": [
        {
          "indexed": false,
          "internalType": "bool",
          "name": "paused",
          "type": "bool"
        }
      ],
      "name": "PausedStateChanged",
      "type": "event"
    },
    {
      "anonymous": false,
      "inputs": [
        {
          "indexed": false,
          "internalType": "uint256",
          "name": "swapFeePercentage",
          "type": "uint256"
        }
      ],
      "name": "SwapFeePercentageChanged",
      "type": "event"
    },
    {
      "anonymous": false,
      "inputs": [
        {
          "indexed": true,
          "internalType": "address",
          "name": "from",
          "type": "address"
        },
        {
          "indexed": true,
          "internalType": "address",
          "name": "to",
          "type": "address"
        },
        {
          "indexed": false,
          "internalType": "uint256",
          "name": "value",
          "type": "uint256"
        }
      ],
      "name": "Transfer",
      "type": "event"
    },
    {
      "inputs": [],
      "name": "DOMAIN_SEPARATOR",
      "outputs": [
        {
          "internalType": "bytes32",
          "name": "",
          "type": "bytes32"
        }
      ],
      "stateMutability": "view",
      "type": "function"
    },
    {
      "inputs": [
        {
          "internalType": "address",
          "name": "owner",
          "type": "address"
        },
        {
          "internalType": "address",
          "name": "spender",
          "type": "address"
        }
      ],
      "name": "allowance",
      "outputs": [
        {
          "internalType": "uint256",
          "name": "",
          "type": "uint256"
        }
      ],
      "stateMutability": "view",
      "type": "function"
    },
    {
      "inputs": [
        {
          "internalType": "address",
          "name": "spender",
          "type": "address"
        },
        {
          "internalType": "uint256",
          "name": "amount",
          "type": "uint256"
        }
      ],
      "name": "approve",
      "outputs": [
        {
          "internalType": "bool",
          "name": "",
          "type": "bool"
        }
      ],
      "stateMutability": "nonpayable",
      "type": "function"
    },
    {
      "inputs": [
        {
          "internalType": "address",
          "name": "account",
          "type": "address"
        }
      ],
      "name": "balanceOf",
      "outputs": [
        {
          "internalType": "uint256",
          "name": "",
          "type": "uint256"
        }
      ],
      "stateMutability": "view",
      "type": "function"
    },
    {
      "inputs": [],
      "name": "decimals",
      "outputs": [
        {
          "internalType": "uint8",
          "name": "",
          "type": "uint8"
        }
      ],
      "stateMutability": "view",
      "type": "function"
    },
    {
      "inputs": [
        {
          "internalType": "address",
          "name": "spender",
          "type": "address"
        },
        {
          "internalType": "uint256",
          "name": "amount",
          "type": "uint256"
        }
      ],
      "name": "decreaseAllowance",
      "outputs": [
        {
          "internalType": "bool",
          "name": "",
          "type": "bool"
        }
      ],
      "stateMutability": "nonpayable",
      "type": "function"
    },
    {
      "inputs": [
        {
          "internalType": "bytes4",
          "name": "selector",
          "type": "bytes4"
        }
      ],
      "name": "getActionId",
      "outputs": [
        {
          "internalType": "bytes32",
          "name": "",
          "type": "bytes32"
        }
      ],
      "stateMutability": "view",
      "type": "function"
    },
    {
      "inputs": [],
      "name": "getAmplificationParameter",
      "outputs": [
        {
          "internalType": "uint256",
          "name": "value",
          "type": "uint256"
        },
        {
          "internalType": "bool",
          "name": "isUpdating",
          "type": "bool"
        },
        {
          "internalType": "uint256",
          "name": "precision",
          "type": "uint256"
        }
      ],
      "stateMutability": "view",
      "type": "function"
    },
    {
      "inputs": [],
      "name": "getAuthorizer",
      "outputs": [
        {
          "internalType": "contract IAuthorizer",
          "name": "",
          "type": "address"
        }
      ],
      "stateMutability": "view",
      "type": "function"
    },
    {
      "inputs": [],
      "name": "getLastInvariant",
      "outputs": [
        {
          "internalType": "uint256",
          "name": "lastInvariant",
          "type": "uint256"
        },
        {
          "internalType": "uint256",
          "name": "lastInvariantAmp",
          "type": "uint256"
        }
      ],
      "stateMutability": "view",
      "type": "function"
    },
    {
      "inputs": [],
      "name": "getOwner",
      "outputs": [
        {
          "internalType": "address",
          "name": "",
          "type": "address"
        }
      ],
      "stateMutability": "view",
      "type": "function"
    },
    {
      "inputs": [],
      "name": "getPausedState",
      "outputs": [
        {
          "internalType": "bool",
          "name": "paused",
          "type": "bool"
        },
        {
          "internalType": "uint256",
          "name": "pauseWindowEndTime",
          "type": "uint256"
        },
        {
          "internalType": "uint256",
          "name": "bufferPeriodEndTime",
          "type": "uint256"
        }
      ],
      "stateMutability": "view",
      "type": "function"
    },
    {
      "inputs": [],
      "name": "getPoolId",
      "outputs": [
        {
          "internalType": "bytes32",
          "name": "",
          "type": "bytes32"
        }
      ],
      "stateMutability": "view",
      "type": "function"
    },
    {
      "inputs": [],
      "name": "getRate",
      "outputs": [
        {
          "internalType": "uint256",
          "name": "",
          "type": "uint256"
        }
      ],
      "stateMutability": "view",
      "type": "function"
    },
    {
      "inputs": [],
      "name": "getScalingFactors",
      "outputs": [
        {
          "internalType": "uint256[]",
          "name": "",
          "type": "uint256[]"
        }
      ],
      "stateMutability": "view",
      "type": "function"
    },
    {
      "inputs": [],
      "name": "getSwapFeePercentage",
      "outputs": [
        {
          "internalType": "uint256",
          "name": "",
          "type": "uint256"
        }
      ],
      "stateMutability": "view",
      "type": "function"
    },
    {
      "inputs": [],
      "name": "getVault",
      "outputs": [
        {
          "internalType": "contract IVault",
          "name": "",
          "type": "address"
        }
      ],
      "stateMutability": "view",
      "type": "function"
    },
    {
      "inputs": [
        {
          "internalType": "address",
          "name": "spender",
          "type": "address"
        },
        {
          "internalType": "uint256",
          "name": "addedValue",
          "type": "uint256"
        }
      ],
      "name": "increaseAllowance",
      "outputs": [
        {
          "internalType": "bool",
          "name": "",
          "type": "bool"
        }
      ],
      "stateMutability": "nonpayable",
      "type": "function"
    },
    {
      "inputs": [],
      "name": "name",
      "outputs": [
        {
          "internalType": "string",
          "name": "",
          "type": "string"
        }
      ],
      "stateMutability": "view",
      "type": "function"
    },
    {
      "inputs": [
        {
          "internalType": "address",
          "name": "owner",
          "type": "address"
        }
      ],
      "name": "nonces",
      "outputs": [
        {
          "internalType": "uint256",
          "name": "",
          "type": "uint256"
        }
      ],
      "stateMutability": "view",
      "type": "function"
    },
    {
      "inputs": [
        {
          "internalType": "bytes32",
          "name": "poolId",
          "type": "bytes32"
        },
        {
          "internalType": "address",
          "name": "sender",
          "type": "address"
        },
        {
          "internalType": "address",
          "name": "recipient",
          "type": "address"
        },
        {
          "internalType": "uint256[]",
          "name": "balances",
          "type": "uint256[]"
        },
        {
          "internalType": "uint256",
          "name": "lastChangeBlock",
          "type": "uint256"
        },
        {
          "internalType": "uint256",
          "name": "protocolSwapFeePercentage",
          "type": "uint256"
        },
        {
          "internalType": "bytes",
          "name": "userData",
          "type": "bytes"
        }
      ],
      "name": "onExitPool",
      "outputs": [
        {
          "internalType": "uint256[]",
          "name": "",
          "type": "uint256[]"
        },
        {
          "internalType": "uint256[]",
          "name": "",
          "type": "uint256[]"
        }
      ],
      "stateMutability": "nonpayable",
      "type": "function"
    },
    {
      "inputs": [
        {
          "internalType": "bytes32",
          "name": "poolId",
          "type": "bytes32"
        },
        {
          "internalType": "address",
          "name": "sender",
          "type": "address"
        },
        {
          "internalType": "address",
          "name": "recipient",
          "type": "address"
        },
        {
          "internalType": "uint256[]",
          "name": "balances",
          "type": "uint256[]"
        },
        {
          "internalType": "uint256",
          "name": "lastChangeBlock",
          "type": "uint256"
        },
        {
          "internalType": "uint256",
          "name": "protocolSwapFeePercentage",
          "type": "uint256"
        },
        {
          "internalType": "bytes",
          "name": "userData",
          "type": "bytes"
        }
      ],
      "name": "onJoinPool",
      "outputs": [
        {
          "internalType": "uint256[]",
          "name": "",
          "type": "uint256[]"
        },
        {
          "internalType": "uint256[]",
          "name": "",
          "type": "uint256[]"
        }
      ],
      "stateMutability": "nonpayable",
      "type": "function"
    },
    {
      "inputs": [
        {
          "components": [
            {
              "internalType": "enum IVault.SwapKind",
              "name": "kind",
              "type": "uint8"
            },
            {
              "internalType": "contract IERC20",
              "name": "tokenIn",
              "type": "address"
            },
            {
              "internalType": "contract IERC20",
              "name": "tokenOut",
              "type": "address"
            },
            {
              "internalType": "uint256",
              "name": "amount",
              "type": "uint256"
            },
            {
              "internalType": "bytes32",
              "name": "poolId",
              "type": "bytes32"
            },
            {
              "internalType": "uint256",
              "name": "lastChangeBlock",
              "type": "uint256"
            },
            {
              "internalType": "address",
              "name": "from",
              "type": "address"
            },
            {
              "internalType": "address",
              "name": "to",
              "type": "address"
            },
            {
              "internalType": "bytes",
              "name": "userData",
              "type": "bytes"
            }
          ],
          "internalType": "struct IPoolSwapStructs.SwapRequest",
          "name": "swapRequest",
          "type": "tuple"
        },
        {
          "internalType": "uint256[]",
          "name": "balances",
          "type": "uint256[]"
        },
        {
          "internalType": "uint256",
          "name": "indexIn",
          "type": "uint256"
        },
        {
          "internalType": "uint256",
          "name": "indexOut",
          "type": "uint256"
        }
      ],
      "name": "onSwap",
      "outputs": [
        {
          "internalType": "uint256",
          "name": "",
          "type": "uint256"
        }
      ],
      "stateMutability": "nonpayable",
      "type": "function"
    },
    {
      "inputs": [
        {
          "components": [
            {
              "internalType": "enum IVault.SwapKind",
              "name": "kind",
              "type": "uint8"
            },
            {
              "internalType": "contract IERC20",
              "name": "tokenIn",
              "type": "address"
            },
            {
              "internalType": "contract IERC20",
              "name": "tokenOut",
              "type": "address"
            },
            {
              "internalType": "uint256",
              "name": "amount",
              "type": "uint256"
            },
            {
              "internalType": "bytes32",
              "name": "poolId",
              "type": "bytes32"
            },
            {
              "internalType": "uint256",
              "name": "lastChangeBlock",
              "type": "uint256"
            },
            {
              "internalType": "address",
              "name": "from",
              "type": "address"
            },
            {
              "internalType": "address",
              "name": "to",
              "type": "address"
            },
            {
              "internalType": "bytes",
              "name": "userData",
              "type": "bytes"
            }
          ],
          "internalType": "struct IPoolSwapStructs.SwapRequest",
          "name": "request",
          "type": "tuple"
        },
        {
          "internalType": "uint256",
          "name": "balanceTokenIn",
          "type": "uint256"
        },
        {
          "internalType": "uint256",
          "name": "balanceTokenOut",
          "type": "uint256"
        }
      ],
      "name": "onSwap",
      "outputs": [
        {
          "internalType": "uint256",
          "name": "",
          "type": "uint256"
        }
      ],
      "stateMutability": "nonpayable",
      "type": "function"
    },
    {
      "inputs": [
        {
          "internalType": "address",
          "name": "owner",
          "type": "address"
        },
        {
          "internalType": "address",
          "name": "spender",
          "type": "address"
        },
        {
          "internalType": "uint256",
          "name": "value",
          "type": "uint256"
        },
        {
          "internalType": "uint256",
          "name": "deadline",
          "type": "uint256"
        },
        {
          "internalType": "uint8",
          "name": "v",
          "type": "uint8"
        },
        {
          "internalType": "bytes32",
          "name": "r",
          "type": "bytes32"
        },
        {
          "internalType": "bytes32",
          "name": "s",
          "type": "bytes32"
        }
      ],
      "name": "permit",
      "outputs": [],
      "stateMutability": "nonpayable",
      "type": "function"
    },
    {
      "inputs": [
        {
          "internalType": "bytes32",
          "name": "poolId",
          "type": "bytes32"
        },
        {
          "internalType": "address",
          "name": "sender",
          "type": "address"
        },
        {
          "internalType": "address",
          "name": "recipient",
          "type": "address"
        },
        {
          "internalType": "uint256[]",
          "name": "balances",
          "type": "uint256[]"
        },
        {
          "internalType": "uint256",
          "name": "lastChangeBlock",
          "type": "uint256"
        },
        {
          "internalType": "uint256",
          "name": "protocolSwapFeePercentage",
          "type": "uint256"
        },
        {
          "internalType": "bytes",
          "name": "userData",
          "type": "bytes"
        }
      ],
      "name": "queryExit",
      "outputs": [
        {
          "internalType": "uint256",
          "name": "bptIn",
          "type": "uint256"
        },
        {
          "internalType": "uint256[]",
          "name": "amountsOut",
          "type": "uint256[]"
        }
      ],
      "stateMutability": "view",
      "type": "function"
    },
    {
      "inputs": [
        {
          "internalType": "bytes32",
          "name": "poolId",
          "type": "bytes32"
        },
        {
          "internalType": "address",
          "name": "sender",
          "type": "address"
        },
        {
          "internalType": "address",
          "name": "recipient",
          "type": "address"
        },
        {
          "internalType": "uint256[]",
          "name": "balances",
          "type": "uint256[]"
        },
        {
          "internalType": "uint256",
          "name": "lastChangeBlock",
          "type": "uint256"
        },
        {
          "internalType": "uint256",
          "name": "protocolSwapFeePercentage",
          "type": "uint256"
        },
        {
          "internalType": "bytes",
          "name": "userData",
          "type": "bytes"
        }
      ],
      "name": "queryJoin",
      "outputs": [
        {
          "internalType": "uint256",
          "name": "bptOut",
          "type": "uint256"
        },
        {
          "internalType": "uint256[]",
          "name": "amountsIn",
          "type": "uint256[]"
        }
      ],
      "stateMutability": "view",
      "type": "function"
    },
    {
      "inputs": [
        {
          "internalType": "contract IERC20",
          "name": "token",
          "type": "address"
        },
        {
          "internalType": "bytes",
          "name": "poolConfig",
          "type": "bytes"
        }
      ],
      "name": "setAssetManagerPoolConfig",
      "outputs": [],
      "stateMutability": "nonpayable",
      "type": "function"
    },
    {
      "inputs": [
        {
          "internalType": "bool",
          "name": "paused",
          "type": "bool"
        }
      ],
      "name": "setPaused",
      "outputs": [],
      "stateMutability": "nonpayable",
      "type": "function"
    },
    {
      "inputs": [
        {
          "internalType": "uint256",
          "name": "swapFeePercentage",
          "type": "uint256"
        }
      ],
      "name": "setSwapFeePercentage",
      "outputs": [],
      "stateMutability": "nonpayable",
      "type": "function"
    },
    {
      "inputs": [
        {
          "internalType": "uint256",
          "name": "rawEndValue",
          "type": "uint256"
        },
        {
          "internalType": "uint256",
          "name": "endTime",
          "type": "uint256"
        }
      ],
      "name": "startAmplificationParameterUpdate",
      "outputs": [],
      "stateMutability": "nonpayable",
      "type": "function"
    },
    {
      "inputs": [],
      "name": "stopAmplificationParameterUpdate",
      "outputs": [],
      "stateMutability": "nonpayable",
      "type": "function"
    },
    {
      "inputs": [],
      "name": "symbol",
      "outputs": [
        {
          "internalType": "string",
          "name": "",
          "type": "string"
        }
      ],
      "stateMutability": "view",
      "type": "function"
    },
    {
      "inputs": [],
      "name": "totalSupply",
      "outputs": [
        {
          "internalType": "uint256",
          "name": "",
          "type": "uint256"
        }
      ],
      "stateMutability": "view",
      "type": "function"
    },
    {
      "inputs": [
        {
          "internalType": "address",
          "name": "recipient",
          "type": "address"
        },
        {
          "internalType": "uint256",
          "name": "amount",
          "type": "uint256"
        }
      ],
      "name": "transfer",
      "outputs": [
        {
          "internalType": "bool",
          "name": "",
          "type": "bool"
        }
      ],
      "stateMutability": "nonpayable",
      "type": "function"
    },
    {
      "inputs": [
        {
          "internalType": "address",
          "name": "sender",
          "type": "address"
        },
        {
          "internalType": "address",
          "name": "recipient",
          "type": "address"
        },
        {
          "internalType": "uint256",
          "name": "amount",
          "type": "uint256"
        }
      ],
      "name": "transferFrom",
      "outputs": [
        {
          "internalType": "bool",
          "name": "",
          "type": "bool"
        }
      ],
      "stateMutability": "nonpayable",
      "type": "function"
    }
  ],
  "bytecode": "0x6103206040527f6e71edae12b1b97f4d1f60370fef10105fa2faae0126114a169c64845d6126c9610120523480156200003757600080fd5b5060405162005437380380620054378339810160408190526200005a9162000ae2565b8886516002146200006d57600062000070565b60025b8989898a516001600160401b03811180156200008b57600080fd5b50604051908082528060200260200182016040528015620000b6578160200160208202803683370190505b5089898989828289898d8280604051806040016040528060018152602001603160f81b81525085858a336001600160a01b031660001b806080818152505050806001600160a01b031660a0816001600160a01b031660601b815250505081600390805190602001906200012b92919062000900565b5080516200014190600490602084019062000900565b505060058054601260ff1990911617905550815160209283012060c052805191012060e052507f8b73c3c69bb8fe3d512ecc4cf759cc79239f7b179b0ffacaa9a75d522b39400f6101005260601b6001600160601b0319166101405250620001b490506276a70083111561019462000569565b620001c862278d0082111561019562000569565b4290910161016081905201610180528551620001ea906002111560c862000569565b62000204620001f86200057e565b8751111560c962000569565b6200021a866200058360201b620010471760201c565b62000225846200058f565b6040516309b2760f60e01b81526000906001600160a01b038c16906309b2760f9062000256908d9060040162000c7e565b602060405180830381600087803b1580156200027157600080fd5b505af115801562000286573d6000803e3d6000fd5b505050506040513d601f19601f82011682018060405250810190620002ac919062000ac9565b604051633354e3e960e11b81529091506001600160a01b038c16906366a9c7d290620002e19084908b908b9060040162000be2565b600060405180830381600087803b158015620002fc57600080fd5b505af115801562000311573d6000803e3d6000fd5b5050506101a091909152506200033c9950505060018d1015965061012c955050620005699350505050565b6200034f61138886111561012d62000569565b85516101c0819052865187906000906200036557fe5b60200260200101516001600160a01b03166101e0816001600160a01b031660601b81525050866001815181106200039857fe5b60200260200101516001600160a01b0316610200816001600160a01b031660601b8152505060028111620003ce576000620003e5565b86600281518110620003dc57fe5b60200260200101515b60601b6001600160601b0319166102205260038111620004075760006200041e565b866003815181106200041557fe5b60200260200101515b60601b6001600160601b03191661024052600481116200044057600062000457565b866004815181106200044e57fe5b60200260200101515b6001600160a01b0316610260816001600160a01b031660601b815250506200049a876000815181106200048657fe5b60200260200101516200061b60201b60201c565b610280528651620004b390889060019081106200048657fe5b6102a05260028111620004c8576000620004da565b620004da876002815181106200048657fe5b6102c05260038111620004ef57600062000501565b62000501876003815181106200048657fe5b6102e052600481116200051657600062000528565b62000528876004815181106200048657fe5b610300818152505060006200054b876103e8620006ef60201b620010511760201c565b9050620005588162000720565b505050505050505050505062000ce5565b816200057a576200057a816200075f565b5050565b600590565b806200057a81620007b2565b620005a464e8d4a5100082101560cb62000569565b620005bc67016345785d8a000082111560ca62000569565b620005db8160c06008546200083f60201b62001075179092919060201c565b6008556040517fa9ba3ffe0b6c366b81232caab38605a0699ad5398d6cce76f91ee809e322dafc906200061090839062000c93565b60405180910390a150565b60006001600160a01b0382163014156200063f5750670de0b6b3a7640000620006ea565b6000826001600160a01b031663313ce5676040518163ffffffff1660e01b815260040160206040518083038186803b1580156200067b57600080fd5b505afa15801562000690573d6000803e3d6000fd5b505050506040513d601f19601f82011682018060405250810190620006b6919062000bbf565b60ff1690506000620006d56012836200085460201b6200108b1760201c565b905080600a0a670de0b6b3a764000002925050505b919050565b6000828202620007178415806200070f5750838583816200070c57fe5b04145b600362000569565b90505b92915050565b6200072e818042806200086c565b7fa0d01593e47e69d07e0ccd87bece09411e07dd1ed40ca8f2e7af2976542a02338160405162000610919062000c93565b62461bcd60e51b6000908152602060045260076024526642414c23000030600a808404818106603090810160081b95839006959095019082900491820690940160101b939093010160c81b604452606490fd5b600281511015620007c3576200083c565b600081600081518110620007d357fe5b602002602001015190506000600190505b825181101562000839576000838281518110620007fd57fe5b602002602001015190506200082e816001600160a01b0316846001600160a01b03161060656200056960201b60201c565b9150600101620007e4565b50505b50565b6001600160401b03811b1992909216911b1790565b60006200086683831115600162000569565b50900390565b6200088d816001600160401b031660c0620008fc60201b620010a11760201c565b620008ae836001600160401b03166080620008fc60201b620010a11760201c565b620008cf856001600160401b03166040620008fc60201b620010a11760201c565b620008f0876001600160401b03166000620008fc60201b620010a11760201c565b17171760095550505050565b1b90565b828054600181600116156101000203166002900490600052602060002090601f016020900481019282601f106200094357805160ff191683800117855562000973565b8280016001018555821562000973579182015b828111156200097357825182559160200191906001019062000956565b506200098192915062000985565b5090565b5b8082111562000981576000815560010162000986565b80516200071a8162000ccf565b600082601f830112620009ba578081fd5b81516001600160401b03811115620009d0578182fd5b6020808202620009e282820162000c9c565b83815293508184018583018287018401881015620009ff57600080fd5b600092505b8483101562000a2f57805162000a1a8162000ccf565b82526001929092019190830190830162000a04565b505050505092915050565b600082601f83011262000a4b578081fd5b81516001600160401b0381111562000a61578182fd5b602062000a77601f8301601f1916820162000c9c565b9250818352848183860101111562000a8e57600080fd5b60005b8281101562000aae57848101820151848201830152810162000a91565b8281111562000ac05760008284860101525b50505092915050565b60006020828403121562000adb578081fd5b5051919050565b60008060008060008060008060006101208a8c03121562000b01578485fd5b62000b0d8b8b6200099c565b60208b01519099506001600160401b038082111562000b2a578687fd5b62000b388d838e0162000a3a565b995060408c015191508082111562000b4e578687fd5b62000b5c8d838e0162000a3a565b985060608c015191508082111562000b72578687fd5b5062000b818c828d01620009a9565b96505060808a0151945060a08a0151935060c08a0151925060e08a0151915062000bb08b6101008c016200099c565b90509295985092959850929598565b60006020828403121562000bd1578081fd5b815160ff8116811462000717578182fd5b60006060820185835260206060818501528186518084526080860191508288019350845b8181101562000c2e5762000c1b855162000cc3565b8352938301939183019160010162000c06565b505084810360408601528551808252908201925081860190845b8181101562000c705762000c5d835162000cc3565b8552938301939183019160010162000c48565b509298975050505050505050565b602081016003831062000c8d57fe5b91905290565b90815260200190565b6040518181016001600160401b038111828210171562000cbb57600080fd5b604052919050565b6001600160a01b031690565b6001600160a01b03811681146200083c57600080fd5b60805160a05160601c60c05160e05161010051610120516101405160601c61016051610180516101a0516101c0516101e05160601c6102005160601c6102205160601c6102405160601c6102605160601c610280516102a0516102c0516102e0516103005161465d62000dda600039806121b252508061218e52508061216a525080612146525080612122525080611d6e525080611d2c525080611cea5250806129e15250806129af5250806110b5525080610823525080611484525080611460525080610b24525080610d995250806116805250806116c25250806116a1525080610b00525080610a8a525061465d6000f3fe608060405234801561001057600080fd5b506004361061025c5760003560e01c80636daccffa116101455780639b02cdde116100bd578063aaabadc51161008c578063d5c096c411610071578063d5c096c4146104d0578063dd62ed3e146104e3578063eb0f24d6146104f65761025c565b8063aaabadc5146104b5578063d505accf146104bd5761025c565b80639b02cdde146104665780639d2c110c1461047c578063a457c2d71461048f578063a9059cbb146104a25761025c565b8063851c1bb311610114578063893d20e8116100f9578063893d20e8146104415780638d928af81461045657806395d89b411461045e5761025c565b8063851c1bb31461041b57806387ec68171461042e5761025c565b80636daccffa146103bd57806370a08231146103d457806374f3b009146103e75780637ecebe00146104085761025c565b8063313ce567116101d857806339509351116101a757806355c676281161018c57806355c676281461038c5780636028bfd414610394578063679aefce146103b55761025c565b8063395093511461036657806350dd6ed9146103795761025c565b8063313ce5671461032e5780633644e5151461034357806338e9922e1461034b57806338fff2d01461035e5761025c565b806318160ddd1161022f5780631dd746ea116102145780631dd746ea146102f357806323b872dd146103085780632f1a0bc91461031b5761025c565b806318160ddd146102d45780631c0de051146102dc5761025c565b806301ec954a1461026157806306fdde031461028a578063095ea7b31461029f57806316c38b3c146102bf575b600080fd5b61027461026f3660046141c1565b6104fe565b6040516102819190614461565b60405180910390f35b61029261059c565b6040516102819190614537565b6102b26102ad366004613e3a565b610633565b604051610281919061443e565b6102d26102cd366004613f31565b61064a565b005b61027461065e565b6102e4610664565b60405161028193929190614449565b6102fb61068d565b6040516102819190614406565b6102b2610316366004613d85565b61069c565b6102d2610329366004614296565b610712565b6103366107f5565b60405161028191906145a2565b6102746107fe565b6102d261035936600461427e565b610808565b610274610821565b6102b2610374366004613e3a565b610845565b6102d2610387366004614068565b610880565b61027461089e565b6103a76103a2366004613f69565b6108af565b60405161028192919061454a565b6102746108e6565b6103c56109b3565b60405161028193929190614563565b6102746103e2366004613d31565b6109ce565b6103fa6103f5366004613f69565b6109ed565b604051610281929190614419565b610274610416366004613d31565b610a6b565b61027461042936600461400c565b610a86565b6103a761043c366004613f69565b610ad8565b610449610afe565b60405161028191906143f2565b610449610b22565b610292610b46565b61046e610ba7565b604051610281929190614579565b61027461048a366004614232565b610bb1565b6102b261049d366004613e3a565b610d0f565b6102b26104b0366004613e3a565b610d4d565b610449610d5a565b6102d26104cb366004613dc5565b610d64565b6103fa6104de366004613f69565b610ead565b6102746104f1366004613d4d565b610fde565b6102d261101b565b6000846080015161052b610510610b22565b6001600160a01b0316336001600160a01b03161460cd6110a5565b610540610536610821565b82146101f46110a5565b610552848461054d6110b3565b6110d7565b606061055c6110f4565b905060008751600181111561056d57fe5b146105845761057f878787878561121c565b610591565b6105918787878785611293565b979650505050505050565b60038054604080516020601f60026000196101006001881615020190951694909404938401819004810282018101909252828152606093909290918301828280156106285780601f106105fd57610100808354040283529160200191610628565b820191906000526020600020905b81548152906001019060200180831161060b57829003601f168201915b505050505090505b90565b60006106403384846112f7565b5060015b92915050565b61065261135f565b61065b816113a5565b50565b60025490565b6000806000610671611441565b15925061067c61145e565b9150610686611482565b9050909192565b60606106976110f4565b905090565b6000806106a98533610fde565b90506106cd336001600160a01b03871614806106c55750838210155b61019e6110a5565b6106d88585856114a6565b336001600160a01b038616148015906106f357506000198114155b156107055761070585338584036112f7565b60019150505b9392505050565b61071a61135f565b61072a600183101561012c6110a5565b61073b61138883111561012d6110a5565b6000610747824261108b565b905061075b6201518082101561013d6110a5565b600080610766611586565b91509150610777811561013e6110a5565b6000610785866103e8611051565b905060008382116107b4576107af6107a06201518086611051565b6107aa8488611051565b6115fa565b6107ce565b6107ce6107c46201518084611051565b6107aa8688611051565b90506107e0600282111561013f6110a5565b6107ec8483428961162d565b50505050505050565b60055460ff1690565b600061069761167c565b61081061135f565b610818611719565b61065b8161172e565b7f000000000000000000000000000000000000000000000000000000000000000090565b3360008181526001602090815260408083206001600160a01b0387168452909152812054909161064091859061087b9086611799565b6112f7565b61088861135f565b610890611719565b61089a82826117ab565b5050565b6008546000906106979060c06118c3565b600060606108c586516108c06110b3565b6118d1565b6108da898989898989896118de6119826119e3565b97509795505050505050565b600060606108f2610b22565b6001600160a01b031663f94d4668610908610821565b6040518263ffffffff1660e01b81526004016109249190614461565b60006040518083038186803b15801561093c57600080fd5b505afa158015610950573d6000803e3d6000fd5b505050506040513d6000823e601f3d908101601f191682016040526109789190810190613e65565b5091505061098d816109886110f4565b611b73565b6000610997611586565b5090506109ac82826109a761065e565b611bd4565b9250505090565b60008060006109c0611586565b90949093506103e892509050565b6001600160a01b0381166000908152602081905260409020545b919050565b606080886109fc610510610b22565b610a07610536610821565b6060610a116110f4565b9050610a1d8882611b73565b6000606080610a328e8e8e8e8e8e8a8f6118de565b925092509250610a428d84611bef565b610a4c8285611982565b610a568185611982565b909550935050505b5097509795505050505050565b6001600160a01b031660009081526006602052604090205490565b60007f000000000000000000000000000000000000000000000000000000000000000082604051602001610abb92919061437c565b604051602081830303815290604052805190602001209050919050565b60006060610ae986516108c06110b3565b6108da89898989898989611bf9611c526119e3565b7f000000000000000000000000000000000000000000000000000000000000000090565b7f000000000000000000000000000000000000000000000000000000000000000090565b60048054604080516020601f60026000196101006001881615020190951694909404938401819004810282018101909252828152606093909290918301828280156106285780601f106105fd57610100808354040283529160200191610628565b600a54600b549091565b60008360800151610bc3610510610b22565b610bce610536610821565b6000610bdd8660200151611cb3565b90506000610bee8760400151611cb3565b9050600087516001811115610bff57fe5b1415610c8f576000610c148860600151611db9565b90506000818960600151039050610c388960200151610c338387611dda565b611de6565b60608901829052610c498885611dda565b9750610c558784611dda565b9650610c65896060015185611dda565b60608a01526000610c778a8a8a611df8565b9050610c838185611e31565b96505050505050610d07565b610c998683611dda565b9550610ca58582611dda565b9450610cb5876060015182611dda565b60608801526000610cc7888888611e3d565b9050610cd38184611e6c565b90506000610ce082611e78565b905060008282039050610cfb8a60200151610c338388611dda565b509450610d0792505050565b509392505050565b600080610d1c3385610fde565b9050808310610d3657610d31338560006112f7565b610d43565b610d4333858584036112f7565b5060019392505050565b60006106403384846114a6565b6000610697611e9e565b610d728442111560d16110a5565b6001600160a01b0387166000908152600660209081526040808320549051909291610dc9917f0000000000000000000000000000000000000000000000000000000000000000918c918c918c9188918d9101614489565b6040516020818303038152906040528051906020012090506000610dec82611f18565b9050600060018288888860405160008152602001604052604051610e139493929190614519565b6020604051602081039080840390855afa158015610e35573d6000803e3d6000fd5b5050604051601f1901519150610e7790506001600160a01b03821615801590610e6f57508b6001600160a01b0316826001600160a01b0316145b6101f86110a5565b6001600160a01b038b166000908152600660205260409020600185019055610ea08b8b8b6112f7565b5050505050505050505050565b60608088610ebc610510610b22565b610ec7610536610821565b6060610ed16110f4565b9050610edb61065e565b610f8e5760006060610ef08d8d8d868b611f34565b91509150610f09610eff611fc3565b83101560cc6110a5565b610f1b6000610f16611fc3565b611fca565b610f2e8b610f27611fc3565b8403611fca565b610f388184611c52565b80610f416110b3565b67ffffffffffffffff81118015610f5757600080fd5b50604051908082528060200260200182016040528015610f81578160200160208202803683370190505b5095509550505050610a5e565b610f988882611b73565b6000606080610fad8e8e8e8e8e8e8a8f611bf9565b925092509250610fbd8c84611fca565b610fc78285611c52565b610fd18185611982565b9095509350610a5e915050565b6000610fe8610b22565b6001600160a01b0316826001600160a01b0316141561100a5750600019610644565b6110148383611fd4565b9050610644565b61102361135f565b60008061102e611586565b9150915061103e816101406110a5565b61089a82611fff565b8061089a8161203a565b600082820261070b84158061106e57508385838161106b57fe5b04145b60036110a5565b67ffffffffffffffff811b1992909216911b1790565b600061109b8383111560016110a5565b50900390565b1b90565b8161089a5761089a816120b3565b7f000000000000000000000000000000000000000000000000000000000000000090565b6110ef81841080156110e857508183105b60646110a5565b505050565b606060006111006110b3565b905060608167ffffffffffffffff8111801561111b57600080fd5b50604051908082528060200260200182016040528015611145578160200160208202803683370190505b509050611150612120565b8160008151811061115d57fe5b602002602001018181525050611171612144565b8160018151811061117e57fe5b60200260200101818152505060028211156111b95761119b612168565b816002815181106111a857fe5b6020026020010181815250506111c2565b91506106309050565b60038211156111b9576111d361218c565b816003815181106111e057fe5b60200260200101818152505060048211156111b9576111fd6121b0565b8160048151811061120a57fe5b60200260200101818152505091505090565b60006112288583611b73565b611249866060015183858151811061123c57fe5b6020026020010151611dda565b6060870152600061125c878787876121d4565b905061127b8184878151811061126e57fe5b6020026020010151611e6c565b905061128681611e78565b9150505b95945050505050565b60006112a28660600151611db9565b60608701526112b18583611b73565b6112c5866060015183868151811061123c57fe5b606087015260006112d88787878761221d565b9050611286818486815181106112ea57fe5b6020026020010151611e31565b6001600160a01b0380841660008181526001602090815260408083209487168084529490915290819020849055517f8c5be1e5ebec7d5bd14f71427d1e84f3dd0314c0f7b2291e5b200ac8c7c3b92590611352908590614461565b60405180910390a3505050565b600061138e6000357fffffffff0000000000000000000000000000000000000000000000000000000016610a86565b905061065b61139d8233612258565b6101916110a5565b80156113c5576113c06113b661145e565b42106101936110a5565b6113da565b6113da6113d0611482565b42106101a96110a5565b600780547fffffffffffffffffffffffffffffffffffffffffffffffffffffffffffffff00168215151790556040517f9e3a5e37224532dea67b89face185703738a228a6e8a23dee546960180d3be649061143690839061443e565b60405180910390a150565b600061144b611482565b42118061069757505060075460ff161590565b7f000000000000000000000000000000000000000000000000000000000000000090565b7f000000000000000000000000000000000000000000000000000000000000000090565b6114bd6001600160a01b03841615156101986110a5565b6114d46001600160a01b03831615156101996110a5565b6114df8383836110ef565b6001600160a01b03831660009081526020819052604090205461150590826101a0612341565b6001600160a01b0380851660009081526020819052604080822093909355908416815220546115349082611799565b6001600160a01b0380841660008181526020819052604090819020939093559151908516907fddf252ad1be2c89b69c2b068fc378daa952ba7f163c4a11628f55a4df523b3ef90611352908590614461565b600080600080600080611597612357565b9350935093509350804210156115ea5760019450838311156115ce5781810382420385850302816115c457fe5b04840195506115e5565b81810382420384860302816115df57fe5b04840395505b6115f2565b600094508295505b505050509091565b600061160982151560046110a5565b8261161657506000610644565b81600184038161162257fe5b046001019050610644565b611639848484846123ae565b7f1835882ee7a34ac194f717a35e09bb1d24c82a3b9d854ab6c9749525b714cdf28484848460405161166e9493929190614587565b60405180910390a150505050565b60007f00000000000000000000000000000000000000000000000000000000000000007f00000000000000000000000000000000000000000000000000000000000000007f00000000000000000000000000000000000000000000000000000000000000006116e961240e565b306040516020016116fe9594939291906144bd565b60405160208183030381529060405280519060200120905090565b61172c611724611441565b6101926110a5565b565b61174164e8d4a5100082101560cb6110a5565b61175767016345785d8a000082111560ca6110a5565b600854611766908260c0611075565b6008556040517fa9ba3ffe0b6c366b81232caab38605a0699ad5398d6cce76f91ee809e322dafc90611436908390614461565b600082820161070b84821015836110a5565b60006117b5610821565b905060006117c1610b22565b6001600160a01b031663b05f8e4883866040518363ffffffff1660e01b81526004016117ee929190614502565b60806040518083038186803b15801561180657600080fd5b505afa15801561181a573d6000803e3d6000fd5b505050506040513d601f19601f8201168201806040525081019061183e91906142b7565b6040517f18e736d40000000000000000000000000000000000000000000000000000000081529094506001600160a01b03851693506318e736d4925061188b9150859087906004016144e9565b600060405180830381600087803b1580156118a557600080fd5b505af11580156118b9573d6000803e3d6000fd5b5050505050505050565b1c67ffffffffffffffff1690565b61089a81831460676110a5565b60006060806118eb611441565b1561190e576118fa8887612412565b9050611909888261108b6124ff565b61195a565b6119166110b3565b67ffffffffffffffff8111801561192c57600080fd5b50604051908082528060200260200182016040528015611956578160200160208202803683370190505b5090505b61196588868661256a565b909350915061197488836125f5565b985098509895505050505050565b60005b61198d6110b3565b8110156110ef576119c48382815181106119a357fe5b60200260200101518383815181106119b757fe5b6020026020010151612624565b8382815181106119d057fe5b6020908102919091010152600101611985565b333014611ad2576000306001600160a01b0316600036604051611a079291906143ac565b6000604051808303816000865af19150503d8060008114611a44576040519150601f19603f3d011682016040523d82523d6000602084013e611a49565b606091505b505090508060008114611a5857fe5b60046000803e6000517fffffffff00000000000000000000000000000000000000000000000000000000167f43adbafb000000000000000000000000000000000000000000000000000000008114611ab4573d6000803e3d6000fd5b506020600460003e604060205260243d03602460403e601c3d016000f35b6060611adc6110f4565b9050611ae88782611b73565b60006060611b008c8c8c8c8c8c898d8d63ffffffff16565b5091509150611b1381848663ffffffff16565b8051601f1982018390526343adbafb7fffffffffffffffffffffffffffffffffffffffffffffffffffffffffffffffc08301526020027fffffffffffffffffffffffffffffffffffffffffffffffffffffffffffffffdc82016044820181fd5b60005b611b7e6110b3565b8110156110ef57611bb5838281518110611b9457fe5b6020026020010151838381518110611ba857fe5b6020026020010151612675565b838281518110611bc157fe5b6020908102919091010152600101611b76565b600080611be3848660006126a1565b905061128a8184612624565b61089a828261283d565b6000606080611c06611719565b6060611c128988612412565b9050611c21898261108b6124ff565b60006060611c308b89896128f9565b91509150611c3e8b82612952565b909d909c50909a5098505050505050505050565b60005b611c5d6110b3565b8110156110ef57611c94838281518110611c7357fe5b6020026020010151838381518110611c8757fe5b602002602001015161295f565b838281518110611ca057fe5b6020908102919091010152600101611c55565b6000611cbe826129ad565b15611cd257611ccb612120565b90506109e8565b611cdb826129df565b15611ce857611ccb612144565b7f00000000000000000000000000000000000000000000000000000000000000006001600160a01b0316826001600160a01b03161415611d2a57611ccb612168565b7f00000000000000000000000000000000000000000000000000000000000000006001600160a01b0316826001600160a01b03161415611d6c57611ccb61218c565b7f00000000000000000000000000000000000000000000000000000000000000006001600160a01b0316826001600160a01b03161415611dae57611ccb6121b0565b6109e86101356120b3565b600080611dce611dc761089e565b8490612a11565b905061070b838261108b565b600061070b8383612675565b61089a611df283612a4d565b8261089a565b6000611e0f611e056110b3565b60021460d26110a5565b6060600080611e1f878787612a53565b9250925092506105918784848461221d565b600061070b8383612624565b6000611e4a611e056110b3565b6060600080611e5a878787612a53565b925092509250610591878484846121d4565b600061070b838361295f565b6000610644611e97611e8861089e565b670de0b6b3a76400009061108b565b839061295f565b6000611ea8610b22565b6001600160a01b031663aaabadc56040518163ffffffff1660e01b815260040160206040518083038186803b158015611ee057600080fd5b505afa158015611ef4573d6000803e3d6000fd5b505050506040513d601f19601f82011682018060405250810190610697919061404c565b6000611f2261167c565b82604051602001610abb9291906143bc565b60006060611f40611719565b6000611f4b84612b14565b9050611f666000826002811115611f5e57fe5b1460ce6110a5565b6060611f7185612b2a565b9050611f8081516108c06110b3565b611f8a8187611b73565b6000611f94611586565b5090506000611fa5828460016126a1565b905080611fb28184612b40565b9b929a509198505050505050505050565b620f424090565b61089a8282612b4b565b6001600160a01b03918216600090815260016020908152604080832093909416825291909152205490565b61200b818242426123ae565b7fa0d01593e47e69d07e0ccd87bece09411e07dd1ed40ca8f2e7af2976542a0233816040516114369190614461565b6002815110156120495761065b565b60008160008151811061205857fe5b602002602001015190506000600190505b82518110156110ef57600083828151811061208057fe5b602002602001015190506120a9816001600160a01b0316846001600160a01b03161060656110a5565b9150600101612069565b7f08c379a0000000000000000000000000000000000000000000000000000000006000908152602060045260076024526642414c23000030600a808404818106603090810160081b95839006959095019082900491820690940160101b939093010160c81b604452606490fd5b7f000000000000000000000000000000000000000000000000000000000000000090565b7f000000000000000000000000000000000000000000000000000000000000000090565b7f000000000000000000000000000000000000000000000000000000000000000090565b7f000000000000000000000000000000000000000000000000000000000000000090565b7f000000000000000000000000000000000000000000000000000000000000000090565b60006121de611719565b60006121e8611586565b50905060006121f9828760016126a1565b9050600061220f838888888c6060015187612bd9565b93505050505b949350505050565b6000612227611719565b6000612231611586565b5090506000612242828760016126a1565b9050600061220f838888888c6060015187612c8e565b600073ba1ba1ba1ba1ba1ba1ba1ba1ba1ba1ba1ba1ba1b612277610afe565b6001600160a01b031614158015612292575061229283612d27565b156122ba5761229f610afe565b6001600160a01b0316336001600160a01b0316149050610644565b6122c2611e9e565b6001600160a01b0316639be2a8848484306040518463ffffffff1660e01b81526004016122f19392919061446a565b60206040518083038186803b15801561230957600080fd5b505afa15801561231d573d6000803e3d6000fd5b505050506040513d601f19601f820116820180604052508101906110149190613f4d565b600061235084841115836110a5565b5050900390565b60008060008061237360006009546118c390919063ffffffff16565b6009549094506123849060406118c3565b6009549093506123959060806118c3565b6009549092506123a69060c06118c3565b905090919293565b6123c38167ffffffffffffffff1660c06110a1565b6123d88367ffffffffffffffff1660806110a1565b6123ed8567ffffffffffffffff1660406110a1565b6124028767ffffffffffffffff1660006110a1565b17171760095550505050565b4690565b60608061241d6110b3565b67ffffffffffffffff8111801561243357600080fd5b5060405190808252806020026020018201604052801561245d578160200160208202803683370190505b5090508261246c579050610644565b6000808560008151811061247c57fe5b602002602001015190506000600190505b6124956110b3565b8110156124cc5760008782815181106124aa57fe5b60200260200101519050828111156124c3578193508092505b5060010161248d565b506124de600b5487600a548589612d95565b8383815181106124ea57fe5b60209081029190910101525090949350505050565b60005b61250a6110b3565b8110156125645761254584828151811061252057fe5b602002602001015184838151811061253457fe5b60200260200101518463ffffffff16565b84828151811061255157fe5b6020908102919091010152600101612502565b50505050565b60006060600061257984612b14565b9050600081600281111561258957fe5b14156125a3576125998685612df7565b92509250506125ed565b60018160028111156125b157fe5b14156125c1576125998685612ec2565b60028160028111156125cf57fe5b14156125e057612599868686612ef4565b6125eb6101506120b3565b505b935093915050565b612602828261108b6124ff565b600061260c611586565b5090506110ef61261e828560016126a1565b82612b40565b600061263382151560046110a5565b8261264057506000610644565b670de0b6b3a7640000838102906126639085838161265a57fe5b041460056110a5565b82818161266c57fe5b04915050610644565b600082820261268f84158061106e57508385838161106b57fe5b670de0b6b3a764000090049392505050565b81516000908190815b818110156126e2576126d88682815181106126c157fe5b60200260200101518461179990919063ffffffff16565b92506001016126aa565b50816126f35760009250505061070b565b600082878302825b60ff811015612825576000858a60008151811061271457fe5b60200260200101510290506000600190505b868110156127685761275e612757612751848e858151811061274457fe5b6020026020010151611051565b89611051565b868c612f70565b9150600101612726565b508394506127db6127aa612791612788612782878c611051565b85611051565b6103e88d612f70565b6127a461279e8a89611051565b88611051565b90611799565b6127d56127c86127be6103e8880386611051565b6103e88e15612f70565b6127a48a60010189611051565b8b612f70565b935084841115612803576001858503116127fe578397505050505050505061070b565b61281c565b60018486031161281c578397505050505050505061070b565b506001016126fb565b506128316101416120b3565b50505050509392505050565b6128546001600160a01b038316151561019b6110a5565b612860826000836110ef565b6001600160a01b03821660009081526020819052604090205461288690826101a1612341565b6001600160a01b0383166000908152602081905260409020556002546128ac9082612f90565b6002556040516000906001600160a01b038416907fddf252ad1be2c89b69c2b068fc378daa952ba7f163c4a11628f55a4df523b3ef906128ed908590614461565b60405180910390a35050565b60006060600061290884612b14565b9050600181600281111561291857fe5b141561292957612599868686612f9e565b600281600281111561293757fe5b1415612947576125998685613008565b6125eb6101366120b3565b61260282826117996124ff565b600061296e82151560046110a5565b8261297b57506000610644565b670de0b6b3a7640000838102906129959085838161265a57fe5b8260018203816129a157fe5b04600101915050610644565b7f00000000000000000000000000000000000000000000000000000000000000006001600160a01b0390811691161490565b7f00000000000000000000000000000000000000000000000000000000000000006001600160a01b0390811691161490565b6000828202612a2b84158061106e57508385838161106b57fe5b80612a3a576000915050610644565b670de0b6b3a764000060001982016129a1565b50600090565b60408051600280825260608281019093526000918291816020016020820280368337019050509250612a8886602001516129ad565b15612ace5760009150600190508483600081518110612aa357fe5b6020026020010181815250508383600181518110612abd57fe5b602002602001018181525050612b0b565b60009050600191508383600081518110612ae457fe5b6020026020010181815250508483600181518110612afe57fe5b6020026020010181815250505b93509350939050565b60008180602001905181019061064491906140b6565b60608180602001905181019061070b919061417c565b600a91909155600b55565b612b57600083836110ef565b600254612b649082611799565b6002556001600160a01b038216600090815260208190526040902054612b8a9082611799565b6001600160a01b0383166000818152602081905260408082209390935591519091907fddf252ad1be2c89b69c2b068fc378daa952ba7f163c4a11628f55a4df523b3ef906128ed908590614461565b6000612c0183878681518110612beb57fe5b602002602001015161108b90919063ffffffff16565b868581518110612c0d57fe5b6020026020010181815250506000612c278888858961309d565b905083878681518110612c3657fe5b602002602001015101878681518110612c4b57fe5b602002602001018181525050612c8260016127a4898981518110612c6b57fe5b60200260200101518461108b90919063ffffffff16565b98975050505050505050565b6000612cb683878781518110612ca057fe5b602002602001015161179990919063ffffffff16565b868681518110612cc257fe5b6020026020010181815250506000612cdc8888858861309d565b905083878781518110612ceb57fe5b602002602001015103878781518110612d0057fe5b602002602001018181525050612c826001612d21838a8981518110612beb57fe5b9061108b565b6000612d527f2f1a0bc900000000000000000000000000000000000000000000000000000000610a86565b821480612d865750612d837feb0f24d600000000000000000000000000000000000000000000000000000000610a86565b82145b8061064457506106448261324d565b600080612da48787878761309d565b905080868581518110612db357fe5b602002602001015111612dca57600091505061128a565b600081878681518110612dd957fe5b6020026020010151039050612c82848261267590919063ffffffff16565b60006060612e03611719565b600080612e0f856132b1565b91509150612e27612e1e6110b3565b821060646110a5565b6060612e316110b3565b67ffffffffffffffff81118015612e4757600080fd5b50604051908082528060200260200182016040528015612e71578160200160208202803683370190505b5090506000612e7e611586565b509050612e9d81898587612e9061065e565b612e9861089e565b6132d3565b828481518110612ea957fe5b6020908102919091010152509196919550909350505050565b600060606000612ed1846133ef565b90506060612ee78683612ee261065e565b613405565b9196919550909350505050565b60006060612f00611719565b60606000612f0d856134b7565b91509150612f1e82516108c06110b3565b612f288287611b73565b6000612f32611586565b5090506000612f52828a86612f4561065e565b612f4d61089e565b6134cf565b9050612f628382111560cf6110a5565b989297509195505050505050565b600081612f8657612f818484613765565b612215565b61221584846115fa565b600061070b83836001612341565b60006060806000612fae856134b7565b91509150612fc4612fbd6110b3565b83516118d1565b612fce8287611b73565b6000612fd8611586565b5090506000612ff8828a86612feb61065e565b612ff361089e565b613785565b9050612f628382101560d06110a5565b60006060600080613018856132b1565b91509150613027612e1e6110b3565b60606130316110b3565b67ffffffffffffffff8111801561304757600080fd5b50604051908082528060200260200182016040528015613071578160200160208202803683370190505b509050600061307e611586565b509050612e9d8189858761309061065e565b61309861089e565b613a1a565b6000808451860290506000856000815181106130b557fe5b6020026020010151905060008651876000815181106130d057fe5b60200260200101510290506000600190505b87518110156131295761310e613108613101848b858151811061274457fe5b8a51611051565b88613765565b915061311f8882815181106126c157fe5b92506001016130e2565b5086858151811061313657fe5b602002602001015182039150600061314e8788611051565b9050600061317a61316e613166846107aa8988611051565b6103e8611051565b8a898151811061274457fe5b9050600061319561318e6131668b89613765565b8690611799565b90506000806131b16131a78686611799565b6107aa8d86611799565b905060005b60ff811015613231578192506131e66131d3866127a48586611051565b6107aa8e612d21886127a4886002611051565b91508282111561320f5760018383031161320a575097506122159650505050505050565b613229565b600182840311613229575097506122159650505050505050565b6001016131b6565b5061323d6101426120b3565b5050505050505050949350505050565b60006132787f38e9922e00000000000000000000000000000000000000000000000000000000610a86565b82148061064457506132a97f50dd6ed900000000000000000000000000000000000000000000000000000000610a86565b909114919050565b600080828060200190518101906132c89190614146565b909590945092505050565b6000806132e2888860016126a1565b90506000613304826132fe876132f8818b61108b565b9061295f565b90612a11565b905060006133148a8a848b61309d565b90506000613328828b8b81518110612beb57fe5b90506000805b8b518110156133675761335d8c828151811061334657fe5b60200260200101518361179990919063ffffffff16565b915060010161332e565b506000613390828d8d8151811061337a57fe5b602002602001015161262490919063ffffffff16565b9050600061339d82613af7565b905060006133ab8583612a11565b905060006133b9868361108b565b90506133da6133d383670de0b6b3a76400008e9003612675565b8290611799565b99505050505050505050509695505050505050565b60008180602001905181019061070b9190614119565b606060006134138484612624565b90506060855167ffffffffffffffff8111801561342f57600080fd5b50604051908082528060200260200182016040528015613459578160200160208202803683370190505b50905060005b86518110156134ad5761348e8388838151811061347857fe5b602002602001015161267590919063ffffffff16565b82828151811061349a57fe5b602090810291909101015260010161345f565b5095945050505050565b60606000828060200190518101906132c891906140d2565b600080805b86518110156134f6576134ec87828151811061334657fe5b91506001016134d4565b506060855167ffffffffffffffff8111801561351157600080fd5b5060405190808252806020026020018201604052801561353b578160200160208202803683370190505b5090506000805b8851811015613602576000613573858b848151811061355d57fe5b602002602001015161295f90919063ffffffff16565b90506135af8a838151811061358457fe5b60200260200101516132f88b858151811061359b57fe5b60200260200101518d8681518110612beb57fe5b8483815181106135bb57fe5b6020026020010181815250506135f76135f0828685815181106135da57fe5b6020026020010151612a1190919063ffffffff16565b8490611799565b925050600101613542565b506060885167ffffffffffffffff8111801561361d57600080fd5b50604051908082528060200260200182016040528015613647578160200160208202803683370190505b50905060005b895181101561371257600084828151811061366457fe5b60200260200101518411156136cb57600061368d61368186613af7565b8d858151811061347857fe5b905060006136a1828d8681518110612beb57fe5b90506136c26136bb82670de0b6b3a76400008d900361295f565b8390611799565b925050506136e2565b8982815181106136d757fe5b602002602001015190505b6136f2818c8481518110612beb57fe5b8383815181106136fe57fe5b60209081029190910101525060010161364d565b5060006137218b8b60016126a1565b905060006137318c8460006126a1565b9050600061373f8284612624565b905061375461374d82613af7565b8b90612a11565b9d9c50505050505050505050505050565b600061377482151560046110a5565b81838161377d57fe5b049392505050565b600080805b86518110156137ac576137a287828151811061334657fe5b915060010161378a565b506060855167ffffffffffffffff811180156137c757600080fd5b506040519080825280602002602001820160405280156137f1578160200160208202803683370190505b5090506000805b885181101561388b576000613813858b848151811061337a57fe5b90506138558a838151811061382457fe5b602002602001015161384f8b858151811061383b57fe5b60200260200101518d8681518110612ca057fe5b90612624565b84838151811061386157fe5b6020026020010181815250506138806135f08286858151811061347857fe5b9250506001016137f8565b506060885167ffffffffffffffff811180156138a657600080fd5b506040519080825280602002602001820160405280156138d0578160200160208202803683370190505b50905060005b8951811015613991576000838583815181106138ee57fe5b6020026020010151111561394a57600061391361368186670de0b6b3a764000061108b565b90506000613927828d8681518110612beb57fe5b90506139416136bb82670de0b6b3a76400008d9003612675565b92505050613961565b89828151811061395657fe5b602002602001015190505b613971818c8481518110612ca057fe5b83838151811061397d57fe5b6020908102919091010152506001016138d6565b5060006139a08b8b60016126a1565b905060006139b08c8460006126a1565b905060006139be8284612624565b9050670de0b6b3a7640000811115613a0a576139fc8a7ffffffffffffffffffffffffffffffffffffffffffffffffff21f494c589c00008301612675565b97505050505050505061128a565b600097505050505050505061128a565b600080613a29888860016126a1565b90506000613a3f826132fe876132f8818b611799565b90506000613a4f8a8a848b61309d565b90506000613a798a8a81518110613a6257fe5b60200260200101518361108b90919063ffffffff16565b90506000805b8b51811015613aa157613a978c828151811061334657fe5b9150600101613a7f565b506000613ab4828d8d8151811061337a57fe5b90506000613ac182613af7565b90506000613acf8583612a11565b90506000613add868361108b565b90506133da6133d383670de0b6b3a76400008e900361295f565b6000670de0b6b3a76400008210613b0f576000610644565b50670de0b6b3a76400000390565b8035610644816145f7565b600082601f830112613b38578081fd5b8135613b4b613b46826145d7565b6145b0565b818152915060208083019084810181840286018201871015613b6c57600080fd5b60005b84811015613b8b57813584529282019290820190600101613b6f565b505050505092915050565b600082601f830112613ba6578081fd5b8151613bb4613b46826145d7565b818152915060208083019084810181840286018201871015613bd557600080fd5b60005b84811015613b8b57815184529282019290820190600101613bd8565b600082601f830112613c04578081fd5b813567ffffffffffffffff811115613c1a578182fd5b613c2d6020601f19601f840116016145b0565b9150808252836020828501011115613c4457600080fd5b8060208401602084013760009082016020015292915050565b80356002811061064457600080fd5b6000610120808385031215613c7f578182fd5b613c88816145b0565b915050613c958383613c5d565b8152613ca48360208401613b1d565b6020820152613cb68360408401613b1d565b6040820152606082013560608201526080820135608082015260a082013560a0820152613ce68360c08401613b1d565b60c0820152613cf88360e08401613b1d565b60e08201526101008083013567ffffffffffffffff811115613d1957600080fd5b613d2585828601613bf4565b82840152505092915050565b600060208284031215613d42578081fd5b813561070b816145f7565b60008060408385031215613d5f578081fd5b8235613d6a816145f7565b91506020830135613d7a816145f7565b809150509250929050565b600080600060608486031215613d99578081fd5b8335613da4816145f7565b92506020840135613db4816145f7565b929592945050506040919091013590565b600080600080600080600060e0888a031215613ddf578283fd5b8735613dea816145f7565b96506020880135613dfa816145f7565b95506040880135945060608801359350608088013560ff81168114613e1d578384fd5b9699959850939692959460a0840135945060c09093013592915050565b60008060408385031215613e4c578182fd5b8235613e57816145f7565b946020939093013593505050565b600080600060608486031215613e79578081fd5b835167ffffffffffffffff80821115613e90578283fd5b818601915086601f830112613ea3578283fd5b8151613eb1613b46826145d7565b80828252602080830192508086018b828387028901011115613ed1578788fd5b8796505b84871015613efc578051613ee8816145f7565b845260019690960195928101928101613ed5565b508901519097509350505080821115613f13578283fd5b50613f2086828701613b96565b925050604084015190509250925092565b600060208284031215613f42578081fd5b813561070b8161460c565b600060208284031215613f5e578081fd5b815161070b8161460c565b600080600080600080600060e0888a031215613f83578081fd5b873596506020880135613f95816145f7565b95506040880135613fa5816145f7565b9450606088013567ffffffffffffffff80821115613fc1578283fd5b613fcd8b838c01613b28565b955060808a0135945060a08a0135935060c08a0135915080821115613ff0578283fd5b50613ffd8a828b01613bf4565b91505092959891949750929550565b60006020828403121561401d578081fd5b81357fffffffff000000000000000000000000000000000000000000000000000000008116811461070b578182fd5b60006020828403121561405d578081fd5b815161070b816145f7565b6000806040838503121561407a578182fd5b8235614085816145f7565b9150602083013567ffffffffffffffff8111156140a0578182fd5b6140ac85828601613bf4565b9150509250929050565b6000602082840312156140c7578081fd5b815161070b8161461a565b6000806000606084860312156140e6578081fd5b83516140f18161461a565b602085015190935067ffffffffffffffff81111561410d578182fd5b613f2086828701613b96565b6000806040838503121561412b578182fd5b82516141368161461a565b6020939093015192949293505050565b60008060006060848603121561415a578081fd5b83516141658161461a565b602085015160409095015190969495509392505050565b6000806040838503121561418e578182fd5b82516141998161461a565b602084015190925067ffffffffffffffff8111156141b5578182fd5b6140ac85828601613b96565b600080600080608085870312156141d6578182fd5b843567ffffffffffffffff808211156141ed578384fd5b6141f988838901613c6c565b9550602087013591508082111561420e578384fd5b5061421b87828801613b28565b949794965050505060408301359260600135919050565b600080600060608486031215614246578081fd5b833567ffffffffffffffff81111561425c578182fd5b61426886828701613c6c565b9660208601359650604090950135949350505050565b60006020828403121561428f578081fd5b5035919050565b600080604083850312156142a8578182fd5b50508035926020909101359150565b600080600080608085870312156142cc578182fd5b84519350602085015192506040850151915060608501516142ec816145f7565b939692955090935050565b6000815180845260208085019450808401835b838110156143265781518752958201959082019060010161430a565b509495945050505050565b60008151808452815b818110156143565760208185018101518683018201520161433a565b818111156143675782602083870101525b50601f01601f19169290920160200192915050565b9182527fffffffff0000000000000000000000000000000000000000000000000000000016602082015260240190565b6000828483379101908152919050565b7f190100000000000000000000000000000000000000000000000000000000000081526002810192909252602282015260420190565b6001600160a01b0391909116815260200190565b60006020825261070b60208301846142f7565b60006040825261442c60408301856142f7565b828103602084015261128a81856142f7565b901515815260200190565b92151583526020830191909152604082015260600190565b90815260200190565b9283526001600160a01b03918216602084015216604082015260600190565b9586526001600160a01b0394851660208701529290931660408501526060840152608083019190915260a082015260c00190565b9485526020850193909352604084019190915260608301526001600160a01b0316608082015260a00190565b6000838252604060208301526122156040830184614331565b9182526001600160a01b0316602082015260400190565b93845260ff9290921660208401526040830152606082015260800190565b60006020825261070b6020830184614331565b60008382526040602083015261221560408301846142f7565b9283529015156020830152604082015260600190565b918252602082015260400190565b93845260208401929092526040830152606082015260800190565b60ff91909116815260200190565b60405181810167ffffffffffffffff811182821017156145cf57600080fd5b604052919050565b600067ffffffffffffffff8211156145ed578081fd5b5060209081020190565b6001600160a01b038116811461065b57600080fd5b801515811461065b57600080fd5b6003811061065b57600080fdfea264697066735822122098271cd6bef62c1ba27689224a493273874ccf079181cf6840e1e5236bfc5c9d64736f6c63430007010033",
  "linkReferences": {},
  "deployedLinkReferences": {}
}