{
  "_format": "hh-sol-artifact-1",
  "contractName": "WeightedPool2Tokens",
  "sourceName": "contracts/WeightedPool2Tokens.sol",
  "abi": [
    {
      "inputs": [
        {
          "components": [
            {
              "internalType": "contract IVault",
              "name": "vault",
              "type": "address"
            },
            {
              "internalType": "string",
              "name": "name",
              "type": "string"
            },
            {
              "internalType": "string",
              "name": "symbol",
              "type": "string"
            },
            {
              "internalType": "contract IERC20",
              "name": "token0",
              "type": "address"
            },
            {
              "internalType": "contract IERC20",
              "name": "token1",
              "type": "address"
            },
            {
              "internalType": "uint256",
              "name": "normalizedWeight0",
              "type": "uint256"
            },
            {
              "internalType": "uint256",
              "name": "normalizedWeight1",
              "type": "uint256"
            },
            {
              "internalType": "uint256",
              "name": "swapFeePercentage",
              "type": "uint256"
            },
            {
              "internalType": "uint256",
              "name": "pauseWindowDuration",
              "type": "uint256"
            },
            {
              "internalType": "uint256",
              "name": "bufferPeriodDuration",
              "type": "uint256"
            },
            {
              "internalType": "bool",
              "name": "oracleEnabled",
              "type": "bool"
            },
            {
              "internalType": "address",
              "name": "owner",
              "type": "address"
            }
          ],
          "internalType": "struct WeightedPool2Tokens.NewPoolParams",
          "name": "params",
          "type": "tuple"
        }
      ],
      "stateMutability": "nonpayable",
      "type": "constructor"
    },
    {
      "anonymous": false,
      "inputs": [
        {
          "indexed": true,
          "internalType": "address",
          "name": "owner",
          "type": "address"
        },
        {
          "indexed": true,
          "internalType": "address",
          "name": "spender",
          "type": "address"
        },
        {
          "indexed": false,
          "internalType": "uint256",
          "name": "value",
          "type": "uint256"
        }
      ],
      "name": "Approval",
      "type": "event"
    },
    {
      "anonymous": false,
      "inputs": [
        {
          "indexed": false,
          "internalType": "bool",
          "name": "enabled",
          "type": "bool"
        }
      ],
      "name": "OracleEnabledChanged",
      "type": "event"
    },
    {
      "anonymous": false,
      "inputs": [
        {
          "indexed": false,
          "internalType": "bool",
          "name": "paused",
          "type": "bool"
        }
      ],
      "name": "PausedStateChanged",
      "type": "event"
    },
    {
      "anonymous": false,
      "inputs": [
        {
          "indexed": false,
          "internalType": "uint256",
          "name": "swapFeePercentage",
          "type": "uint256"
        }
      ],
      "name": "SwapFeePercentageChanged",
      "type": "event"
    },
    {
      "anonymous": false,
      "inputs": [
        {
          "indexed": true,
          "internalType": "address",
          "name": "from",
          "type": "address"
        },
        {
          "indexed": true,
          "internalType": "address",
          "name": "to",
          "type": "address"
        },
        {
          "indexed": false,
          "internalType": "uint256",
          "name": "value",
          "type": "uint256"
        }
      ],
      "name": "Transfer",
      "type": "event"
    },
    {
      "inputs": [],
      "name": "DOMAIN_SEPARATOR",
      "outputs": [
        {
          "internalType": "bytes32",
          "name": "",
          "type": "bytes32"
        }
      ],
      "stateMutability": "view",
      "type": "function"
    },
    {
      "inputs": [
        {
          "internalType": "address",
          "name": "owner",
          "type": "address"
        },
        {
          "internalType": "address",
          "name": "spender",
          "type": "address"
        }
      ],
      "name": "allowance",
      "outputs": [
        {
          "internalType": "uint256",
          "name": "",
          "type": "uint256"
        }
      ],
      "stateMutability": "view",
      "type": "function"
    },
    {
      "inputs": [
        {
          "internalType": "address",
          "name": "spender",
          "type": "address"
        },
        {
          "internalType": "uint256",
          "name": "amount",
          "type": "uint256"
        }
      ],
      "name": "approve",
      "outputs": [
        {
          "internalType": "bool",
          "name": "",
          "type": "bool"
        }
      ],
      "stateMutability": "nonpayable",
      "type": "function"
    },
    {
      "inputs": [
        {
          "internalType": "address",
          "name": "account",
          "type": "address"
        }
      ],
      "name": "balanceOf",
      "outputs": [
        {
          "internalType": "uint256",
          "name": "",
          "type": "uint256"
        }
      ],
      "stateMutability": "view",
      "type": "function"
    },
    {
      "inputs": [],
      "name": "decimals",
      "outputs": [
        {
          "internalType": "uint8",
          "name": "",
          "type": "uint8"
        }
      ],
      "stateMutability": "view",
      "type": "function"
    },
    {
      "inputs": [
        {
          "internalType": "address",
          "name": "spender",
          "type": "address"
        },
        {
          "internalType": "uint256",
          "name": "amount",
          "type": "uint256"
        }
      ],
      "name": "decreaseAllowance",
      "outputs": [
        {
          "internalType": "bool",
          "name": "",
          "type": "bool"
        }
      ],
      "stateMutability": "nonpayable",
      "type": "function"
    },
    {
      "inputs": [
        {
          "internalType": "uint256",
          "name": "startIndex",
          "type": "uint256"
        },
        {
          "internalType": "uint256",
          "name": "endIndex",
          "type": "uint256"
        }
      ],
      "name": "dirtyUninitializedOracleSamples",
      "outputs": [],
      "stateMutability": "nonpayable",
      "type": "function"
    },
    {
      "inputs": [],
      "name": "enableOracle",
      "outputs": [],
      "stateMutability": "nonpayable",
      "type": "function"
    },
    {
      "inputs": [
        {
          "internalType": "bytes4",
          "name": "selector",
          "type": "bytes4"
        }
      ],
      "name": "getActionId",
      "outputs": [
        {
          "internalType": "bytes32",
          "name": "",
          "type": "bytes32"
        }
      ],
      "stateMutability": "view",
      "type": "function"
    },
    {
      "inputs": [],
      "name": "getAuthorizer",
      "outputs": [
        {
          "internalType": "contract IAuthorizer",
          "name": "",
          "type": "address"
        }
      ],
      "stateMutability": "view",
      "type": "function"
    },
    {
      "inputs": [],
      "name": "getInvariant",
      "outputs": [
        {
          "internalType": "uint256",
          "name": "",
          "type": "uint256"
        }
      ],
      "stateMutability": "view",
      "type": "function"
    },
    {
      "inputs": [],
      "name": "getLargestSafeQueryWindow",
      "outputs": [
        {
          "internalType": "uint256",
          "name": "",
          "type": "uint256"
        }
      ],
      "stateMutability": "pure",
      "type": "function"
    },
    {
      "inputs": [],
      "name": "getLastInvariant",
      "outputs": [
        {
          "internalType": "uint256",
          "name": "",
          "type": "uint256"
        }
      ],
      "stateMutability": "view",
      "type": "function"
    },
    {
      "inputs": [
        {
          "internalType": "enum IPriceOracle.Variable",
          "name": "variable",
          "type": "uint8"
        }
      ],
      "name": "getLatest",
      "outputs": [
        {
          "internalType": "uint256",
          "name": "",
          "type": "uint256"
        }
      ],
      "stateMutability": "view",
      "type": "function"
    },
    {
      "inputs": [],
      "name": "getMiscData",
      "outputs": [
        {
          "internalType": "int256",
          "name": "logInvariant",
          "type": "int256"
        },
        {
          "internalType": "int256",
          "name": "logTotalSupply",
          "type": "int256"
        },
        {
          "internalType": "uint256",
          "name": "oracleSampleCreationTimestamp",
          "type": "uint256"
        },
        {
          "internalType": "uint256",
          "name": "oracleIndex",
          "type": "uint256"
        },
        {
          "internalType": "bool",
          "name": "oracleEnabled",
          "type": "bool"
        },
        {
          "internalType": "uint256",
          "name": "swapFeePercentage",
          "type": "uint256"
        }
      ],
      "stateMutability": "view",
      "type": "function"
    },
    {
      "inputs": [],
      "name": "getNormalizedWeights",
      "outputs": [
        {
          "internalType": "uint256[]",
          "name": "",
          "type": "uint256[]"
        }
      ],
      "stateMutability": "view",
      "type": "function"
    },
    {
      "inputs": [],
      "name": "getOwner",
      "outputs": [
        {
          "internalType": "address",
          "name": "",
          "type": "address"
        }
      ],
      "stateMutability": "view",
      "type": "function"
    },
    {
      "inputs": [
        {
          "components": [
            {
              "internalType": "enum IPriceOracle.Variable",
              "name": "variable",
              "type": "uint8"
            },
            {
              "internalType": "uint256",
              "name": "ago",
              "type": "uint256"
            }
          ],
          "internalType": "struct IPriceOracle.OracleAccumulatorQuery[]",
          "name": "queries",
          "type": "tuple[]"
        }
      ],
      "name": "getPastAccumulators",
      "outputs": [
        {
          "internalType": "int256[]",
          "name": "results",
          "type": "int256[]"
        }
      ],
      "stateMutability": "view",
      "type": "function"
    },
    {
      "inputs": [],
      "name": "getPausedState",
      "outputs": [
        {
          "internalType": "bool",
          "name": "paused",
          "type": "bool"
        },
        {
          "internalType": "uint256",
          "name": "pauseWindowEndTime",
          "type": "uint256"
        },
        {
          "internalType": "uint256",
          "name": "bufferPeriodEndTime",
          "type": "uint256"
        }
      ],
      "stateMutability": "view",
      "type": "function"
    },
    {
      "inputs": [],
      "name": "getPoolId",
      "outputs": [
        {
          "internalType": "bytes32",
          "name": "",
          "type": "bytes32"
        }
      ],
      "stateMutability": "view",
      "type": "function"
    },
    {
      "inputs": [],
      "name": "getRate",
      "outputs": [
        {
          "internalType": "uint256",
          "name": "",
          "type": "uint256"
        }
      ],
      "stateMutability": "view",
      "type": "function"
    },
    {
      "inputs": [
        {
          "internalType": "uint256",
          "name": "index",
          "type": "uint256"
        }
      ],
      "name": "getSample",
      "outputs": [
        {
          "internalType": "int256",
          "name": "logPairPrice",
          "type": "int256"
        },
        {
          "internalType": "int256",
          "name": "accLogPairPrice",
          "type": "int256"
        },
        {
          "internalType": "int256",
          "name": "logBptPrice",
          "type": "int256"
        },
        {
          "internalType": "int256",
          "name": "accLogBptPrice",
          "type": "int256"
        },
        {
          "internalType": "int256",
          "name": "logInvariant",
          "type": "int256"
        },
        {
          "internalType": "int256",
          "name": "accLogInvariant",
          "type": "int256"
        },
        {
          "internalType": "uint256",
          "name": "timestamp",
          "type": "uint256"
        }
      ],
      "stateMutability": "view",
      "type": "function"
    },
    {
      "inputs": [],
      "name": "getSwapFeePercentage",
      "outputs": [
        {
          "internalType": "uint256",
          "name": "",
          "type": "uint256"
        }
      ],
      "stateMutability": "view",
      "type": "function"
    },
    {
      "inputs": [
        {
          "components": [
            {
              "internalType": "enum IPriceOracle.Variable",
              "name": "variable",
              "type": "uint8"
            },
            {
              "internalType": "uint256",
              "name": "secs",
              "type": "uint256"
            },
            {
              "internalType": "uint256",
              "name": "ago",
              "type": "uint256"
            }
          ],
          "internalType": "struct IPriceOracle.OracleAverageQuery[]",
          "name": "queries",
          "type": "tuple[]"
        }
      ],
      "name": "getTimeWeightedAverage",
      "outputs": [
        {
          "internalType": "uint256[]",
          "name": "results",
          "type": "uint256[]"
        }
      ],
      "stateMutability": "view",
      "type": "function"
    },
    {
      "inputs": [],
      "name": "getTotalSamples",
      "outputs": [
        {
          "internalType": "uint256",
          "name": "",
          "type": "uint256"
        }
      ],
      "stateMutability": "pure",
      "type": "function"
    },
    {
      "inputs": [],
      "name": "getVault",
      "outputs": [
        {
          "internalType": "contract IVault",
          "name": "",
          "type": "address"
        }
      ],
      "stateMutability": "view",
      "type": "function"
    },
    {
      "inputs": [
        {
          "internalType": "address",
          "name": "spender",
          "type": "address"
        },
        {
          "internalType": "uint256",
          "name": "addedValue",
          "type": "uint256"
        }
      ],
      "name": "increaseAllowance",
      "outputs": [
        {
          "internalType": "bool",
          "name": "",
          "type": "bool"
        }
      ],
      "stateMutability": "nonpayable",
      "type": "function"
    },
    {
      "inputs": [],
      "name": "name",
      "outputs": [
        {
          "internalType": "string",
          "name": "",
          "type": "string"
        }
      ],
      "stateMutability": "view",
      "type": "function"
    },
    {
      "inputs": [
        {
          "internalType": "address",
          "name": "owner",
          "type": "address"
        }
      ],
      "name": "nonces",
      "outputs": [
        {
          "internalType": "uint256",
          "name": "",
          "type": "uint256"
        }
      ],
      "stateMutability": "view",
      "type": "function"
    },
    {
      "inputs": [
        {
          "internalType": "bytes32",
          "name": "poolId",
          "type": "bytes32"
        },
        {
          "internalType": "address",
          "name": "sender",
          "type": "address"
        },
        {
          "internalType": "address",
          "name": "recipient",
          "type": "address"
        },
        {
          "internalType": "uint256[]",
          "name": "balances",
          "type": "uint256[]"
        },
        {
          "internalType": "uint256",
          "name": "lastChangeBlock",
          "type": "uint256"
        },
        {
          "internalType": "uint256",
          "name": "protocolSwapFeePercentage",
          "type": "uint256"
        },
        {
          "internalType": "bytes",
          "name": "userData",
          "type": "bytes"
        }
      ],
      "name": "onExitPool",
      "outputs": [
        {
          "internalType": "uint256[]",
          "name": "",
          "type": "uint256[]"
        },
        {
          "internalType": "uint256[]",
          "name": "",
          "type": "uint256[]"
        }
      ],
      "stateMutability": "nonpayable",
      "type": "function"
    },
    {
      "inputs": [
        {
          "internalType": "bytes32",
          "name": "poolId",
          "type": "bytes32"
        },
        {
          "internalType": "address",
          "name": "sender",
          "type": "address"
        },
        {
          "internalType": "address",
          "name": "recipient",
          "type": "address"
        },
        {
          "internalType": "uint256[]",
          "name": "balances",
          "type": "uint256[]"
        },
        {
          "internalType": "uint256",
          "name": "lastChangeBlock",
          "type": "uint256"
        },
        {
          "internalType": "uint256",
          "name": "protocolSwapFeePercentage",
          "type": "uint256"
        },
        {
          "internalType": "bytes",
          "name": "userData",
          "type": "bytes"
        }
      ],
      "name": "onJoinPool",
      "outputs": [
        {
          "internalType": "uint256[]",
          "name": "amountsIn",
          "type": "uint256[]"
        },
        {
          "internalType": "uint256[]",
          "name": "dueProtocolFeeAmounts",
          "type": "uint256[]"
        }
      ],
      "stateMutability": "nonpayable",
      "type": "function"
    },
    {
      "inputs": [
        {
          "components": [
            {
              "internalType": "enum IVault.SwapKind",
              "name": "kind",
              "type": "uint8"
            },
            {
              "internalType": "contract IERC20",
              "name": "tokenIn",
              "type": "address"
            },
            {
              "internalType": "contract IERC20",
              "name": "tokenOut",
              "type": "address"
            },
            {
              "internalType": "uint256",
              "name": "amount",
              "type": "uint256"
            },
            {
              "internalType": "bytes32",
              "name": "poolId",
              "type": "bytes32"
            },
            {
              "internalType": "uint256",
              "name": "lastChangeBlock",
              "type": "uint256"
            },
            {
              "internalType": "address",
              "name": "from",
              "type": "address"
            },
            {
              "internalType": "address",
              "name": "to",
              "type": "address"
            },
            {
              "internalType": "bytes",
              "name": "userData",
              "type": "bytes"
            }
          ],
          "internalType": "struct IPoolSwapStructs.SwapRequest",
          "name": "request",
          "type": "tuple"
        },
        {
          "internalType": "uint256",
          "name": "balanceTokenIn",
          "type": "uint256"
        },
        {
          "internalType": "uint256",
          "name": "balanceTokenOut",
          "type": "uint256"
        }
      ],
      "name": "onSwap",
      "outputs": [
        {
          "internalType": "uint256",
          "name": "",
          "type": "uint256"
        }
      ],
      "stateMutability": "nonpayable",
      "type": "function"
    },
    {
      "inputs": [
        {
          "internalType": "address",
          "name": "owner",
          "type": "address"
        },
        {
          "internalType": "address",
          "name": "spender",
          "type": "address"
        },
        {
          "internalType": "uint256",
          "name": "value",
          "type": "uint256"
        },
        {
          "internalType": "uint256",
          "name": "deadline",
          "type": "uint256"
        },
        {
          "internalType": "uint8",
          "name": "v",
          "type": "uint8"
        },
        {
          "internalType": "bytes32",
          "name": "r",
          "type": "bytes32"
        },
        {
          "internalType": "bytes32",
          "name": "s",
          "type": "bytes32"
        }
      ],
      "name": "permit",
      "outputs": [],
      "stateMutability": "nonpayable",
      "type": "function"
    },
    {
      "inputs": [
        {
          "internalType": "bytes32",
          "name": "poolId",
          "type": "bytes32"
        },
        {
          "internalType": "address",
          "name": "sender",
          "type": "address"
        },
        {
          "internalType": "address",
          "name": "recipient",
          "type": "address"
        },
        {
          "internalType": "uint256[]",
          "name": "balances",
          "type": "uint256[]"
        },
        {
          "internalType": "uint256",
          "name": "lastChangeBlock",
          "type": "uint256"
        },
        {
          "internalType": "uint256",
          "name": "protocolSwapFeePercentage",
          "type": "uint256"
        },
        {
          "internalType": "bytes",
          "name": "userData",
          "type": "bytes"
        }
      ],
      "name": "queryExit",
      "outputs": [
        {
          "internalType": "uint256",
          "name": "bptIn",
          "type": "uint256"
        },
        {
          "internalType": "uint256[]",
          "name": "amountsOut",
          "type": "uint256[]"
        }
      ],
      "stateMutability": "view",
      "type": "function"
    },
    {
      "inputs": [
        {
          "internalType": "bytes32",
          "name": "poolId",
          "type": "bytes32"
        },
        {
          "internalType": "address",
          "name": "sender",
          "type": "address"
        },
        {
          "internalType": "address",
          "name": "recipient",
          "type": "address"
        },
        {
          "internalType": "uint256[]",
          "name": "balances",
          "type": "uint256[]"
        },
        {
          "internalType": "uint256",
          "name": "lastChangeBlock",
          "type": "uint256"
        },
        {
          "internalType": "uint256",
          "name": "protocolSwapFeePercentage",
          "type": "uint256"
        },
        {
          "internalType": "bytes",
          "name": "userData",
          "type": "bytes"
        }
      ],
      "name": "queryJoin",
      "outputs": [
        {
          "internalType": "uint256",
          "name": "bptOut",
          "type": "uint256"
        },
        {
          "internalType": "uint256[]",
          "name": "amountsIn",
          "type": "uint256[]"
        }
      ],
      "stateMutability": "view",
      "type": "function"
    },
    {
      "inputs": [
        {
          "internalType": "bool",
          "name": "paused",
          "type": "bool"
        }
      ],
      "name": "setPaused",
      "outputs": [],
      "stateMutability": "nonpayable",
      "type": "function"
    },
    {
      "inputs": [
        {
          "internalType": "uint256",
          "name": "swapFeePercentage",
          "type": "uint256"
        }
      ],
      "name": "setSwapFeePercentage",
      "outputs": [],
      "stateMutability": "nonpayable",
      "type": "function"
    },
    {
      "inputs": [],
      "name": "symbol",
      "outputs": [
        {
          "internalType": "string",
          "name": "",
          "type": "string"
        }
      ],
      "stateMutability": "view",
      "type": "function"
    },
    {
      "inputs": [],
      "name": "totalSupply",
      "outputs": [
        {
          "internalType": "uint256",
          "name": "",
          "type": "uint256"
        }
      ],
      "stateMutability": "view",
      "type": "function"
    },
    {
      "inputs": [
        {
          "internalType": "address",
          "name": "recipient",
          "type": "address"
        },
        {
          "internalType": "uint256",
          "name": "amount",
          "type": "uint256"
        }
      ],
      "name": "transfer",
      "outputs": [
        {
          "internalType": "bool",
          "name": "",
          "type": "bool"
        }
      ],
      "stateMutability": "nonpayable",
      "type": "function"
    },
    {
      "inputs": [
        {
          "internalType": "address",
          "name": "sender",
          "type": "address"
        },
        {
          "internalType": "address",
          "name": "recipient",
          "type": "address"
        },
        {
          "internalType": "uint256",
          "name": "amount",
          "type": "uint256"
        }
      ],
      "name": "transferFrom",
      "outputs": [
        {
          "internalType": "bool",
          "name": "",
          "type": "bool"
        }
      ],
      "stateMutability": "nonpayable",
      "type": "function"
    }
  ],
  "bytecode": "0x6102a06040527f6e71edae12b1b97f4d1f60370fef10105fa2faae0126114a169c64845d6126c9610120523480156200003757600080fd5b5060405162005fae38038062005fae8339810160408190526200005a9162000832565b6101008101516101208201516020808401516040808601518651825180840190935260018352603160f81b838601526101608801513360805260601b6001600160601b03191660a05283519394919390928592839283918791620000c59160039190850190620006c5565b508051620000db906004906020840190620006c5565b505060058054601260ff1990911617905550815160209283012060c052805191012060e052507f8b73c3c69bb8fe3d512ecc4cf759cc79239f7b179b0ffacaa9a75d522b39400f6101005260601b6001600160601b03191661014052506200014e90506276a70083111561019462000430565b6200016262278d0082111561019562000430565b429091016101608190520161018052610140810151620001829062000445565b60e08101516200019290620004a1565b80516040516309b2760f60e01b81526000916001600160a01b0316906309b2760f90620001c59060029060040162000a38565b602060405180830381600087803b158015620001e057600080fd5b505af1158015620001f5573d6000803e3d6000fd5b505050506040513d601f19601f820116820180604052508101906200021b919062000819565b6040805160028082526060808301845293945090916020830190803683370190505090508260600151816000815181106200025257fe5b60200260200101906001600160a01b031690816001600160a01b0316815250508260800151816001815181106200028557fe5b6001600160a01b0392831660209182029290920101528351166366a9c7d283836002604051908082528060200260200182016040528015620002d1578160200160208202803683370190505b506040518463ffffffff1660e01b8152600401620002f2939291906200099c565b600060405180830381600087803b1580156200030d57600080fd5b505af115801562000322573d6000803e3d6000fd5b5050506101a083905250606080840180516001600160601b031990831b81166101c052608086015190921b9091166101e0525162000360906200051f565b61026052608083015162000374906200051f565b6102805260a08301516200039590662386f26fc10000111561012e62000430565b620003b7662386f26fc100008460c00151101561012e6200043060201b60201c565b6000620003db8460c001518560a00151620005c160201b6200143e1790919060201c565b9050620003f5670de0b6b3a7640000821461013462000430565b60a0840180516102005260c0850180516102205251905110156200041b5760016200041e565b60005b60ff16610240525062000a8992505050565b8162000441576200044181620005de565b5050565b62000461816009546200063160201b620014571790919060201c565b6009556040517f3e350b41e86a8e10f804ade6d35340d620be35569cc75ac943e8bb14ab80ead1906200049690839062000991565b60405180910390a150565b620004b664e8d4a5100082101560cb62000430565b620004ce67016345785d8a000082111560ca62000430565b620004ea816009546200065060201b620014651790919060201c565b6009556040517fa9ba3ffe0b6c366b81232caab38605a0699ad5398d6cce76f91ee809e322dafc906200049690839062000a4d565b600080826001600160a01b031663313ce5676040518163ffffffff1660e01b815260040160206040518083038186803b1580156200055c57600080fd5b505afa15801562000571573d6000803e3d6000fd5b505050506040513d601f19601f820116820180604052508101906200059791906200096e565b60ff1690506000620005b66012836200066f60201b620014731760201c565b600a0a949350505050565b6000828201620005d5848210158362000430565b90505b92915050565b62461bcd60e51b6000908152602060045260076024526642414c23000030600a808404818106603090810160081b95839006959095019082900491820690940160101b939093010160c81b604452606490fd5b6000620005d5826055856200068760201b62001489179092919060201c565b6000620005d582605685620006b060201b620014b0179092919060201c565b60006200068183831115600162000430565b50900390565b60006001821b19841682846200069f576000620006a2565b60015b60ff16901b17949350505050565b6001600160401b03811b1992909216911b1790565b828054600181600116156101000203166002900490600052602060002090601f016020900481019282601f106200070857805160ff191683800117855562000738565b8280016001018555821562000738579182015b82811115620007385782518255916020019190600101906200071b565b50620007469291506200074a565b5090565b5b808211156200074657600081556001016200074b565b80516001600160a01b0381168114620005d857600080fd5b80518015158114620005d857600080fd5b600082601f8301126200079b578081fd5b81516001600160401b03811115620007b1578182fd5b6020620007c7601f8301601f1916820162000a56565b92508183528481838601011115620007de57600080fd5b60005b82811015620007fe578481018201518482018301528101620007e1565b82811115620008105760008284860101525b50505092915050565b6000602082840312156200082b578081fd5b5051919050565b60006020828403121562000844578081fd5b81516001600160401b03808211156200085b578283fd5b818401915061018080838703121562000872578384fd5b6200087d8162000a56565b90506200088b868462000761565b81526020830151828111156200089f578485fd5b620008ad878286016200078a565b602083015250604083015182811115620008c5578485fd5b620008d3878286016200078a565b604083015250620008e8866060850162000761565b6060820152620008fc866080850162000761565b608082015260a0838101519082015260c0808401519082015260e08084015190820152610100808401519082015261012080840151908201526101409150620009488683850162000779565b8282015261016091506200095f8683850162000761565b91810191909152949350505050565b60006020828403121562000980578081fd5b815160ff81168114620005d5578182fd5b901515815260200190565b60006060820185835260206060818501528186518084526080860191508288019350845b81811015620009e857620009d5855162000a7d565b83529383019391830191600101620009c0565b505084810360408601528551808252908201925081860190845b8181101562000a2a5762000a17835162000a7d565b8552938301939183019160010162000a02565b509298975050505050505050565b602081016003831062000a4757fe5b91905290565b90815260200190565b6040518181016001600160401b038111828210171562000a7557600080fd5b604052919050565b6001600160a01b031690565b60805160a05160601c60c05160e05161010051610120516101405160601c61016051610180516101a0516101c05160601c6101e05160601c610200516102205161024051610260516102805161544d62000b6160003980611fea5250806120115250806127a352806127d7528061281352508061203e52806120da52508061206552806120b8528061210852505080610dd352508061094952508061166052508061163c525080610d2152508061116e5250806118cd52508061190f5250806118ee525080610cfd525080610c88525061544d6000f3fe608060405234801561001057600080fd5b50600436106102d35760003560e01c806370a0823111610186578063a457c2d7116100e3578063c0ff1a1511610097578063dd62ed3e11610071578063dd62ed3e146105a5578063f89f27ed146105b8578063ffd088eb146105c0576102d3565b8063c0ff1a1514610577578063d505accf1461057f578063d5c096c414610592576102d3565b8063aaabadc5116100c8578063aaabadc514610554578063b10be7391461055c578063b48b5b401461056f576102d3565b8063a457c2d71461052e578063a9059cbb14610541576102d3565b8063893d20e81161013a57806395d89b411161011f57806395d89b411461050b5780639b02cdde146105135780639d2c110c1461051b576102d3565b8063893d20e8146104ee5780638d928af814610503576102d3565b80637ecebe001161016b5780637ecebe00146104b5578063851c1bb3146104c857806387ec6817146104db576102d3565b806370a082311461048157806374f3b00914610494576102d3565b80633644e5151161023457806355c67628116101e857806360d1507c116101cd57806360d1507c14610433578063679aefce146104595780636b84323914610461576102d3565b806355c676281461040a5780636028bfd414610412576102d3565b806338fff2d01161021957806338fff2d0146103d557806339509351146103dd5780634a6b0b15146103f0576102d3565b80633644e515146103ba57806338e9922e146103c2576102d3565b80631dccd8301161028b578063292c914a11610270578063292c914a1461038a578063313ce567146103925780633331bc36146103a7576102d3565b80631dccd8301461035757806323b872dd14610377576102d3565b806316c38b3c116102bc57806316c38b3c1461031657806318160ddd1461032b5780631c0de05114610340576102d3565b806306fdde03146102d8578063095ea7b3146102f6575b600080fd5b6102e06105c8565b6040516102ed919061530f565b60405180910390f35b610309610304366004614971565b61065e565b6040516102ed919061513d565b610329610324366004614be2565b610675565b005b610333610689565b6040516102ed9190615160565b61034861068f565b6040516102ed93929190615148565b61036a610365366004614b27565b6106b8565b6040516102ed9190615105565b6103096103853660046148bc565b6107dc565b61032961086a565b61039a61089e565b6040516102ed919061537b565b6103296103b5366004614fcf565b6108a7565b61033361091f565b6103296103d0366004614fb7565b61092e565b610333610947565b6103096103eb366004614971565b61096b565b6103f86109b3565b6040516102ed9695949392919061525d565b610333610a0e565b610425610420366004614c1a565b610a1b565b6040516102ed929190615362565b610446610441366004614fb7565b610a4c565b6040516102ed979695949392919061522d565b610333610a95565b61047461046f366004614a68565b610aba565b6040516102ed91906150c1565b61033361048f366004614868565b610b71565b6104a76104a2366004614c1a565b610b9d565b6040516102ed929190615118565b6103336104c3366004614868565b610c5c565b6103336104d6366004614d17565b610c84565b6104256104e9366004614c1a565b610cd6565b6104f6610cfb565b6040516102ed91906150a0565b6104f6610d1f565b6102e0610d43565b610333610da4565b610333610529366004614ebb565b610daa565b61030961053c366004614971565b610f73565b61030961054f366004614971565b610fb1565b6104f6610fbe565b61033361056a366004614e88565b610fc8565b61033361105d565b610333611063565b61032961058d3660046148fc565b61112c565b6104a76105a0366004614c1a565b6112b6565b6103336105b3366004614884565b6113d6565b61036a61142d565b610333611437565b60038054604080516020601f60026000196101006001881615020190951694909404938401819004810282018101909252828152606093909290918301828280156106545780601f1061062957610100808354040283529160200191610654565b820191906000526020600020905b81548152906001019060200180831161063757829003601f168201915b5050505050905090565b600061066b3384846114c6565b5060015b92915050565b61067d61153b565b61068681611581565b50565b60025490565b600080600061069c61161d565b1592506106a761163a565b91506106b161165e565b9050909192565b6060815167ffffffffffffffff811180156106d257600080fd5b506040519080825280602002602001820160405280156106fc578160200160208202803683370190505b5090506000610709611682565b905060005b83518110156107d55773__$76628e43a2054b7121be201a66ed5cdbab$__6379eaef82600886848151811061073f57fe5b6020026020010151856040518463ffffffff1660e01b8152600401610766939291906152d3565b60206040518083038186803b15801561077e57600080fd5b505af4158015610792573d6000803e3d6000fd5b505050506040513d601f19601f820116820180604052508101906107b69190614ea3565b8382815181106107c257fe5b602090810291909101015260010161070e565b5050919050565b6000806107e985336113d6565b905061081a3373ffffffffffffffffffffffffffffffffffffffff871614806108125750838210155b61019e61168f565b6108258585856116a1565b3373ffffffffffffffffffffffffffffffffffffffff86161480159061084d57506000198114155b1561085f5761085f85338584036114c6565b506001949350505050565b6108726117c2565b61087a61153b565b61088460016117d5565b600061088e610689565b111561089c5761089c611815565b565b60055460ff1690565b6108c281831080156108bb57506104008211155b606461168f565b60006108d7600160008060008060008061185d565b9050825b82811015610919576000818152600860205260409020546108fb906118bd565b6109115760008181526008602052604090208290555b6001016108db565b50505050565b60006109296118c9565b905090565b61093661153b565b61093e6117c2565b61068681611966565b7f000000000000000000000000000000000000000000000000000000000000000090565b33600081815260016020908152604080832073ffffffffffffffffffffffffffffffffffffffff87168452909152812054909161066b9185906109ae908661143e565b6114c6565b600080600080600080600060095490506109cc816119cf565b96506109d7816119db565b95506109e2816119e8565b94506109ed816119f5565b93506109f881611a02565b9250610a0381611a0f565b915050909192939495565b6000610929600954611a0f565b60006060610a2b86516002611a1c565b610a4089898989898989611a29611ae3611b61565b97509795505050505050565b6000806000806000806000610a67610400891061013b61168f565b6000610a7289611cfa565b9050610a7d81611d0c565b959f949e50929c50909a509850965090945092505050565b6000610929610aa2610689565b610ab4610aad611063565b6002611d6f565b90611d93565b6060815167ffffffffffffffff81118015610ad457600080fd5b50604051908082528060200260200182016040528015610afe578160200160208202803683370190505b5090506000610b0b611682565b9050610b15614751565b60005b8451811015610b6957848181518110610b2d57fe5b60200260200101519150610b4a8260000151848460200151611de4565b848281518110610b5657fe5b6020908102919091010152600101610b18565b505050919050565b73ffffffffffffffffffffffffffffffffffffffff81166000908152602081905260409020545b919050565b60608088610be1610bac610d1f565b73ffffffffffffffffffffffffffffffffffffffff163373ffffffffffffffffffffffffffffffffffffffff161460cd61168f565b610bf6610bec610947565b82146101f461168f565b610bff87611e96565b6000606080610c138d8d8d8d8d8d8d611a29565b925092509250610c238c84611ef8565b610c2c82611ae3565b610c3581611ae3565b610c3d61161d565b15610c4a57610c4a611815565b909c909b509950505050505050505050565b73ffffffffffffffffffffffffffffffffffffffff1660009081526006602052604090205490565b60007f000000000000000000000000000000000000000000000000000000000000000082604051602001610cb992919061502a565b604051602081830303815290604052805190602001209050919050565b60006060610ce686516002611a1c565b610a4089898989898989611f02611f83611b61565b7f000000000000000000000000000000000000000000000000000000000000000090565b7f000000000000000000000000000000000000000000000000000000000000000090565b60048054604080516020601f60026000196101006001881615020190951694909404938401819004810282018101909252828152606093909290918301828280156106545780601f1061062957610100808354040283529160200191610654565b600a5490565b6000610db46117c2565b8360800151610dc4610bac610d1f565b610dcf610bec610947565b60007f000000000000000000000000000000000000000000000000000000000000000073ffffffffffffffffffffffffffffffffffffffff16866020015173ffffffffffffffffffffffffffffffffffffffff161490506000610e3182611fe1565b90506000610e3f8315611fe1565b90506000610e4c84612035565b90506000610e5a8515612035565b9050610e668985612089565b9850610e728884612089565b9750610e9b8a60a0015186610e875789610e89565b8a5b87610e94578b610e96565b8a5b612095565b60008a516001811115610eaa57fe5b1415610f18576000610ec8610ebd610a0e565b60608d015190612196565b9050610eea610ee4828d6060015161147390919063ffffffff16565b86612089565b60608c01526000610efe8c8c8c87876121da565b9050610f0a81866121f9565b985050505050505050610f6b565b610f268a6060015184612089565b60608b01526000610f3a8b8b8b8686612205565b9050610f468186612218565b9050610f62610f5b610f56610a0e565b612224565b829061224a565b97505050505050505b509392505050565b600080610f8033856113d6565b9050808310610f9a57610f95338560006114c6565b610fa7565b610fa733858584036114c6565b5060019392505050565b600061066b3384846116a1565b600061092961228c565b600073__$76628e43a2054b7121be201a66ed5cdbab$__630397bee0600884610fef611682565b6040518463ffffffff1660e01b815260040161100d93929190615287565b60206040518083038186803b15801561102557600080fd5b505af4158015611039573d6000803e3d6000fd5b505050506040513d601f19601f8201168201806040525081019061066f9190614ea3565b61040090565b6000606061106f610d1f565b73ffffffffffffffffffffffffffffffffffffffff1663f94d4668611092610947565b6040518263ffffffff1660e01b81526004016110ae9190615160565b60006040518083038186803b1580156110c657600080fd5b505afa1580156110da573d6000803e3d6000fd5b505050506040513d6000823e601f3d908101601f19168201604052611102919081019061499c565b5091505061110f81611e96565b6060611119612313565b90506111258183612381565b9250505090565b61113a8442111560d161168f565b73ffffffffffffffffffffffffffffffffffffffff8716600090815260066020908152604080832054905190929161119e917f0000000000000000000000000000000000000000000000000000000000000000918c918c918c9188918d9101615195565b60405160208183030381529060405280519060200120905060006111c1826123f3565b90506000600182888888604051600081526020016040526040516111e8949392919061520f565b6020604051602081039080840390855afa15801561120a573d6000803e3d6000fd5b5050604051601f1901519150611273905073ffffffffffffffffffffffffffffffffffffffff82161580159061126b57508b73ffffffffffffffffffffffffffffffffffffffff168273ffffffffffffffffffffffffffffffffffffffff16145b6101f861168f565b73ffffffffffffffffffffffffffffffffffffffff8b1660009081526006602052604090206001850190556112a98b8b8b6114c6565b5050505050505050505050565b606080886112c5610bac610d1f565b6112d0610bec610947565b6112d86117c2565b60006112e2610689565b611352576112f28b8b8b8861240f565b94509050611307620f424082101560cc61168f565b6113156000620f4240612498565b61132489620f42408303612498565b61132d84611f83565b60408051600280825260608201835290916020830190803683370190505092506113c0565b61135b88611e96565b61138e878960008151811061136c57fe5b60200260200101518a60018151811061138157fe5b6020026020010151612095565b61139d8b8b8b8b8b8b8b611f02565b909550935090506113ae8982612498565b6113b784611f83565b6113c083611ae3565b6113c8611815565b505097509795505050505050565b60006113e0610d1f565b73ffffffffffffffffffffffffffffffffffffffff168273ffffffffffffffffffffffffffffffffffffffff16141561141c575060001961066f565b61142683836124a2565b905061066f565b6060610929612313565b6201de2090565b6000828201611450848210158361168f565b9392505050565b600061145083836055611489565b6000611450838360566114b0565b600061148383831115600161168f565b50900390565b60006001821b198416828461149f5760006114a2565b60015b60ff16901b17949350505050565b67ffffffffffffffff811b1992909216911b1790565b73ffffffffffffffffffffffffffffffffffffffff80841660008181526001602090815260408083209487168084529490915290819020849055517f8c5be1e5ebec7d5bd14f71427d1e84f3dd0314c0f7b2291e5b200ac8c7c3b9259061152e908590615160565b60405180910390a3505050565b600061156a6000357fffffffff0000000000000000000000000000000000000000000000000000000016610c84565b905061068661157982336124da565b61019161168f565b80156115a15761159c61159261163a565b421061019361168f565b6115b6565b6115b66115ac61165e565b42106101a961168f565b600780547fffffffffffffffffffffffffffffffffffffffffffffffffffffffffffffff00168215151790556040517f9e3a5e37224532dea67b89face185703738a228a6e8a23dee546960180d3be649061161290839061513d565b60405180910390a150565b600061162761165e565b42118061092957505060075460ff161590565b7f000000000000000000000000000000000000000000000000000000000000000090565b7f000000000000000000000000000000000000000000000000000000000000000090565b60006109296009546119f5565b8161169d5761169d816125f7565b5050565b6116c573ffffffffffffffffffffffffffffffffffffffff8416151561019861168f565b6116e973ffffffffffffffffffffffffffffffffffffffff8316151561019961168f565b6116f4838383612664565b73ffffffffffffffffffffffffffffffffffffffff831660009081526020819052604090205461172790826101a0612669565b73ffffffffffffffffffffffffffffffffffffffff8085166000908152602081905260408082209390935590841681522054611763908261143e565b73ffffffffffffffffffffffffffffffffffffffff80841660008181526020819052604090819020939093559151908516907fddf252ad1be2c89b69c2b068fc378daa952ba7f163c4a11628f55a4df523b3ef9061152e908590615160565b61089c6117cd61161d565b61019261168f565b6009546117e29082611457565b6009556040517f3e350b41e86a8e10f804ade6d35340d620be35569cc75ac943e8bb14ab80ead19061161290839061513d565b60095461182181611a02565b156106865761183b611834600a5461267f565b82906126bf565b905061185761185061184b610689565b61267f565b82906126cc565b60095550565b600061186982826126da565b61187484601f6126de565b61187f8660546126ef565b61188a88606a6126de565b6118958a609f6126ef565b6118a08c60b56126de565b6118ab8e60ea6126ef565b17171717171798975050505050505050565b600061066f82826126fc565b60007f00000000000000000000000000000000000000000000000000000000000000007f00000000000000000000000000000000000000000000000000000000000000007f0000000000000000000000000000000000000000000000000000000000000000611936612706565b3060405160200161194b9594939291906151d6565b60405160208183030381529060405280519060200120905090565b61197964e8d4a5100082101560cb61168f565b61198f67016345785d8a000082111560ca61168f565b60095461199c9082611465565b6009556040517fa9ba3ffe0b6c366b81232caab38605a0699ad5398d6cce76f91ee809e322dafc90611612908390615160565b600061066f828261270a565b600061066f82601661270a565b600061066f82602c6126fc565b600061066f82604b61274d565b600061066f826055612755565b600061066f82605661275f565b61169d818314606761168f565b60006060806060611a38612313565b9050611a4261161d565b15611a8a57611a58878960008151811061136c57fe5b6000611a64828a612381565b9050611a758983600a54848b61276d565b9250611a848984611473612851565b50611aab565b60408051600280825260608201835290916020830190803683370190505091505b611ab68882876128e3565b9094509250611ac88884611473612851565b611ad28189612381565b600a55509750975097945050505050565b611b0a81600081518110611af357fe5b6020026020010151611b056001611fe1565b61296f565b81600081518110611b1757fe5b602002602001018181525050611b4581600181518110611b3357fe5b6020026020010151611b056000611fe1565b81600181518110611b5257fe5b60200260200101818152505050565b333014611c5d5760003073ffffffffffffffffffffffffffffffffffffffff16600036604051611b9292919061505a565b6000604051808303816000865af19150503d8060008114611bcf576040519150601f19603f3d011682016040523d82523d6000602084013e611bd4565b606091505b505090508060008114611be357fe5b60046000803e6000517fffffffff00000000000000000000000000000000000000000000000000000000167f43adbafb000000000000000000000000000000000000000000000000000000008114611c3f573d6000803e3d6000fd5b506020600460003e604060205260243d03602460403e601c3d016000f35b611c6686611e96565b60006060611c7d8b8b8b8b8b8b8b8b63ffffffff16565b5091509150611c8f818463ffffffff16565b8051601f1982018390526343adbafb7fffffffffffffffffffffffffffffffffffffffffffffffffffffffffffffffc08301526020027fffffffffffffffffffffffffffffffffffffffffffffffffffffffffffffffdc82016044820181fd5b505050505050505050565b60009081526008602052604090205490565b6000806000806000806000611d208861298f565b9650611d2b8861299c565b9550611d36886129a9565b9450611d41886129b6565b9350611d4c886129c3565b9250611d57886129d0565b9150611d62886118bd565b9050919395979092949650565b6000828202611450841580611d8c575083858381611d8957fe5b04145b600361168f565b6000611da2821515600461168f565b82611daf5750600061066f565b670de0b6b3a764000083810290611dd290858381611dc957fe5b0414600561168f565b828181611ddb57fe5b0491505061066f565b6040517f34171a8500000000000000000000000000000000000000000000000000000000815260009073__$76628e43a2054b7121be201a66ed5cdbab$__906334171a8590611e3e906008908890889088906004016152a8565b60206040518083038186803b158015611e5657600080fd5b505af4158015611e6a573d6000803e3d6000fd5b505050506040513d601f19601f82011682018060405250810190611e8e9190614ea3565b949350505050565b611ebd81600081518110611ea657fe5b6020026020010151611eb86001611fe1565b611d6f565b81600081518110611eca57fe5b602002602001018181525050611b4581600181518110611ee657fe5b6020026020010151611eb86000611fe1565b61169d82826129dd565b60006060806060611f11612313565b90506000611f1f828a612381565b90506060611f328a84600a54858c61276d565b9050611f418a82611473612851565b60006060611f508c868b612acd565b91509150611f618c8261143e612851565b611f6b858d612381565b600a55909e909d50909b509950505050505050505050565b611faa81600081518110611f9357fe5b6020026020010151611fa56001611fe1565b612b45565b81600081518110611fb757fe5b602002602001018181525050611b4581600181518110611fd357fe5b6020026020010151611fa560005b60008161200e577f000000000000000000000000000000000000000000000000000000000000000061066f565b507f0000000000000000000000000000000000000000000000000000000000000000919050565b600081612062577f000000000000000000000000000000000000000000000000000000000000000061066f565b507f0000000000000000000000000000000000000000000000000000000000000000919050565b60006114508383611d6f565b6009546120a181611a02565b80156120ac57508343115b156109195760006120ff7f0000000000000000000000000000000000000000000000000000000000000000857f000000000000000000000000000000000000000000000000000000000000000086612b78565b905060006121367f000000000000000000000000000000000000000000000000000000000000000086612131866119db565b612bad565b90506000612143846119f5565b90506000612150856119e8565b90506000612169828487876121648b6119cf565b612bd4565b9050808314611cef5761217c8682612c2b565b95506121888642612c39565b600955505050505050505050565b60008282026121b0841580611d8c575083858381611d8957fe5b806121bf57600091505061066f565b670de0b6b3a764000060001982015b0460010191505061066f565b60006121ed858486858a60600151612c47565b90505b95945050505050565b6000611450838361296f565b60006121ed858486858a60600151612cc2565b60006114508383612b45565b6000670de0b6b3a7640000821061223c57600061066f565b50670de0b6b3a76400000390565b6000612259821515600461168f565b826122665750600061066f565b670de0b6b3a76400008381029061228090858381611dc957fe5b8260018203816121ce57fe5b6000612296610d1f565b73ffffffffffffffffffffffffffffffffffffffff1663aaabadc56040518163ffffffff1660e01b815260040160206040518083038186803b1580156122db57600080fd5b505afa1580156122ef573d6000803e3d6000fd5b505050506040513d601f19601f820116820180604052508101906109299190614d57565b6040805160028082526060808301845292839291906020830190803683370190505090506123416001612035565b8160008151811061234e57fe5b6020026020010181815250506123646000612035565b8160018151811061237157fe5b6020908102919091010152905090565b670de0b6b3a764000060005b83518110156123e3576123d96123d28583815181106123a857fe5b60200260200101518584815181106123bc57fe5b6020026020010151612d3890919063ffffffff16565b8390612de9565b915060010161238d565b5061066f6000821161013761168f565b60006123fd6118c9565b82604051602001610cb992919061506a565b60006060600061241e84612e15565b9050612439600082600381111561243157fe5b1460ce61168f565b606061244485612e2b565b905061245281516002611a1c565b61245b81611e96565b6060612465612313565b905060006124738284612381565b90506000612482826002611d6f565b600a929092555099919850909650505050505050565b61169d8282612e41565b73ffffffffffffffffffffffffffffffffffffffff918216600090815260016020908152604080832093909416825291909152205490565b600073ba1ba1ba1ba1ba1ba1ba1ba1ba1ba1ba1ba1ba1b6124f9610cfb565b73ffffffffffffffffffffffffffffffffffffffff1614158015612521575061252183612ee9565b156125635761252e610cfb565b73ffffffffffffffffffffffffffffffffffffffff163373ffffffffffffffffffffffffffffffffffffffff1614905061066f565b61256b61228c565b73ffffffffffffffffffffffffffffffffffffffff16639be2a8848484306040518463ffffffff1660e01b81526004016125a793929190615169565b60206040518083038186803b1580156125bf57600080fd5b505afa1580156125d3573d6000803e3d6000fd5b505050506040513d601f19601f820116820180604052508101906114269190614bfe565b7f08c379a0000000000000000000000000000000000000000000000000000000006000908152602060045260076024526642414c23000030600a808404818106603090810160081b95839006959095019082900491820690940160101b939093010160c81b604452606490fd5b505050565b6000612678848411158361168f565b5050900390565b60008061268b83612f4d565b905060008082136126a457652d79883d200082036126ae565b652d79883d200082015b655af3107a40009005949350505050565b6000611450838383612fb1565b600061145083836016612fb1565b1b90565b661fffffffffffff91909116901b90565b623fffff91909116901b90565b1c637fffffff1690565b4690565b600082821c623fffff16621fffff81136127245780611e8e565b7fffffffffffffffffffffffffffffffffffffffffffffffffffffffffffc00000179392505050565b1c6103ff1690565b1c60019081161490565b1c67ffffffffffffffff1690565b6040805160028082526060808301845292839291906020830190803683370190505090508261279d5790506121f0565b612810877f0000000000000000000000000000000000000000000000000000000000000000815181106127cc57fe5b6020026020010151877f00000000000000000000000000000000000000000000000000000000000000008151811061280057fe5b6020026020010151878787612fc8565b817f00000000000000000000000000000000000000000000000000000000000000008151811061283c57fe5b60209081029190910101529695505050505050565b6128878360008151811061286157fe5b60200260200101518360008151811061287657fe5b60200260200101518363ffffffff16565b8360008151811061289457fe5b6020026020010181815250506128c5836001815181106128b057fe5b60200260200101518360018151811061287657fe5b836001815181106128d257fe5b602002602001018181525050505050565b6000606060006128f284612e15565b9050600081600381111561290257fe5b141561291d57612913868686613040565b9250925050612967565b600181600381111561292b57fe5b141561293b5761291386856130f1565b600281600381111561294957fe5b141561295a57612913868686613123565b6129656101506125f7565b505b935093915050565b600061297e821515600461168f565b81838161298757fe5b049392505050565b600061066f8260ea61270a565b600061066f8260b5613190565b600061066f82609f61270a565b600061066f82606a613190565b600061066f82605461270a565b600061066f82601f613190565b612a0173ffffffffffffffffffffffffffffffffffffffff8316151561019b61168f565b612a0d82600083612664565b73ffffffffffffffffffffffffffffffffffffffff8216600090815260208190526040902054612a4090826101a1612669565b73ffffffffffffffffffffffffffffffffffffffff8316600090815260208190526040902055600254612a7390826131db565b60025560405160009073ffffffffffffffffffffffffffffffffffffffff8416907fddf252ad1be2c89b69c2b068fc378daa952ba7f163c4a11628f55a4df523b3ef90612ac1908590615160565b60405180910390a35050565b600060606000612adc84612e15565b90506001816003811115612aec57fe5b1415612afd576129138686866131e9565b6002816003811115612b0b57fe5b1415612b1c57612913868686613240565b6003816003811115612b2a57fe5b1415612b3a5761291386856132c3565b6129656101366125f7565b6000612b54821515600461168f565b82612b615750600061066f565b816001840381612b6d57fe5b04600101905061066f565b600080612b98612b88848661224a565b612b92878961224a565b9061224a565b9050612ba38161267f565b9695505050505050565b600080612bba848661224a565b90506000612bc78261267f565b9390930395945050505050565b600080612bf085858542612be78b611cfa565b939291906132e8565b9050607842889003101580612c055786612c0e565b612c0e8761333a565b600081815260086020526040902092909255509695505050505050565b60006114508383604b613347565b60006114508383602c613357565b6000612c69612c5e87670429d069189e0000612de9565b83111561013061168f565b6000612c75878461143e565b90506000612c83888361224a565b90506000612c918887611d93565b90506000612c9f8383613369565b9050612cb4612cad82612224565b8990612de9565b9a9950505050505050505050565b6000612ce4612cd985670429d069189e0000612de9565b83111561013161168f565b6000612cfa612cf38685611473565b869061224a565b90506000612d08858861224a565b90506000612d168383613369565b90506000612d2c82670de0b6b3a7640000611473565b9050612cb48a82612196565b6000670de0b6b3a7640000821415612d5157508161066f565b671bc16d674ec80000821415612d6b576114268384612de9565b673782dace9d900000821415612d9b576000612d878485612de9565b9050612d938182612de9565b91505061066f565b6000612da784846133ef565b90506000612dc1612dba83612710612196565b600161143e565b905080821015612dd65760009250505061066f565b612de08282611473565b9250505061066f565b6000828202612e03841580611d8c575083858381611d8957fe5b670de0b6b3a764000090049392505050565b60008180602001905181019061066f9190614d73565b6060818060200190518101906114509190614e39565b612e4d60008383612664565b600254612e5a908261143e565b60025573ffffffffffffffffffffffffffffffffffffffff8216600090815260208190526040902054612e8d908261143e565b73ffffffffffffffffffffffffffffffffffffffff83166000818152602081905260408082209390935591519091907fddf252ad1be2c89b69c2b068fc378daa952ba7f163c4a11628f55a4df523b3ef90612ac1908590615160565b6000612f147f38e9922e00000000000000000000000000000000000000000000000000000000610c84565b82148061066f5750612f457f50dd6ed900000000000000000000000000000000000000000000000000000000610c84565b909114919050565b6000612f5d60008313606461168f565b670c7d713b49da000082138015612f7b5750670f43fc2c04ee000082125b15612fa157670de0b6b3a7640000612f9283613522565b81612f9957fe5b059050610b98565b612faa82613659565b9050610b98565b623fffff828116821b90821b198416179392505050565b6000838311612fd9575060006121f0565b6000612fe5858561224a565b90506000612ffb670de0b6b3a764000088611d93565b905061300f826709b6e64a8ec600006139f9565b9150600061301d8383613369565b9050600061303461302d83612224565b8b90612de9565b9050612cb48187612de9565b6000606061304c6117c2565b60008061305885613a10565b9150915061306a60028210606461168f565b60408051600280825260608083018452926020830190803683370190505090506130cb88838151811061309957fe5b60200260200101518884815181106130ad57fe5b6020026020010151856130be610689565b6130c6610a0e565b613a32565b508183815181106130d857fe5b6020908102919091010152919791965090945050505050565b60006060600061310084613ae8565b905060606131168683613111610689565b613afe565b9196919550909350505050565b6000606061312f6117c2565b6060600061313c85613bb0565b9150915061314c82516002611a1c565b61315582611e96565b6000613172888885613165610689565b61316d610a0e565b613bc8565b5090506131838282111560cf61168f565b9791965090945050505050565b600082821c661fffffffffffff16660fffffffffffff81136131b25780611e8e565b7fffffffffffffffffffffffffffffffffffffffffffffffffffe0000000000000179392505050565b600061145083836001612669565b600060608060006131f985613bb0565b9150915061320982516002611a1c565b61321282611e96565b600061322f888885613222610689565b61322a610a0e565b613d12565b5090506131838282101560d061168f565b6000606060008061325085613a10565b9150915061326260028210606461168f565b60408051600280825260608083018452926020830190803683370190505090506130cb88838151811061329157fe5b60200260200101518884815181106132a557fe5b6020026020010151856132b6610689565b6132be610a0e565b613e4c565b6000606060006132d284613ae8565b9050606061311686836132e3610689565b613f1b565b6000806132f4876118bd565b8303905060008187026133068961299c565b01905060008287026133178a6129b6565b01905060008387026133288b6129d0565b019050612cb489848a858b868c61185d565b600061066f826001613fad565b6103ff811b1992909216911b1790565b637fffffff811b1992909216911b1790565b6000670de0b6b3a764000082141561338257508161066f565b671bc16d674ec8000082141561339c576114268384612196565b673782dace9d9000008214156133c45760006133b88485612196565b9050612d938182612196565b60006133d084846133ef565b905060006133e3612dba83612710612196565b9050612de0828261143e565b6000816134055750670de0b6b3a764000061066f565b826134125750600061066f565b61343f7f80000000000000000000000000000000000000000000000000000000000000008410600661168f565b82613465770bce5086492111aea88f4bb1ca6bcf584181ea8059f765328410600761168f565b826000670c7d713b49da0000831380156134865750670f43fc2c04ee000083125b156134bd57600061349684613522565b9050670de0b6b3a764000080820784020583670de0b6b3a7640000830502019150506134cb565b816134c784613659565b0290505b670de0b6b3a764000090056135197ffffffffffffffffffffffffffffffffffffffffffffffffdc702bd3a30fc00008212801590613512575068070c1cc73b00c800008213155b600861168f565b612ba381613fb5565b670de0b6b3a7640000026000806ec097ce7bc90715b34b9f1000000000808401907fffffffffffffffffffffffffffffffffff3f68318436f8ea4cb460f0000000008501028161356e57fe5b05905060006ec097ce7bc90715b34b9f100000000082800205905081806ec097ce7bc90715b34b9f100000000081840205915060038205016ec097ce7bc90715b34b9f100000000082840205915060058205016ec097ce7bc90715b34b9f100000000082840205915060078205016ec097ce7bc90715b34b9f100000000082840205915060098205016ec097ce7bc90715b34b9f1000000000828402059150600b8205016ec097ce7bc90715b34b9f1000000000828402059150600d8205016ec097ce7bc90715b34b9f1000000000828402059150600f826002919005919091010295945050505050565b6000670de0b6b3a76400008212156136965761368c826ec097ce7bc90715b34b9f10000000008161368657fe5b05613659565b6000039050610b98565b60007e1600ef3172e58d2e933ec884fde10064c63b5372d805e203c000000000000083126136e757770195e54c5dd42177f53a27172fa9ec630262827000000000830592506806f05b59d3b2000000015b73011798004d755d3c8bc8e03204cf44619e000000831261371f576b1425982cf597cd205cef7380830592506803782dace9d9000000015b606492830292026e01855144814a7ff805980ff00840008312613767576e01855144814a7ff805980ff008400068056bc75e2d63100000840205925068ad78ebc5ac62000000015b6b02df0ab5a80a22c61ab5a70083126137a2576b02df0ab5a80a22c61ab5a70068056bc75e2d6310000084020592506856bc75e2d631000000015b693f1fce3da636ea5cf85083126137d957693f1fce3da636ea5cf85068056bc75e2d631000008402059250682b5e3af16b18800000015b690127fa27722cc06cc5e2831261381057690127fa27722cc06cc5e268056bc75e2d6310000084020592506815af1d78b58c400000015b68280e60114edb805d0383126138455768280e60114edb805d0368056bc75e2d631000008402059250680ad78ebc5ac6200000015b680ebc5fb41746121110831261387057680ebc5fb4174612111068056bc75e2d631000009384020592015b6808f00f760a4b2db55d83126138a5576808f00f760a4b2db55d68056bc75e2d6310000084020592506802b5e3af16b1880000015b6806f5f177578893793783126138da576806f5f177578893793768056bc75e2d63100000840205925068015af1d78b58c40000015b6806248f33704b286603831261390e576806248f33704b28660368056bc75e2d63100000840205925067ad78ebc5ac620000015b6805c548670b9510e7ac8312613942576805c548670b9510e7ac68056bc75e2d6310000084020592506756bc75e2d6310000015b600068056bc75e2d63100000840168056bc75e2d63100000808603028161396557fe5b059050600068056bc75e2d63100000828002059050818068056bc75e2d63100000818402059150600382050168056bc75e2d63100000828402059150600582050168056bc75e2d63100000828402059150600782050168056bc75e2d63100000828402059150600982050168056bc75e2d63100000828402059150600b820501600202606485820105979650505050505050565b600081831015613a095781611450565b5090919050565b60008082806020019051810190613a279190614e03565b909590945092505050565b60008080613a4485612b928189611473565b9050613a5d6709b6e64a8ec6000082101561013261168f565b6000613a7b613a74670de0b6b3a76400008a611d93565b8390613369565b90506000613a8b61302d83612224565b90506000613a988a612224565b90506000613aa68383612196565b90506000613ab48483611473565b9050613ac0828a612196565b9650613ad6613acf8389611473565b829061143e565b97505050505050509550959350505050565b6000818060200190518101906114509190614dd6565b60606000613b0c8484611d93565b90506060855167ffffffffffffffff81118015613b2857600080fd5b50604051908082528060200260200182016040528015613b52578160200160208202803683370190505b50905060005b8651811015613ba657613b8783888381518110613b7157fe5b6020026020010151612de990919063ffffffff16565b828281518110613b9357fe5b6020908102919091010152600101613b58565b5095945050505050565b6060600082806020019051810190613a279190614d8f565b6000606080855167ffffffffffffffff81118015613be557600080fd5b50604051908082528060200260200182016040528015613c0f578160200160208202803683370190505b5090506000805b8951811015613cd457613c6f8a8281518110613c2e57fe5b6020026020010151612b928a8481518110613c4557fe5b60200260200101518d8581518110613c5957fe5b602002602001015161147390919063ffffffff16565b838281518110613c7b57fe5b602002602001018181525050613cca613cc38a8381518110613c9957fe5b6020026020010151858481518110613cad57fe5b602002602001015161219690919063ffffffff16565b839061143e565b9150600101613c16565b5060006060613ce78b8b8b87878c61447d565b915091506000613d00613cf984612224565b8a90612196565b9c919b50909950505050505050505050565b6000606080855167ffffffffffffffff81118015613d2f57600080fd5b50604051908082528060200260200182016040528015613d59578160200160208202803683370190505b5090506000805b8951811015613e0157613db98a8281518110613d7857fe5b6020026020010151610ab48a8481518110613d8f57fe5b60200260200101518d8581518110613da357fe5b602002602001015161143e90919063ffffffff16565b838281518110613dc557fe5b602002602001018181525050613df7613cc38a8381518110613de357fe5b6020026020010151858481518110613b7157fe5b9150600101613d60565b5060006060613e148b8b8b87878c614602565b915091506000670de0b6b3a76400008311613e30576000613d00565b613d00613e4584670de0b6b3a7640000611473565b8a90612de9565b60008080613e5e85612b92818961143e565b9050613e776729a2241af62c000082111561013361168f565b6000613e8e613a74670de0b6b3a76400008a61224a565b90506000613eae613ea783670de0b6b3a7640000611473565b8b90612196565b90506000613ebb8a612224565b90506000613ec98383612196565b90506000613ed78483611473565b90506000613ef7613ef0670de0b6b3a76400008c611473565b849061224a565b83810398509050613f08828261143e565b9850505050505050509550959350505050565b60606000613f29848461224a565b90506060855167ffffffffffffffff81118015613f4557600080fd5b50604051908082528060200260200182016040528015613f6f578160200160208202803683370190505b50905060005b8651811015613ba657613f8e83888381518110613cad57fe5b828281518110613f9a57fe5b6020908102919091010152600101613f75565b016103ff1690565b6000613ffa7ffffffffffffffffffffffffffffffffffffffffffffffffdc702bd3a30fc00008312158015613ff3575068070c1cc73b00c800008313155b600961168f565b60008212156140265761400f82600003613fb5565b6ec097ce7bc90715b34b9f100000000081612f9957fe5b60006806f05b59d3b2000000831261407c57507ffffffffffffffffffffffffffffffffffffffffffffffff90fa4a62c4e00000090910190770195e54c5dd42177f53a27172fa9ec6302628270000000006140c8565b6803782dace9d900000083126140c457507ffffffffffffffffffffffffffffffffffffffffffffffffc87d2531627000000909101906b1425982cf597cd205cef73806140c8565b5060015b6064929092029168056bc75e2d6310000068ad78ebc5ac62000000841261412e577fffffffffffffffffffffffffffffffffffffffffffffff5287143a539e0000009093019268056bc75e2d631000006e01855144814a7ff805980ff008400082020590505b6856bc75e2d6310000008412614180577fffffffffffffffffffffffffffffffffffffffffffffffa9438a1d29cf0000009093019268056bc75e2d631000006b02df0ab5a80a22c61ab5a70082020590505b682b5e3af16b1880000084126141d0577fffffffffffffffffffffffffffffffffffffffffffffffd4a1c50e94e78000009093019268056bc75e2d63100000693f1fce3da636ea5cf85082020590505b6815af1d78b58c4000008412614220577fffffffffffffffffffffffffffffffffffffffffffffffea50e2874a73c000009093019268056bc75e2d63100000690127fa27722cc06cc5e282020590505b680ad78ebc5ac6200000841261426f577ffffffffffffffffffffffffffffffffffffffffffffffff5287143a539e000009093019268056bc75e2d6310000068280e60114edb805d0382020590505b68056bc75e2d6310000084126142be577ffffffffffffffffffffffffffffffffffffffffffffffffa9438a1d29cf000009093019268056bc75e2d63100000680ebc5fb4174612111082020590505b6802b5e3af16b1880000841261430d577ffffffffffffffffffffffffffffffffffffffffffffffffd4a1c50e94e7800009093019268056bc75e2d631000006808f00f760a4b2db55d82020590505b68015af1d78b58c40000841261435c577ffffffffffffffffffffffffffffffffffffffffffffffffea50e2874a73c00009093019268056bc75e2d631000006806f5f177578893793782020590505b68056bc75e2d631000008481019085906002908280020505918201919050600368056bc75e2d631000008783020505918201919050600468056bc75e2d631000008783020505918201919050600568056bc75e2d631000008783020505918201919050600668056bc75e2d631000008783020505918201919050600768056bc75e2d631000008783020505918201919050600868056bc75e2d631000008783020505918201919050600968056bc75e2d631000008783020505918201919050600a68056bc75e2d631000008783020505918201919050600b68056bc75e2d631000008783020505918201919050600c68056bc75e2d631000008783020505918201919050606468056bc75e2d63100000848402058502059695505050505050565b60006060855167ffffffffffffffff8111801561449957600080fd5b506040519080825280602002602001820160405280156144c3578160200160208202803683370190505b509050670de0b6b3a7640000915060005b88518110156145f65760008682815181106144eb57fe5b602002602001015186111561457857600061451461450888612224565b8c8581518110613b7157fe5b90506000614528828b8681518110613c5957fe5b90506000614548614541670de0b6b3a76400008a611473565b839061224a565b905081810386868151811061455957fe5b602090810291909101015261456e838261143e565b935050505061458f565b87828151811061458457fe5b602002602001015190505b60006145b88b84815181106145a057fe5b6020026020010151610ab4848e8781518110613c5957fe5b90506145ea6145e38b85815181106145cc57fe5b602002602001015183612d3890919063ffffffff16565b8690612de9565b945050506001016144d4565b50965096945050505050565b60006060855167ffffffffffffffff8111801561461e57600080fd5b50604051908082528060200260200182016040528015614648578160200160208202803683370190505b509050670de0b6b3a7640000915060005b88518110156145f65760008587838151811061467157fe5b602002602001015111156146f157600061469661450888670de0b6b3a7640000611473565b905060006146aa828b8681518110613c5957fe5b905060006146b88289612196565b90506146ce6146c78383611473565b849061143e565b9350808686815181106146dd57fe5b602002602001018181525050505050614708565b8782815181106146fd57fe5b602002602001015190505b60006147318b848151811061471957fe5b6020026020010151610ab4848e8781518110613da357fe5b90506147456145e38b85815181106145cc57fe5b94505050600101614659565b604080518082019091526000808252602082015290565b803561066f816153da565b600082601f830112614783578081fd5b8151614796614791826153b0565b615389565b8181529150602080830190848101818402860182018710156147b757600080fd5b60005b848110156147d6578151845292820192908201906001016147ba565b505050505092915050565b600082601f8301126147f1578081fd5b813567ffffffffffffffff811115614807578182fd5b61481a6020601f19601f84011601615389565b915080825283602082850101111561483157600080fd5b8060208401602084013760009082016020015292915050565b80356002811061066f57600080fd5b80356003811061066f57600080fd5b600060208284031215614879578081fd5b8135611450816153da565b60008060408385031215614896578081fd5b82356148a1816153da565b915060208301356148b1816153da565b809150509250929050565b6000806000606084860312156148d0578081fd5b83356148db816153da565b925060208401356148eb816153da565b929592945050506040919091013590565b600080600080600080600060e0888a031215614916578485fd5b8735614921816153da565b96506020880135614931816153da565b95506040880135945060608801359350608088013560ff81168114614954578384fd5b9699959850939692959460a0840135945060c09093013592915050565b60008060408385031215614983578182fd5b823561498e816153da565b946020939093013593505050565b6000806000606084860312156149b0578081fd5b835167ffffffffffffffff808211156149c7578283fd5b818601915086601f8301126149da578283fd5b81516149e8614791826153b0565b80828252602080830192508086018b828387028901011115614a08578788fd5b8796505b84871015614a33578051614a1f816153da565b845260019690960195928101928101614a0c565b508901519097509350505080821115614a4a578283fd5b50614a5786828701614773565b925050604084015190509250925092565b60006020808385031215614a7a578182fd5b823567ffffffffffffffff811115614a90578283fd5b8301601f81018513614aa0578283fd5b8035614aae614791826153b0565b818152838101908385016040808502860187018a1015614acc578788fd5b8795505b84861015614b195780828b031215614ae6578788fd5b614aef81615389565b614af98b84614859565b815282880135888201528452600195909501949286019290810190614ad0565b509098975050505050505050565b60006020808385031215614b39578182fd5b823567ffffffffffffffff811115614b4f578283fd5b8301601f81018513614b5f578283fd5b8035614b6d614791826153b0565b818152838101908385016060808502860187018a1015614b8b578788fd5b8795505b84861015614b195780828b031215614ba5578788fd5b614bae81615389565b614bb88b84614859565b81528288013588820152604080840135908201528452600195909501949286019290810190614b8f565b600060208284031215614bf3578081fd5b8135611450816153fc565b600060208284031215614c0f578081fd5b8151611450816153fc565b600080600080600080600060e0888a031215614c34578081fd5b87359650602080890135614c47816153da565b96506040890135614c57816153da565b9550606089013567ffffffffffffffff80821115614c73578384fd5b818b0191508b601f830112614c86578384fd5b8135614c94614791826153b0565b8082825285820191508585018f878886028801011115614cb2578788fd5b8795505b83861015614cd4578035835260019590950194918601918601614cb6565b509850505060808b0135955060a08b0135945060c08b0135925080831115614cfa578384fd5b5050614d088a828b016147e1565b91505092959891949750929550565b600060208284031215614d28578081fd5b81357fffffffff0000000000000000000000000000000000000000000000000000000081168114611450578182fd5b600060208284031215614d68578081fd5b8151611450816153da565b600060208284031215614d84578081fd5b81516114508161540a565b600080600060608486031215614da3578081fd5b8351614dae8161540a565b602085015190935067ffffffffffffffff811115614dca578182fd5b614a5786828701614773565b60008060408385031215614de8578182fd5b8251614df38161540a565b6020939093015192949293505050565b600080600060608486031215614e17578081fd5b8351614e228161540a565b602085015160409095015190969495509392505050565b60008060408385031215614e4b578182fd5b8251614e568161540a565b602084015190925067ffffffffffffffff811115614e72578182fd5b614e7e85828601614773565b9150509250929050565b600060208284031215614e99578081fd5b6114508383614859565b600060208284031215614eb4578081fd5b5051919050565b600080600060608486031215614ecf578081fd5b833567ffffffffffffffff80821115614ee6578283fd5b8186019150610120808389031215614efc578384fd5b614f0581615389565b9050614f11888461484a565b8152614f208860208501614768565b6020820152614f328860408501614768565b6040820152606083013560608201526080830135608082015260a083013560a0820152614f628860c08501614768565b60c0820152614f748860e08501614768565b60e08201526101008084013583811115614f8c578586fd5b614f988a8287016147e1565b9183019190915250976020870135975060409096013595945050505050565b600060208284031215614fc8578081fd5b5035919050565b60008060408385031215614fe1578182fd5b50508035926020909101359150565b6000815180845260208085019450808401835b8381101561501f57815187529582019590820190600101615003565b509495945050505050565b9182527fffffffff0000000000000000000000000000000000000000000000000000000016602082015260240190565b6000828483379101908152919050565b7f190100000000000000000000000000000000000000000000000000000000000081526002810192909252602282015260420190565b73ffffffffffffffffffffffffffffffffffffffff91909116815260200190565b6020808252825182820181905260009190848201906040850190845b818110156150f9578351835292840192918401916001016150dd565b50909695505050505050565b6000602082526114506020830184614ff0565b60006040825261512b6040830185614ff0565b82810360208401526121f08185614ff0565b901515815260200190565b92151583526020830191909152604082015260600190565b90815260200190565b92835273ffffffffffffffffffffffffffffffffffffffff918216602084015216604082015260600190565b95865273ffffffffffffffffffffffffffffffffffffffff94851660208701529290931660408501526060840152608083019190915260a082015260c00190565b94855260208501939093526040840191909152606083015273ffffffffffffffffffffffffffffffffffffffff16608082015260a00190565b93845260ff9290921660208401526040830152606082015260800190565b968752602087019590955260408601939093526060850191909152608084015260a083015260c082015260e00190565b9586526020860194909452604085019290925260608401521515608083015260a082015260c00190565b83815260608101615297846153d0565b602082019390935260400152919050565b848152608081016152b8856153d0565b84602083015283604083015282606083015295945050505050565b838152825160a08201906152e6816153d0565b806020840152506020840151604083015260408401516060830152826080830152949350505050565b6000602080835283518082850152825b8181101561533b5785810183015185820160400152820161531f565b8181111561534c5783604083870101525b50601f01601f1916929092016040019392505050565b600083825260406020830152611e8e6040830184614ff0565b60ff91909116815260200190565b60405181810167ffffffffffffffff811182821017156153a857600080fd5b604052919050565b600067ffffffffffffffff8211156153c6578081fd5b5060209081020190565b6003811061068657fe5b73ffffffffffffffffffffffffffffffffffffffff8116811461068657600080fd5b801515811461068657600080fd5b6004811061068657600080fdfea2646970667358221220fe95539dc8cdcefa4dd18dc3e1853b0406a800997d8f72c44b7370d9e1cf1c4964736f6c63430007010033",
  "linkReferences": {
    "@koil-finance/pool-utils/contracts/oracle/QueryProcessor.sol": {
      "QueryProcessor": [
        {
          "length": 20,
          "start": 4730
        },
        {
          "length": 20,
          "start": 6957
        },
        {
          "length": 20,
          "start": 10608
        }
      ]
    }
  },
  "deployedLinkReferences": {
    "@koil-finance/pool-utils/contracts/oracle/QueryProcessor.sol": {
      "QueryProcessor": [
        {
          "length": 20,
          "start": 1817
        },
        {
          "length": 20,
          "start": 4044
        },
        {
          "length": 20,
          "start": 7695
        }
      ]
    }
  }
}