{
  "_format": "hh-sol-artifact-1",
  "contractName": "WeightedPoolFactory",
  "sourceName": "contracts/WeightedPoolFactory.sol",
  "abi": [
    {
      "inputs": [
        {
          "internalType": "contract IVault",
          "name": "vault",
          "type": "address"
        }
      ],
      "stateMutability": "nonpayable",
      "type": "constructor"
    },
    {
      "anonymous": false,
      "inputs": [
        {
          "indexed": true,
          "internalType": "address",
          "name": "pool",
          "type": "address"
        }
      ],
      "name": "PoolCreated",
      "type": "event"
    },
    {
      "inputs": [
        {
          "internalType": "string",
          "name": "name",
          "type": "string"
        },
        {
          "internalType": "string",
          "name": "symbol",
          "type": "string"
        },
        {
          "internalType": "contract IERC20[]",
          "name": "tokens",
          "type": "address[]"
        },
        {
          "internalType": "uint256[]",
          "name": "weights",
          "type": "uint256[]"
        },
        {
          "internalType": "address[]",
          "name": "assetManagers",
          "type": "address[]"
        },
        {
          "internalType": "uint256",
          "name": "swapFeePercentage",
          "type": "uint256"
        },
        {
          "internalType": "address",
          "name": "owner",
          "type": "address"
        }
      ],
      "name": "create",
      "outputs": [
        {
          "internalType": "address",
          "name": "",
          "type": "address"
        }
      ],
      "stateMutability": "nonpayable",
      "type": "function"
    },
    {
      "inputs": [],
      "name": "getCreationCode",
      "outputs": [
        {
          "internalType": "bytes",
          "name": "",
          "type": "bytes"
        }
      ],
      "stateMutability": "view",
      "type": "function"
    },
    {
      "inputs": [],
      "name": "getCreationCodeContracts",
      "outputs": [
        {
          "internalType": "address",
          "name": "contractA",
          "type": "address"
        },
        {
          "internalType": "address",
          "name": "contractB",
          "type": "address"
        }
      ],
      "stateMutability": "view",
      "type": "function"
    },
    {
      "inputs": [],
      "name": "getPauseConfiguration",
      "outputs": [
        {
          "internalType": "uint256",
          "name": "pauseWindowDuration",
          "type": "uint256"
        },
        {
          "internalType": "uint256",
          "name": "bufferPeriodDuration",
          "type": "uint256"
        }
      ],
      "stateMutability": "view",
      "type": "function"
    },
    {
      "inputs": [],
      "name": "getVault",
      "outputs": [
        {
          "internalType": "contract IVault",
          "name": "",
          "type": "address"
        }
      ],
      "stateMutability": "view",
      "type": "function"
    },
    {
      "inputs": [
        {
          "internalType": "address",
          "name": "pool",
          "type": "address"
        }
      ],
      "name": "isPoolFromFactory",
      "outputs": [
        {
          "internalType": "bool",
          "name": "",
          "type": "bool"
        }
      ],
      "stateMutability": "view",
      "type": "function"
    }
  ],
  "bytecode": "0x6101406040523480156200001257600080fd5b5060405162008828380380620088288339810160408190526200003591620001c3565b80604051806020016200004890620001b5565b601f1982820381018352601f909101166040528051819060006002820460a081905280830360e0819052818552909150836200009081620000f9602090811b6200028617901c565b60601b6001600160601b0319166080528285018051838252620000bf82620000f9602090811b6200028617901c565b6001600160601b0319606091821b811660c0529690935290529590951b90911661010052505050426276a700016101205250620001f39050565b80517f602038038060206000396000f3fefefefefefefefefefefefefefefefefefefe808352600091602081018484f09084529150620001476001600160a01b03831615156101ac6200014d565b50919050565b816200015e576200015e8162000162565b5050565b62461bcd60e51b6000908152602060045260076024526642414c23000030600a808404818106603090810160081b95839006959095019082900491820690940160101b939093010160c81b604452606490fd5b617a638062000dc583390190565b600060208284031215620001d5578081fd5b81516001600160a01b0381168114620001ec578182fd5b9392505050565b60805160601c60a05160c05160601c60e0516101005160601c61012051610b706200025560003980610173528061019c5250806102645250806102ed52508061014a528061036952508061030e52508061012952806103455250610b706000f3fe608060405234801561001057600080fd5b50600436106100715760003560e01c80636634b753116100505780636634b753146100c057806380773a93146100e05780638d928af81461010057610071565b8062c194db14610076578063174481fa146100945780632da47c40146100aa575b600080fd5b61007e610108565b60405161008b91906109b6565b60405180910390f35b61009c610127565b60405161008b929190610984565b6100b261016d565b60405161008b929190610aa7565b6100d36100ce36600461075e565b6101d7565b60405161008b91906109ab565b6100f36100ee36600461077a565b610202565b60405161008b9190610963565b6100f3610262565b6060610122604051806020016040528060008152506102e5565b905090565b7f00000000000000000000000000000000000000000000000000000000000000007f00000000000000000000000000000000000000000000000000000000000000009091565b600080427f00000000000000000000000000000000000000000000000000000000000000008110156101c957807f000000000000000000000000000000000000000000000000000000000000000003925062278d0091506101d2565b60009250600091505b509091565b73ffffffffffffffffffffffffffffffffffffffff1660009081526020819052604090205460ff1690565b600080600061020f61016d565b9150915061025461021e610262565b8b8b8b8b8b8b89898d6040516020016102409a999897969594939291906109c9565b6040516020818303038152906040526103be565b9a9950505050505050505050565b7f000000000000000000000000000000000000000000000000000000000000000090565b80517f602038038060206000396000f3fefefefefefefefefefefefefefefefefefefe808352600091602081018484f090845291506102df73ffffffffffffffffffffffffffffffffffffffff831615156101ac610449565b50919050565b8051604080517f00000000000000000000000000000000000000000000000000000000000000007f0000000000000000000000000000000000000000000000000000000000000000818101858101848101602090810190965280855293957f00000000000000000000000000000000000000000000000000000000000000009592947f000000000000000000000000000000000000000000000000000000000000000094938801866000828a3c846000888301883c50602089810190898501016103b081838661045b565b505050505050505050919050565b6000806103ca836104d5565b73ffffffffffffffffffffffffffffffffffffffff811660008181526020819052604080822080547fffffffffffffffffffffffffffffffffffffffffffffffffffffffffffffff001660011790555192935090917f83a48fbcfc991335314e74d0496aab6a1987e992ddc85dddbcc4d6dd6ef2e9fc9190a292915050565b81610457576104578161051d565b5050565b5b602081106104995781518352602092830192909101907fffffffffffffffffffffffffffffffffffffffffffffffffffffffffffffffe00161045c565b905182516020929092036101000a7fffffffffffffffffffffffffffffffffffffffffffffffffffffffffffffffff0180199091169116179052565b600060606104e2836102e5565b905060008151602083016000f0905073ffffffffffffffffffffffffffffffffffffffff8116610516573d6000803e3d6000fd5b9392505050565b7f08c379a0000000000000000000000000000000000000000000000000000000006000908152602060045260076024526642414c23000030600a808404818106603090810160081b95839006959095019082900491820690940160101b939093010160c81b604452606490fd5b803561059581610b15565b92915050565b600082601f8301126105ab578081fd5b81356105be6105b982610adc565b610ab5565b8181529150602080830190848101818402860182018710156105df57600080fd5b60005b848110156106075781356105f581610b15565b845292820192908201906001016105e2565b505050505092915050565b600082601f830112610622578081fd5b81356106306105b982610adc565b81815291506020808301908481018184028601820187101561065157600080fd5b60005b8481101561060757813561066781610b15565b84529282019290820190600101610654565b600082601f830112610689578081fd5b81356106976105b982610adc565b8181529150602080830190848101818402860182018710156106b857600080fd5b60005b84811015610607578135845292820192908201906001016106bb565b600082601f8301126106e7578081fd5b813567ffffffffffffffff8111156106fd578182fd5b61072e60207fffffffffffffffffffffffffffffffffffffffffffffffffffffffffffffffe0601f84011601610ab5565b915080825283602082850101111561074557600080fd5b8060208401602084013760009082016020015292915050565b60006020828403121561076f578081fd5b813561051681610b15565b600080600080600080600060e0888a031215610794578283fd5b873567ffffffffffffffff808211156107ab578485fd5b6107b78b838c016106d7565b985060208a01359150808211156107cc578485fd5b6107d88b838c016106d7565b975060408a01359150808211156107ed578485fd5b6107f98b838c01610612565b965060608a013591508082111561080e578485fd5b61081a8b838c01610679565b955060808a013591508082111561082f578485fd5b5061083c8a828b0161059b565b93505060a088013591506108538960c08a0161058a565b905092959891949750929550565b73ffffffffffffffffffffffffffffffffffffffff169052565b6000815180845260208085019450808401835b838110156108c057815173ffffffffffffffffffffffffffffffffffffffff168752958201959082019060010161088e565b509495945050505050565b6000815180845260208085019450808401835b838110156108c0578151875295820195908201906001016108de565b60008151808452815b8181101561091f57602081850181015186830182015201610903565b818111156109305782602083870101525b50601f017fffffffffffffffffffffffffffffffffffffffffffffffffffffffffffffffe0169290920160200192915050565b73ffffffffffffffffffffffffffffffffffffffff91909116815260200190565b73ffffffffffffffffffffffffffffffffffffffff92831681529116602082015260400190565b901515815260200190565b60006020825261051660208301846108fa565b600061014073ffffffffffffffffffffffffffffffffffffffff8d168352602081818501526109fa8285018e6108fa565b91508382036040850152610a0e828d6108fa565b84810360608601528b51808252828d01935090820190845b81811015610a4a57610a388551610afc565b83529383019391830191600101610a26565b50508481036080860152610a5e818c6108cb565b9250505082810360a0840152610a74818961087b565b9150508560c08301528460e083015283610100830152610a98610120830184610861565b9b9a5050505050505050505050565b918252602082015260400190565b60405181810167ffffffffffffffff81118282101715610ad457600080fd5b604052919050565b600067ffffffffffffffff821115610af2578081fd5b5060209081020190565b73ffffffffffffffffffffffffffffffffffffffff1690565b73ffffffffffffffffffffffffffffffffffffffff81168114610b3757600080fd5b5056fea264697066735822122096be9e5f0862aa6e47b416a586630c46a95c4e849038e479279ee4fecdb9b1e064736f6c634300070100336109806040527f6e71edae12b1b97f4d1f60370fef10105fa2faae0126114a169c64845d6126c9610120523480156200003757600080fd5b5060405162007a6338038062007a638339810160408190526200005a9162001404565b8989898988888888888886516002146200007657600162000079565b60025b8989898989898989828289898d8280604051806040016040528060018152602001603160f81b81525085858a336001600160a01b031660001b806080818152505050806001600160a01b031660a0816001600160a01b031660601b81525050508160039080519060200190620000f19291906200115d565b508051620001079060049060208401906200115d565b505060058054601260ff1990911617905550815160209283012060c052805191012060e052507f8b73c3c69bb8fe3d512ecc4cf759cc79239f7b179b0ffacaa9a75d522b39400f6101005260601b6001600160601b03191661014052506200017a90506276a70083111561019462000e9e565b6200018e62278d0082111561019562000e9e565b4290910161016081905201610180528551620001b0906002111560c862000e9e565b620001ca620001be62000eb3565b8751111560c962000e9e565b620001e08662000eb860201b62000e521760201c565b620001eb8462000ec4565b6040516309b2760f60e01b81526000906001600160a01b038c16906309b2760f906200021c908d90600401620015e5565b602060405180830381600087803b1580156200023757600080fd5b505af11580156200024c573d6000803e3d6000fd5b505050506040513d601f19601f82011682018060405250810190620002729190620013eb565b604051633354e3e960e11b81529091506001600160a01b038c16906366a9c7d290620002a79084908b908b9060040162001549565b600060405180830381600087803b158015620002c257600080fd5b505af1158015620002d7573d6000803e3d6000fd5b50505050806101a0818152505050505050505050505050505050505050505050506000875190506200031681885162000f5060201b62000e5c1760201c565b6101c081905260008080805b848160ff161015620003a15760008b8260ff16815181106200034057fe5b6020026020010151905062000368662386f26fc1000082101561012e62000e9e60201b60201c565b62000382818662000f5f60201b62000e691790919060201c565b94508281111562000397578160ff1693508092505b5060010162000322565b50620003ba670de0b6b3a7640000841461013462000e9e565b6106e082905289518a90600090620003ce57fe5b6020026020010151610700818152505089600181518110620003ec57fe5b60200260200101516107208181525050600284116200040d57600062000424565b896002815181106200041b57fe5b60200260200101515b61074052600384116200043957600062000450565b896003815181106200044757fe5b60200260200101515b6107605260048411620004655760006200047c565b896004815181106200047357fe5b60200260200101515b610780526005841162000491576000620004a8565b896005815181106200049f57fe5b60200260200101515b6107a05260068411620004bd576000620004d4565b89600681518110620004cb57fe5b60200260200101515b6107c05260078411620004e957600062000500565b89600781518110620004f757fe5b60200260200101515b6107e05260088411620005155760006200052c565b896008815181106200052357fe5b60200260200101515b61080052600984116200054157600062000558565b896009815181106200054f57fe5b60200260200101515b61082052600a84116200056d57600062000584565b89600a815181106200057b57fe5b60200260200101515b61084052600b841162000599576000620005b0565b89600b81518110620005a757fe5b60200260200101515b61086052600c8411620005c5576000620005dc565b89600c81518110620005d357fe5b60200260200101515b61088052600d8411620005f157600062000608565b89600d81518110620005ff57fe5b60200260200101515b6108a052600e84116200061d57600062000634565b89600e815181106200062b57fe5b60200260200101515b6108c052600f84116200064957600062000660565b89600f815181106200065757fe5b60200260200101515b6108e05260108411620006755760006200068c565b896010815181106200068357fe5b60200260200101515b6109005260118411620006a1576000620006b8565b89601181518110620006af57fe5b60200260200101515b6109205260128411620006cd576000620006e4565b89601281518110620006db57fe5b60200260200101515b6109405260138411620006f957600062000710565b896013815181106200070757fe5b60200260200101515b610960528a518b906000906200072257fe5b60200260200101516001600160a01b03166101e0816001600160a01b031660601b815250508a6001815181106200075557fe5b60200260200101516001600160a01b0316610200816001600160a01b031660601b81525050600284116200078b576000620007a2565b8a6002815181106200079957fe5b60200260200101515b60601b6001600160601b0319166102205260038411620007c4576000620007db565b8a600381518110620007d257fe5b60200260200101515b60601b6001600160601b0319166102405260048411620007fd57600062000814565b8a6004815181106200080b57fe5b60200260200101515b60601b6001600160601b0319166102605260058411620008365760006200084d565b8a6005815181106200084457fe5b60200260200101515b60601b6001600160601b03191661028052600684116200086f57600062000886565b8a6006815181106200087d57fe5b60200260200101515b60601b6001600160601b0319166102a05260078411620008a8576000620008bf565b8a600781518110620008b657fe5b60200260200101515b60601b6001600160601b0319166102c05260088411620008e1576000620008f8565b8a600881518110620008ef57fe5b60200260200101515b60601b6001600160601b0319166102e052600984116200091a57600062000931565b8a6009815181106200092857fe5b60200260200101515b60601b6001600160601b03191661030052600a8411620009535760006200096a565b8a600a815181106200096157fe5b60200260200101515b60601b6001600160601b03191661032052600b84116200098c576000620009a3565b8a600b815181106200099a57fe5b60200260200101515b60601b6001600160601b03191661034052600c8411620009c5576000620009dc565b8a600c81518110620009d357fe5b60200260200101515b60601b6001600160601b03191661036052600d8411620009fe57600062000a15565b8a600d8151811062000a0c57fe5b60200260200101515b60601b6001600160601b03191661038052600e841162000a3757600062000a4e565b8a600e8151811062000a4557fe5b60200260200101515b60601b6001600160601b0319166103a052600f841162000a7057600062000a87565b8a600f8151811062000a7e57fe5b60200260200101515b60601b6001600160601b0319166103c0526010841162000aa957600062000ac0565b8a60108151811062000ab757fe5b60200260200101515b60601b6001600160601b0319166103e0526011841162000ae257600062000af9565b8a60118151811062000af057fe5b60200260200101515b60601b6001600160601b031916610400526012841162000b1b57600062000b32565b8a60128151811062000b2957fe5b60200260200101515b60601b6001600160601b031916610420526013841162000b5457600062000b6b565b8a60138151811062000b6257fe5b60200260200101515b6001600160a01b0316610440816001600160a01b031660601b8152505062000bae8b60008151811062000b9a57fe5b602002602001015162000f7c60201b60201c565b610460528a5162000bc7908c90600190811062000b9a57fe5b610480526002841162000bdc57600062000bee565b62000bee8b60028151811062000b9a57fe5b6104a0526003841162000c0357600062000c15565b62000c158b60038151811062000b9a57fe5b6104c0526004841162000c2a57600062000c3c565b62000c3c8b60048151811062000b9a57fe5b6104e0526005841162000c5157600062000c63565b62000c638b60058151811062000b9a57fe5b610500526006841162000c7857600062000c8a565b62000c8a8b60068151811062000b9a57fe5b610520526007841162000c9f57600062000cb1565b62000cb18b60078151811062000b9a57fe5b610540526008841162000cc657600062000cd8565b62000cd88b60088151811062000b9a57fe5b610560526009841162000ced57600062000cff565b62000cff8b60098151811062000b9a57fe5b61058052600a841162000d1457600062000d26565b62000d268b600a8151811062000b9a57fe5b6105a052600b841162000d3b57600062000d4d565b62000d4d8b600b8151811062000b9a57fe5b6105c052600c841162000d6257600062000d74565b62000d748b600c8151811062000b9a57fe5b6105e052600d841162000d8957600062000d9b565b62000d9b8b600d8151811062000b9a57fe5b61060052600e841162000db057600062000dc2565b62000dc28b600e8151811062000b9a57fe5b61062052600f841162000dd757600062000de9565b62000de98b600f8151811062000b9a57fe5b610640526010841162000dfe57600062000e10565b62000e108b60108151811062000b9a57fe5b610660526011841162000e2557600062000e37565b62000e378b60118151811062000b9a57fe5b610680526012841162000e4c57600062000e5e565b62000e5e8b60128151811062000b9a57fe5b6106a0526013841162000e7357600062000e85565b62000e858b60138151811062000b9a57fe5b6106c052506200166c9c50505050505050505050505050565b8162000eaf5762000eaf8162001050565b5050565b601490565b8062000eaf81620010a3565b62000ed964e8d4a5100082101560cb62000e9e565b62000ef167016345785d8a000082111560ca62000e9e565b62000f108160c06008546200113060201b62000e82179092919060201c565b6008556040517fa9ba3ffe0b6c366b81232caab38605a0699ad5398d6cce76f91ee809e322dafc9062000f45908390620015fa565b60405180910390a150565b62000eaf828214606762000e9e565b600082820162000f73848210158362000e9e565b90505b92915050565b60006001600160a01b03821630141562000fa05750670de0b6b3a76400006200104b565b6000826001600160a01b031663313ce5676040518163ffffffff1660e01b815260040160206040518083038186803b15801562000fdc57600080fd5b505afa15801562000ff1573d6000803e3d6000fd5b505050506040513d601f19601f8201168201806040525081019062001017919062001526565b60ff1690506000620010366012836200114560201b62000e981760201c565b905080600a0a670de0b6b3a764000002925050505b919050565b62461bcd60e51b6000908152602060045260076024526642414c23000030600a808404818106603090810160081b95839006959095019082900491820690940160101b939093010160c81b604452606490fd5b600281511015620010b4576200112d565b600081600081518110620010c457fe5b602002602001015190506000600190505b82518110156200112a576000838281518110620010ee57fe5b602002602001015190506200111f816001600160a01b0316846001600160a01b031610606562000e9e60201b60201c565b9150600101620010d5565b50505b50565b6001600160401b03811b1992909216911b1790565b60006200115783831115600162000e9e565b50900390565b828054600181600116156101000203166002900490600052602060002090601f016020900481019282601f10620011a057805160ff1916838001178555620011d0565b82800160010185558215620011d0579182015b82811115620011d0578251825591602001919060010190620011b3565b50620011de929150620011e2565b5090565b5b80821115620011de5760008155600101620011e3565b805162000f768162001656565b600082601f83011262001217578081fd5b81516200122e62001228826200162a565b62001603565b8181529150602080830190848101818402860182018710156200125057600080fd5b60005b848110156200127c578151620012698162001656565b8452928201929082019060010162001253565b505050505092915050565b600082601f83011262001298578081fd5b8151620012a962001228826200162a565b818152915060208083019084810181840286018201871015620012cb57600080fd5b60005b848110156200127c578151620012e48162001656565b84529282019290820190600101620012ce565b600082601f83011262001308578081fd5b81516200131962001228826200162a565b8181529150602080830190848101818402860182018710156200133b57600080fd5b60005b848110156200127c578151845292820192908201906001016200133e565b600082601f8301126200136d578081fd5b81516001600160401b0381111562001383578182fd5b602062001399601f8301601f1916820162001603565b92508183528481838601011115620013b057600080fd5b60005b82811015620013d0578481018201518482018301528101620013b3565b82811115620013e25760008284860101525b50505092915050565b600060208284031215620013fd578081fd5b5051919050565b6000806000806000806000806000806101408b8d03121562001424578586fd5b620014308c8c620011f9565b60208c0151909a506001600160401b03808211156200144d578788fd5b6200145b8e838f016200135c565b9a5060408d015191508082111562001471578788fd5b6200147f8e838f016200135c565b995060608d015191508082111562001495578788fd5b620014a38e838f0162001287565b985060808d0151915080821115620014b9578788fd5b620014c78e838f01620012f7565b975060a08d0151915080821115620014dd578687fd5b50620014ec8d828e0162001206565b95505060c08b0151935060e08b015192506101008b01519150620015158c6101208d01620011f9565b90509295989b9194979a5092959850565b60006020828403121562001538578081fd5b815160ff8116811462000f73578182fd5b60006060820185835260206060818501528186518084526080860191508288019350845b8181101562001595576200158285516200164a565b835293830193918301916001016200156d565b505084810360408601528551808252908201925081860190845b81811015620015d757620015c483516200164a565b85529383019391830191600101620015af565b509298975050505050505050565b6020810160038310620015f457fe5b91905290565b90815260200190565b6040518181016001600160401b03811182821017156200162257600080fd5b604052919050565b60006001600160401b0382111562001640578081fd5b5060209081020190565b6001600160a01b031690565b6001600160a01b03811681146200112d57600080fd5b60805160a05160601c60c05160e05161010051610120516101405160601c61016051610180516101a0516101c0516101e05160601c6102005160601c6102205160601c6102405160601c6102605160601c6102805160601c6102a05160601c6102c05160601c6102e05160601c6103005160601c6103205160601c6103405160601c6103605160601c6103805160601c6103a05160601c6103c05160601c6103e05160601c6104005160601c6104205160601c6104405160601c61046051610480516104a0516104c0516104e05161050051610520516105405161056051610580516105a0516105c0516105e05161060051610620516106405161066051610680516106a0516106c0516106e05161070051610720516107405161076051610780516107a0516107c0516107e05161080051610820516108405161086051610880516108a0516108c0516108e05161090051610920516109405161096051615fab62001ab860003980612db65280613b00525080612d735280613a9f525080612d305280613a3e525080612ced52806139dd525080612caa528061397c525080612c67528061391b525080612c2452806138ba525080612be15280613859525080612b9e52806137f8525080612b5b5280613797525080612b185280613736525080612ad552806136d5525080612a925280613674525080612a4f5280613613525080612a0c52806135b25250806129c9528061355152508061298652806134f0525080612943528061348f525080612900528061342e5250806128c652806133cd5250806126e65250806115b1528061254352508061156e52806124e252508061152b52806124815250806114e852806124205250806114a552806123bf525080611462528061235e52508061141f52806122fd5250806113dc528061229c525080611399528061223b52508061135652806121da52508061131352806121795250806112d0528061211852508061128d52806120b752508061124a52806120565250806112075280611ff55250806111c45280611f945250806111815280611f335250806111305280611ed25250806110ed5280611e715250806110b35280611e105250806125085280613ac55250806124a75280613a645250806124465280613a035250806123e552806139a2525080612384528061394152508061232352806138e05250806122c2528061387f525080612261528061381e52508061220052806137bd52508061219f528061375c52508061213e52806136fb5250806120dd528061369a52508061207c528061363952508061201b52806135d8525080611fba5280613577525080611f595280613516525080611ef852806134b5525080611e975280613454525080611e3652806133f3525080611dd5528061339252508061192252508061062752508061103b525080611017525080610890525080610bc65250806116e152508061172352508061170252508061086c5250806107f65250615fab6000f3fe608060405234801561001057600080fd5b50600436106102265760003560e01c806374f3b0091161012a5780639d2c110c116100bd578063c0ff1a151161008c578063d5c096c411610071578063d5c096c414610457578063dd62ed3e1461046a578063f89f27ed1461047d57610226565b8063c0ff1a151461043c578063d505accf1461044457610226565b80639d2c110c146103fb578063a457c2d71461040e578063a9059cbb14610421578063aaabadc51461043457610226565b8063893d20e8116100f9578063893d20e8146103ce5780638d928af8146103e357806395d89b41146103eb5780639b02cdde146103f357610226565b806374f3b009146103745780637ecebe0014610395578063851c1bb3146103a857806387ec6817146103bb57610226565b80633644e515116101bd57806350dd6ed91161018c5780636028bfd4116101715780636028bfd414610338578063679aefce1461035957806370a082311461036157610226565b806350dd6ed91461031d57806355c676281461033057610226565b80633644e515146102e757806338e9922e146102ef57806338fff2d014610302578063395093511461030a57610226565b80631c0de051116101f95780631c0de051146102935780631dd746ea146102aa57806323b872dd146102bf578063313ce567146102d257610226565b806306fdde031461022b578063095ea7b31461024957806316c38b3c1461026957806318160ddd1461027e575b600080fd5b610233610485565b6040516102409190615ec4565b60405180910390f35b61025c61025736600461574f565b61051c565b6040516102409190615dcb565b61027c610277366004615846565b610533565b005b610286610547565b6040516102409190615dee565b61029b61054d565b60405161024093929190615dd6565b6102b2610576565b6040516102409190615d93565b61025c6102cd36600461569a565b610585565b6102da6105f9565b6040516102409190615ef0565b610286610602565b61027c6102fd366004615c2c565b61060c565b610286610625565b61025c61031836600461574f565b610649565b61027c61032b3660046159d7565b610684565b6102866106a2565b61034b61034636600461587e565b6106b3565b604051610240929190615ed7565b6102866106ea565b61028661036f366004615646565b610715565b61038761038236600461587e565b610734565b604051610240929190615da6565b6102866103a3366004615646565b6107d7565b6102866103b636600461597b565b6107f2565b61034b6103c936600461587e565b610844565b6103d661086a565b6040516102409190615d7f565b6103d661088e565b6102336108b2565b610286610913565b610286610409366004615b30565b610919565b61025c61041c36600461574f565b610a77565b61025c61042f36600461574f565b610ab5565b6103d6610ac2565b610286610acc565b61027c6104523660046156da565b610b91565b61038761046536600461587e565b610cda565b610286610478366004615662565b610e0b565b6102b2610e48565b60038054604080516020601f60026000196101006001881615020190951694909404938401819004810282018101909252828152606093909290918301828280156105115780601f106104e657610100808354040283529160200191610511565b820191906000526020600020905b8154815290600101906020018083116104f457829003601f168201915b505050505090505b90565b6000610529338484610eae565b5060015b92915050565b61053b610f16565b61054481610f5c565b50565b60025490565b600080600061055a610ff8565b159250610565611015565b915061056f611039565b9050909192565b606061058061105d565b905090565b6000806105928533610e0b565b90506105b6336001600160a01b03871614806105ae5750838210155b61019e6115ef565b6105c18585856115fd565b336001600160a01b038616148015906105dc57506000198114155b156105ee576105ee8533858403610eae565b506001949350505050565b60055460ff1690565b60006105806116dd565b610614610f16565b61061c61177a565b6105448161178f565b7f000000000000000000000000000000000000000000000000000000000000000090565b3360008181526001602090815260408083206001600160a01b0387168452909152812054909161052991859061067f9086610e69565b610eae565b61068c610f16565b61069461177a565b61069e82826117fa565b5050565b6008546000906105809060c0611912565b600060606106c986516106c4611920565b610e5c565b6106de89898989898989611944611a14611a7a565b97509795505050505050565b60006105806106f7610547565b61070f610702610acc565b61070a611920565b611c0a565b90611c2e565b6001600160a01b0381166000908152602081905260409020545b919050565b6060808861075e61074361088e565b6001600160a01b0316336001600160a01b03161460cd6115ef565b610773610769610625565b82146101f46115ef565b606061077d61105d565b90506107898882611c7f565b600060608061079e8e8e8e8e8e8e8a8f611944565b9250925092506107ae8d84611ce0565b6107b88285611a14565b6107c28185611a14565b909550935050505b5097509795505050505050565b6001600160a01b031660009081526006602052604090205490565b60007f000000000000000000000000000000000000000000000000000000000000000082604051602001610827929190615d09565b604051602081830303815290604052805190602001209050919050565b6000606061085586516106c4611920565b6106de89898989898989611cea611d70611a7a565b7f000000000000000000000000000000000000000000000000000000000000000090565b7f000000000000000000000000000000000000000000000000000000000000000090565b60048054604080516020601f60026000196101006001881615020190951694909404938401819004810282018101909252828152606093909290918301828280156105115780601f106104e657610100808354040283529160200191610511565b60095490565b6000836080015161092b61074361088e565b610936610769610625565b60006109458660200151611dd1565b905060006109568760400151611dd1565b905060008751600181111561096757fe5b14156109f757600061097c8860600151612572565b905060008189606001510390506109a0896020015161099b8387612593565b61259f565b606089018290526109b18885612593565b97506109bd8784612593565b96506109cd896060015185612593565b60608a015260006109df8a8a8a6125b1565b90506109eb81856125ec565b96505050505050610a6f565b610a018683612593565b9550610a0d8582612593565b9450610a1d876060015182612593565b60608801526000610a2f8888886125f8565b9050610a3b818461262b565b90506000610a4882612637565b905060008282039050610a638a6020015161099b8388612593565b509450610a6f92505050565b509392505050565b600080610a843385610e0b565b9050808310610a9e57610a9933856000610eae565b610aab565b610aab3385858403610eae565b5060019392505050565b60006105293384846115fd565b600061058061265d565b60006060610ad861088e565b6001600160a01b031663f94d4668610aee610625565b6040518263ffffffff1660e01b8152600401610b0a9190615dee565b60006040518083038186803b158015610b2257600080fd5b505afa158015610b36573d6000803e3d6000fd5b505050506040513d6000823e601f3d908101601f19168201604052610b5e919081019061577a565b50915050610b7381610b6e61105d565b611c7f565b6060610b7d6126d7565b509050610b8a818361270b565b9250505090565b610b9f8442111560d16115ef565b6001600160a01b0387166000908152600660209081526040808320549051909291610bf6917f0000000000000000000000000000000000000000000000000000000000000000918c918c918c9188918d9101615e16565b6040516020818303038152906040528051906020012090506000610c198261277d565b9050600060018288888860405160008152602001604052604051610c409493929190615ea6565b6020604051602081039080840390855afa158015610c62573d6000803e3d6000fd5b5050604051601f1901519150610ca490506001600160a01b03821615801590610c9c57508b6001600160a01b0316826001600160a01b0316145b6101f86115ef565b6001600160a01b038b166000908152600660205260409020600185019055610ccd8b8b8b610eae565b5050505050505050505050565b60608088610ce961074361088e565b610cf4610769610625565b6060610cfe61105d565b9050610d08610547565b610dbb5760006060610d1d8d8d8d868b612799565b91509150610d36610d2c612834565b83101560cc6115ef565b610d486000610d43612834565b61283b565b610d5b8b610d54612834565b840361283b565b610d658184611d70565b80610d6e611920565b67ffffffffffffffff81118015610d8457600080fd5b50604051908082528060200260200182016040528015610dae578160200160208202803683370190505b50955095505050506107ca565b610dc58882611c7f565b6000606080610dda8e8e8e8e8e8e8a8f611cea565b925092509250610dea8c8461283b565b610df48285611d70565b610dfe8185611a14565b90955093506107ca915050565b6000610e1561088e565b6001600160a01b0316826001600160a01b03161415610e37575060001961052d565b610e418383612845565b905061052d565b6060610580612870565b8061069e81612de2565b61069e81831460676115ef565b6000828201610e7b84821015836115ef565b9392505050565b67ffffffffffffffff811b1992909216911b1790565b6000610ea88383111560016115ef565b50900390565b6001600160a01b0380841660008181526001602090815260408083209487168084529490915290819020849055517f8c5be1e5ebec7d5bd14f71427d1e84f3dd0314c0f7b2291e5b200ac8c7c3b92590610f09908590615dee565b60405180910390a3505050565b6000610f456000357fffffffff00000000000000000000000000000000000000000000000000000000166107f2565b9050610544610f548233612e5b565b6101916115ef565b8015610f7c57610f77610f6d611015565b42106101936115ef565b610f91565b610f91610f87611039565b42106101a96115ef565b600780547fffffffffffffffffffffffffffffffffffffffffffffffffffffffffffffff00168215151790556040517f9e3a5e37224532dea67b89face185703738a228a6e8a23dee546960180d3be6490610fed908390615dcb565b60405180910390a150565b6000611002611039565b42118061058057505060075460ff161590565b7f000000000000000000000000000000000000000000000000000000000000000090565b7f000000000000000000000000000000000000000000000000000000000000000090565b60606000611069611920565b905060608167ffffffffffffffff8111801561108457600080fd5b506040519080825280602002602001820160405280156110ae578160200160208202803683370190505b5090507f0000000000000000000000000000000000000000000000000000000000000000816000815181106110df57fe5b6020026020010181815250507f00000000000000000000000000000000000000000000000000000000000000008160018151811061111957fe5b602002602001018181525050600282111561116d577f00000000000000000000000000000000000000000000000000000000000000008160028151811061115c57fe5b602002602001018181525050611176565b91506105199050565b600382111561116d577f0000000000000000000000000000000000000000000000000000000000000000816003815181106111ad57fe5b602002602001018181525050600482111561116d577f0000000000000000000000000000000000000000000000000000000000000000816004815181106111f057fe5b602002602001018181525050600582111561116d577f00000000000000000000000000000000000000000000000000000000000000008160058151811061123357fe5b602002602001018181525050600682111561116d577f00000000000000000000000000000000000000000000000000000000000000008160068151811061127657fe5b602002602001018181525050600782111561116d577f0000000000000000000000000000000000000000000000000000000000000000816007815181106112b957fe5b602002602001018181525050600882111561116d577f0000000000000000000000000000000000000000000000000000000000000000816008815181106112fc57fe5b602002602001018181525050600982111561116d577f00000000000000000000000000000000000000000000000000000000000000008160098151811061133f57fe5b602002602001018181525050600a82111561116d577f000000000000000000000000000000000000000000000000000000000000000081600a8151811061138257fe5b602002602001018181525050600b82111561116d577f000000000000000000000000000000000000000000000000000000000000000081600b815181106113c557fe5b602002602001018181525050600c82111561116d577f000000000000000000000000000000000000000000000000000000000000000081600c8151811061140857fe5b602002602001018181525050600d82111561116d577f000000000000000000000000000000000000000000000000000000000000000081600d8151811061144b57fe5b602002602001018181525050600e82111561116d577f000000000000000000000000000000000000000000000000000000000000000081600e8151811061148e57fe5b602002602001018181525050600f82111561116d577f000000000000000000000000000000000000000000000000000000000000000081600f815181106114d157fe5b602002602001018181525050601082111561116d577f00000000000000000000000000000000000000000000000000000000000000008160108151811061151457fe5b602002602001018181525050601182111561116d577f00000000000000000000000000000000000000000000000000000000000000008160118151811061155757fe5b602002602001018181525050601282111561116d577f00000000000000000000000000000000000000000000000000000000000000008160128151811061159a57fe5b602002602001018181525050601382111561116d577f0000000000000000000000000000000000000000000000000000000000000000816013815181106115dd57fe5b60200260200101818152505091505090565b8161069e5761069e81612f44565b6116146001600160a01b03841615156101986115ef565b61162b6001600160a01b03831615156101996115ef565b611636838383611a75565b6001600160a01b03831660009081526020819052604090205461165c90826101a0612fb1565b6001600160a01b03808516600090815260208190526040808220939093559084168152205461168b9082610e69565b6001600160a01b0380841660008181526020819052604090819020939093559151908516907fddf252ad1be2c89b69c2b068fc378daa952ba7f163c4a11628f55a4df523b3ef90610f09908590615dee565b60007f00000000000000000000000000000000000000000000000000000000000000007f00000000000000000000000000000000000000000000000000000000000000007f000000000000000000000000000000000000000000000000000000000000000061174a612fc7565b3060405160200161175f959493929190615e4a565b60405160208183030381529060405280519060200120905090565b61178d611785610ff8565b6101926115ef565b565b6117a264e8d4a5100082101560cb6115ef565b6117b867016345785d8a000082111560ca6115ef565b6008546117c7908260c0610e82565b6008556040517fa9ba3ffe0b6c366b81232caab38605a0699ad5398d6cce76f91ee809e322dafc90610fed908390615dee565b6000611804610625565b9050600061181061088e565b6001600160a01b031663b05f8e4883866040518363ffffffff1660e01b815260040161183d929190615e8f565b60806040518083038186803b15801561185557600080fd5b505afa158015611869573d6000803e3d6000fd5b505050506040513d601f19601f8201168201806040525081019061188d9190615c44565b6040517f18e736d40000000000000000000000000000000000000000000000000000000081529094506001600160a01b03851693506318e736d492506118da915085908790600401615e76565b600060405180830381600087803b1580156118f457600080fd5b505af1158015611908573d6000803e3d6000fd5b5050505050505050565b1c67ffffffffffffffff1690565b7f000000000000000000000000000000000000000000000000000000000000000090565b6000606080606060006119556126d7565b91509150611961610ff8565b15611999576000611972838c61270b565b90506119848b8484600954858e612fcb565b93506119938b85610e9861307c565b506119e5565b6119a1611920565b67ffffffffffffffff811180156119b757600080fd5b506040519080825280602002602001820160405280156119e1578160200160208202803683370190505b5092505b6119f18a8389896130e7565b9095509350611a018a8584613175565b6009555050985098509895505050505050565b60005b611a1f611920565b811015611a7557611a56838281518110611a3557fe5b6020026020010151838381518110611a4957fe5b6020026020010151611c2e565b838281518110611a6257fe5b6020908102919091010152600101611a17565b505050565b333014611b69576000306001600160a01b0316600036604051611a9e929190615d39565b6000604051808303816000865af19150503d8060008114611adb576040519150601f19603f3d011682016040523d82523d6000602084013e611ae0565b606091505b505090508060008114611aef57fe5b60046000803e6000517fffffffff00000000000000000000000000000000000000000000000000000000167f43adbafb000000000000000000000000000000000000000000000000000000008114611b4b573d6000803e3d6000fd5b506020600460003e604060205260243d03602460403e601c3d016000f35b6060611b7361105d565b9050611b7f8782611c7f565b60006060611b978c8c8c8c8c8c898d8d63ffffffff16565b5091509150611baa81848663ffffffff16565b8051601f1982018390526343adbafb7fffffffffffffffffffffffffffffffffffffffffffffffffffffffffffffffc08301526020027fffffffffffffffffffffffffffffffffffffffffffffffffffffffffffffffdc82016044820181fd5b6000828202610e7b841580611c27575083858381611c2457fe5b04145b60036115ef565b6000611c3d82151560046115ef565b82611c4a5750600061052d565b670de0b6b3a764000083810290611c6d90858381611c6457fe5b041460056115ef565b828181611c7657fe5b0491505061052d565b60005b611c8a611920565b811015611a7557611cc1838281518110611ca057fe5b6020026020010151838381518110611cb457fe5b602002602001015161318e565b838281518110611ccd57fe5b6020908102919091010152600101611c82565b61069e82826131ba565b6000606080611cf761177a565b60606000611d036126d7565b915091506000611d13838c61270b565b90506060611d278c8585600954868f612fcb565b9050611d368c82610e9861307c565b60006060611d468e878d8d613276565b91509150611d558e82886132ef565b60095590975095509350505050985098509895505050505050565b60005b611d7b611920565b811015611a7557611db2838281518110611d9157fe5b6020026020010151838381518110611da557fe5b60200260200101516132fe565b838281518110611dbe57fe5b6020908102919091010152600101611d73565b60007f00000000000000000000000000000000000000000000000000000000000000006001600160a01b0316826001600160a01b03161415611e3457507f000000000000000000000000000000000000000000000000000000000000000061072f565b7f00000000000000000000000000000000000000000000000000000000000000006001600160a01b0316826001600160a01b03161415611e9557507f000000000000000000000000000000000000000000000000000000000000000061072f565b7f00000000000000000000000000000000000000000000000000000000000000006001600160a01b0316826001600160a01b03161415611ef657507f000000000000000000000000000000000000000000000000000000000000000061072f565b7f00000000000000000000000000000000000000000000000000000000000000006001600160a01b0316826001600160a01b03161415611f5757507f000000000000000000000000000000000000000000000000000000000000000061072f565b7f00000000000000000000000000000000000000000000000000000000000000006001600160a01b0316826001600160a01b03161415611fb857507f000000000000000000000000000000000000000000000000000000000000000061072f565b7f00000000000000000000000000000000000000000000000000000000000000006001600160a01b0316826001600160a01b0316141561201957507f000000000000000000000000000000000000000000000000000000000000000061072f565b7f00000000000000000000000000000000000000000000000000000000000000006001600160a01b0316826001600160a01b0316141561207a57507f000000000000000000000000000000000000000000000000000000000000000061072f565b7f00000000000000000000000000000000000000000000000000000000000000006001600160a01b0316826001600160a01b031614156120db57507f000000000000000000000000000000000000000000000000000000000000000061072f565b7f00000000000000000000000000000000000000000000000000000000000000006001600160a01b0316826001600160a01b0316141561213c57507f000000000000000000000000000000000000000000000000000000000000000061072f565b7f00000000000000000000000000000000000000000000000000000000000000006001600160a01b0316826001600160a01b0316141561219d57507f000000000000000000000000000000000000000000000000000000000000000061072f565b7f00000000000000000000000000000000000000000000000000000000000000006001600160a01b0316826001600160a01b031614156121fe57507f000000000000000000000000000000000000000000000000000000000000000061072f565b7f00000000000000000000000000000000000000000000000000000000000000006001600160a01b0316826001600160a01b0316141561225f57507f000000000000000000000000000000000000000000000000000000000000000061072f565b7f00000000000000000000000000000000000000000000000000000000000000006001600160a01b0316826001600160a01b031614156122c057507f000000000000000000000000000000000000000000000000000000000000000061072f565b7f00000000000000000000000000000000000000000000000000000000000000006001600160a01b0316826001600160a01b0316141561232157507f000000000000000000000000000000000000000000000000000000000000000061072f565b7f00000000000000000000000000000000000000000000000000000000000000006001600160a01b0316826001600160a01b0316141561238257507f000000000000000000000000000000000000000000000000000000000000000061072f565b7f00000000000000000000000000000000000000000000000000000000000000006001600160a01b0316826001600160a01b031614156123e357507f000000000000000000000000000000000000000000000000000000000000000061072f565b7f00000000000000000000000000000000000000000000000000000000000000006001600160a01b0316826001600160a01b0316141561244457507f000000000000000000000000000000000000000000000000000000000000000061072f565b7f00000000000000000000000000000000000000000000000000000000000000006001600160a01b0316826001600160a01b031614156124a557507f000000000000000000000000000000000000000000000000000000000000000061072f565b7f00000000000000000000000000000000000000000000000000000000000000006001600160a01b0316826001600160a01b0316141561250657507f000000000000000000000000000000000000000000000000000000000000000061072f565b7f00000000000000000000000000000000000000000000000000000000000000006001600160a01b0316826001600160a01b0316141561256757507f000000000000000000000000000000000000000000000000000000000000000061072f565b61072f610135612f44565b6000806125876125806106a2565b849061334c565b9050610e7b8382610e98565b6000610e7b838361318e565b61069e6125ab83613388565b8261069e565b60006125bb61177a565b6125e4836125cc866020015161338e565b846125da886040015161338e565b8860600151613b24565b949350505050565b6000610e7b8383611c2e565b600061260261177a565b6125e483612613866020015161338e565b84612621886040015161338e565b8860600151613ba1565b6000610e7b83836132fe565b600061052d6126566126476106a2565b670de0b6b3a764000090610e98565b83906132fe565b600061266761088e565b6001600160a01b031663aaabadc56040518163ffffffff1660e01b815260040160206040518083038186803b15801561269f57600080fd5b505afa1580156126b3573d6000803e3d6000fd5b505050506040513d601f19601f8201168201806040525081019061058091906159bb565b606060006126e3612870565b927f000000000000000000000000000000000000000000000000000000000000000092509050565b670de0b6b3a764000060005b835181101561276d5761276361275c85838151811061273257fe5b602002602001015185848151811061274657fe5b6020026020010151613c1790919063ffffffff16565b839061318e565b9150600101612717565b5061052d600082116101376115ef565b60006127876116dd565b82604051602001610827929190615d49565b600060606127a561177a565b60006127b084613cc8565b90506127cb60008260038111156127c357fe5b1460ce6115ef565b60606127d685613cde565b90506127ea6127e3611920565b8251610e5c565b6127f48187611c7f565b60606127fe6126d7565b509050600061280d828461270b565b9050600061281d8261070a611920565b600992909255509a91995090975050505050505050565b620f424090565b61069e8282613cf4565b6001600160a01b03918216600090815260016020908152604080832093909416825291909152205490565b6060600061287c611920565b905060608167ffffffffffffffff8111801561289757600080fd5b506040519080825280602002602001820160405280156128c1578160200160208202803683370190505b5090507f0000000000000000000000000000000000000000000000000000000000000000816000815181106128f257fe5b6020026020010181815250507f00000000000000000000000000000000000000000000000000000000000000008160018151811061292c57fe5b602002602001018181525050600282111561116d577f00000000000000000000000000000000000000000000000000000000000000008160028151811061296f57fe5b602002602001018181525050600382111561116d577f0000000000000000000000000000000000000000000000000000000000000000816003815181106129b257fe5b602002602001018181525050600482111561116d577f0000000000000000000000000000000000000000000000000000000000000000816004815181106129f557fe5b602002602001018181525050600582111561116d577f000000000000000000000000000000000000000000000000000000000000000081600581518110612a3857fe5b602002602001018181525050600682111561116d577f000000000000000000000000000000000000000000000000000000000000000081600681518110612a7b57fe5b602002602001018181525050600782111561116d577f000000000000000000000000000000000000000000000000000000000000000081600781518110612abe57fe5b602002602001018181525050600882111561116d577f000000000000000000000000000000000000000000000000000000000000000081600881518110612b0157fe5b602002602001018181525050600982111561116d577f000000000000000000000000000000000000000000000000000000000000000081600981518110612b4457fe5b602002602001018181525050600a82111561116d577f000000000000000000000000000000000000000000000000000000000000000081600a81518110612b8757fe5b602002602001018181525050600b82111561116d577f000000000000000000000000000000000000000000000000000000000000000081600b81518110612bca57fe5b602002602001018181525050600c82111561116d577f000000000000000000000000000000000000000000000000000000000000000081600c81518110612c0d57fe5b602002602001018181525050600d82111561116d577f000000000000000000000000000000000000000000000000000000000000000081600d81518110612c5057fe5b602002602001018181525050600e82111561116d577f000000000000000000000000000000000000000000000000000000000000000081600e81518110612c9357fe5b602002602001018181525050600f82111561116d577f000000000000000000000000000000000000000000000000000000000000000081600f81518110612cd657fe5b602002602001018181525050601082111561116d577f000000000000000000000000000000000000000000000000000000000000000081601081518110612d1957fe5b602002602001018181525050601182111561116d577f000000000000000000000000000000000000000000000000000000000000000081601181518110612d5c57fe5b602002602001018181525050601282111561116d577f000000000000000000000000000000000000000000000000000000000000000081601281518110612d9f57fe5b602002602001018181525050601382111561116d577f0000000000000000000000000000000000000000000000000000000000000000816013815181106115dd57fe5b600281511015612df157610544565b600081600081518110612e0057fe5b602002602001015190506000600190505b8251811015611a75576000838281518110612e2857fe5b60200260200101519050612e51816001600160a01b0316846001600160a01b03161060656115ef565b9150600101612e11565b600073ba1ba1ba1ba1ba1ba1ba1ba1ba1ba1ba1ba1ba1b612e7a61086a565b6001600160a01b031614158015612e955750612e9583613d82565b15612ebd57612ea261086a565b6001600160a01b0316336001600160a01b031614905061052d565b612ec561265d565b6001600160a01b0316639be2a8848484306040518463ffffffff1660e01b8152600401612ef493929190615df7565b60206040518083038186803b158015612f0c57600080fd5b505afa158015612f20573d6000803e3d6000fd5b505050506040513d601f19601f82011682018060405250810190610e419190615862565b7f08c379a0000000000000000000000000000000000000000000000000000000006000908152602060045260076024526642414c23000030600a808404818106603090810160081b95839006959095019082900491820690940160101b939093010160c81b604452606490fd5b6000612fc084841115836115ef565b5050900390565b4690565b606080612fd6611920565b67ffffffffffffffff81118015612fec57600080fd5b50604051908082528060200260200182016040528015613016578160200160208202803683370190505b50905082613025579050613072565b61305888878151811061303457fe5b602002602001015188888151811061304857fe5b6020026020010151878787613de6565b81878151811061306457fe5b602090810291909101015290505b9695505050505050565b60005b613087611920565b8110156130e1576130c284828151811061309d57fe5b60200260200101518483815181106130b157fe5b60200260200101518463ffffffff16565b8482815181106130ce57fe5b602090810291909101015260010161307f565b50505050565b6000606060006130f684613cc8565b9050600081600381111561310657fe5b141561312157613117878786613e5e565b925092505061316c565b600181600381111561312f57fe5b141561313f576131178785613f55565b600281600381111561314d57fe5b141561315f5761311787878787613f87565b61316a610150612f44565b505b94509492505050565b60006131848484610e9861307c565b6125e4828561270b565b60008282026131a8841580611c27575083858381611c2457fe5b670de0b6b3a764000090049392505050565b6131d16001600160a01b038316151561019b6115ef565b6131dd82600083611a75565b6001600160a01b03821660009081526020819052604090205461320390826101a1612fb1565b6001600160a01b0383166000908152602081905260409020556002546132299082614004565b6002556040516000906001600160a01b038416907fddf252ad1be2c89b69c2b068fc378daa952ba7f163c4a11628f55a4df523b3ef9061326a908590615dee565b60405180910390a35050565b60006060600061328584613cc8565b9050600181600381111561329557fe5b14156132a75761311787878787614012565b60028160038111156132b557fe5b14156132c65761311787878661407c565b60038160038111156132d457fe5b14156132e45761311787856140df565b61316a610136612f44565b60006131848484610e6961307c565b600061330d82151560046115ef565b8261331a5750600061052d565b670de0b6b3a76400008381029061333490858381611c6457fe5b82600182038161334057fe5b0460010191505061052d565b6000828202613366841580611c27575083858381611c2457fe5b8061337557600091505061052d565b670de0b6b3a76400006000198201613340565b50600090565b60007f00000000000000000000000000000000000000000000000000000000000000006001600160a01b0316826001600160a01b031614156133f157507f000000000000000000000000000000000000000000000000000000000000000061072f565b7f00000000000000000000000000000000000000000000000000000000000000006001600160a01b0316826001600160a01b0316141561345257507f000000000000000000000000000000000000000000000000000000000000000061072f565b7f00000000000000000000000000000000000000000000000000000000000000006001600160a01b0316826001600160a01b031614156134b357507f000000000000000000000000000000000000000000000000000000000000000061072f565b7f00000000000000000000000000000000000000000000000000000000000000006001600160a01b0316826001600160a01b0316141561351457507f000000000000000000000000000000000000000000000000000000000000000061072f565b7f00000000000000000000000000000000000000000000000000000000000000006001600160a01b0316826001600160a01b0316141561357557507f000000000000000000000000000000000000000000000000000000000000000061072f565b7f00000000000000000000000000000000000000000000000000000000000000006001600160a01b0316826001600160a01b031614156135d657507f000000000000000000000000000000000000000000000000000000000000000061072f565b7f00000000000000000000000000000000000000000000000000000000000000006001600160a01b0316826001600160a01b0316141561363757507f000000000000000000000000000000000000000000000000000000000000000061072f565b7f00000000000000000000000000000000000000000000000000000000000000006001600160a01b0316826001600160a01b0316141561369857507f000000000000000000000000000000000000000000000000000000000000000061072f565b7f00000000000000000000000000000000000000000000000000000000000000006001600160a01b0316826001600160a01b031614156136f957507f000000000000000000000000000000000000000000000000000000000000000061072f565b7f00000000000000000000000000000000000000000000000000000000000000006001600160a01b0316826001600160a01b0316141561375a57507f000000000000000000000000000000000000000000000000000000000000000061072f565b7f00000000000000000000000000000000000000000000000000000000000000006001600160a01b0316826001600160a01b031614156137bb57507f000000000000000000000000000000000000000000000000000000000000000061072f565b7f00000000000000000000000000000000000000000000000000000000000000006001600160a01b0316826001600160a01b0316141561381c57507f000000000000000000000000000000000000000000000000000000000000000061072f565b7f00000000000000000000000000000000000000000000000000000000000000006001600160a01b0316826001600160a01b0316141561387d57507f000000000000000000000000000000000000000000000000000000000000000061072f565b7f00000000000000000000000000000000000000000000000000000000000000006001600160a01b0316826001600160a01b031614156138de57507f000000000000000000000000000000000000000000000000000000000000000061072f565b7f00000000000000000000000000000000000000000000000000000000000000006001600160a01b0316826001600160a01b0316141561393f57507f000000000000000000000000000000000000000000000000000000000000000061072f565b7f00000000000000000000000000000000000000000000000000000000000000006001600160a01b0316826001600160a01b031614156139a057507f000000000000000000000000000000000000000000000000000000000000000061072f565b7f00000000000000000000000000000000000000000000000000000000000000006001600160a01b0316826001600160a01b03161415613a0157507f000000000000000000000000000000000000000000000000000000000000000061072f565b7f00000000000000000000000000000000000000000000000000000000000000006001600160a01b0316826001600160a01b03161415613a6257507f000000000000000000000000000000000000000000000000000000000000000061072f565b7f00000000000000000000000000000000000000000000000000000000000000006001600160a01b0316826001600160a01b03161415613ac357507f000000000000000000000000000000000000000000000000000000000000000061072f565b7f00000000000000000000000000000000000000000000000000000000000000006001600160a01b0316826001600160a01b0316141561256757507f000000000000000000000000000000000000000000000000000000000000000061072f565b6000613b46613b3b87670429d069189e000061318e565b8311156101306115ef565b6000613b528784610e69565b90506000613b6088836132fe565b90506000613b6e8887611c2e565b90506000613b7c8383614104565b9050613b91613b8a8261418a565b899061318e565b9450505050505b95945050505050565b6000613bc3613bb885670429d069189e000061318e565b8311156101316115ef565b6000613bd9613bd28685610e98565b86906132fe565b90506000613be785886132fe565b90506000613bf58383614104565b90506000613c0b82670de0b6b3a7640000610e98565b9050613b918a8261334c565b6000670de0b6b3a7640000821415613c3057508161052d565b671bc16d674ec80000821415613c4a57610e41838461318e565b673782dace9d900000821415613c7a576000613c66848561318e565b9050613c72818261318e565b91505061052d565b6000613c8684846141b0565b90506000613ca0613c998361271061334c565b6001610e69565b905080821015613cb55760009250505061052d565b613cbf8282610e98565b9250505061052d565b60008180602001905181019061052d9190615a25565b606081806020019051810190610e7b9190615aeb565b613d0060008383611a75565b600254613d0d9082610e69565b6002556001600160a01b038216600090815260208190526040902054613d339082610e69565b6001600160a01b0383166000818152602081905260408082209390935591519091907fddf252ad1be2c89b69c2b068fc378daa952ba7f163c4a11628f55a4df523b3ef9061326a908590615dee565b6000613dad7f38e9922e000000000000000000000000000000000000000000000000000000006107f2565b82148061052d5750613dde7f50dd6ed9000000000000000000000000000000000000000000000000000000006107f2565b909114919050565b6000838311613df757506000613b98565b6000613e0385856132fe565b90506000613e19670de0b6b3a764000088611c2e565b9050613e2d826709b6e64a8ec600006142e3565b91506000613e3b8383614104565b90506000613e52613e4b8361418a565b8b9061318e565b9050613b91818761318e565b60006060613e6a61177a565b600080613e76856142fa565b91509150613e8e613e85611920565b821060646115ef565b600080613ed2898481518110613ea057fe5b6020026020010151898581518110613eb457fe5b602002602001015186613ec5610547565b613ecd6106a2565b61431c565b91509150613ee0838261069e565b6060613eea611920565b67ffffffffffffffff81118015613f0057600080fd5b50604051908082528060200260200182016040528015613f2a578160200160208202803683370190505b50905082818581518110613f3a57fe5b60209081029190910101529399939850929650505050505050565b600060606000613f64846143d8565b90506060613f7a8683613f75610547565b6143ee565b9196919550909350505050565b60006060613f9361177a565b60606000613fa0856144a0565b91509150613fb182516106c4611920565b613fbb8287611c7f565b60006060613fda8a8a86613fcd610547565b613fd56106a2565b6144b8565b91509150613fec8383111560cf6115ef565b613ff581614602565b50989197509095505050505050565b6000610e7b83836001612fb1565b60006060806000614022856144a0565b91509150614038614031611920565b8351610e5c565b6140428287611c7f565b600060606140618a8a86614054610547565b61405c6106a2565b614646565b9150915061406e81614602565b613ff58383101560d06115ef565b6000606060008061408c856142fa565b9150915061409b613e85611920565b600080613ed28984815181106140ad57fe5b60200260200101518985815181106140c157fe5b6020026020010151866140d2610547565b6140da6106a2565b614780565b6000606060006140ee846143d8565b90506060613f7a86836140ff610547565b61484f565b6000670de0b6b3a764000082141561411d57508161052d565b671bc16d674ec8000082141561413757610e41838461334c565b673782dace9d90000082141561415f576000614153848561334c565b9050613c72818261334c565b600061416b84846141b0565b9050600061417e613c998361271061334c565b9050613cbf8282610e69565b6000670de0b6b3a764000082106141a257600061052d565b50670de0b6b3a76400000390565b6000816141c65750670de0b6b3a764000061052d565b826141d35750600061052d565b6142007f8000000000000000000000000000000000000000000000000000000000000000841060066115ef565b82614226770bce5086492111aea88f4bb1ca6bcf584181ea8059f76532841060076115ef565b826000670c7d713b49da0000831380156142475750670f43fc2c04ee000083125b1561427e576000614257846148e1565b9050670de0b6b3a764000080820784020583670de0b6b3a76400008305020191505061428c565b8161428884614a18565b0290505b670de0b6b3a764000090056142da7ffffffffffffffffffffffffffffffffffffffffffffffffdc702bd3a30fc000082128015906142d3575068070c1cc73b00c800008213155b60086115ef565b61307281614db8565b6000818310156142f35781610e7b565b5090919050565b600080828060200190518101906143119190615ab5565b909590945092505050565b600080806143348561432e8189610e98565b906132fe565b905061434d6709b6e64a8ec600008210156101326115ef565b600061436b614364670de0b6b3a76400008a611c2e565b8390614104565b9050600061437b613e4b8361418a565b905060006143888a61418a565b90506000614396838361334c565b905060006143a48483610e98565b90506143b0828a61334c565b96506143c66143bf8389610e98565b8290610e69565b97505050505050509550959350505050565b600081806020019051810190610e7b9190615a88565b606060006143fc8484611c2e565b90506060855167ffffffffffffffff8111801561441857600080fd5b50604051908082528060200260200182016040528015614442578160200160208202803683370190505b50905060005b8651811015614496576144778388838151811061446157fe5b602002602001015161318e90919063ffffffff16565b82828151811061448357fe5b6020908102919091010152600101614448565b5095945050505050565b60606000828060200190518101906143119190615a41565b6000606080855167ffffffffffffffff811180156144d557600080fd5b506040519080825280602002602001820160405280156144ff578160200160208202803683370190505b5090506000805b89518110156145c45761455f8a828151811061451e57fe5b602002602001015161432e8a848151811061453557fe5b60200260200101518d858151811061454957fe5b6020026020010151610e9890919063ffffffff16565b83828151811061456b57fe5b6020026020010181815250506145ba6145b38a838151811061458957fe5b602002602001015185848151811061459d57fe5b602002602001015161334c90919063ffffffff16565b8390610e69565b9150600101614506565b50600060606145d78b8b8b87878c615288565b9150915060006145f06145e98461418a565b8a9061334c565b9c919b50909950505050505050505050565b61460f81516106c4611920565b60005b61461a611920565b81101561069e5761463e8183838151811061463157fe5b602002602001015161069e565b600101614612565b6000606080855167ffffffffffffffff8111801561466357600080fd5b5060405190808252806020026020018201604052801561468d578160200160208202803683370190505b5090506000805b8951811015614735576146ed8a82815181106146ac57fe5b602002602001015161070f8a84815181106146c357fe5b60200260200101518d85815181106146d757fe5b6020026020010151610e6990919063ffffffff16565b8382815181106146f957fe5b60200260200101818152505061472b6145b38a838151811061471757fe5b602002602001015185848151811061446157fe5b9150600101614694565b50600060606147488b8b8b87878c615406565b915091506000670de0b6b3a764000083116147645760006145f0565b6145f061477984670de0b6b3a7640000610e98565b8a9061318e565b600080806147928561432e8189610e69565b90506147ab6729a2241af62c00008211156101336115ef565b60006147c2614364670de0b6b3a76400008a6132fe565b905060006147e26147db83670de0b6b3a7640000610e98565b8b9061334c565b905060006147ef8a61418a565b905060006147fd838361334c565b9050600061480b8483610e98565b9050600061482b614824670de0b6b3a76400008c610e98565b84906132fe565b8381039850905061483c8282610e69565b9850505050505050509550959350505050565b6060600061485d84846132fe565b90506060855167ffffffffffffffff8111801561487957600080fd5b506040519080825280602002602001820160405280156148a3578160200160208202803683370190505b50905060005b8651811015614496576148c28388838151811061459d57fe5b8282815181106148ce57fe5b60209081029190910101526001016148a9565b670de0b6b3a7640000026000806ec097ce7bc90715b34b9f1000000000808401907fffffffffffffffffffffffffffffffffff3f68318436f8ea4cb460f0000000008501028161492d57fe5b05905060006ec097ce7bc90715b34b9f100000000082800205905081806ec097ce7bc90715b34b9f100000000081840205915060038205016ec097ce7bc90715b34b9f100000000082840205915060058205016ec097ce7bc90715b34b9f100000000082840205915060078205016ec097ce7bc90715b34b9f100000000082840205915060098205016ec097ce7bc90715b34b9f1000000000828402059150600b8205016ec097ce7bc90715b34b9f1000000000828402059150600d8205016ec097ce7bc90715b34b9f1000000000828402059150600f826002919005919091010295945050505050565b6000670de0b6b3a7640000821215614a5557614a4b826ec097ce7bc90715b34b9f100000000081614a4557fe5b05614a18565b600003905061072f565b60007e1600ef3172e58d2e933ec884fde10064c63b5372d805e203c00000000000008312614aa657770195e54c5dd42177f53a27172fa9ec630262827000000000830592506806f05b59d3b2000000015b73011798004d755d3c8bc8e03204cf44619e0000008312614ade576b1425982cf597cd205cef7380830592506803782dace9d9000000015b606492830292026e01855144814a7ff805980ff00840008312614b26576e01855144814a7ff805980ff008400068056bc75e2d63100000840205925068ad78ebc5ac62000000015b6b02df0ab5a80a22c61ab5a7008312614b61576b02df0ab5a80a22c61ab5a70068056bc75e2d6310000084020592506856bc75e2d631000000015b693f1fce3da636ea5cf8508312614b9857693f1fce3da636ea5cf85068056bc75e2d631000008402059250682b5e3af16b18800000015b690127fa27722cc06cc5e28312614bcf57690127fa27722cc06cc5e268056bc75e2d6310000084020592506815af1d78b58c400000015b68280e60114edb805d038312614c045768280e60114edb805d0368056bc75e2d631000008402059250680ad78ebc5ac6200000015b680ebc5fb417461211108312614c2f57680ebc5fb4174612111068056bc75e2d631000009384020592015b6808f00f760a4b2db55d8312614c64576808f00f760a4b2db55d68056bc75e2d6310000084020592506802b5e3af16b1880000015b6806f5f17757889379378312614c99576806f5f177578893793768056bc75e2d63100000840205925068015af1d78b58c40000015b6806248f33704b2866038312614ccd576806248f33704b28660368056bc75e2d63100000840205925067ad78ebc5ac620000015b6805c548670b9510e7ac8312614d01576805c548670b9510e7ac68056bc75e2d6310000084020592506756bc75e2d6310000015b600068056bc75e2d63100000840168056bc75e2d631000008086030281614d2457fe5b059050600068056bc75e2d63100000828002059050818068056bc75e2d63100000818402059150600382050168056bc75e2d63100000828402059150600582050168056bc75e2d63100000828402059150600782050168056bc75e2d63100000828402059150600982050168056bc75e2d63100000828402059150600b820501600202606485820105979650505050505050565b6000614dfd7ffffffffffffffffffffffffffffffffffffffffffffffffdc702bd3a30fc00008312158015614df6575068070c1cc73b00c800008313155b60096115ef565b6000821215614e3157614e1282600003614db8565b6ec097ce7bc90715b34b9f100000000081614e2957fe5b05905061072f565b60006806f05b59d3b20000008312614e8757507ffffffffffffffffffffffffffffffffffffffffffffffff90fa4a62c4e00000090910190770195e54c5dd42177f53a27172fa9ec630262827000000000614ed3565b6803782dace9d90000008312614ecf57507ffffffffffffffffffffffffffffffffffffffffffffffffc87d2531627000000909101906b1425982cf597cd205cef7380614ed3565b5060015b6064929092029168056bc75e2d6310000068ad78ebc5ac620000008412614f39577fffffffffffffffffffffffffffffffffffffffffffffff5287143a539e0000009093019268056bc75e2d631000006e01855144814a7ff805980ff008400082020590505b6856bc75e2d6310000008412614f8b577fffffffffffffffffffffffffffffffffffffffffffffffa9438a1d29cf0000009093019268056bc75e2d631000006b02df0ab5a80a22c61ab5a70082020590505b682b5e3af16b188000008412614fdb577fffffffffffffffffffffffffffffffffffffffffffffffd4a1c50e94e78000009093019268056bc75e2d63100000693f1fce3da636ea5cf85082020590505b6815af1d78b58c400000841261502b577fffffffffffffffffffffffffffffffffffffffffffffffea50e2874a73c000009093019268056bc75e2d63100000690127fa27722cc06cc5e282020590505b680ad78ebc5ac6200000841261507a577ffffffffffffffffffffffffffffffffffffffffffffffff5287143a539e000009093019268056bc75e2d6310000068280e60114edb805d0382020590505b68056bc75e2d6310000084126150c9577ffffffffffffffffffffffffffffffffffffffffffffffffa9438a1d29cf000009093019268056bc75e2d63100000680ebc5fb4174612111082020590505b6802b5e3af16b18800008412615118577ffffffffffffffffffffffffffffffffffffffffffffffffd4a1c50e94e7800009093019268056bc75e2d631000006808f00f760a4b2db55d82020590505b68015af1d78b58c400008412615167577ffffffffffffffffffffffffffffffffffffffffffffffffea50e2874a73c00009093019268056bc75e2d631000006806f5f177578893793782020590505b68056bc75e2d631000008481019085906002908280020505918201919050600368056bc75e2d631000008783020505918201919050600468056bc75e2d631000008783020505918201919050600568056bc75e2d631000008783020505918201919050600668056bc75e2d631000008783020505918201919050600768056bc75e2d631000008783020505918201919050600868056bc75e2d631000008783020505918201919050600968056bc75e2d631000008783020505918201919050600a68056bc75e2d631000008783020505918201919050600b68056bc75e2d631000008783020505918201919050600c68056bc75e2d631000008783020505918201919050606468056bc75e2d63100000848402058502059695505050505050565b60006060855167ffffffffffffffff811180156152a457600080fd5b506040519080825280602002602001820160405280156152ce578160200160208202803683370190505b509050670de0b6b3a7640000915060005b88518110156153fa5760008682815181106152f657fe5b602002602001015186111561537c57600061531f6153138861418a565b8c858151811061446157fe5b90506000615333828b868151811061454957fe5b9050600061534c612656670de0b6b3a76400008a610e98565b905081810386868151811061535d57fe5b60209081029190910101526153728382610e69565b9350505050615393565b87828151811061538857fe5b602002602001015190505b60006153bc8b84815181106153a457fe5b602002602001015161070f848e878151811061454957fe5b90506153ee6153e78b85815181106153d057fe5b602002602001015183613c1790919063ffffffff16565b869061318e565b945050506001016152df565b50965096945050505050565b60006060855167ffffffffffffffff8111801561542257600080fd5b5060405190808252806020026020018201604052801561544c578160200160208202803683370190505b509050670de0b6b3a7640000915060005b88518110156153fa5760008587838151811061547557fe5b602002602001015111156154f557600061549a61531388670de0b6b3a7640000610e98565b905060006154ae828b868151811061454957fe5b905060006154bc828961334c565b90506154d26154cb8383610e98565b8490610e69565b9350808686815181106154e157fe5b60200260200101818152505050505061550c565b87828151811061550157fe5b602002602001015190505b60006155358b848151811061551d57fe5b602002602001015161070f848e87815181106146d757fe5b90506155496153e78b85815181106153d057fe5b9450505060010161545d565b803561052d81615f45565b600082601f830112615570578081fd5b815161558361557e82615f25565b615efe565b8181529150602080830190848101818402860182018710156155a457600080fd5b60005b848110156155c3578151845292820192908201906001016155a7565b505050505092915050565b600082601f8301126155de578081fd5b813567ffffffffffffffff8111156155f4578182fd5b6156076020601f19601f84011601615efe565b915080825283602082850101111561561e57600080fd5b8060208401602084013760009082016020015292915050565b80356002811061052d57600080fd5b600060208284031215615657578081fd5b8135610e7b81615f45565b60008060408385031215615674578081fd5b823561567f81615f45565b9150602083013561568f81615f45565b809150509250929050565b6000806000606084860312156156ae578081fd5b83356156b981615f45565b925060208401356156c981615f45565b929592945050506040919091013590565b600080600080600080600060e0888a0312156156f4578283fd5b87356156ff81615f45565b9650602088013561570f81615f45565b95506040880135945060608801359350608088013560ff81168114615732578384fd5b9699959850939692959460a0840135945060c09093013592915050565b60008060408385031215615761578182fd5b823561576c81615f45565b946020939093013593505050565b60008060006060848603121561578e578081fd5b835167ffffffffffffffff808211156157a5578283fd5b818601915086601f8301126157b8578283fd5b81516157c661557e82615f25565b80828252602080830192508086018b8283870289010111156157e6578788fd5b8796505b848710156158115780516157fd81615f45565b8452600196909601959281019281016157ea565b508901519097509350505080821115615828578283fd5b5061583586828701615560565b925050604084015190509250925092565b600060208284031215615857578081fd5b8135610e7b81615f5a565b600060208284031215615873578081fd5b8151610e7b81615f5a565b600080600080600080600060e0888a031215615898578081fd5b873596506020808901356158ab81615f45565b965060408901356158bb81615f45565b9550606089013567ffffffffffffffff808211156158d7578384fd5b818b0191508b601f8301126158ea578384fd5b81356158f861557e82615f25565b8082825285820191508585018f878886028801011115615916578788fd5b8795505b8386101561593857803583526001959095019491860191860161591a565b509850505060808b0135955060a08b0135945060c08b013592508083111561595e578384fd5b505061596c8a828b016155ce565b91505092959891949750929550565b60006020828403121561598c578081fd5b81357fffffffff0000000000000000000000000000000000000000000000000000000081168114610e7b578182fd5b6000602082840312156159cc578081fd5b8151610e7b81615f45565b600080604083850312156159e9578182fd5b82356159f481615f45565b9150602083013567ffffffffffffffff811115615a0f578182fd5b615a1b858286016155ce565b9150509250929050565b600060208284031215615a36578081fd5b8151610e7b81615f68565b600080600060608486031215615a55578081fd5b8351615a6081615f68565b602085015190935067ffffffffffffffff811115615a7c578182fd5b61583586828701615560565b60008060408385031215615a9a578182fd5b8251615aa581615f68565b6020939093015192949293505050565b600080600060608486031215615ac9578081fd5b8351615ad481615f68565b602085015160409095015190969495509392505050565b60008060408385031215615afd578182fd5b8251615b0881615f68565b602084015190925067ffffffffffffffff811115615b24578182fd5b615a1b85828601615560565b600080600060608486031215615b44578081fd5b833567ffffffffffffffff80821115615b5b578283fd5b8186019150610120808389031215615b71578384fd5b615b7a81615efe565b9050615b868884615637565b8152615b958860208501615555565b6020820152615ba78860408501615555565b6040820152606083013560608201526080830135608082015260a083013560a0820152615bd78860c08501615555565b60c0820152615be98860e08501615555565b60e08201526101008084013583811115615c01578586fd5b615c0d8a8287016155ce565b9183019190915250976020870135975060409096013595945050505050565b600060208284031215615c3d578081fd5b5035919050565b60008060008060808587031215615c59578182fd5b8451935060208501519250604085015191506060850151615c7981615f45565b939692955090935050565b6000815180845260208085019450808401835b83811015615cb357815187529582019590820190600101615c97565b509495945050505050565b60008151808452815b81811015615ce357602081850181015186830182015201615cc7565b81811115615cf45782602083870101525b50601f01601f19169290920160200192915050565b9182527fffffffff0000000000000000000000000000000000000000000000000000000016602082015260240190565b6000828483379101908152919050565b7f190100000000000000000000000000000000000000000000000000000000000081526002810192909252602282015260420190565b6001600160a01b0391909116815260200190565b600060208252610e7b6020830184615c84565b600060408252615db96040830185615c84565b8281036020840152613b988185615c84565b901515815260200190565b92151583526020830191909152604082015260600190565b90815260200190565b9283526001600160a01b03918216602084015216604082015260600190565b9586526001600160a01b0394851660208701529290931660408501526060840152608083019190915260a082015260c00190565b9485526020850193909352604084019190915260608301526001600160a01b0316608082015260a00190565b6000838252604060208301526125e46040830184615cbe565b9182526001600160a01b0316602082015260400190565b93845260ff9290921660208401526040830152606082015260800190565b600060208252610e7b6020830184615cbe565b6000838252604060208301526125e46040830184615c84565b60ff91909116815260200190565b60405181810167ffffffffffffffff81118282101715615f1d57600080fd5b604052919050565b600067ffffffffffffffff821115615f3b578081fd5b5060209081020190565b6001600160a01b038116811461054457600080fd5b801515811461054457600080fd5b6004811061054457600080fdfea26469706673582212204433edf959b8cdcf3269e40bfe143dbe1f2b79b925710127259875a3e404597c64736f6c63430007010033",
  "linkReferences": {},
  "deployedLinkReferences": {}
}