{
  "_format": "hh-sol-artifact-1",
  "contractName": "WeightedPool2TokensFactory",
  "sourceName": "contracts/WeightedPool2TokensFactory.sol",
  "abi": [
    {
      "inputs": [
        {
          "internalType": "contract IVault",
          "name": "vault",
          "type": "address"
        }
      ],
      "stateMutability": "nonpayable",
      "type": "constructor"
    },
    {
      "anonymous": false,
      "inputs": [
        {
          "indexed": true,
          "internalType": "address",
          "name": "pool",
          "type": "address"
        }
      ],
      "name": "PoolCreated",
      "type": "event"
    },
    {
      "inputs": [
        {
          "internalType": "string",
          "name": "name",
          "type": "string"
        },
        {
          "internalType": "string",
          "name": "symbol",
          "type": "string"
        },
        {
          "internalType": "contract IERC20[]",
          "name": "tokens",
          "type": "address[]"
        },
        {
          "internalType": "uint256[]",
          "name": "weights",
          "type": "uint256[]"
        },
        {
          "internalType": "uint256",
          "name": "swapFeePercentage",
          "type": "uint256"
        },
        {
          "internalType": "bool",
          "name": "oracleEnabled",
          "type": "bool"
        },
        {
          "internalType": "address",
          "name": "owner",
          "type": "address"
        }
      ],
      "name": "create",
      "outputs": [
        {
          "internalType": "address",
          "name": "",
          "type": "address"
        }
      ],
      "stateMutability": "nonpayable",
      "type": "function"
    },
    {
      "inputs": [],
      "name": "getCreationCode",
      "outputs": [
        {
          "internalType": "bytes",
          "name": "",
          "type": "bytes"
        }
      ],
      "stateMutability": "view",
      "type": "function"
    },
    {
      "inputs": [],
      "name": "getCreationCodeContracts",
      "outputs": [
        {
          "internalType": "address",
          "name": "contractA",
          "type": "address"
        },
        {
          "internalType": "address",
          "name": "contractB",
          "type": "address"
        }
      ],
      "stateMutability": "view",
      "type": "function"
    },
    {
      "inputs": [],
      "name": "getPauseConfiguration",
      "outputs": [
        {
          "internalType": "uint256",
          "name": "pauseWindowDuration",
          "type": "uint256"
        },
        {
          "internalType": "uint256",
          "name": "bufferPeriodDuration",
          "type": "uint256"
        }
      ],
      "stateMutability": "view",
      "type": "function"
    },
    {
      "inputs": [],
      "name": "getVault",
      "outputs": [
        {
          "internalType": "contract IVault",
          "name": "",
          "type": "address"
        }
      ],
      "stateMutability": "view",
      "type": "function"
    },
    {
      "inputs": [
        {
          "internalType": "address",
          "name": "pool",
          "type": "address"
        }
      ],
      "name": "isPoolFromFactory",
      "outputs": [
        {
          "internalType": "bool",
          "name": "",
          "type": "bool"
        }
      ],
      "stateMutability": "view",
      "type": "function"
    }
  ],
  "bytecode": "0x61014060405234801561001157600080fd5b506040516200671e3803806200671e833981016040819052610032916101b2565b8060405180602001610043906101a4565b601f1982820381018352601f909101166040528051819060006002820460a081905280830360e081905281855290915083610088816100ed602090811b61032a17901c565b60601b6001600160601b03191660805282850180518382526100b4826100ed602090811b61032a17901c565b6001600160601b0319606091821b811660c0529690935290529590951b90911661010052505050426276a7000161012052506101e09050565b80517f602038038060206000396000f3fefefefefefefefefefefefefefefefefefefe808352600091602081018484f090845291506101396001600160a01b03831615156101ac61013f565b50919050565b8161014d5761014d81610151565b5050565b62461bcd60e51b6000908152602060045260076024526642414c23000030600a808404818106603090810160081b95839006959095019082900491820690940160101b939093010160c81b604452606490fd5b615a3f8062000cdf83390190565b6000602082840312156101c3578081fd5b81516001600160a01b03811681146101d9578182fd5b9392505050565b60805160601c60a05160c05160601c60e0516101005160601c61012051610a9d620002426000398061028452806102ad52508061030852508061038452508061025b52806104005250806103a552508061023a52806103dc5250610a9d6000f3fe608060405234801561001057600080fd5b50600436106100615760003560e01c8062c194db146100665780631596019b14610084578063174481fa146100a45780632da47c40146100ba5780636634b753146100d05780638d928af8146100f0575b600080fd5b61006e6100f8565b60405161007b9190610901565b60405180910390f35b610097610092366004610795565b610117565b60405161007b91906108c8565b6100ac610238565b60405161007b9291906108dc565b6100c261027e565b60405161007b9291906109fa565b6100e36100de366004610779565b6102e8565b60405161007b91906108f6565b610097610306565b60606101126040518060200160405280600081525061037c565b905090565b600080600061012461027e565b91509150610130610593565b604051806101800160405280610144610306565b6001600160a01b031681526020018c81526020018b81526020018a60008151811061016b57fe5b60200260200101516001600160a01b031681526020018a60018151811061018e57fe5b60200260200101516001600160a01b03168152602001896000815181106101b157fe5b60200260200101518152602001896001815181106101cb57fe5b602002602001015181526020018881526020018481526020018381526020018715158152602001866001600160a01b03168152509050610229816040516020016102159190610914565b604051602081830303815290604052610455565b9b9a5050505050505050505050565b7f00000000000000000000000000000000000000000000000000000000000000007f00000000000000000000000000000000000000000000000000000000000000009091565b600080427f00000000000000000000000000000000000000000000000000000000000000008110156102da57807f000000000000000000000000000000000000000000000000000000000000000003925062278d0091506102e3565b60009250600091505b509091565b6001600160a01b031660009081526020819052604090205460ff1690565b7f000000000000000000000000000000000000000000000000000000000000000090565b80517f602038038060206000396000f3fefefefefefefefefefefefefefefefefefefe808352600091602081018484f090845291506103766001600160a01b03831615156101ac6104b5565b50919050565b8051604080517f00000000000000000000000000000000000000000000000000000000000000007f0000000000000000000000000000000000000000000000000000000000000000818101858101848101602090810190965280855293957f00000000000000000000000000000000000000000000000000000000000000009592947f000000000000000000000000000000000000000000000000000000000000000094938801866000828a3c846000888301883c50602089810190898501016104478183866104c7565b505050505050505050919050565b60008061046183610505565b6001600160a01b038116600081815260208190526040808220805460ff191660011790555192935090917f83a48fbcfc991335314e74d0496aab6a1987e992ddc85dddbcc4d6dd6ef2e9fc9190a292915050565b816104c3576104c381610540565b5050565b5b602081106104e7578151835260209283019290910190601f19016104c8565b905182516020929092036101000a6000190180199091169116179052565b600060606105128361037c565b905060008151602083016000f090506001600160a01b038116610539573d6000803e3d6000fd5b9392505050565b62461bcd60e51b6000908152602060045260076024526642414c23000030600a808404818106603090810160081b95839006959095019082900491820690940160101b939093010160c81b604452606490fd5b60405180610180016040528060006001600160a01b03168152602001606081526020016060815260200160006001600160a01b0316815260200160006001600160a01b03168152602001600081526020016000815260200160008152602001600081526020016000815260200160001515815260200160006001600160a01b031681525090565b803561062581610a4f565b92915050565b600082601f83011261063b578081fd5b813561064e61064982610a2f565b610a08565b81815291506020808301908481018184028601820187101561066f57600080fd5b60005b8481101561069757813561068581610a4f565b84529282019290820190600101610672565b505050505092915050565b600082601f8301126106b2578081fd5b81356106c061064982610a2f565b8181529150602080830190848101818402860182018710156106e157600080fd5b60005b84811015610697578135845292820192908201906001016106e4565b8035801515811461062557600080fd5b600082601f830112610720578081fd5b813567ffffffffffffffff811115610736578182fd5b610749601f8201601f1916602001610a08565b915080825283602082850101111561076057600080fd5b8060208401602084013760009082016020015292915050565b60006020828403121561078a578081fd5b813561053981610a4f565b600080600080600080600060e0888a0312156107af578283fd5b873567ffffffffffffffff808211156107c6578485fd5b6107d28b838c01610710565b985060208a01359150808211156107e7578485fd5b6107f38b838c01610710565b975060408a0135915080821115610808578485fd5b6108148b838c0161062b565b965060608a0135915080821115610829578485fd5b506108368a828b016106a2565b9450506080880135925061084d8960a08a01610700565b915061085c8960c08a0161061a565b905092959891949750929550565b6001600160a01b03169052565b15159052565b60008151808452815b818110156108a257602081850181015186830182015201610886565b818111156108b35782602083870101525b50601f01601f19169290920160200192915050565b6001600160a01b0391909116815260200190565b6001600160a01b0392831681529116602082015260400190565b901515815260200190565b600060208252610539602083018461087d565b60006020825261092860208301845161086a565b60208301516101808060408501526109446101a085018361087d565b91506040850151601f19858403016060860152610961838261087d565b9250506060850151610976608086018261086a565b50608085015161098960a086018261086a565b5060a085015160c085015260c085015160e085015260e08501516101008181870152808701519150506101208181870152808701519150506101408181870152808701519150506101606109df81870183610877565b86015190506109f08583018261086a565b5090949350505050565b918252602082015260400190565b60405181810167ffffffffffffffff81118282101715610a2757600080fd5b604052919050565b600067ffffffffffffffff821115610a45578081fd5b5060209081020190565b6001600160a01b0381168114610a6457600080fd5b5056fea26469706673582212203ae44b934aa9ebfd5985496d4065fd137d0cc452c6236f6369864bfd7600fe5864736f6c634300070100336102a06040527f6e71edae12b1b97f4d1f60370fef10105fa2faae0126114a169c64845d6126c9610120523480156200003757600080fd5b5060405162005a3f38038062005a3f8339810160408190526200005a9162000832565b6101008101516101208201516020808401516040808601518651825180840190935260018352603160f81b838601526101608801513360805260601b6001600160601b03191660a05283519394919390928592839283918791620000c59160039190850190620006c5565b508051620000db906004906020840190620006c5565b505060058054601260ff1990911617905550815160209283012060c052805191012060e052507f8b73c3c69bb8fe3d512ecc4cf759cc79239f7b179b0ffacaa9a75d522b39400f6101005260601b6001600160601b03191661014052506200014e90506276a70083111561019462000430565b6200016262278d0082111561019562000430565b429091016101608190520161018052610140810151620001829062000445565b60e08101516200019290620004a1565b80516040516309b2760f60e01b81526000916001600160a01b0316906309b2760f90620001c59060029060040162000a38565b602060405180830381600087803b158015620001e057600080fd5b505af1158015620001f5573d6000803e3d6000fd5b505050506040513d601f19601f820116820180604052508101906200021b919062000819565b6040805160028082526060808301845293945090916020830190803683370190505090508260600151816000815181106200025257fe5b60200260200101906001600160a01b031690816001600160a01b0316815250508260800151816001815181106200028557fe5b6001600160a01b0392831660209182029290920101528351166366a9c7d283836002604051908082528060200260200182016040528015620002d1578160200160208202803683370190505b506040518463ffffffff1660e01b8152600401620002f2939291906200099c565b600060405180830381600087803b1580156200030d57600080fd5b505af115801562000322573d6000803e3d6000fd5b5050506101a083905250606080840180516001600160601b031990831b81166101c052608086015190921b9091166101e0525162000360906200051f565b61026052608083015162000374906200051f565b6102805260a08301516200039590662386f26fc10000111561012e62000430565b620003b7662386f26fc100008460c00151101561012e6200043060201b60201c565b6000620003db8460c001518560a00151620005c160201b620012df1790919060201c565b9050620003f5670de0b6b3a7640000821461013462000430565b60a0840180516102005260c0850180516102205251905110156200041b5760016200041e565b60005b60ff16610240525062000a8992505050565b8162000441576200044181620005de565b5050565b62000461816009546200063160201b620012f81790919060201c565b6009556040517f3e350b41e86a8e10f804ade6d35340d620be35569cc75ac943e8bb14ab80ead1906200049690839062000991565b60405180910390a150565b620004b664e8d4a5100082101560cb62000430565b620004ce67016345785d8a000082111560ca62000430565b620004ea816009546200065060201b620013061790919060201c565b6009556040517fa9ba3ffe0b6c366b81232caab38605a0699ad5398d6cce76f91ee809e322dafc906200049690839062000a4d565b600080826001600160a01b031663313ce5676040518163ffffffff1660e01b815260040160206040518083038186803b1580156200055c57600080fd5b505afa15801562000571573d6000803e3d6000fd5b505050506040513d601f19601f820116820180604052508101906200059791906200096e565b60ff1690506000620005b66012836200066f60201b620013141760201c565b600a0a949350505050565b6000828201620005d5848210158362000430565b90505b92915050565b62461bcd60e51b6000908152602060045260076024526642414c23000030600a808404818106603090810160081b95839006959095019082900491820690940160101b939093010160c81b604452606490fd5b6000620005d5826055856200068760201b6200132a179092919060201c565b6000620005d582605685620006b060201b62001351179092919060201c565b60006200068183831115600162000430565b50900390565b60006001821b19841682846200069f576000620006a2565b60015b60ff16901b17949350505050565b6001600160401b03811b1992909216911b1790565b828054600181600116156101000203166002900490600052602060002090601f016020900481019282601f106200070857805160ff191683800117855562000738565b8280016001018555821562000738579182015b82811115620007385782518255916020019190600101906200071b565b50620007469291506200074a565b5090565b5b808211156200074657600081556001016200074b565b80516001600160a01b0381168114620005d857600080fd5b80518015158114620005d857600080fd5b600082601f8301126200079b578081fd5b81516001600160401b03811115620007b1578182fd5b6020620007c7601f8301601f1916820162000a56565b92508183528481838601011115620007de57600080fd5b60005b82811015620007fe578481018201518482018301528101620007e1565b82811115620008105760008284860101525b50505092915050565b6000602082840312156200082b578081fd5b5051919050565b60006020828403121562000844578081fd5b81516001600160401b03808211156200085b578283fd5b818401915061018080838703121562000872578384fd5b6200087d8162000a56565b90506200088b868462000761565b81526020830151828111156200089f578485fd5b620008ad878286016200078a565b602083015250604083015182811115620008c5578485fd5b620008d3878286016200078a565b604083015250620008e8866060850162000761565b6060820152620008fc866080850162000761565b608082015260a0838101519082015260c0808401519082015260e08084015190820152610100808401519082015261012080840151908201526101409150620009488683850162000779565b8282015261016091506200095f8683850162000761565b91810191909152949350505050565b60006020828403121562000980578081fd5b815160ff81168114620005d5578182fd5b901515815260200190565b60006060820185835260206060818501528186518084526080860191508288019350845b81811015620009e857620009d5855162000a7d565b83529383019391830191600101620009c0565b505084810360408601528551808252908201925081860190845b8181101562000a2a5762000a17835162000a7d565b8552938301939183019160010162000a02565b509298975050505050505050565b602081016003831062000a4757fe5b91905290565b90815260200190565b6040518181016001600160401b038111828210171562000a7557600080fd5b604052919050565b6001600160a01b031690565b60805160a05160601c60c05160e05161010051610120516101405160601c61016051610180516101a0516101c05160601c6101e05160601c6102005161022051610240516102605161028051614ede62000b6160003980611d73525080611d9a5250806124a752806124db5280612517525080611dc75280611e63525080611dee5280611e415280611e9152505080610cf65250806108ae5250806114bd525080611499525080610c4452508061105d5250806116e952508061172b52508061170a525080610c20525080610bab5250614ede6000f3fe608060405234801561001057600080fd5b50600436106102535760003560e01c806370a0823111610146578063a457c2d7116100c3578063c0ff1a1511610087578063c0ff1a15146104f7578063d505accf146104ff578063d5c096c414610512578063dd62ed3e14610525578063f89f27ed14610538578063ffd088eb1461054057610253565b8063a457c2d7146104ae578063a9059cbb146104c1578063aaabadc5146104d4578063b10be739146104dc578063b48b5b40146104ef57610253565b8063893d20e81161010a578063893d20e81461046e5780638d928af81461048357806395d89b411461048b5780639b02cdde146104935780639d2c110c1461049b57610253565b806370a082311461040157806374f3b009146104145780637ecebe0014610435578063851c1bb31461044857806387ec68171461045b57610253565b80633644e515116101d457806355c676281161019857806355c676281461038a5780636028bfd41461039257806360d1507c146103b3578063679aefce146103d95780636b843239146103e157610253565b80633644e5151461033a57806338e9922e1461034257806338fff2d014610355578063395093511461035d5780634a6b0b151461037057610253565b80631dccd8301161021b5780631dccd830146102d757806323b872dd146102f7578063292c914a1461030a578063313ce567146103125780633331bc361461032757610253565b806306fdde0314610258578063095ea7b31461027657806316c38b3c1461029657806318160ddd146102ab5780631c0de051146102c0575b600080fd5b610260610548565b60405161026d9190614daf565b60405180910390f35b610289610284366004614497565b6105de565b60405161026d9190614c04565b6102a96102a4366004614705565b6105f5565b005b6102b3610609565b60405161026d9190614c27565b6102c861060f565b60405161026d93929190614c0f565b6102ea6102e536600461464b565b610638565b60405161026d9190614bcc565b6102896103053660046143e2565b61075b565b6102a96107cf565b61031a610803565b60405161026d9190614e1b565b6102a9610335366004614ad6565b61080c565b6102b3610884565b6102a9610350366004614abe565b610893565b6102b36108ac565b61028961036b366004614497565b6108d0565b61037861090b565b60405161026d96959493929190614cfd565b6102b3610966565b6103a56103a036600461473d565b610973565b60405161026d929190614e02565b6103c66103c1366004614abe565b6109a4565b60405161026d9796959493929190614ccd565b6102b36109ed565b6103f46103ef36600461458d565b610a12565b60405161026d9190614b88565b6102b361040f36600461438e565b610ac8565b61042761042236600461473d565b610ae7565b60405161026d929190614bdf565b6102b361044336600461438e565b610b8c565b6102b3610456366004614839565b610ba7565b6103a561046936600461473d565b610bf9565b610476610c1e565b60405161026d9190614b74565b610476610c42565b610260610c66565b6102b3610cc7565b6102b36104a93660046149c3565b610ccd565b6102896104bc366004614497565b610e7c565b6102896104cf366004614497565b610eba565b610476610ec7565b6102b36104ea366004614990565b610ed1565b6102b3610f66565b6102b3610f6c565b6102a961050d366004614422565b611028565b61042761052036600461473d565b611171565b6102b36105333660046143aa565b611291565b6102ea6112ce565b6102b36112d8565b60038054604080516020601f60026000196101006001881615020190951694909404938401819004810282018101909252828152606093909290918301828280156105d45780601f106105a9576101008083540402835291602001916105d4565b820191906000526020600020905b8154815290600101906020018083116105b757829003601f168201915b5050505050905090565b60006105eb338484611366565b5060015b92915050565b6105fd6113ce565b610606816113fc565b50565b60025490565b600080600061061c61147a565b159250610627611497565b91506106316114bb565b9050909192565b606081516001600160401b038111801561065157600080fd5b5060405190808252806020026020018201604052801561067b578160200160208202803683370190505b50905060006106886114df565b905060005b83518110156107545773__$76628e43a2054b7121be201a66ed5cdbab$__6379eaef8260088684815181106106be57fe5b6020026020010151856040518463ffffffff1660e01b81526004016106e593929190614d73565b60206040518083038186803b1580156106fd57600080fd5b505af4158015610711573d6000803e3d6000fd5b505050506040513d601f19601f8201168201806040525081019061073591906149ab565b83828151811061074157fe5b602090810291909101015260010161068d565b5050919050565b6000806107688533611291565b905061078c336001600160a01b03871614806107845750838210155b61019e6114ec565b6107978585856114fe565b336001600160a01b038616148015906107b257506000198114155b156107c4576107c48533858403611366565b506001949350505050565b6107d76115de565b6107df6113ce565b6107e960016115f1565b60006107f3610609565b111561080157610801611631565b565b60055460ff1690565b610827818310801561082057506104008211155b60646114ec565b600061083c6001600080600080600080611679565b9050825b8281101561087e57600081815260086020526040902054610860906116d9565b6108765760008181526008602052604090208290555b600101610840565b50505050565b600061088e6116e5565b905090565b61089b6113ce565b6108a36115de565b61060681611782565b7f000000000000000000000000000000000000000000000000000000000000000090565b3360008181526001602090815260408083206001600160a01b038716845290915281205490916105eb91859061090690866112df565b611366565b60008060008060008060006009549050610924816117eb565b965061092f816117f7565b955061093a81611804565b945061094581611811565b93506109508161181e565b925061095b8161182b565b915050909192939495565b600061088e60095461182b565b6000606061098386516002611838565b610998898989898989896118456118ff61197d565b97509795505050505050565b60008060008060008060006109bf610400891061013b6114ec565b60006109ca89611a9c565b90506109d581611aae565b959f949e50929c50909a509850965090945092505050565b600061088e6109fa610609565b610a0c610a05610f6c565b6002611b11565b90611b35565b606081516001600160401b0381118015610a2b57600080fd5b50604051908082528060200260200182016040528015610a55578160200160208202803683370190505b5090506000610a626114df565b9050610a6c614278565b60005b8451811015610ac057848181518110610a8457fe5b60200260200101519150610aa18260000151848460200151611b86565b848281518110610aad57fe5b6020908102919091010152600101610a6f565b505050919050565b6001600160a01b0381166000908152602081905260409020545b919050565b60608088610b11610af6610c42565b6001600160a01b0316336001600160a01b03161460cd6114ec565b610b26610b1c6108ac565b82146101f46114ec565b610b2f87611c1f565b6000606080610b438d8d8d8d8d8d8d611845565b925092509250610b538c84611c81565b610b5c826118ff565b610b65816118ff565b610b6d61147a565b15610b7a57610b7a611631565b909c909b509950505050505050505050565b6001600160a01b031660009081526006602052604090205490565b60007f000000000000000000000000000000000000000000000000000000000000000082604051602001610bdc929190614b31565b604051602081830303815290604052805190602001209050919050565b60006060610c0986516002611838565b61099889898989898989611c8b611d0c61197d565b7f000000000000000000000000000000000000000000000000000000000000000090565b7f000000000000000000000000000000000000000000000000000000000000000090565b60048054604080516020601f60026000196101006001881615020190951694909404938401819004810282018101909252828152606093909290918301828280156105d45780601f106105a9576101008083540402835291602001916105d4565b600a5490565b6000610cd76115de565b8360800151610ce7610af6610c42565b610cf2610b1c6108ac565b60007f00000000000000000000000000000000000000000000000000000000000000006001600160a01b031686602001516001600160a01b03161490506000610d3a82611d6a565b90506000610d488315611d6a565b90506000610d5584611dbe565b90506000610d638515611dbe565b9050610d6f8985611e12565b9850610d7b8884611e12565b9750610da48a60a0015186610d905789610d92565b8a5b87610d9d578b610d9f565b8a5b611e1e565b60008a516001811115610db357fe5b1415610e21576000610dd1610dc6610966565b60608d015190611f1f565b9050610df3610ded828d6060015161131490919063ffffffff16565b86611e12565b60608c01526000610e078c8c8c8787611f63565b9050610e138186611f82565b985050505050505050610e74565b610e2f8a6060015184611e12565b60608b01526000610e438b8b8b8686611f8e565b9050610e4f8186611fa1565b9050610e6b610e64610e5f610966565b611fad565b8290611fd3565b97505050505050505b509392505050565b600080610e893385611291565b9050808310610ea357610e9e33856000611366565b610eb0565b610eb03385858403611366565b5060019392505050565b60006105eb3384846114fe565b600061088e612015565b600073__$76628e43a2054b7121be201a66ed5cdbab$__630397bee0600884610ef86114df565b6040518463ffffffff1660e01b8152600401610f1693929190614d27565b60206040518083038186803b158015610f2e57600080fd5b505af4158015610f42573d6000803e3d6000fd5b505050506040513d601f19601f820116820180604052508101906105ef91906149ab565b61040090565b60006060610f78610c42565b6001600160a01b031663f94d4668610f8e6108ac565b6040518263ffffffff1660e01b8152600401610faa9190614c27565b60006040518083038186803b158015610fc257600080fd5b505afa158015610fd6573d6000803e3d6000fd5b505050506040513d6000823e601f3d908101601f19168201604052610ffe91908101906144c2565b5091505061100b81611c1f565b606061101561208f565b905061102181836120fd565b9250505090565b6110368442111560d16114ec565b6001600160a01b038716600090815260066020908152604080832054905190929161108d917f0000000000000000000000000000000000000000000000000000000000000000918c918c918c9188918d9101614c4f565b60405160208183030381529060405280519060200120905060006110b08261216f565b90506000600182888888604051600081526020016040526040516110d79493929190614caf565b6020604051602081039080840390855afa1580156110f9573d6000803e3d6000fd5b5050604051601f190151915061113b90506001600160a01b0382161580159061113357508b6001600160a01b0316826001600160a01b0316145b6101f86114ec565b6001600160a01b038b1660009081526006602052604090206001850190556111648b8b8b611366565b5050505050505050505050565b60608088611180610af6610c42565b61118b610b1c6108ac565b6111936115de565b600061119d610609565b61120d576111ad8b8b8b8861218b565b945090506111c2620f424082101560cc6114ec565b6111d06000620f4240612214565b6111df89620f42408303612214565b6111e884611d0c565b604080516002808252606082018352909160208301908036833701905050925061127b565b61121688611c1f565b611249878960008151811061122757fe5b60200260200101518a60018151811061123c57fe5b6020026020010151611e1e565b6112588b8b8b8b8b8b8b611c8b565b909550935090506112698982612214565b61127284611d0c565b61127b836118ff565b611283611631565b505097509795505050505050565b600061129b610c42565b6001600160a01b0316826001600160a01b031614156112bd57506000196105ef565b6112c7838361221e565b90506105ef565b606061088e61208f565b6201de2090565b60008282016112f184821015836114ec565b9392505050565b60006112f18383605561132a565b60006112f183836056611351565b60006113248383111560016114ec565b50900390565b60006001821b1984168284611340576000611343565b60015b60ff16901b17949350505050565b6001600160401b03811b1992909216911b1790565b6001600160a01b0380841660008181526001602090815260408083209487168084529490915290819020849055517f8c5be1e5ebec7d5bd14f71427d1e84f3dd0314c0f7b2291e5b200ac8c7c3b925906113c1908590614c27565b60405180910390a3505050565b60006113e56000356001600160e01b031916610ba7565b90506106066113f48233612249565b6101916114ec565b801561141c5761141761140d611497565b42106101936114ec565b611431565b6114316114276114bb565b42106101a96114ec565b6007805460ff19168215151790556040517f9e3a5e37224532dea67b89face185703738a228a6e8a23dee546960180d3be649061146f908390614c04565b60405180910390a150565b60006114846114bb565b42118061088e57505060075460ff161590565b7f000000000000000000000000000000000000000000000000000000000000000090565b7f000000000000000000000000000000000000000000000000000000000000000090565b600061088e600954611811565b816114fa576114fa81612332565b5050565b6115156001600160a01b03841615156101986114ec565b61152c6001600160a01b03831615156101996114ec565b611537838383612385565b6001600160a01b03831660009081526020819052604090205461155d90826101a061238a565b6001600160a01b03808516600090815260208190526040808220939093559084168152205461158c90826112df565b6001600160a01b0380841660008181526020819052604090819020939093559151908516907fddf252ad1be2c89b69c2b068fc378daa952ba7f163c4a11628f55a4df523b3ef906113c1908590614c27565b6108016115e961147a565b6101926114ec565b6009546115fe90826112f8565b6009556040517f3e350b41e86a8e10f804ade6d35340d620be35569cc75ac943e8bb14ab80ead19061146f908390614c04565b60095461163d8161181e565b1561060657611657611650600a546123a0565b82906123e0565b905061167361166c611667610609565b6123a0565b82906123ed565b60095550565b600061168582826123fb565b61169084601f6123ff565b61169b866054612410565b6116a688606a6123ff565b6116b18a609f612410565b6116bc8c60b56123ff565b6116c78e60ea612410565b17171717171798975050505050505050565b60006105ef828261241d565b60007f00000000000000000000000000000000000000000000000000000000000000007f00000000000000000000000000000000000000000000000000000000000000007f0000000000000000000000000000000000000000000000000000000000000000611752612427565b30604051602001611767959493929190614c83565b60405160208183030381529060405280519060200120905090565b61179564e8d4a5100082101560cb6114ec565b6117ab67016345785d8a000082111560ca6114ec565b6009546117b89082611306565b6009556040517fa9ba3ffe0b6c366b81232caab38605a0699ad5398d6cce76f91ee809e322dafc9061146f908390614c27565b60006105ef828261242b565b60006105ef82601661242b565b60006105ef82602c61241d565b60006105ef82604b612452565b60006105ef82605561245a565b60006105ef826056612464565b6114fa81831460676114ec565b6000606080606061185461208f565b905061185e61147a565b156118a657611874878960008151811061122757fe5b6000611880828a6120fd565b90506118918983600a54848b612471565b92506118a08984611314612555565b506118c7565b60408051600280825260608201835290916020830190803683370190505091505b6118d28882876125e7565b90945092506118e48884611314612555565b6118ee81896120fd565b600a55509750975097945050505050565b6119268160008151811061190f57fe5b60200260200101516119216001611d6a565b612673565b8160008151811061193357fe5b6020026020010181815250506119618160018151811061194f57fe5b60200260200101516119216000611d6a565b8160018151811061196e57fe5b60200260200101818152505050565b333014611a3b576000306001600160a01b03166000366040516119a1929190614b49565b6000604051808303816000865af19150503d80600081146119de576040519150601f19603f3d011682016040523d82523d6000602084013e6119e3565b606091505b5050905080600081146119f257fe5b60046000803e6000516001600160e01b0319166343adbafb60e01b8114611a1d573d6000803e3d6000fd5b506020600460003e604060205260243d03602460403e601c3d016000f35b611a4486611c1f565b60006060611a5b8b8b8b8b8b8b8b8b63ffffffff16565b5091509150611a6d818463ffffffff16565b8051601f1982018390526343adbafb603f1983015260200260231982016044820181fd5b505050505050505050565b60009081526008602052604090205490565b6000806000806000806000611ac288612693565b9650611acd886126a0565b9550611ad8886126ad565b9450611ae3886126ba565b9350611aee886126c7565b9250611af9886126d4565b9150611b04886116d9565b9050919395979092949650565b60008282026112f1841580611b2e575083858381611b2b57fe5b04145b60036114ec565b6000611b4482151560046114ec565b82611b51575060006105ef565b670de0b6b3a764000083810290611b7490858381611b6b57fe5b041460056114ec565b828181611b7d57fe5b049150506105ef565b6040516334171a8560e01b815260009073__$76628e43a2054b7121be201a66ed5cdbab$__906334171a8590611bc790600890889088908890600401614d48565b60206040518083038186803b158015611bdf57600080fd5b505af4158015611bf3573d6000803e3d6000fd5b505050506040513d601f19601f82011682018060405250810190611c1791906149ab565b949350505050565b611c4681600081518110611c2f57fe5b6020026020010151611c416001611d6a565b611b11565b81600081518110611c5357fe5b60200260200101818152505061196181600181518110611c6f57fe5b6020026020010151611c416000611d6a565b6114fa82826126e1565b60006060806060611c9a61208f565b90506000611ca8828a6120fd565b90506060611cbb8a84600a54858c612471565b9050611cca8a82611314612555565b60006060611cd98c868b61279d565b91509150611cea8c826112df612555565b611cf4858d6120fd565b600a55909e909d50909b509950505050505050505050565b611d3381600081518110611d1c57fe5b6020026020010151611d2e6001611d6a565b612815565b81600081518110611d4057fe5b60200260200101818152505061196181600181518110611d5c57fe5b6020026020010151611d2e60005b600081611d97577f00000000000000000000000000000000000000000000000000000000000000006105ef565b507f0000000000000000000000000000000000000000000000000000000000000000919050565b600081611deb577f00000000000000000000000000000000000000000000000000000000000000006105ef565b507f0000000000000000000000000000000000000000000000000000000000000000919050565b60006112f18383611b11565b600954611e2a8161181e565b8015611e3557508343115b1561087e576000611e887f0000000000000000000000000000000000000000000000000000000000000000857f000000000000000000000000000000000000000000000000000000000000000086612848565b90506000611ebf7f000000000000000000000000000000000000000000000000000000000000000086611eba866117f7565b61287d565b90506000611ecc84611811565b90506000611ed985611804565b90506000611ef282848787611eed8b6117eb565b6128a4565b9050808314611a9157611f0586826128fb565b9550611f118642612909565b600955505050505050505050565b6000828202611f39841580611b2e575083858381611b2b57fe5b80611f485760009150506105ef565b670de0b6b3a764000060001982015b046001019150506105ef565b6000611f76858486858a60600151612917565b90505b95945050505050565b60006112f18383612673565b6000611f76858486858a60600151612992565b60006112f18383612815565b6000670de0b6b3a76400008210611fc55760006105ef565b50670de0b6b3a76400000390565b6000611fe282151560046114ec565b82611fef575060006105ef565b670de0b6b3a76400008381029061200990858381611b6b57fe5b826001820381611f5757fe5b600061201f610c42565b6001600160a01b031663aaabadc56040518163ffffffff1660e01b815260040160206040518083038186803b15801561205757600080fd5b505afa15801561206b573d6000803e3d6000fd5b505050506040513d601f19601f8201168201806040525081019061088e9190614861565b6040805160028082526060808301845292839291906020830190803683370190505090506120bd6001611dbe565b816000815181106120ca57fe5b6020026020010181815250506120e06000611dbe565b816001815181106120ed57fe5b6020908102919091010152905090565b670de0b6b3a764000060005b835181101561215f5761215561214e85838151811061212457fe5b602002602001015185848151811061213857fe5b6020026020010151612a0890919063ffffffff16565b8390612ab9565b9150600101612109565b506105ef600082116101376114ec565b60006121796116e5565b82604051602001610bdc929190614b59565b60006060600061219a84612ae5565b90506121b560008260038111156121ad57fe5b1460ce6114ec565b60606121c085612afb565b90506121ce81516002611838565b6121d781611c1f565b60606121e161208f565b905060006121ef82846120fd565b905060006121fe826002611b11565b600a929092555099919850909650505050505050565b6114fa8282612b11565b6001600160a01b03918216600090815260016020908152604080832093909416825291909152205490565b600073ba1ba1ba1ba1ba1ba1ba1ba1ba1ba1ba1ba1ba1b612268610c1e565b6001600160a01b031614158015612283575061228383612b9f565b156122ab57612290610c1e565b6001600160a01b0316336001600160a01b03161490506105ef565b6122b3612015565b6001600160a01b0316639be2a8848484306040518463ffffffff1660e01b81526004016122e293929190614c30565b60206040518083038186803b1580156122fa57600080fd5b505afa15801561230e573d6000803e3d6000fd5b505050506040513d601f19601f820116820180604052508101906112c79190614721565b62461bcd60e51b6000908152602060045260076024526642414c23000030600a808404818106603090810160081b95839006959095019082900491820690940160101b939093010160c81b604452606490fd5b505050565b600061239984841115836114ec565b5050900390565b6000806123ac83612bd1565b905060008082136123c557652d79883d200082036123cf565b652d79883d200082015b655af3107a40009005949350505050565b60006112f1838383612c35565b60006112f183836016612c35565b1b90565b661fffffffffffff91909116901b90565b623fffff91909116901b90565b1c637fffffff1690565b4690565b600082821c623fffff16621fffff81136124455780611c17565b623fffff19179392505050565b1c6103ff1690565b1c60019081161490565b1c6001600160401b031690565b604080516002808252606080830184529283929190602083019080368337019050509050826124a1579050611f79565b612514877f0000000000000000000000000000000000000000000000000000000000000000815181106124d057fe5b6020026020010151877f00000000000000000000000000000000000000000000000000000000000000008151811061250457fe5b6020026020010151878787612c4c565b817f00000000000000000000000000000000000000000000000000000000000000008151811061254057fe5b60209081029190910101529695505050505050565b61258b8360008151811061256557fe5b60200260200101518360008151811061257a57fe5b60200260200101518363ffffffff16565b8360008151811061259857fe5b6020026020010181815250506125c9836001815181106125b457fe5b60200260200101518360018151811061257a57fe5b836001815181106125d657fe5b602002602001018181525050505050565b6000606060006125f684612ae5565b9050600081600381111561260657fe5b141561262157612617868686612cc4565b925092505061266b565b600181600381111561262f57fe5b141561263f576126178685612d75565b600281600381111561264d57fe5b141561265e57612617868686612da7565b612669610150612332565b505b935093915050565b600061268282151560046114ec565b81838161268b57fe5b049392505050565b60006105ef8260ea61242b565b60006105ef8260b5612e14565b60006105ef82609f61242b565b60006105ef82606a612e14565b60006105ef82605461242b565b60006105ef82601f612e14565b6126f86001600160a01b038316151561019b6114ec565b61270482600083612385565b6001600160a01b03821660009081526020819052604090205461272a90826101a161238a565b6001600160a01b0383166000908152602081905260409020556002546127509082612e47565b6002556040516000906001600160a01b038416907fddf252ad1be2c89b69c2b068fc378daa952ba7f163c4a11628f55a4df523b3ef90612791908590614c27565b60405180910390a35050565b6000606060006127ac84612ae5565b905060018160038111156127bc57fe5b14156127cd57612617868686612e55565b60028160038111156127db57fe5b14156127ec57612617868686612eac565b60038160038111156127fa57fe5b141561280a576126178685612f2f565b612669610136612332565b600061282482151560046114ec565b82612831575060006105ef565b81600184038161283d57fe5b0460010190506105ef565b6000806128686128588486611fd3565b6128628789611fd3565b90611fd3565b9050612873816123a0565b9695505050505050565b60008061288a8486611fd3565b90506000612897826123a0565b9390930395945050505050565b6000806128c0858585426128b78b611a9c565b93929190612f54565b90506078428890031015806128d557866128de565b6128de87612fa6565b600081815260086020526040902092909255509695505050505050565b60006112f18383604b612fb3565b60006112f18383602c612fc3565b600061293961292e87670429d069189e0000612ab9565b8311156101306114ec565b600061294587846112df565b905060006129538883611fd3565b905060006129618887611b35565b9050600061296f8383612fd5565b905061298461297d82611fad565b8990612ab9565b9a9950505050505050505050565b60006129b46129a985670429d069189e0000612ab9565b8311156101316114ec565b60006129ca6129c38685611314565b8690611fd3565b905060006129d88588611fd3565b905060006129e68383612fd5565b905060006129fc82670de0b6b3a7640000611314565b90506129848a82611f1f565b6000670de0b6b3a7640000821415612a215750816105ef565b671bc16d674ec80000821415612a3b576112c78384612ab9565b673782dace9d900000821415612a6b576000612a578485612ab9565b9050612a638182612ab9565b9150506105ef565b6000612a77848461305b565b90506000612a91612a8a83612710611f1f565b60016112df565b905080821015612aa6576000925050506105ef565b612ab08282611314565b925050506105ef565b6000828202612ad3841580611b2e575083858381611b2b57fe5b670de0b6b3a764000090049392505050565b6000818060200190518101906105ef919061487d565b6060818060200190518101906112f19190614942565b612b1d60008383612385565b600254612b2a90826112df565b6002556001600160a01b038216600090815260208190526040902054612b5090826112df565b6001600160a01b0383166000818152602081905260408082209390935591519091907fddf252ad1be2c89b69c2b068fc378daa952ba7f163c4a11628f55a4df523b3ef90612791908590614c27565b6000612bb1631c74c91760e11b610ba7565b8214806105ef5750612bc96350dd6ed960e01b610ba7565b909114919050565b6000612be16000831360646114ec565b670c7d713b49da000082138015612bff5750670f43fc2c04ee000082125b15612c2557670de0b6b3a7640000612c168361315c565b81612c1d57fe5b059050610ae2565b612c2e8261327a565b9050610ae2565b623fffff828116821b90821b198416179392505050565b6000838311612c5d57506000611f79565b6000612c698585611fd3565b90506000612c7f670de0b6b3a764000088611b35565b9050612c93826709b6e64a8ec60000613619565b91506000612ca18383612fd5565b90506000612cb8612cb183611fad565b8b90612ab9565b90506129848187612ab9565b60006060612cd06115de565b600080612cdc85613630565b91509150612cee6002821060646114ec565b6040805160028082526060808301845292602083019080368337019050509050612d4f888381518110612d1d57fe5b6020026020010151888481518110612d3157fe5b602002602001015185612d42610609565b612d4a610966565b613652565b50818381518110612d5c57fe5b6020908102919091010152919791965090945050505050565b600060606000612d8484613708565b90506060612d9a8683612d95610609565b61371e565b9196919550909350505050565b60006060612db36115de565b60606000612dc0856137cf565b91509150612dd082516002611838565b612dd982611c1f565b6000612df6888885612de9610609565b612df1610966565b6137e7565b509050612e078282111560cf6114ec565b9791965090945050505050565b600082821c661fffffffffffff16660fffffffffffff8113612e365780611c17565b661fffffffffffff19179392505050565b60006112f18383600161238a565b60006060806000612e65856137cf565b91509150612e7582516002611838565b612e7e82611c1f565b6000612e9b888885612e8e610609565b612e96610966565b613930565b509050612e078282101560d06114ec565b60006060600080612ebc85613630565b91509150612ece6002821060646114ec565b6040805160028082526060808301845292602083019080368337019050509050612d4f888381518110612efd57fe5b6020026020010151888481518110612f1157fe5b602002602001015185612f22610609565b612f2a610966565b613a69565b600060606000612f3e84613708565b90506060612d9a8683612f4f610609565b613b38565b600080612f60876116d9565b830390506000818702612f72896126a0565b0190506000828702612f838a6126ba565b0190506000838702612f948b6126d4565b01905061298489848a858b868c611679565b60006105ef826001613bc9565b6103ff811b1992909216911b1790565b637fffffff811b1992909216911b1790565b6000670de0b6b3a7640000821415612fee5750816105ef565b671bc16d674ec80000821415613008576112c78384611f1f565b673782dace9d9000008214156130305760006130248485611f1f565b9050612a638182611f1f565b600061303c848461305b565b9050600061304f612a8a83612710611f1f565b9050612ab082826112df565b6000816130715750670de0b6b3a76400006105ef565b8261307e575060006105ef565b61308f600160ff1b841060066114ec565b826130b5770bce5086492111aea88f4bb1ca6bcf584181ea8059f76532841060076114ec565b826000670c7d713b49da0000831380156130d65750670f43fc2c04ee000083125b1561310d5760006130e68461315c565b9050670de0b6b3a764000080820784020583670de0b6b3a76400008305020191505061311b565b816131178461327a565b0290505b670de0b6b3a76400009005613153680238fd42c5cf03ffff19821280159061314c575068070c1cc73b00c800008213155b60086114ec565b61287381613bd1565b670de0b6b3a7640000026000806a0c097ce7bc90715b34b9f160241b808401906ec097ce7bc90715b34b9f0fffffffff198501028161319757fe5b05905060006a0c097ce7bc90715b34b9f160241b82800205905081806a0c097ce7bc90715b34b9f160241b81840205915060038205016a0c097ce7bc90715b34b9f160241b82840205915060058205016a0c097ce7bc90715b34b9f160241b82840205915060078205016a0c097ce7bc90715b34b9f160241b82840205915060098205016a0c097ce7bc90715b34b9f160241b828402059150600b8205016a0c097ce7bc90715b34b9f160241b828402059150600d8205016a0c097ce7bc90715b34b9f160241b828402059150600f826002919005919091010295945050505050565b6000670de0b6b3a76400008212156132b6576132ac826a0c097ce7bc90715b34b9f160241b816132a657fe5b0561327a565b6000039050610ae2565b60007e1600ef3172e58d2e933ec884fde10064c63b5372d805e203c0000000000000831261330757770195e54c5dd42177f53a27172fa9ec630262827000000000830592506806f05b59d3b2000000015b73011798004d755d3c8bc8e03204cf44619e000000831261333f576b1425982cf597cd205cef7380830592506803782dace9d9000000015b606492830292026e01855144814a7ff805980ff00840008312613387576e01855144814a7ff805980ff008400068056bc75e2d63100000840205925068ad78ebc5ac62000000015b6b02df0ab5a80a22c61ab5a70083126133c2576b02df0ab5a80a22c61ab5a70068056bc75e2d6310000084020592506856bc75e2d631000000015b693f1fce3da636ea5cf85083126133f957693f1fce3da636ea5cf85068056bc75e2d631000008402059250682b5e3af16b18800000015b690127fa27722cc06cc5e2831261343057690127fa27722cc06cc5e268056bc75e2d6310000084020592506815af1d78b58c400000015b68280e60114edb805d0383126134655768280e60114edb805d0368056bc75e2d631000008402059250680ad78ebc5ac6200000015b680ebc5fb41746121110831261349057680ebc5fb4174612111068056bc75e2d631000009384020592015b6808f00f760a4b2db55d83126134c5576808f00f760a4b2db55d68056bc75e2d6310000084020592506802b5e3af16b1880000015b6806f5f177578893793783126134fa576806f5f177578893793768056bc75e2d63100000840205925068015af1d78b58c40000015b6806248f33704b286603831261352e576806248f33704b28660368056bc75e2d63100000840205925067ad78ebc5ac620000015b6805c548670b9510e7ac8312613562576805c548670b9510e7ac68056bc75e2d6310000084020592506756bc75e2d6310000015b600068056bc75e2d63100000840168056bc75e2d63100000808603028161358557fe5b059050600068056bc75e2d63100000828002059050818068056bc75e2d63100000818402059150600382050168056bc75e2d63100000828402059150600582050168056bc75e2d63100000828402059150600782050168056bc75e2d63100000828402059150600982050168056bc75e2d63100000828402059150600b820501600202606485820105979650505050505050565b60008183101561362957816112f1565b5090919050565b60008082806020019051810190613647919061490c565b909590945092505050565b60008080613664856128628189611314565b905061367d6709b6e64a8ec600008210156101326114ec565b600061369b613694670de0b6b3a76400008a611b35565b8390612fd5565b905060006136ab612cb183611fad565b905060006136b88a611fad565b905060006136c68383611f1f565b905060006136d48483611314565b90506136e0828a611f1f565b96506136f66136ef8389611314565b82906112df565b97505050505050509550959350505050565b6000818060200190518101906112f191906148df565b6060600061372c8484611b35565b9050606085516001600160401b038111801561374757600080fd5b50604051908082528060200260200182016040528015613771578160200160208202803683370190505b50905060005b86518110156137c5576137a68388838151811061379057fe5b6020026020010151612ab990919063ffffffff16565b8282815181106137b257fe5b6020908102919091010152600101613777565b5095945050505050565b60606000828060200190518101906136479190614899565b600060608085516001600160401b038111801561380357600080fd5b5060405190808252806020026020018201604052801561382d578160200160208202803683370190505b5090506000805b89518110156138f25761388d8a828151811061384c57fe5b60200260200101516128628a848151811061386357fe5b60200260200101518d858151811061387757fe5b602002602001015161131490919063ffffffff16565b83828151811061389957fe5b6020026020010181815250506138e86138e18a83815181106138b757fe5b60200260200101518584815181106138cb57fe5b6020026020010151611f1f90919063ffffffff16565b83906112df565b9150600101613834565b50600060606139058b8b8b87878c613fa6565b91509150600061391e61391784611fad565b8a90611f1f565b9c919b50909950505050505050505050565b600060608085516001600160401b038111801561394c57600080fd5b50604051908082528060200260200182016040528015613976578160200160208202803683370190505b5090506000805b8951811015613a1e576139d68a828151811061399557fe5b6020026020010151610a0c8a84815181106139ac57fe5b60200260200101518d85815181106139c057fe5b60200260200101516112df90919063ffffffff16565b8382815181106139e257fe5b602002602001018181525050613a146138e18a8381518110613a0057fe5b602002602001015185848151811061379057fe5b915060010161397d565b5060006060613a318b8b8b87878c61412a565b915091506000670de0b6b3a76400008311613a4d57600061391e565b61391e613a6284670de0b6b3a7640000611314565b8a90612ab9565b60008080613a7b8561286281896112df565b9050613a946729a2241af62c00008211156101336114ec565b6000613aab613694670de0b6b3a76400008a611fd3565b90506000613acb613ac483670de0b6b3a7640000611314565b8b90611f1f565b90506000613ad88a611fad565b90506000613ae68383611f1f565b90506000613af48483611314565b90506000613b14613b0d670de0b6b3a76400008c611314565b8490611fd3565b83810398509050613b2582826112df565b9850505050505050509550959350505050565b60606000613b468484611fd3565b9050606085516001600160401b0381118015613b6157600080fd5b50604051908082528060200260200182016040528015613b8b578160200160208202803683370190505b50905060005b86518110156137c557613baa838883815181106138cb57fe5b828281518110613bb657fe5b6020908102919091010152600101613b91565b016103ff1690565b6000613c00680238fd42c5cf03ffff198312158015613bf9575068070c1cc73b00c800008313155b60096114ec565b6000821215613c2b57613c1582600003613bd1565b6a0c097ce7bc90715b34b9f160241b81612c1d57fe5b60006806f05b59d3b20000008312613c6b57506806f05b59d3b1ffffff1990910190770195e54c5dd42177f53a27172fa9ec630262827000000000613ca1565b6803782dace9d90000008312613c9d57506803782dace9d8ffffff19909101906b1425982cf597cd205cef7380613ca1565b5060015b6064929092029168056bc75e2d6310000068ad78ebc5ac620000008412613cf15768ad78ebc5ac61ffffff199093019268056bc75e2d631000006e01855144814a7ff805980ff008400082020590505b6856bc75e2d6310000008412613d2d576856bc75e2d630ffffff199093019268056bc75e2d631000006b02df0ab5a80a22c61ab5a70082020590505b682b5e3af16b188000008412613d6757682b5e3af16b187fffff199093019268056bc75e2d63100000693f1fce3da636ea5cf85082020590505b6815af1d78b58c4000008412613da1576815af1d78b58c3fffff199093019268056bc75e2d63100000690127fa27722cc06cc5e282020590505b680ad78ebc5ac62000008412613dda57680ad78ebc5ac61fffff199093019268056bc75e2d6310000068280e60114edb805d0382020590505b68056bc75e2d631000008412613e135768056bc75e2d630fffff199093019268056bc75e2d63100000680ebc5fb4174612111082020590505b6802b5e3af16b18800008412613e4c576802b5e3af16b187ffff199093019268056bc75e2d631000006808f00f760a4b2db55d82020590505b68015af1d78b58c400008412613e855768015af1d78b58c3ffff199093019268056bc75e2d631000006806f5f177578893793782020590505b68056bc75e2d631000008481019085906002908280020505918201919050600368056bc75e2d631000008783020505918201919050600468056bc75e2d631000008783020505918201919050600568056bc75e2d631000008783020505918201919050600668056bc75e2d631000008783020505918201919050600768056bc75e2d631000008783020505918201919050600868056bc75e2d631000008783020505918201919050600968056bc75e2d631000008783020505918201919050600a68056bc75e2d631000008783020505918201919050600b68056bc75e2d631000008783020505918201919050600c68056bc75e2d631000008783020505918201919050606468056bc75e2d63100000848402058502059695505050505050565b6000606085516001600160401b0381118015613fc157600080fd5b50604051908082528060200260200182016040528015613feb578160200160208202803683370190505b509050670de0b6b3a7640000915060005b885181101561411e57600086828151811061401357fe5b60200260200101518611156140a057600061403c61403088611fad565b8c858151811061379057fe5b90506000614050828b868151811061387757fe5b90506000614070614069670de0b6b3a76400008a611314565b8390611fd3565b905081810386868151811061408157fe5b602090810291909101015261409683826112df565b93505050506140b7565b8782815181106140ac57fe5b602002602001015190505b60006140e08b84815181106140c857fe5b6020026020010151610a0c848e878151811061387757fe5b905061411261410b8b85815181106140f457fe5b602002602001015183612a0890919063ffffffff16565b8690612ab9565b94505050600101613ffc565b50965096945050505050565b6000606085516001600160401b038111801561414557600080fd5b5060405190808252806020026020018201604052801561416f578160200160208202803683370190505b509050670de0b6b3a7640000915060005b885181101561411e5760008587838151811061419857fe5b602002602001015111156142185760006141bd61403088670de0b6b3a7640000611314565b905060006141d1828b868151811061387757fe5b905060006141df8289611f1f565b90506141f56141ee8383611314565b84906112df565b93508086868151811061420457fe5b60200260200101818152505050505061422f565b87828151811061422457fe5b602002602001015190505b60006142588b848151811061424057fe5b6020026020010151610a0c848e87815181106139c057fe5b905061426c61410b8b85815181106140f457fe5b94505050600101614180565b604080518082019091526000808252602082015290565b80356105ef81614e78565b600082601f8301126142aa578081fd5b81516142bd6142b882614e4f565b614e29565b8181529150602080830190848101818402860182018710156142de57600080fd5b60005b848110156142fd578151845292820192908201906001016142e1565b505050505092915050565b600082601f830112614318578081fd5b81356001600160401b0381111561432d578182fd5b614340601f8201601f1916602001614e29565b915080825283602082850101111561435757600080fd5b8060208401602084013760009082016020015292915050565b8035600281106105ef57600080fd5b8035600381106105ef57600080fd5b60006020828403121561439f578081fd5b81356112f181614e78565b600080604083850312156143bc578081fd5b82356143c781614e78565b915060208301356143d781614e78565b809150509250929050565b6000806000606084860312156143f6578081fd5b833561440181614e78565b9250602084013561441181614e78565b929592945050506040919091013590565b600080600080600080600060e0888a03121561443c578485fd5b873561444781614e78565b9650602088013561445781614e78565b95506040880135945060608801359350608088013560ff8116811461447a578384fd5b9699959850939692959460a0840135945060c09093013592915050565b600080604083850312156144a9578182fd5b82356144b481614e78565b946020939093013593505050565b6000806000606084860312156144d6578081fd5b83516001600160401b03808211156144ec578283fd5b818601915086601f8301126144ff578283fd5b815161450d6142b882614e4f565b80828252602080830192508086018b82838702890101111561452d578788fd5b8796505b8487101561455857805161454481614e78565b845260019690960195928101928101614531565b50890151909750935050508082111561456f578283fd5b5061457c8682870161429a565b925050604084015190509250925092565b6000602080838503121561459f578182fd5b82356001600160401b038111156145b4578283fd5b8301601f810185136145c4578283fd5b80356145d26142b882614e4f565b818152838101908385016040808502860187018a10156145f0578788fd5b8795505b8486101561463d5780828b03121561460a578788fd5b61461381614e29565b61461d8b8461437f565b8152828801358882015284526001959095019492860192908101906145f4565b509098975050505050505050565b6000602080838503121561465d578182fd5b82356001600160401b03811115614672578283fd5b8301601f81018513614682578283fd5b80356146906142b882614e4f565b818152838101908385016060808502860187018a10156146ae578788fd5b8795505b8486101561463d5780828b0312156146c8578788fd5b6146d181614e29565b6146db8b8461437f565b815282880135888201526040808401359082015284526001959095019492860192908101906146b2565b600060208284031215614716578081fd5b81356112f181614e8d565b600060208284031215614732578081fd5b81516112f181614e8d565b600080600080600080600060e0888a031215614757578081fd5b8735965060208089013561476a81614e78565b9650604089013561477a81614e78565b955060608901356001600160401b0380821115614795578384fd5b818b0191508b601f8301126147a8578384fd5b81356147b66142b882614e4f565b8082825285820191508585018f8788860288010111156147d4578788fd5b8795505b838610156147f65780358352600195909501949186019186016147d8565b509850505060808b0135955060a08b0135945060c08b013592508083111561481c578384fd5b505061482a8a828b01614308565b91505092959891949750929550565b60006020828403121561484a578081fd5b81356001600160e01b0319811681146112f1578182fd5b600060208284031215614872578081fd5b81516112f181614e78565b60006020828403121561488e578081fd5b81516112f181614e9b565b6000806000606084860312156148ad578081fd5b83516148b881614e9b565b60208501519093506001600160401b038111156148d3578182fd5b61457c8682870161429a565b600080604083850312156148f1578182fd5b82516148fc81614e9b565b6020939093015192949293505050565b600080600060608486031215614920578081fd5b835161492b81614e9b565b602085015160409095015190969495509392505050565b60008060408385031215614954578182fd5b825161495f81614e9b565b60208401519092506001600160401b0381111561497a578182fd5b6149868582860161429a565b9150509250929050565b6000602082840312156149a1578081fd5b6112f1838361437f565b6000602082840312156149bc578081fd5b5051919050565b6000806000606084860312156149d7578081fd5b83356001600160401b03808211156149ed578283fd5b8186019150610120808389031215614a03578384fd5b614a0c81614e29565b9050614a188884614370565b8152614a27886020850161428f565b6020820152614a39886040850161428f565b6040820152606083013560608201526080830135608082015260a083013560a0820152614a698860c0850161428f565b60c0820152614a7b8860e0850161428f565b60e08201526101008084013583811115614a93578586fd5b614a9f8a828701614308565b9183019190915250976020870135975060409096013595945050505050565b600060208284031215614acf578081fd5b5035919050565b60008060408385031215614ae8578182fd5b50508035926020909101359150565b6000815180845260208085019450808401835b83811015614b2657815187529582019590820190600101614b0a565b509495945050505050565b9182526001600160e01b031916602082015260240190565b6000828483379101908152919050565b61190160f01b81526002810192909252602282015260420190565b6001600160a01b0391909116815260200190565b6020808252825182820181905260009190848201906040850190845b81811015614bc057835183529284019291840191600101614ba4565b50909695505050505050565b6000602082526112f16020830184614af7565b600060408252614bf26040830185614af7565b8281036020840152611f798185614af7565b901515815260200190565b92151583526020830191909152604082015260600190565b90815260200190565b9283526001600160a01b03918216602084015216604082015260600190565b9586526001600160a01b0394851660208701529290931660408501526060840152608083019190915260a082015260c00190565b9485526020850193909352604084019190915260608301526001600160a01b0316608082015260a00190565b93845260ff9290921660208401526040830152606082015260800190565b968752602087019590955260408601939093526060850191909152608084015260a083015260c082015260e00190565b9586526020860194909452604085019290925260608401521515608083015260a082015260c00190565b83815260608101614d3784614e6e565b602082019390935260400152919050565b84815260808101614d5885614e6e565b84602083015283604083015282606083015295945050505050565b838152825160a0820190614d8681614e6e565b806020840152506020840151604083015260408401516060830152826080830152949350505050565b6000602080835283518082850152825b81811015614ddb57858101830151858201604001528201614dbf565b81811115614dec5783604083870101525b50601f01601f1916929092016040019392505050565b600083825260406020830152611c176040830184614af7565b60ff91909116815260200190565b6040518181016001600160401b0381118282101715614e4757600080fd5b604052919050565b60006001600160401b03821115614e64578081fd5b5060209081020190565b6003811061060657fe5b6001600160a01b038116811461060657600080fd5b801515811461060657600080fd5b6004811061060657600080fdfea2646970667358221220cf78b434cdb36d56d26ecf172508bdacc8a4a33dd5650f70d0cea2032cf866f664736f6c63430007010033",
  "linkReferences": {
    "@koil-finance/pool-utils/contracts/oracle/QueryProcessor.sol": {
      "QueryProcessor": [
        {
          "length": 20,
          "start": 7896
        },
        {
          "length": 20,
          "start": 10005
        },
        {
          "length": 20,
          "start": 13272
        }
      ]
    }
  },
  "deployedLinkReferences": {}
}